{
	"smartwallet/struct-mapping.sol": {
		"dataStructure": {
			"abi": [
				{
					"inputs": [
						{
							"internalType": "address",
							"name": "_address",
							"type": "address"
						},
						{
							"internalType": "string",
							"name": "_name",
							"type": "string"
						},
						{
							"internalType": "uint256",
							"name": "_age",
							"type": "uint256"
						}
					],
					"name": "addPerson",
					"outputs": [],
					"stateMutability": "nonpayable",
					"type": "function"
				},
				{
					"inputs": [
						{
							"internalType": "address",
							"name": "_address",
							"type": "address"
						}
					],
					"name": "getPerson",
					"outputs": [
						{
							"internalType": "string",
							"name": "",
							"type": "string"
						},
						{
							"internalType": "uint256",
							"name": "",
							"type": "uint256"
						}
					],
					"stateMutability": "view",
					"type": "function"
				},
				{
					"inputs": [
						{
							"internalType": "address",
							"name": "",
							"type": "address"
						}
					],
					"name": "people",
					"outputs": [
						{
							"internalType": "string",
							"name": "name",
							"type": "string"
						},
						{
							"internalType": "uint256",
							"name": "age",
							"type": "uint256"
						}
					],
					"stateMutability": "view",
					"type": "function"
				}
			],
			"devdoc": {
				"kind": "dev",
				"methods": {},
				"version": 1
			},
			"evm": {
				"assembly": "    /* \"smartwallet/struct-mapping.sol\":56:627  contract dataStructure{... */\n  mstore(0x40, 0x80)\n  callvalue\n  dup1\n  iszero\n  tag_1\n  jumpi\n  0x00\n  dup1\n  revert\ntag_1:\n  pop\n  dataSize(sub_0)\n  dup1\n  dataOffset(sub_0)\n  0x00\n  codecopy\n  0x00\n  return\nstop\n\nsub_0: assembly {\n        /* \"smartwallet/struct-mapping.sol\":56:627  contract dataStructure{... */\n      mstore(0x40, 0x80)\n      callvalue\n      dup1\n      iszero\n      tag_1\n      jumpi\n      0x00\n      dup1\n      revert\n    tag_1:\n      pop\n      jumpi(tag_2, lt(calldatasize, 0x04))\n      shr(0xe0, calldataload(0x00))\n      dup1\n      0x07de9735\n      eq\n      tag_3\n      jumpi\n      dup1\n      0x552d2d5c\n      eq\n      tag_4\n      jumpi\n      dup1\n      0x6c57d814\n      eq\n      tag_5\n      jumpi\n    tag_2:\n      0x00\n      dup1\n      revert\n        /* \"smartwallet/struct-mapping.sol\":131:171  mapping(address => Person) public people */\n    tag_3:\n      tag_6\n      0x04\n      dup1\n      calldatasize\n      sub\n      dup2\n      add\n      swap1\n      tag_7\n      swap2\n      swap1\n      tag_8\n      jump\t// in\n    tag_7:\n      tag_9\n      jump\t// in\n    tag_6:\n      mload(0x40)\n      tag_10\n      swap3\n      swap2\n      swap1\n      tag_11\n      jump\t// in\n    tag_10:\n      mload(0x40)\n      dup1\n      swap2\n      sub\n      swap1\n      return\n        /* \"smartwallet/struct-mapping.sol\":462:624  function getPerson(address _address) public view returns(string memory, uint){... */\n    tag_4:\n      tag_12\n      0x04\n      dup1\n      calldatasize\n      sub\n      dup2\n      add\n      swap1\n      tag_13\n      swap2\n      swap1\n      tag_8\n      jump\t// in\n    tag_13:\n      tag_14\n      jump\t// in\n    tag_12:\n      mload(0x40)\n      tag_15\n      swap3\n      swap2\n      swap1\n      tag_11\n      jump\t// in\n    tag_15:\n      mload(0x40)\n      dup1\n      swap2\n      sub\n      swap1\n      return\n        /* \"smartwallet/struct-mapping.sol\":175:460  function addPerson (address _address, string memory _name, uint _age) public {... */\n    tag_5:\n      tag_16\n      0x04\n      dup1\n      calldatasize\n      sub\n      dup2\n      add\n      swap1\n      tag_17\n      swap2\n      swap1\n      tag_18\n      jump\t// in\n    tag_17:\n      tag_19\n      jump\t// in\n    tag_16:\n      stop\n        /* \"smartwallet/struct-mapping.sol\":131:171  mapping(address => Person) public people */\n    tag_9:\n      mstore(0x20, 0x00)\n      dup1\n      0x00\n      mstore\n      keccak256(0x00, 0x40)\n      0x00\n      swap2\n      pop\n      swap1\n      pop\n      dup1\n      0x00\n      add\n      dup1\n      sload\n      tag_20\n      swap1\n      tag_21\n      jump\t// in\n    tag_20:\n      dup1\n      0x1f\n      add\n      0x20\n      dup1\n      swap2\n      div\n      mul\n      0x20\n      add\n      mload(0x40)\n      swap1\n      dup2\n      add\n      0x40\n      mstore\n      dup1\n      swap3\n      swap2\n      swap1\n      dup2\n      dup2\n      mstore\n      0x20\n      add\n      dup3\n      dup1\n      sload\n      tag_22\n      swap1\n      tag_21\n      jump\t// in\n    tag_22:\n      dup1\n      iszero\n      tag_23\n      jumpi\n      dup1\n      0x1f\n      lt\n      tag_24\n      jumpi\n      0x0100\n      dup1\n      dup4\n      sload\n      div\n      mul\n      dup4\n      mstore\n      swap2\n      0x20\n      add\n      swap2\n      jump(tag_23)\n    tag_24:\n      dup3\n      add\n      swap2\n      swap1\n      0x00\n      mstore\n      keccak256(0x00, 0x20)\n      swap1\n    tag_25:\n      dup2\n      sload\n      dup2\n      mstore\n      swap1\n      0x01\n      add\n      swap1\n      0x20\n      add\n      dup1\n      dup4\n      gt\n      tag_25\n      jumpi\n      dup3\n      swap1\n      sub\n      0x1f\n      and\n      dup3\n      add\n      swap2\n    tag_23:\n      pop\n      pop\n      pop\n      pop\n      pop\n      swap1\n      dup1\n      0x01\n      add\n      sload\n      swap1\n      pop\n      dup3\n      jump\t// out\n        /* \"smartwallet/struct-mapping.sol\":462:624  function getPerson(address _address) public view returns(string memory, uint){... */\n    tag_14:\n        /* \"smartwallet/struct-mapping.sol\":519:532  string memory */\n      0x60\n        /* \"smartwallet/struct-mapping.sol\":534:538  uint */\n      0x00\n        /* \"smartwallet/struct-mapping.sol\":545:565  Person memory person */\n      dup1\n        /* \"smartwallet/struct-mapping.sol\":568:574  people */\n      0x00\n        /* \"smartwallet/struct-mapping.sol\":568:584  people[_address] */\n      dup1\n        /* \"smartwallet/struct-mapping.sol\":575:583  _address */\n      dup6\n        /* \"smartwallet/struct-mapping.sol\":568:584  people[_address] */\n      0xffffffffffffffffffffffffffffffffffffffff\n      and\n      0xffffffffffffffffffffffffffffffffffffffff\n      and\n      dup2\n      mstore\n      0x20\n      add\n      swap1\n      dup2\n      mstore\n      0x20\n      add\n      0x00\n      keccak256\n        /* \"smartwallet/struct-mapping.sol\":545:584  Person memory person = people[_address] */\n      mload(0x40)\n      dup1\n      0x40\n      add\n      0x40\n      mstore\n      swap1\n      dup2\n      0x00\n      dup3\n      add\n      dup1\n      sload\n      tag_27\n      swap1\n      tag_21\n      jump\t// in\n    tag_27:\n      dup1\n      0x1f\n      add\n      0x20\n      dup1\n      swap2\n      div\n      mul\n      0x20\n      add\n      mload(0x40)\n      swap1\n      dup2\n      add\n      0x40\n      mstore\n      dup1\n      swap3\n      swap2\n      swap1\n      dup2\n      dup2\n      mstore\n      0x20\n      add\n      dup3\n      dup1\n      sload\n      tag_28\n      swap1\n      tag_21\n      jump\t// in\n    tag_28:\n      dup1\n      iszero\n      tag_29\n      jumpi\n      dup1\n      0x1f\n      lt\n      tag_30\n      jumpi\n      0x0100\n      dup1\n      dup4\n      sload\n      div\n      mul\n      dup4\n      mstore\n      swap2\n      0x20\n      add\n      swap2\n      jump(tag_29)\n    tag_30:\n      dup3\n      add\n      swap2\n      swap1\n      0x00\n      mstore\n      keccak256(0x00, 0x20)\n      swap1\n    tag_31:\n      dup2\n      sload\n      dup2\n      mstore\n      swap1\n      0x01\n      add\n      swap1\n      0x20\n      add\n      dup1\n      dup4\n      gt\n      tag_31\n      jumpi\n      dup3\n      swap1\n      sub\n      0x1f\n      and\n      dup3\n      add\n      swap2\n    tag_29:\n      pop\n      pop\n      pop\n      pop\n      pop\n      dup2\n      mstore\n      0x20\n      add\n      0x01\n      dup3\n      add\n      sload\n      dup2\n      mstore\n      pop\n      pop\n      swap1\n      pop\n        /* \"smartwallet/struct-mapping.sol\":597:603  person */\n      dup1\n        /* \"smartwallet/struct-mapping.sol\":597:608  person.name */\n      0x00\n      add\n      mload\n        /* \"smartwallet/struct-mapping.sol\":610:616  person */\n      dup2\n        /* \"smartwallet/struct-mapping.sol\":610:620  person.age */\n      0x20\n      add\n      mload\n        /* \"smartwallet/struct-mapping.sol\":590:621  return(person.name, person.age) */\n      swap3\n      pop\n      swap3\n      pop\n      pop\n        /* \"smartwallet/struct-mapping.sol\":462:624  function getPerson(address _address) public view returns(string memory, uint){... */\n      swap2\n      pop\n      swap2\n      jump\t// out\n        /* \"smartwallet/struct-mapping.sol\":175:460  function addPerson (address _address, string memory _name, uint _age) public {... */\n    tag_19:\n        /* \"smartwallet/struct-mapping.sol\":292:315  Person memory newPerson */\n      0x00\n        /* \"smartwallet/struct-mapping.sol\":318:337  Person(_name, _age) */\n      mload(0x40)\n      dup1\n      0x40\n      add\n      0x40\n      mstore\n      dup1\n        /* \"smartwallet/struct-mapping.sol\":325:330  _name */\n      dup5\n        /* \"smartwallet/struct-mapping.sol\":318:337  Person(_name, _age) */\n      dup2\n      mstore\n      0x20\n      add\n        /* \"smartwallet/struct-mapping.sol\":332:336  _age */\n      dup4\n        /* \"smartwallet/struct-mapping.sol\":318:337  Person(_name, _age) */\n      dup2\n      mstore\n      pop\n        /* \"smartwallet/struct-mapping.sol\":292:337  Person memory newPerson = Person(_name, _age) */\n      swap1\n      pop\n        /* \"smartwallet/struct-mapping.sol\":448:457  newPerson */\n      dup1\n        /* \"smartwallet/struct-mapping.sol\":429:435  people */\n      0x00\n        /* \"smartwallet/struct-mapping.sol\":429:445  people[_address] */\n      dup1\n        /* \"smartwallet/struct-mapping.sol\":436:444  _address */\n      dup7\n        /* \"smartwallet/struct-mapping.sol\":429:445  people[_address] */\n      0xffffffffffffffffffffffffffffffffffffffff\n      and\n      0xffffffffffffffffffffffffffffffffffffffff\n      and\n      dup2\n      mstore\n      0x20\n      add\n      swap1\n      dup2\n      mstore\n      0x20\n      add\n      0x00\n      keccak256\n        /* \"smartwallet/struct-mapping.sol\":429:457  people[_address] = newPerson */\n      0x00\n      dup3\n      add\n      mload\n      dup2\n      0x00\n      add\n      swap1\n      dup2\n      tag_33\n      swap2\n      swap1\n      tag_34\n      jump\t// in\n    tag_33:\n      pop\n      0x20\n      dup3\n      add\n      mload\n      dup2\n      0x01\n      add\n      sstore\n      swap1\n      pop\n      pop\n        /* \"smartwallet/struct-mapping.sol\":252:460  {... */\n      pop\n        /* \"smartwallet/struct-mapping.sol\":175:460  function addPerson (address _address, string memory _name, uint _age) public {... */\n      pop\n      pop\n      pop\n      jump\t// out\n        /* \"#utility.yul\":7:82   */\n    tag_35:\n        /* \"#utility.yul\":40:46   */\n      0x00\n        /* \"#utility.yul\":73:75   */\n      0x40\n        /* \"#utility.yul\":67:76   */\n      mload\n        /* \"#utility.yul\":57:76   */\n      swap1\n      pop\n        /* \"#utility.yul\":7:82   */\n      swap1\n      jump\t// out\n        /* \"#utility.yul\":88:205   */\n    tag_36:\n        /* \"#utility.yul\":197:198   */\n      0x00\n        /* \"#utility.yul\":194:195   */\n      dup1\n        /* \"#utility.yul\":187:199   */\n      revert\n        /* \"#utility.yul\":211:328   */\n    tag_37:\n        /* \"#utility.yul\":320:321   */\n      0x00\n        /* \"#utility.yul\":317:318   */\n      dup1\n        /* \"#utility.yul\":310:322   */\n      revert\n        /* \"#utility.yul\":334:460   */\n    tag_38:\n        /* \"#utility.yul\":371:378   */\n      0x00\n        /* \"#utility.yul\":411:453   */\n      0xffffffffffffffffffffffffffffffffffffffff\n        /* \"#utility.yul\":404:409   */\n      dup3\n        /* \"#utility.yul\":400:454   */\n      and\n        /* \"#utility.yul\":389:454   */\n      swap1\n      pop\n        /* \"#utility.yul\":334:460   */\n      swap2\n      swap1\n      pop\n      jump\t// out\n        /* \"#utility.yul\":466:562   */\n    tag_39:\n        /* \"#utility.yul\":503:510   */\n      0x00\n        /* \"#utility.yul\":532:556   */\n      tag_82\n        /* \"#utility.yul\":550:555   */\n      dup3\n        /* \"#utility.yul\":532:556   */\n      tag_38\n      jump\t// in\n    tag_82:\n        /* \"#utility.yul\":521:556   */\n      swap1\n      pop\n        /* \"#utility.yul\":466:562   */\n      swap2\n      swap1\n      pop\n      jump\t// out\n        /* \"#utility.yul\":568:690   */\n    tag_40:\n        /* \"#utility.yul\":641:665   */\n      tag_84\n        /* \"#utility.yul\":659:664   */\n      dup2\n        /* \"#utility.yul\":641:665   */\n      tag_39\n      jump\t// in\n    tag_84:\n        /* \"#utility.yul\":634:639   */\n      dup2\n        /* \"#utility.yul\":631:666   */\n      eq\n        /* \"#utility.yul\":621:684   */\n      tag_85\n      jumpi\n        /* \"#utility.yul\":680:681   */\n      0x00\n        /* \"#utility.yul\":677:678   */\n      dup1\n        /* \"#utility.yul\":670:682   */\n      revert\n        /* \"#utility.yul\":621:684   */\n    tag_85:\n        /* \"#utility.yul\":568:690   */\n      pop\n      jump\t// out\n        /* \"#utility.yul\":696:835   */\n    tag_41:\n        /* \"#utility.yul\":742:747   */\n      0x00\n        /* \"#utility.yul\":780:786   */\n      dup2\n        /* \"#utility.yul\":767:787   */\n      calldataload\n        /* \"#utility.yul\":758:787   */\n      swap1\n      pop\n        /* \"#utility.yul\":796:829   */\n      tag_87\n        /* \"#utility.yul\":823:828   */\n      dup2\n        /* \"#utility.yul\":796:829   */\n      tag_40\n      jump\t// in\n    tag_87:\n        /* \"#utility.yul\":696:835   */\n      swap3\n      swap2\n      pop\n      pop\n      jump\t// out\n        /* \"#utility.yul\":841:1170   */\n    tag_8:\n        /* \"#utility.yul\":900:906   */\n      0x00\n        /* \"#utility.yul\":949:951   */\n      0x20\n        /* \"#utility.yul\":937:946   */\n      dup3\n        /* \"#utility.yul\":928:935   */\n      dup5\n        /* \"#utility.yul\":924:947   */\n      sub\n        /* \"#utility.yul\":920:952   */\n      slt\n        /* \"#utility.yul\":917:1036   */\n      iszero\n      tag_89\n      jumpi\n        /* \"#utility.yul\":955:1034   */\n      tag_90\n      tag_36\n      jump\t// in\n    tag_90:\n        /* \"#utility.yul\":917:1036   */\n    tag_89:\n        /* \"#utility.yul\":1075:1076   */\n      0x00\n        /* \"#utility.yul\":1100:1153   */\n      tag_91\n        /* \"#utility.yul\":1145:1152   */\n      dup5\n        /* \"#utility.yul\":1136:1142   */\n      dup3\n        /* \"#utility.yul\":1125:1134   */\n      dup6\n        /* \"#utility.yul\":1121:1143   */\n      add\n        /* \"#utility.yul\":1100:1153   */\n      tag_41\n      jump\t// in\n    tag_91:\n        /* \"#utility.yul\":1090:1153   */\n      swap2\n      pop\n        /* \"#utility.yul\":1046:1163   */\n      pop\n        /* \"#utility.yul\":841:1170   */\n      swap3\n      swap2\n      pop\n      pop\n      jump\t// out\n        /* \"#utility.yul\":1176:1275   */\n    tag_42:\n        /* \"#utility.yul\":1228:1234   */\n      0x00\n        /* \"#utility.yul\":1262:1267   */\n      dup2\n        /* \"#utility.yul\":1256:1268   */\n      mload\n        /* \"#utility.yul\":1246:1268   */\n      swap1\n      pop\n        /* \"#utility.yul\":1176:1275   */\n      swap2\n      swap1\n      pop\n      jump\t// out\n        /* \"#utility.yul\":1281:1450   */\n    tag_43:\n        /* \"#utility.yul\":1365:1376   */\n      0x00\n        /* \"#utility.yul\":1399:1405   */\n      dup3\n        /* \"#utility.yul\":1394:1397   */\n      dup3\n        /* \"#utility.yul\":1387:1406   */\n      mstore\n        /* \"#utility.yul\":1439:1443   */\n      0x20\n        /* \"#utility.yul\":1434:1437   */\n      dup3\n        /* \"#utility.yul\":1430:1444   */\n      add\n        /* \"#utility.yul\":1415:1444   */\n      swap1\n      pop\n        /* \"#utility.yul\":1281:1450   */\n      swap3\n      swap2\n      pop\n      pop\n      jump\t// out\n        /* \"#utility.yul\":1456:1702   */\n    tag_44:\n        /* \"#utility.yul\":1537:1538   */\n      0x00\n        /* \"#utility.yul\":1547:1660   */\n    tag_95:\n        /* \"#utility.yul\":1561:1567   */\n      dup4\n        /* \"#utility.yul\":1558:1559   */\n      dup2\n        /* \"#utility.yul\":1555:1568   */\n      lt\n        /* \"#utility.yul\":1547:1660   */\n      iszero\n      tag_97\n      jumpi\n        /* \"#utility.yul\":1646:1647   */\n      dup1\n        /* \"#utility.yul\":1641:1644   */\n      dup3\n        /* \"#utility.yul\":1637:1648   */\n      add\n        /* \"#utility.yul\":1631:1649   */\n      mload\n        /* \"#utility.yul\":1627:1628   */\n      dup2\n        /* \"#utility.yul\":1622:1625   */\n      dup5\n        /* \"#utility.yul\":1618:1629   */\n      add\n        /* \"#utility.yul\":1611:1650   */\n      mstore\n        /* \"#utility.yul\":1583:1585   */\n      0x20\n        /* \"#utility.yul\":1580:1581   */\n      dup2\n        /* \"#utility.yul\":1576:1586   */\n      add\n        /* \"#utility.yul\":1571:1586   */\n      swap1\n      pop\n        /* \"#utility.yul\":1547:1660   */\n      jump(tag_95)\n    tag_97:\n        /* \"#utility.yul\":1694:1695   */\n      0x00\n        /* \"#utility.yul\":1685:1691   */\n      dup5\n        /* \"#utility.yul\":1680:1683   */\n      dup5\n        /* \"#utility.yul\":1676:1692   */\n      add\n        /* \"#utility.yul\":1669:1696   */\n      mstore\n        /* \"#utility.yul\":1518:1702   */\n      pop\n        /* \"#utility.yul\":1456:1702   */\n      pop\n      pop\n      pop\n      jump\t// out\n        /* \"#utility.yul\":1708:1810   */\n    tag_45:\n        /* \"#utility.yul\":1749:1755   */\n      0x00\n        /* \"#utility.yul\":1800:1802   */\n      0x1f\n        /* \"#utility.yul\":1796:1803   */\n      not\n        /* \"#utility.yul\":1791:1793   */\n      0x1f\n        /* \"#utility.yul\":1784:1789   */\n      dup4\n        /* \"#utility.yul\":1780:1794   */\n      add\n        /* \"#utility.yul\":1776:1804   */\n      and\n        /* \"#utility.yul\":1766:1804   */\n      swap1\n      pop\n        /* \"#utility.yul\":1708:1810   */\n      swap2\n      swap1\n      pop\n      jump\t// out\n        /* \"#utility.yul\":1816:2193   */\n    tag_46:\n        /* \"#utility.yul\":1904:1907   */\n      0x00\n        /* \"#utility.yul\":1932:1971   */\n      tag_100\n        /* \"#utility.yul\":1965:1970   */\n      dup3\n        /* \"#utility.yul\":1932:1971   */\n      tag_42\n      jump\t// in\n    tag_100:\n        /* \"#utility.yul\":1987:2058   */\n      tag_101\n        /* \"#utility.yul\":2051:2057   */\n      dup2\n        /* \"#utility.yul\":2046:2049   */\n      dup6\n        /* \"#utility.yul\":1987:2058   */\n      tag_43\n      jump\t// in\n    tag_101:\n        /* \"#utility.yul\":1980:2058   */\n      swap4\n      pop\n        /* \"#utility.yul\":2067:2132   */\n      tag_102\n        /* \"#utility.yul\":2125:2131   */\n      dup2\n        /* \"#utility.yul\":2120:2123   */\n      dup6\n        /* \"#utility.yul\":2113:2117   */\n      0x20\n        /* \"#utility.yul\":2106:2111   */\n      dup7\n        /* \"#utility.yul\":2102:2118   */\n      add\n        /* \"#utility.yul\":2067:2132   */\n      tag_44\n      jump\t// in\n    tag_102:\n        /* \"#utility.yul\":2157:2186   */\n      tag_103\n        /* \"#utility.yul\":2179:2185   */\n      dup2\n        /* \"#utility.yul\":2157:2186   */\n      tag_45\n      jump\t// in\n    tag_103:\n        /* \"#utility.yul\":2152:2155   */\n      dup5\n        /* \"#utility.yul\":2148:2187   */\n      add\n        /* \"#utility.yul\":2141:2187   */\n      swap2\n      pop\n        /* \"#utility.yul\":1908:2193   */\n      pop\n        /* \"#utility.yul\":1816:2193   */\n      swap3\n      swap2\n      pop\n      pop\n      jump\t// out\n        /* \"#utility.yul\":2199:2276   */\n    tag_47:\n        /* \"#utility.yul\":2236:2243   */\n      0x00\n        /* \"#utility.yul\":2265:2270   */\n      dup2\n        /* \"#utility.yul\":2254:2270   */\n      swap1\n      pop\n        /* \"#utility.yul\":2199:2276   */\n      swap2\n      swap1\n      pop\n      jump\t// out\n        /* \"#utility.yul\":2282:2400   */\n    tag_48:\n        /* \"#utility.yul\":2369:2393   */\n      tag_106\n        /* \"#utility.yul\":2387:2392   */\n      dup2\n        /* \"#utility.yul\":2369:2393   */\n      tag_47\n      jump\t// in\n    tag_106:\n        /* \"#utility.yul\":2364:2367   */\n      dup3\n        /* \"#utility.yul\":2357:2394   */\n      mstore\n        /* \"#utility.yul\":2282:2400   */\n      pop\n      pop\n      jump\t// out\n        /* \"#utility.yul\":2406:2829   */\n    tag_11:\n        /* \"#utility.yul\":2547:2551   */\n      0x00\n        /* \"#utility.yul\":2585:2587   */\n      0x40\n        /* \"#utility.yul\":2574:2583   */\n      dup3\n        /* \"#utility.yul\":2570:2588   */\n      add\n        /* \"#utility.yul\":2562:2588   */\n      swap1\n      pop\n        /* \"#utility.yul\":2634:2643   */\n      dup2\n        /* \"#utility.yul\":2628:2632   */\n      dup2\n        /* \"#utility.yul\":2624:2644   */\n      sub\n        /* \"#utility.yul\":2620:2621   */\n      0x00\n        /* \"#utility.yul\":2609:2618   */\n      dup4\n        /* \"#utility.yul\":2605:2622   */\n      add\n        /* \"#utility.yul\":2598:2645   */\n      mstore\n        /* \"#utility.yul\":2662:2740   */\n      tag_108\n        /* \"#utility.yul\":2735:2739   */\n      dup2\n        /* \"#utility.yul\":2726:2732   */\n      dup6\n        /* \"#utility.yul\":2662:2740   */\n      tag_46\n      jump\t// in\n    tag_108:\n        /* \"#utility.yul\":2654:2740   */\n      swap1\n      pop\n        /* \"#utility.yul\":2750:2822   */\n      tag_109\n        /* \"#utility.yul\":2818:2820   */\n      0x20\n        /* \"#utility.yul\":2807:2816   */\n      dup4\n        /* \"#utility.yul\":2803:2821   */\n      add\n        /* \"#utility.yul\":2794:2800   */\n      dup5\n        /* \"#utility.yul\":2750:2822   */\n      tag_48\n      jump\t// in\n    tag_109:\n        /* \"#utility.yul\":2406:2829   */\n      swap4\n      swap3\n      pop\n      pop\n      pop\n      jump\t// out\n        /* \"#utility.yul\":2835:2952   */\n    tag_49:\n        /* \"#utility.yul\":2944:2945   */\n      0x00\n        /* \"#utility.yul\":2941:2942   */\n      dup1\n        /* \"#utility.yul\":2934:2946   */\n      revert\n        /* \"#utility.yul\":2958:3075   */\n    tag_50:\n        /* \"#utility.yul\":3067:3068   */\n      0x00\n        /* \"#utility.yul\":3064:3065   */\n      dup1\n        /* \"#utility.yul\":3057:3069   */\n      revert\n        /* \"#utility.yul\":3081:3261   */\n    tag_51:\n        /* \"#utility.yul\":3129:3206   */\n      0x4e487b7100000000000000000000000000000000000000000000000000000000\n        /* \"#utility.yul\":3126:3127   */\n      0x00\n        /* \"#utility.yul\":3119:3207   */\n      mstore\n        /* \"#utility.yul\":3226:3230   */\n      0x41\n        /* \"#utility.yul\":3223:3224   */\n      0x04\n        /* \"#utility.yul\":3216:3231   */\n      mstore\n        /* \"#utility.yul\":3250:3254   */\n      0x24\n        /* \"#utility.yul\":3247:3248   */\n      0x00\n        /* \"#utility.yul\":3240:3255   */\n      revert\n        /* \"#utility.yul\":3267:3548   */\n    tag_52:\n        /* \"#utility.yul\":3350:3377   */\n      tag_114\n        /* \"#utility.yul\":3372:3376   */\n      dup3\n        /* \"#utility.yul\":3350:3377   */\n      tag_45\n      jump\t// in\n    tag_114:\n        /* \"#utility.yul\":3342:3348   */\n      dup2\n        /* \"#utility.yul\":3338:3378   */\n      add\n        /* \"#utility.yul\":3480:3486   */\n      dup2\n        /* \"#utility.yul\":3468:3478   */\n      dup2\n        /* \"#utility.yul\":3465:3487   */\n      lt\n        /* \"#utility.yul\":3444:3462   */\n      0xffffffffffffffff\n        /* \"#utility.yul\":3432:3442   */\n      dup3\n        /* \"#utility.yul\":3429:3463   */\n      gt\n        /* \"#utility.yul\":3426:3488   */\n      or\n        /* \"#utility.yul\":3423:3511   */\n      iszero\n      tag_115\n      jumpi\n        /* \"#utility.yul\":3491:3509   */\n      tag_116\n      tag_51\n      jump\t// in\n    tag_116:\n        /* \"#utility.yul\":3423:3511   */\n    tag_115:\n        /* \"#utility.yul\":3531:3541   */\n      dup1\n        /* \"#utility.yul\":3527:3529   */\n      0x40\n        /* \"#utility.yul\":3520:3542   */\n      mstore\n        /* \"#utility.yul\":3310:3548   */\n      pop\n        /* \"#utility.yul\":3267:3548   */\n      pop\n      pop\n      jump\t// out\n        /* \"#utility.yul\":3554:3683   */\n    tag_53:\n        /* \"#utility.yul\":3588:3594   */\n      0x00\n        /* \"#utility.yul\":3615:3635   */\n      tag_118\n      tag_35\n      jump\t// in\n    tag_118:\n        /* \"#utility.yul\":3605:3635   */\n      swap1\n      pop\n        /* \"#utility.yul\":3644:3677   */\n      tag_119\n        /* \"#utility.yul\":3672:3676   */\n      dup3\n        /* \"#utility.yul\":3664:3670   */\n      dup3\n        /* \"#utility.yul\":3644:3677   */\n      tag_52\n      jump\t// in\n    tag_119:\n        /* \"#utility.yul\":3554:3683   */\n      swap2\n      swap1\n      pop\n      jump\t// out\n        /* \"#utility.yul\":3689:3997   */\n    tag_54:\n        /* \"#utility.yul\":3751:3755   */\n      0x00\n        /* \"#utility.yul\":3841:3859   */\n      0xffffffffffffffff\n        /* \"#utility.yul\":3833:3839   */\n      dup3\n        /* \"#utility.yul\":3830:3860   */\n      gt\n        /* \"#utility.yul\":3827:3883   */\n      iszero\n      tag_121\n      jumpi\n        /* \"#utility.yul\":3863:3881   */\n      tag_122\n      tag_51\n      jump\t// in\n    tag_122:\n        /* \"#utility.yul\":3827:3883   */\n    tag_121:\n        /* \"#utility.yul\":3901:3930   */\n      tag_123\n        /* \"#utility.yul\":3923:3929   */\n      dup3\n        /* \"#utility.yul\":3901:3930   */\n      tag_45\n      jump\t// in\n    tag_123:\n        /* \"#utility.yul\":3893:3930   */\n      swap1\n      pop\n        /* \"#utility.yul\":3985:3989   */\n      0x20\n        /* \"#utility.yul\":3979:3983   */\n      dup2\n        /* \"#utility.yul\":3975:3990   */\n      add\n        /* \"#utility.yul\":3967:3990   */\n      swap1\n      pop\n        /* \"#utility.yul\":3689:3997   */\n      swap2\n      swap1\n      pop\n      jump\t// out\n        /* \"#utility.yul\":4003:4149   */\n    tag_55:\n        /* \"#utility.yul\":4100:4106   */\n      dup3\n        /* \"#utility.yul\":4095:4098   */\n      dup2\n        /* \"#utility.yul\":4090:4093   */\n      dup4\n        /* \"#utility.yul\":4077:4107   */\n      calldatacopy\n        /* \"#utility.yul\":4141:4142   */\n      0x00\n        /* \"#utility.yul\":4132:4138   */\n      dup4\n        /* \"#utility.yul\":4127:4130   */\n      dup4\n        /* \"#utility.yul\":4123:4139   */\n      add\n        /* \"#utility.yul\":4116:4143   */\n      mstore\n        /* \"#utility.yul\":4003:4149   */\n      pop\n      pop\n      pop\n      jump\t// out\n        /* \"#utility.yul\":4155:4580   */\n    tag_56:\n        /* \"#utility.yul\":4233:4238   */\n      0x00\n        /* \"#utility.yul\":4258:4324   */\n      tag_126\n        /* \"#utility.yul\":4274:4323   */\n      tag_127\n        /* \"#utility.yul\":4316:4322   */\n      dup5\n        /* \"#utility.yul\":4274:4323   */\n      tag_54\n      jump\t// in\n    tag_127:\n        /* \"#utility.yul\":4258:4324   */\n      tag_53\n      jump\t// in\n    tag_126:\n        /* \"#utility.yul\":4249:4324   */\n      swap1\n      pop\n        /* \"#utility.yul\":4347:4353   */\n      dup3\n        /* \"#utility.yul\":4340:4345   */\n      dup2\n        /* \"#utility.yul\":4333:4354   */\n      mstore\n        /* \"#utility.yul\":4385:4389   */\n      0x20\n        /* \"#utility.yul\":4378:4383   */\n      dup2\n        /* \"#utility.yul\":4374:4390   */\n      add\n        /* \"#utility.yul\":4423:4426   */\n      dup5\n        /* \"#utility.yul\":4414:4420   */\n      dup5\n        /* \"#utility.yul\":4409:4412   */\n      dup5\n        /* \"#utility.yul\":4405:4421   */\n      add\n        /* \"#utility.yul\":4402:4427   */\n      gt\n        /* \"#utility.yul\":4399:4511   */\n      iszero\n      tag_128\n      jumpi\n        /* \"#utility.yul\":4430:4509   */\n      tag_129\n      tag_50\n      jump\t// in\n    tag_129:\n        /* \"#utility.yul\":4399:4511   */\n    tag_128:\n        /* \"#utility.yul\":4520:4574   */\n      tag_130\n        /* \"#utility.yul\":4567:4573   */\n      dup5\n        /* \"#utility.yul\":4562:4565   */\n      dup3\n        /* \"#utility.yul\":4557:4560   */\n      dup6\n        /* \"#utility.yul\":4520:4574   */\n      tag_55\n      jump\t// in\n    tag_130:\n        /* \"#utility.yul\":4239:4580   */\n      pop\n        /* \"#utility.yul\":4155:4580   */\n      swap4\n      swap3\n      pop\n      pop\n      pop\n      jump\t// out\n        /* \"#utility.yul\":4600:4940   */\n    tag_57:\n        /* \"#utility.yul\":4656:4661   */\n      0x00\n        /* \"#utility.yul\":4705:4708   */\n      dup3\n        /* \"#utility.yul\":4698:4702   */\n      0x1f\n        /* \"#utility.yul\":4690:4696   */\n      dup4\n        /* \"#utility.yul\":4686:4703   */\n      add\n        /* \"#utility.yul\":4682:4709   */\n      slt\n        /* \"#utility.yul\":4672:4794   */\n      tag_132\n      jumpi\n        /* \"#utility.yul\":4713:4792   */\n      tag_133\n      tag_49\n      jump\t// in\n    tag_133:\n        /* \"#utility.yul\":4672:4794   */\n    tag_132:\n        /* \"#utility.yul\":4830:4836   */\n      dup2\n        /* \"#utility.yul\":4817:4837   */\n      calldataload\n        /* \"#utility.yul\":4855:4934   */\n      tag_134\n        /* \"#utility.yul\":4930:4933   */\n      dup5\n        /* \"#utility.yul\":4922:4928   */\n      dup3\n        /* \"#utility.yul\":4915:4919   */\n      0x20\n        /* \"#utility.yul\":4907:4913   */\n      dup7\n        /* \"#utility.yul\":4903:4920   */\n      add\n        /* \"#utility.yul\":4855:4934   */\n      tag_56\n      jump\t// in\n    tag_134:\n        /* \"#utility.yul\":4846:4934   */\n      swap2\n      pop\n        /* \"#utility.yul\":4662:4940   */\n      pop\n        /* \"#utility.yul\":4600:4940   */\n      swap3\n      swap2\n      pop\n      pop\n      jump\t// out\n        /* \"#utility.yul\":4946:5068   */\n    tag_58:\n        /* \"#utility.yul\":5019:5043   */\n      tag_136\n        /* \"#utility.yul\":5037:5042   */\n      dup2\n        /* \"#utility.yul\":5019:5043   */\n      tag_47\n      jump\t// in\n    tag_136:\n        /* \"#utility.yul\":5012:5017   */\n      dup2\n        /* \"#utility.yul\":5009:5044   */\n      eq\n        /* \"#utility.yul\":4999:5062   */\n      tag_137\n      jumpi\n        /* \"#utility.yul\":5058:5059   */\n      0x00\n        /* \"#utility.yul\":5055:5056   */\n      dup1\n        /* \"#utility.yul\":5048:5060   */\n      revert\n        /* \"#utility.yul\":4999:5062   */\n    tag_137:\n        /* \"#utility.yul\":4946:5068   */\n      pop\n      jump\t// out\n        /* \"#utility.yul\":5074:5213   */\n    tag_59:\n        /* \"#utility.yul\":5120:5125   */\n      0x00\n        /* \"#utility.yul\":5158:5164   */\n      dup2\n        /* \"#utility.yul\":5145:5165   */\n      calldataload\n        /* \"#utility.yul\":5136:5165   */\n      swap1\n      pop\n        /* \"#utility.yul\":5174:5207   */\n      tag_139\n        /* \"#utility.yul\":5201:5206   */\n      dup2\n        /* \"#utility.yul\":5174:5207   */\n      tag_58\n      jump\t// in\n    tag_139:\n        /* \"#utility.yul\":5074:5213   */\n      swap3\n      swap2\n      pop\n      pop\n      jump\t// out\n        /* \"#utility.yul\":5219:6018   */\n    tag_18:\n        /* \"#utility.yul\":5306:5312   */\n      0x00\n        /* \"#utility.yul\":5314:5320   */\n      dup1\n        /* \"#utility.yul\":5322:5328   */\n      0x00\n        /* \"#utility.yul\":5371:5373   */\n      0x60\n        /* \"#utility.yul\":5359:5368   */\n      dup5\n        /* \"#utility.yul\":5350:5357   */\n      dup7\n        /* \"#utility.yul\":5346:5369   */\n      sub\n        /* \"#utility.yul\":5342:5374   */\n      slt\n        /* \"#utility.yul\":5339:5458   */\n      iszero\n      tag_141\n      jumpi\n        /* \"#utility.yul\":5377:5456   */\n      tag_142\n      tag_36\n      jump\t// in\n    tag_142:\n        /* \"#utility.yul\":5339:5458   */\n    tag_141:\n        /* \"#utility.yul\":5497:5498   */\n      0x00\n        /* \"#utility.yul\":5522:5575   */\n      tag_143\n        /* \"#utility.yul\":5567:5574   */\n      dup7\n        /* \"#utility.yul\":5558:5564   */\n      dup3\n        /* \"#utility.yul\":5547:5556   */\n      dup8\n        /* \"#utility.yul\":5543:5565   */\n      add\n        /* \"#utility.yul\":5522:5575   */\n      tag_41\n      jump\t// in\n    tag_143:\n        /* \"#utility.yul\":5512:5575   */\n      swap4\n      pop\n        /* \"#utility.yul\":5468:5585   */\n      pop\n        /* \"#utility.yul\":5652:5654   */\n      0x20\n        /* \"#utility.yul\":5641:5650   */\n      dup5\n        /* \"#utility.yul\":5637:5655   */\n      add\n        /* \"#utility.yul\":5624:5656   */\n      calldataload\n        /* \"#utility.yul\":5683:5701   */\n      0xffffffffffffffff\n        /* \"#utility.yul\":5675:5681   */\n      dup2\n        /* \"#utility.yul\":5672:5702   */\n      gt\n        /* \"#utility.yul\":5669:5786   */\n      iszero\n      tag_144\n      jumpi\n        /* \"#utility.yul\":5705:5784   */\n      tag_145\n      tag_37\n      jump\t// in\n    tag_145:\n        /* \"#utility.yul\":5669:5786   */\n    tag_144:\n        /* \"#utility.yul\":5810:5873   */\n      tag_146\n        /* \"#utility.yul\":5865:5872   */\n      dup7\n        /* \"#utility.yul\":5856:5862   */\n      dup3\n        /* \"#utility.yul\":5845:5854   */\n      dup8\n        /* \"#utility.yul\":5841:5863   */\n      add\n        /* \"#utility.yul\":5810:5873   */\n      tag_57\n      jump\t// in\n    tag_146:\n        /* \"#utility.yul\":5800:5873   */\n      swap3\n      pop\n        /* \"#utility.yul\":5595:5883   */\n      pop\n        /* \"#utility.yul\":5922:5924   */\n      0x40\n        /* \"#utility.yul\":5948:6001   */\n      tag_147\n        /* \"#utility.yul\":5993:6000   */\n      dup7\n        /* \"#utility.yul\":5984:5990   */\n      dup3\n        /* \"#utility.yul\":5973:5982   */\n      dup8\n        /* \"#utility.yul\":5969:5991   */\n      add\n        /* \"#utility.yul\":5948:6001   */\n      tag_59\n      jump\t// in\n    tag_147:\n        /* \"#utility.yul\":5938:6001   */\n      swap2\n      pop\n        /* \"#utility.yul\":5893:6011   */\n      pop\n        /* \"#utility.yul\":5219:6018   */\n      swap3\n      pop\n      swap3\n      pop\n      swap3\n      jump\t// out\n        /* \"#utility.yul\":6024:6204   */\n    tag_60:\n        /* \"#utility.yul\":6072:6149   */\n      0x4e487b7100000000000000000000000000000000000000000000000000000000\n        /* \"#utility.yul\":6069:6070   */\n      0x00\n        /* \"#utility.yul\":6062:6150   */\n      mstore\n        /* \"#utility.yul\":6169:6173   */\n      0x22\n        /* \"#utility.yul\":6166:6167   */\n      0x04\n        /* \"#utility.yul\":6159:6174   */\n      mstore\n        /* \"#utility.yul\":6193:6197   */\n      0x24\n        /* \"#utility.yul\":6190:6191   */\n      0x00\n        /* \"#utility.yul\":6183:6198   */\n      revert\n        /* \"#utility.yul\":6210:6530   */\n    tag_21:\n        /* \"#utility.yul\":6254:6260   */\n      0x00\n        /* \"#utility.yul\":6291:6292   */\n      0x02\n        /* \"#utility.yul\":6285:6289   */\n      dup3\n        /* \"#utility.yul\":6281:6293   */\n      div\n        /* \"#utility.yul\":6271:6293   */\n      swap1\n      pop\n        /* \"#utility.yul\":6338:6339   */\n      0x01\n        /* \"#utility.yul\":6332:6336   */\n      dup3\n        /* \"#utility.yul\":6328:6340   */\n      and\n        /* \"#utility.yul\":6359:6377   */\n      dup1\n        /* \"#utility.yul\":6349:6430   */\n      tag_150\n      jumpi\n        /* \"#utility.yul\":6415:6419   */\n      0x7f\n        /* \"#utility.yul\":6407:6413   */\n      dup3\n        /* \"#utility.yul\":6403:6420   */\n      and\n        /* \"#utility.yul\":6393:6420   */\n      swap2\n      pop\n        /* \"#utility.yul\":6349:6430   */\n    tag_150:\n        /* \"#utility.yul\":6477:6479   */\n      0x20\n        /* \"#utility.yul\":6469:6475   */\n      dup3\n        /* \"#utility.yul\":6466:6480   */\n      lt\n        /* \"#utility.yul\":6446:6464   */\n      dup2\n        /* \"#utility.yul\":6443:6481   */\n      sub\n        /* \"#utility.yul\":6440:6524   */\n      tag_151\n      jumpi\n        /* \"#utility.yul\":6496:6514   */\n      tag_152\n      tag_60\n      jump\t// in\n    tag_152:\n        /* \"#utility.yul\":6440:6524   */\n    tag_151:\n        /* \"#utility.yul\":6261:6530   */\n      pop\n        /* \"#utility.yul\":6210:6530   */\n      swap2\n      swap1\n      pop\n      jump\t// out\n        /* \"#utility.yul\":6536:6677   */\n    tag_61:\n        /* \"#utility.yul\":6585:6589   */\n      0x00\n        /* \"#utility.yul\":6608:6611   */\n      dup2\n        /* \"#utility.yul\":6600:6611   */\n      swap1\n      pop\n        /* \"#utility.yul\":6631:6634   */\n      dup2\n        /* \"#utility.yul\":6628:6629   */\n      0x00\n        /* \"#utility.yul\":6621:6635   */\n      mstore\n        /* \"#utility.yul\":6665:6669   */\n      0x20\n        /* \"#utility.yul\":6662:6663   */\n      0x00\n        /* \"#utility.yul\":6652:6670   */\n      keccak256\n        /* \"#utility.yul\":6644:6670   */\n      swap1\n      pop\n        /* \"#utility.yul\":6536:6677   */\n      swap2\n      swap1\n      pop\n      jump\t// out\n        /* \"#utility.yul\":6683:6776   */\n    tag_62:\n        /* \"#utility.yul\":6720:6726   */\n      0x00\n        /* \"#utility.yul\":6767:6769   */\n      0x20\n        /* \"#utility.yul\":6762:6764   */\n      0x1f\n        /* \"#utility.yul\":6755:6760   */\n      dup4\n        /* \"#utility.yul\":6751:6765   */\n      add\n        /* \"#utility.yul\":6747:6770   */\n      div\n        /* \"#utility.yul\":6737:6770   */\n      swap1\n      pop\n        /* \"#utility.yul\":6683:6776   */\n      swap2\n      swap1\n      pop\n      jump\t// out\n        /* \"#utility.yul\":6782:6889   */\n    tag_63:\n        /* \"#utility.yul\":6826:6834   */\n      0x00\n        /* \"#utility.yul\":6876:6881   */\n      dup3\n        /* \"#utility.yul\":6870:6874   */\n      dup3\n        /* \"#utility.yul\":6866:6882   */\n      shl\n        /* \"#utility.yul\":6845:6882   */\n      swap1\n      pop\n        /* \"#utility.yul\":6782:6889   */\n      swap3\n      swap2\n      pop\n      pop\n      jump\t// out\n        /* \"#utility.yul\":6895:7288   */\n    tag_64:\n        /* \"#utility.yul\":6964:6970   */\n      0x00\n        /* \"#utility.yul\":7014:7015   */\n      0x08\n        /* \"#utility.yul\":7002:7012   */\n      dup4\n        /* \"#utility.yul\":6998:7016   */\n      mul\n        /* \"#utility.yul\":7037:7134   */\n      tag_157\n        /* \"#utility.yul\":7067:7133   */\n      0xffffffffffffffffffffffffffffffffffffffffffffffffffffffffffffffff\n        /* \"#utility.yul\":7056:7065   */\n      dup3\n        /* \"#utility.yul\":7037:7134   */\n      tag_63\n      jump\t// in\n    tag_157:\n        /* \"#utility.yul\":7155:7194   */\n      tag_158\n        /* \"#utility.yul\":7185:7193   */\n      dup7\n        /* \"#utility.yul\":7174:7183   */\n      dup4\n        /* \"#utility.yul\":7155:7194   */\n      tag_63\n      jump\t// in\n    tag_158:\n        /* \"#utility.yul\":7143:7194   */\n      swap6\n      pop\n        /* \"#utility.yul\":7227:7231   */\n      dup1\n        /* \"#utility.yul\":7223:7232   */\n      not\n        /* \"#utility.yul\":7216:7221   */\n      dup5\n        /* \"#utility.yul\":7212:7233   */\n      and\n        /* \"#utility.yul\":7203:7233   */\n      swap4\n      pop\n        /* \"#utility.yul\":7276:7280   */\n      dup1\n        /* \"#utility.yul\":7266:7274   */\n      dup7\n        /* \"#utility.yul\":7262:7281   */\n      and\n        /* \"#utility.yul\":7255:7260   */\n      dup5\n        /* \"#utility.yul\":7252:7282   */\n      or\n        /* \"#utility.yul\":7242:7282   */\n      swap3\n      pop\n        /* \"#utility.yul\":6971:7288   */\n      pop\n      pop\n        /* \"#utility.yul\":6895:7288   */\n      swap4\n      swap3\n      pop\n      pop\n      pop\n      jump\t// out\n        /* \"#utility.yul\":7294:7354   */\n    tag_65:\n        /* \"#utility.yul\":7322:7325   */\n      0x00\n        /* \"#utility.yul\":7343:7348   */\n      dup2\n        /* \"#utility.yul\":7336:7348   */\n      swap1\n      pop\n        /* \"#utility.yul\":7294:7354   */\n      swap2\n      swap1\n      pop\n      jump\t// out\n        /* \"#utility.yul\":7360:7502   */\n    tag_66:\n        /* \"#utility.yul\":7410:7419   */\n      0x00\n        /* \"#utility.yul\":7443:7496   */\n      tag_161\n        /* \"#utility.yul\":7461:7495   */\n      tag_162\n        /* \"#utility.yul\":7470:7494   */\n      tag_163\n        /* \"#utility.yul\":7488:7493   */\n      dup5\n        /* \"#utility.yul\":7470:7494   */\n      tag_47\n      jump\t// in\n    tag_163:\n        /* \"#utility.yul\":7461:7495   */\n      tag_65\n      jump\t// in\n    tag_162:\n        /* \"#utility.yul\":7443:7496   */\n      tag_47\n      jump\t// in\n    tag_161:\n        /* \"#utility.yul\":7430:7496   */\n      swap1\n      pop\n        /* \"#utility.yul\":7360:7502   */\n      swap2\n      swap1\n      pop\n      jump\t// out\n        /* \"#utility.yul\":7508:7583   */\n    tag_67:\n        /* \"#utility.yul\":7551:7554   */\n      0x00\n        /* \"#utility.yul\":7572:7577   */\n      dup2\n        /* \"#utility.yul\":7565:7577   */\n      swap1\n      pop\n        /* \"#utility.yul\":7508:7583   */\n      swap2\n      swap1\n      pop\n      jump\t// out\n        /* \"#utility.yul\":7589:7858   */\n    tag_68:\n        /* \"#utility.yul\":7699:7738   */\n      tag_166\n        /* \"#utility.yul\":7730:7737   */\n      dup4\n        /* \"#utility.yul\":7699:7738   */\n      tag_66\n      jump\t// in\n    tag_166:\n        /* \"#utility.yul\":7760:7851   */\n      tag_167\n        /* \"#utility.yul\":7809:7850   */\n      tag_168\n        /* \"#utility.yul\":7833:7849   */\n      dup3\n        /* \"#utility.yul\":7809:7850   */\n      tag_67\n      jump\t// in\n    tag_168:\n        /* \"#utility.yul\":7801:7807   */\n      dup5\n        /* \"#utility.yul\":7794:7798   */\n      dup5\n        /* \"#utility.yul\":7788:7799   */\n      sload\n        /* \"#utility.yul\":7760:7851   */\n      tag_64\n      jump\t// in\n    tag_167:\n        /* \"#utility.yul\":7754:7758   */\n      dup3\n        /* \"#utility.yul\":7747:7852   */\n      sstore\n        /* \"#utility.yul\":7665:7858   */\n      pop\n        /* \"#utility.yul\":7589:7858   */\n      pop\n      pop\n      pop\n      jump\t// out\n        /* \"#utility.yul\":7864:7937   */\n    tag_69:\n        /* \"#utility.yul\":7909:7912   */\n      0x00\n        /* \"#utility.yul\":7864:7937   */\n      swap1\n      jump\t// out\n        /* \"#utility.yul\":7943:8132   */\n    tag_70:\n        /* \"#utility.yul\":8020:8052   */\n      tag_171\n      tag_69\n      jump\t// in\n    tag_171:\n        /* \"#utility.yul\":8061:8126   */\n      tag_172\n        /* \"#utility.yul\":8119:8125   */\n      dup2\n        /* \"#utility.yul\":8111:8117   */\n      dup5\n        /* \"#utility.yul\":8105:8109   */\n      dup5\n        /* \"#utility.yul\":8061:8126   */\n      tag_68\n      jump\t// in\n    tag_172:\n        /* \"#utility.yul\":7996:8132   */\n      pop\n        /* \"#utility.yul\":7943:8132   */\n      pop\n      pop\n      jump\t// out\n        /* \"#utility.yul\":8138:8324   */\n    tag_71:\n        /* \"#utility.yul\":8198:8318   */\n    tag_174:\n        /* \"#utility.yul\":8215:8218   */\n      dup2\n        /* \"#utility.yul\":8208:8213   */\n      dup2\n        /* \"#utility.yul\":8205:8219   */\n      lt\n        /* \"#utility.yul\":8198:8318   */\n      iszero\n      tag_176\n      jumpi\n        /* \"#utility.yul\":8269:8308   */\n      tag_177\n        /* \"#utility.yul\":8306:8307   */\n      0x00\n        /* \"#utility.yul\":8299:8304   */\n      dup3\n        /* \"#utility.yul\":8269:8308   */\n      tag_70\n      jump\t// in\n    tag_177:\n        /* \"#utility.yul\":8242:8243   */\n      0x01\n        /* \"#utility.yul\":8235:8240   */\n      dup2\n        /* \"#utility.yul\":8231:8244   */\n      add\n        /* \"#utility.yul\":8222:8244   */\n      swap1\n      pop\n        /* \"#utility.yul\":8198:8318   */\n      jump(tag_174)\n    tag_176:\n        /* \"#utility.yul\":8138:8324   */\n      pop\n      pop\n      jump\t// out\n        /* \"#utility.yul\":8330:8873   */\n    tag_72:\n        /* \"#utility.yul\":8431:8433   */\n      0x1f\n        /* \"#utility.yul\":8426:8429   */\n      dup3\n        /* \"#utility.yul\":8423:8434   */\n      gt\n        /* \"#utility.yul\":8420:8866   */\n      iszero\n      tag_179\n      jumpi\n        /* \"#utility.yul\":8465:8503   */\n      tag_180\n        /* \"#utility.yul\":8497:8502   */\n      dup2\n        /* \"#utility.yul\":8465:8503   */\n      tag_61\n      jump\t// in\n    tag_180:\n        /* \"#utility.yul\":8549:8578   */\n      tag_181\n        /* \"#utility.yul\":8567:8577   */\n      dup5\n        /* \"#utility.yul\":8549:8578   */\n      tag_62\n      jump\t// in\n    tag_181:\n        /* \"#utility.yul\":8539:8547   */\n      dup2\n        /* \"#utility.yul\":8535:8579   */\n      add\n        /* \"#utility.yul\":8732:8734   */\n      0x20\n        /* \"#utility.yul\":8720:8730   */\n      dup6\n        /* \"#utility.yul\":8717:8735   */\n      lt\n        /* \"#utility.yul\":8714:8763   */\n      iszero\n      tag_182\n      jumpi\n        /* \"#utility.yul\":8753:8761   */\n      dup2\n        /* \"#utility.yul\":8738:8761   */\n      swap1\n      pop\n        /* \"#utility.yul\":8714:8763   */\n    tag_182:\n        /* \"#utility.yul\":8776:8856   */\n      tag_183\n        /* \"#utility.yul\":8832:8854   */\n      tag_184\n        /* \"#utility.yul\":8850:8853   */\n      dup6\n        /* \"#utility.yul\":8832:8854   */\n      tag_62\n      jump\t// in\n    tag_184:\n        /* \"#utility.yul\":8822:8830   */\n      dup4\n        /* \"#utility.yul\":8818:8855   */\n      add\n        /* \"#utility.yul\":8805:8816   */\n      dup3\n        /* \"#utility.yul\":8776:8856   */\n      tag_71\n      jump\t// in\n    tag_183:\n        /* \"#utility.yul\":8435:8866   */\n      pop\n      pop\n        /* \"#utility.yul\":8420:8866   */\n    tag_179:\n        /* \"#utility.yul\":8330:8873   */\n      pop\n      pop\n      pop\n      jump\t// out\n        /* \"#utility.yul\":8879:8996   */\n    tag_73:\n        /* \"#utility.yul\":8933:8941   */\n      0x00\n        /* \"#utility.yul\":8983:8988   */\n      dup3\n        /* \"#utility.yul\":8977:8981   */\n      dup3\n        /* \"#utility.yul\":8973:8989   */\n      shr\n        /* \"#utility.yul\":8952:8989   */\n      swap1\n      pop\n        /* \"#utility.yul\":8879:8996   */\n      swap3\n      swap2\n      pop\n      pop\n      jump\t// out\n        /* \"#utility.yul\":9002:9171   */\n    tag_74:\n        /* \"#utility.yul\":9046:9052   */\n      0x00\n        /* \"#utility.yul\":9079:9130   */\n      tag_187\n        /* \"#utility.yul\":9127:9128   */\n      0x00\n        /* \"#utility.yul\":9123:9129   */\n      not\n        /* \"#utility.yul\":9115:9120   */\n      dup5\n        /* \"#utility.yul\":9112:9113   */\n      0x08\n        /* \"#utility.yul\":9108:9121   */\n      mul\n        /* \"#utility.yul\":9079:9130   */\n      tag_73\n      jump\t// in\n    tag_187:\n        /* \"#utility.yul\":9075:9131   */\n      not\n        /* \"#utility.yul\":9160:9164   */\n      dup1\n        /* \"#utility.yul\":9154:9158   */\n      dup4\n        /* \"#utility.yul\":9150:9165   */\n      and\n        /* \"#utility.yul\":9140:9165   */\n      swap2\n      pop\n        /* \"#utility.yul\":9053:9171   */\n      pop\n        /* \"#utility.yul\":9002:9171   */\n      swap3\n      swap2\n      pop\n      pop\n      jump\t// out\n        /* \"#utility.yul\":9176:9471   */\n    tag_75:\n        /* \"#utility.yul\":9252:9256   */\n      0x00\n        /* \"#utility.yul\":9398:9427   */\n      tag_189\n        /* \"#utility.yul\":9423:9426   */\n      dup4\n        /* \"#utility.yul\":9417:9421   */\n      dup4\n        /* \"#utility.yul\":9398:9427   */\n      tag_74\n      jump\t// in\n    tag_189:\n        /* \"#utility.yul\":9390:9427   */\n      swap2\n      pop\n        /* \"#utility.yul\":9460:9463   */\n      dup3\n        /* \"#utility.yul\":9457:9458   */\n      0x02\n        /* \"#utility.yul\":9453:9464   */\n      mul\n        /* \"#utility.yul\":9447:9451   */\n      dup3\n        /* \"#utility.yul\":9444:9465   */\n      or\n        /* \"#utility.yul\":9436:9465   */\n      swap1\n      pop\n        /* \"#utility.yul\":9176:9471   */\n      swap3\n      swap2\n      pop\n      pop\n      jump\t// out\n        /* \"#utility.yul\":9476:10871   */\n    tag_34:\n        /* \"#utility.yul\":9593:9630   */\n      tag_191\n        /* \"#utility.yul\":9626:9629   */\n      dup3\n        /* \"#utility.yul\":9593:9630   */\n      tag_42\n      jump\t// in\n    tag_191:\n        /* \"#utility.yul\":9695:9713   */\n      0xffffffffffffffff\n        /* \"#utility.yul\":9687:9693   */\n      dup2\n        /* \"#utility.yul\":9684:9714   */\n      gt\n        /* \"#utility.yul\":9681:9737   */\n      iszero\n      tag_192\n      jumpi\n        /* \"#utility.yul\":9717:9735   */\n      tag_193\n      tag_51\n      jump\t// in\n    tag_193:\n        /* \"#utility.yul\":9681:9737   */\n    tag_192:\n        /* \"#utility.yul\":9761:9799   */\n      tag_194\n        /* \"#utility.yul\":9793:9797   */\n      dup3\n        /* \"#utility.yul\":9787:9798   */\n      sload\n        /* \"#utility.yul\":9761:9799   */\n      tag_21\n      jump\t// in\n    tag_194:\n        /* \"#utility.yul\":9846:9913   */\n      tag_195\n        /* \"#utility.yul\":9906:9912   */\n      dup3\n        /* \"#utility.yul\":9898:9904   */\n      dup3\n        /* \"#utility.yul\":9892:9896   */\n      dup6\n        /* \"#utility.yul\":9846:9913   */\n      tag_72\n      jump\t// in\n    tag_195:\n        /* \"#utility.yul\":9940:9941   */\n      0x00\n        /* \"#utility.yul\":9964:9968   */\n      0x20\n        /* \"#utility.yul\":9951:9968   */\n      swap1\n      pop\n        /* \"#utility.yul\":9996:9998   */\n      0x1f\n        /* \"#utility.yul\":9988:9994   */\n      dup4\n        /* \"#utility.yul\":9985:9999   */\n      gt\n        /* \"#utility.yul\":10013:10014   */\n      0x01\n        /* \"#utility.yul\":10008:10626   */\n      dup2\n      eq\n      tag_197\n      jumpi\n        /* \"#utility.yul\":10670:10671   */\n      0x00\n        /* \"#utility.yul\":10687:10693   */\n      dup5\n        /* \"#utility.yul\":10684:10761   */\n      iszero\n      tag_198\n      jumpi\n        /* \"#utility.yul\":10736:10745   */\n      dup3\n        /* \"#utility.yul\":10731:10734   */\n      dup8\n        /* \"#utility.yul\":10727:10746   */\n      add\n        /* \"#utility.yul\":10721:10747   */\n      mload\n        /* \"#utility.yul\":10712:10747   */\n      swap1\n      pop\n        /* \"#utility.yul\":10684:10761   */\n    tag_198:\n        /* \"#utility.yul\":10787:10854   */\n      tag_199\n        /* \"#utility.yul\":10847:10853   */\n      dup6\n        /* \"#utility.yul\":10840:10845   */\n      dup3\n        /* \"#utility.yul\":10787:10854   */\n      tag_75\n      jump\t// in\n    tag_199:\n        /* \"#utility.yul\":10781:10785   */\n      dup7\n        /* \"#utility.yul\":10774:10855   */\n      sstore\n        /* \"#utility.yul\":10643:10865   */\n      pop\n        /* \"#utility.yul\":9978:10865   */\n      jump(tag_196)\n        /* \"#utility.yul\":10008:10626   */\n    tag_197:\n        /* \"#utility.yul\":10060:10064   */\n      0x1f\n        /* \"#utility.yul\":10056:10065   */\n      not\n        /* \"#utility.yul\":10048:10054   */\n      dup5\n        /* \"#utility.yul\":10044:10066   */\n      and\n        /* \"#utility.yul\":10094:10131   */\n      tag_200\n        /* \"#utility.yul\":10126:10130   */\n      dup7\n        /* \"#utility.yul\":10094:10131   */\n      tag_61\n      jump\t// in\n    tag_200:\n        /* \"#utility.yul\":10153:10154   */\n      0x00\n        /* \"#utility.yul\":10167:10375   */\n    tag_201:\n        /* \"#utility.yul\":10181:10188   */\n      dup3\n        /* \"#utility.yul\":10178:10179   */\n      dup2\n        /* \"#utility.yul\":10175:10189   */\n      lt\n        /* \"#utility.yul\":10167:10375   */\n      iszero\n      tag_203\n      jumpi\n        /* \"#utility.yul\":10260:10269   */\n      dup5\n        /* \"#utility.yul\":10255:10258   */\n      dup10\n        /* \"#utility.yul\":10251:10270   */\n      add\n        /* \"#utility.yul\":10245:10271   */\n      mload\n        /* \"#utility.yul\":10237:10243   */\n      dup3\n        /* \"#utility.yul\":10230:10272   */\n      sstore\n        /* \"#utility.yul\":10311:10312   */\n      0x01\n        /* \"#utility.yul\":10303:10309   */\n      dup3\n        /* \"#utility.yul\":10299:10313   */\n      add\n        /* \"#utility.yul\":10289:10313   */\n      swap2\n      pop\n        /* \"#utility.yul\":10358:10360   */\n      0x20\n        /* \"#utility.yul\":10347:10356   */\n      dup6\n        /* \"#utility.yul\":10343:10361   */\n      add\n        /* \"#utility.yul\":10330:10361   */\n      swap5\n      pop\n        /* \"#utility.yul\":10204:10208   */\n      0x20\n        /* \"#utility.yul\":10201:10202   */\n      dup2\n        /* \"#utility.yul\":10197:10209   */\n      add\n        /* \"#utility.yul\":10192:10209   */\n      swap1\n      pop\n        /* \"#utility.yul\":10167:10375   */\n      jump(tag_201)\n    tag_203:\n        /* \"#utility.yul\":10403:10409   */\n      dup7\n        /* \"#utility.yul\":10394:10401   */\n      dup4\n        /* \"#utility.yul\":10391:10410   */\n      lt\n        /* \"#utility.yul\":10388:10567   */\n      iszero\n      tag_204\n      jumpi\n        /* \"#utility.yul\":10461:10470   */\n      dup5\n        /* \"#utility.yul\":10456:10459   */\n      dup10\n        /* \"#utility.yul\":10452:10471   */\n      add\n        /* \"#utility.yul\":10446:10472   */\n      mload\n        /* \"#utility.yul\":10504:10552   */\n      tag_205\n        /* \"#utility.yul\":10546:10550   */\n      0x1f\n        /* \"#utility.yul\":10538:10544   */\n      dup10\n        /* \"#utility.yul\":10534:10551   */\n      and\n        /* \"#utility.yul\":10523:10532   */\n      dup3\n        /* \"#utility.yul\":10504:10552   */\n      tag_74\n      jump\t// in\n    tag_205:\n        /* \"#utility.yul\":10496:10502   */\n      dup4\n        /* \"#utility.yul\":10489:10553   */\n      sstore\n        /* \"#utility.yul\":10411:10567   */\n      pop\n        /* \"#utility.yul\":10388:10567   */\n    tag_204:\n        /* \"#utility.yul\":10613:10614   */\n      0x01\n        /* \"#utility.yul\":10609:10610   */\n      0x02\n        /* \"#utility.yul\":10601:10607   */\n      dup9\n        /* \"#utility.yul\":10597:10611   */\n      mul\n        /* \"#utility.yul\":10593:10615   */\n      add\n        /* \"#utility.yul\":10587:10591   */\n      dup9\n        /* \"#utility.yul\":10580:10616   */\n      sstore\n        /* \"#utility.yul\":10015:10626   */\n      pop\n      pop\n      pop\n        /* \"#utility.yul\":9978:10865   */\n    tag_196:\n      pop\n        /* \"#utility.yul\":9568:10871   */\n      pop\n      pop\n      pop\n        /* \"#utility.yul\":9476:10871   */\n      pop\n      pop\n      jump\t// out\n\n    auxdata: 0xa2646970667358221220bf5cf161f25dcd894cb599c9df357ee9dbfbc10b07c6c3e8a719aefb80a2a00e64736f6c63430008120033\n}\n",
				"bytecode": {
					"linkReferences": {},
					"object": "608060405234801561001057600080fd5b5061094d806100206000396000f3fe608060405234801561001057600080fd5b50600436106100415760003560e01c806307de973514610046578063552d2d5c146100775780636c57d814146100a8575b600080fd5b610060600480360381019061005b9190610363565b6100c4565b60405161006e929190610439565b60405180910390f35b610091600480360381019061008c9190610363565b610170565b60405161009f929190610439565b60405180910390f35b6100c260048036038101906100bd91906105ca565b610270565b005b60006020528060005260406000206000915090508060000180546100e790610668565b80601f016020809104026020016040519081016040528092919081815260200182805461011390610668565b80156101605780601f1061013557610100808354040283529160200191610160565b820191906000526020600020905b81548152906001019060200180831161014357829003601f168201915b5050505050908060010154905082565b60606000806000808573ffffffffffffffffffffffffffffffffffffffff1673ffffffffffffffffffffffffffffffffffffffff1681526020019081526020016000206040518060400160405290816000820180546101ce90610668565b80601f01602080910402602001604051908101604052809291908181526020018280546101fa90610668565b80156102475780601f1061021c57610100808354040283529160200191610247565b820191906000526020600020905b81548152906001019060200180831161022a57829003601f168201915b505050505081526020016001820154815250509050806000015181602001519250925050915091565b60006040518060400160405280848152602001838152509050806000808673ffffffffffffffffffffffffffffffffffffffff1673ffffffffffffffffffffffffffffffffffffffff16815260200190815260200160002060008201518160000190816102dd9190610845565b506020820151816001015590505050505050565b6000604051905090565b600080fd5b600080fd5b600073ffffffffffffffffffffffffffffffffffffffff82169050919050565b600061033082610305565b9050919050565b61034081610325565b811461034b57600080fd5b50565b60008135905061035d81610337565b92915050565b600060208284031215610379576103786102fb565b5b60006103878482850161034e565b91505092915050565b600081519050919050565b600082825260208201905092915050565b60005b838110156103ca5780820151818401526020810190506103af565b60008484015250505050565b6000601f19601f8301169050919050565b60006103f282610390565b6103fc818561039b565b935061040c8185602086016103ac565b610415816103d6565b840191505092915050565b6000819050919050565b61043381610420565b82525050565b6000604082019050818103600083015261045381856103e7565b9050610462602083018461042a565b9392505050565b600080fd5b600080fd5b7f4e487b7100000000000000000000000000000000000000000000000000000000600052604160045260246000fd5b6104ab826103d6565b810181811067ffffffffffffffff821117156104ca576104c9610473565b5b80604052505050565b60006104dd6102f1565b90506104e982826104a2565b919050565b600067ffffffffffffffff82111561050957610508610473565b5b610512826103d6565b9050602081019050919050565b82818337600083830152505050565b600061054161053c846104ee565b6104d3565b90508281526020810184848401111561055d5761055c61046e565b5b61056884828561051f565b509392505050565b600082601f83011261058557610584610469565b5b813561059584826020860161052e565b91505092915050565b6105a781610420565b81146105b257600080fd5b50565b6000813590506105c48161059e565b92915050565b6000806000606084860312156105e3576105e26102fb565b5b60006105f18682870161034e565b935050602084013567ffffffffffffffff81111561061257610611610300565b5b61061e86828701610570565b925050604061062f868287016105b5565b9150509250925092565b7f4e487b7100000000000000000000000000000000000000000000000000000000600052602260045260246000fd5b6000600282049050600182168061068057607f821691505b60208210810361069357610692610639565b5b50919050565b60008190508160005260206000209050919050565b60006020601f8301049050919050565b600082821b905092915050565b6000600883026106fb7fffffffffffffffffffffffffffffffffffffffffffffffffffffffffffffffff826106be565b61070586836106be565b95508019841693508086168417925050509392505050565b6000819050919050565b600061074261073d61073884610420565b61071d565b610420565b9050919050565b6000819050919050565b61075c83610727565b61077061076882610749565b8484546106cb565b825550505050565b600090565b610785610778565b610790818484610753565b505050565b5b818110156107b4576107a960008261077d565b600181019050610796565b5050565b601f8211156107f9576107ca81610699565b6107d3846106ae565b810160208510156107e2578190505b6107f66107ee856106ae565b830182610795565b50505b505050565b600082821c905092915050565b600061081c600019846008026107fe565b1980831691505092915050565b6000610835838361080b565b9150826002028217905092915050565b61084e82610390565b67ffffffffffffffff81111561086757610866610473565b5b6108718254610668565b61087c8282856107b8565b600060209050601f8311600181146108af576000841561089d578287015190505b6108a78582610829565b86555061090f565b601f1984166108bd86610699565b60005b828110156108e5578489015182556001820191506020850194506020810190506108c0565b8683101561090257848901516108fe601f89168261080b565b8355505b6001600288020188555050505b50505050505056fea2646970667358221220bf5cf161f25dcd894cb599c9df357ee9dbfbc10b07c6c3e8a719aefb80a2a00e64736f6c63430008120033",
					"opcodes": "PUSH1 0x80 PUSH1 0x40 MSTORE CALLVALUE DUP1 ISZERO PUSH2 0x10 JUMPI PUSH1 0x0 DUP1 REVERT JUMPDEST POP PUSH2 0x94D DUP1 PUSH2 0x20 PUSH1 0x0 CODECOPY PUSH1 0x0 RETURN INVALID PUSH1 0x80 PUSH1 0x40 MSTORE CALLVALUE DUP1 ISZERO PUSH2 0x10 JUMPI PUSH1 0x0 DUP1 REVERT JUMPDEST POP PUSH1 0x4 CALLDATASIZE LT PUSH2 0x41 JUMPI PUSH1 0x0 CALLDATALOAD PUSH1 0xE0 SHR DUP1 PUSH4 0x7DE9735 EQ PUSH2 0x46 JUMPI DUP1 PUSH4 0x552D2D5C EQ PUSH2 0x77 JUMPI DUP1 PUSH4 0x6C57D814 EQ PUSH2 0xA8 JUMPI JUMPDEST PUSH1 0x0 DUP1 REVERT JUMPDEST PUSH2 0x60 PUSH1 0x4 DUP1 CALLDATASIZE SUB DUP2 ADD SWAP1 PUSH2 0x5B SWAP2 SWAP1 PUSH2 0x363 JUMP JUMPDEST PUSH2 0xC4 JUMP JUMPDEST PUSH1 0x40 MLOAD PUSH2 0x6E SWAP3 SWAP2 SWAP1 PUSH2 0x439 JUMP JUMPDEST PUSH1 0x40 MLOAD DUP1 SWAP2 SUB SWAP1 RETURN JUMPDEST PUSH2 0x91 PUSH1 0x4 DUP1 CALLDATASIZE SUB DUP2 ADD SWAP1 PUSH2 0x8C SWAP2 SWAP1 PUSH2 0x363 JUMP JUMPDEST PUSH2 0x170 JUMP JUMPDEST PUSH1 0x40 MLOAD PUSH2 0x9F SWAP3 SWAP2 SWAP1 PUSH2 0x439 JUMP JUMPDEST PUSH1 0x40 MLOAD DUP1 SWAP2 SUB SWAP1 RETURN JUMPDEST PUSH2 0xC2 PUSH1 0x4 DUP1 CALLDATASIZE SUB DUP2 ADD SWAP1 PUSH2 0xBD SWAP2 SWAP1 PUSH2 0x5CA JUMP JUMPDEST PUSH2 0x270 JUMP JUMPDEST STOP JUMPDEST PUSH1 0x0 PUSH1 0x20 MSTORE DUP1 PUSH1 0x0 MSTORE PUSH1 0x40 PUSH1 0x0 KECCAK256 PUSH1 0x0 SWAP2 POP SWAP1 POP DUP1 PUSH1 0x0 ADD DUP1 SLOAD PUSH2 0xE7 SWAP1 PUSH2 0x668 JUMP JUMPDEST DUP1 PUSH1 0x1F ADD PUSH1 0x20 DUP1 SWAP2 DIV MUL PUSH1 0x20 ADD PUSH1 0x40 MLOAD SWAP1 DUP2 ADD PUSH1 0x40 MSTORE DUP1 SWAP3 SWAP2 SWAP1 DUP2 DUP2 MSTORE PUSH1 0x20 ADD DUP3 DUP1 SLOAD PUSH2 0x113 SWAP1 PUSH2 0x668 JUMP JUMPDEST DUP1 ISZERO PUSH2 0x160 JUMPI DUP1 PUSH1 0x1F LT PUSH2 0x135 JUMPI PUSH2 0x100 DUP1 DUP4 SLOAD DIV MUL DUP4 MSTORE SWAP2 PUSH1 0x20 ADD SWAP2 PUSH2 0x160 JUMP JUMPDEST DUP3 ADD SWAP2 SWAP1 PUSH1 0x0 MSTORE PUSH1 0x20 PUSH1 0x0 KECCAK256 SWAP1 JUMPDEST DUP2 SLOAD DUP2 MSTORE SWAP1 PUSH1 0x1 ADD SWAP1 PUSH1 0x20 ADD DUP1 DUP4 GT PUSH2 0x143 JUMPI DUP3 SWAP1 SUB PUSH1 0x1F AND DUP3 ADD SWAP2 JUMPDEST POP POP POP POP POP SWAP1 DUP1 PUSH1 0x1 ADD SLOAD SWAP1 POP DUP3 JUMP JUMPDEST PUSH1 0x60 PUSH1 0x0 DUP1 PUSH1 0x0 DUP1 DUP6 PUSH20 0xFFFFFFFFFFFFFFFFFFFFFFFFFFFFFFFFFFFFFFFF AND PUSH20 0xFFFFFFFFFFFFFFFFFFFFFFFFFFFFFFFFFFFFFFFF AND DUP2 MSTORE PUSH1 0x20 ADD SWAP1 DUP2 MSTORE PUSH1 0x20 ADD PUSH1 0x0 KECCAK256 PUSH1 0x40 MLOAD DUP1 PUSH1 0x40 ADD PUSH1 0x40 MSTORE SWAP1 DUP2 PUSH1 0x0 DUP3 ADD DUP1 SLOAD PUSH2 0x1CE SWAP1 PUSH2 0x668 JUMP JUMPDEST DUP1 PUSH1 0x1F ADD PUSH1 0x20 DUP1 SWAP2 DIV MUL PUSH1 0x20 ADD PUSH1 0x40 MLOAD SWAP1 DUP2 ADD PUSH1 0x40 MSTORE DUP1 SWAP3 SWAP2 SWAP1 DUP2 DUP2 MSTORE PUSH1 0x20 ADD DUP3 DUP1 SLOAD PUSH2 0x1FA SWAP1 PUSH2 0x668 JUMP JUMPDEST DUP1 ISZERO PUSH2 0x247 JUMPI DUP1 PUSH1 0x1F LT PUSH2 0x21C JUMPI PUSH2 0x100 DUP1 DUP4 SLOAD DIV MUL DUP4 MSTORE SWAP2 PUSH1 0x20 ADD SWAP2 PUSH2 0x247 JUMP JUMPDEST DUP3 ADD SWAP2 SWAP1 PUSH1 0x0 MSTORE PUSH1 0x20 PUSH1 0x0 KECCAK256 SWAP1 JUMPDEST DUP2 SLOAD DUP2 MSTORE SWAP1 PUSH1 0x1 ADD SWAP1 PUSH1 0x20 ADD DUP1 DUP4 GT PUSH2 0x22A JUMPI DUP3 SWAP1 SUB PUSH1 0x1F AND DUP3 ADD SWAP2 JUMPDEST POP POP POP POP POP DUP2 MSTORE PUSH1 0x20 ADD PUSH1 0x1 DUP3 ADD SLOAD DUP2 MSTORE POP POP SWAP1 POP DUP1 PUSH1 0x0 ADD MLOAD DUP2 PUSH1 0x20 ADD MLOAD SWAP3 POP SWAP3 POP POP SWAP2 POP SWAP2 JUMP JUMPDEST PUSH1 0x0 PUSH1 0x40 MLOAD DUP1 PUSH1 0x40 ADD PUSH1 0x40 MSTORE DUP1 DUP5 DUP2 MSTORE PUSH1 0x20 ADD DUP4 DUP2 MSTORE POP SWAP1 POP DUP1 PUSH1 0x0 DUP1 DUP7 PUSH20 0xFFFFFFFFFFFFFFFFFFFFFFFFFFFFFFFFFFFFFFFF AND PUSH20 0xFFFFFFFFFFFFFFFFFFFFFFFFFFFFFFFFFFFFFFFF AND DUP2 MSTORE PUSH1 0x20 ADD SWAP1 DUP2 MSTORE PUSH1 0x20 ADD PUSH1 0x0 KECCAK256 PUSH1 0x0 DUP3 ADD MLOAD DUP2 PUSH1 0x0 ADD SWAP1 DUP2 PUSH2 0x2DD SWAP2 SWAP1 PUSH2 0x845 JUMP JUMPDEST POP PUSH1 0x20 DUP3 ADD MLOAD DUP2 PUSH1 0x1 ADD SSTORE SWAP1 POP POP POP POP POP POP JUMP JUMPDEST PUSH1 0x0 PUSH1 0x40 MLOAD SWAP1 POP SWAP1 JUMP JUMPDEST PUSH1 0x0 DUP1 REVERT JUMPDEST PUSH1 0x0 DUP1 REVERT JUMPDEST PUSH1 0x0 PUSH20 0xFFFFFFFFFFFFFFFFFFFFFFFFFFFFFFFFFFFFFFFF DUP3 AND SWAP1 POP SWAP2 SWAP1 POP JUMP JUMPDEST PUSH1 0x0 PUSH2 0x330 DUP3 PUSH2 0x305 JUMP JUMPDEST SWAP1 POP SWAP2 SWAP1 POP JUMP JUMPDEST PUSH2 0x340 DUP2 PUSH2 0x325 JUMP JUMPDEST DUP2 EQ PUSH2 0x34B JUMPI PUSH1 0x0 DUP1 REVERT JUMPDEST POP JUMP JUMPDEST PUSH1 0x0 DUP2 CALLDATALOAD SWAP1 POP PUSH2 0x35D DUP2 PUSH2 0x337 JUMP JUMPDEST SWAP3 SWAP2 POP POP JUMP JUMPDEST PUSH1 0x0 PUSH1 0x20 DUP3 DUP5 SUB SLT ISZERO PUSH2 0x379 JUMPI PUSH2 0x378 PUSH2 0x2FB JUMP JUMPDEST JUMPDEST PUSH1 0x0 PUSH2 0x387 DUP5 DUP3 DUP6 ADD PUSH2 0x34E JUMP JUMPDEST SWAP2 POP POP SWAP3 SWAP2 POP POP JUMP JUMPDEST PUSH1 0x0 DUP2 MLOAD SWAP1 POP SWAP2 SWAP1 POP JUMP JUMPDEST PUSH1 0x0 DUP3 DUP3 MSTORE PUSH1 0x20 DUP3 ADD SWAP1 POP SWAP3 SWAP2 POP POP JUMP JUMPDEST PUSH1 0x0 JUMPDEST DUP4 DUP2 LT ISZERO PUSH2 0x3CA JUMPI DUP1 DUP3 ADD MLOAD DUP2 DUP5 ADD MSTORE PUSH1 0x20 DUP2 ADD SWAP1 POP PUSH2 0x3AF JUMP JUMPDEST PUSH1 0x0 DUP5 DUP5 ADD MSTORE POP POP POP POP JUMP JUMPDEST PUSH1 0x0 PUSH1 0x1F NOT PUSH1 0x1F DUP4 ADD AND SWAP1 POP SWAP2 SWAP1 POP JUMP JUMPDEST PUSH1 0x0 PUSH2 0x3F2 DUP3 PUSH2 0x390 JUMP JUMPDEST PUSH2 0x3FC DUP2 DUP6 PUSH2 0x39B JUMP JUMPDEST SWAP4 POP PUSH2 0x40C DUP2 DUP6 PUSH1 0x20 DUP7 ADD PUSH2 0x3AC JUMP JUMPDEST PUSH2 0x415 DUP2 PUSH2 0x3D6 JUMP JUMPDEST DUP5 ADD SWAP2 POP POP SWAP3 SWAP2 POP POP JUMP JUMPDEST PUSH1 0x0 DUP2 SWAP1 POP SWAP2 SWAP1 POP JUMP JUMPDEST PUSH2 0x433 DUP2 PUSH2 0x420 JUMP JUMPDEST DUP3 MSTORE POP POP JUMP JUMPDEST PUSH1 0x0 PUSH1 0x40 DUP3 ADD SWAP1 POP DUP2 DUP2 SUB PUSH1 0x0 DUP4 ADD MSTORE PUSH2 0x453 DUP2 DUP6 PUSH2 0x3E7 JUMP JUMPDEST SWAP1 POP PUSH2 0x462 PUSH1 0x20 DUP4 ADD DUP5 PUSH2 0x42A JUMP JUMPDEST SWAP4 SWAP3 POP POP POP JUMP JUMPDEST PUSH1 0x0 DUP1 REVERT JUMPDEST PUSH1 0x0 DUP1 REVERT JUMPDEST PUSH32 0x4E487B7100000000000000000000000000000000000000000000000000000000 PUSH1 0x0 MSTORE PUSH1 0x41 PUSH1 0x4 MSTORE PUSH1 0x24 PUSH1 0x0 REVERT JUMPDEST PUSH2 0x4AB DUP3 PUSH2 0x3D6 JUMP JUMPDEST DUP2 ADD DUP2 DUP2 LT PUSH8 0xFFFFFFFFFFFFFFFF DUP3 GT OR ISZERO PUSH2 0x4CA JUMPI PUSH2 0x4C9 PUSH2 0x473 JUMP JUMPDEST JUMPDEST DUP1 PUSH1 0x40 MSTORE POP POP POP JUMP JUMPDEST PUSH1 0x0 PUSH2 0x4DD PUSH2 0x2F1 JUMP JUMPDEST SWAP1 POP PUSH2 0x4E9 DUP3 DUP3 PUSH2 0x4A2 JUMP JUMPDEST SWAP2 SWAP1 POP JUMP JUMPDEST PUSH1 0x0 PUSH8 0xFFFFFFFFFFFFFFFF DUP3 GT ISZERO PUSH2 0x509 JUMPI PUSH2 0x508 PUSH2 0x473 JUMP JUMPDEST JUMPDEST PUSH2 0x512 DUP3 PUSH2 0x3D6 JUMP JUMPDEST SWAP1 POP PUSH1 0x20 DUP2 ADD SWAP1 POP SWAP2 SWAP1 POP JUMP JUMPDEST DUP3 DUP2 DUP4 CALLDATACOPY PUSH1 0x0 DUP4 DUP4 ADD MSTORE POP POP POP JUMP JUMPDEST PUSH1 0x0 PUSH2 0x541 PUSH2 0x53C DUP5 PUSH2 0x4EE JUMP JUMPDEST PUSH2 0x4D3 JUMP JUMPDEST SWAP1 POP DUP3 DUP2 MSTORE PUSH1 0x20 DUP2 ADD DUP5 DUP5 DUP5 ADD GT ISZERO PUSH2 0x55D JUMPI PUSH2 0x55C PUSH2 0x46E JUMP JUMPDEST JUMPDEST PUSH2 0x568 DUP5 DUP3 DUP6 PUSH2 0x51F JUMP JUMPDEST POP SWAP4 SWAP3 POP POP POP JUMP JUMPDEST PUSH1 0x0 DUP3 PUSH1 0x1F DUP4 ADD SLT PUSH2 0x585 JUMPI PUSH2 0x584 PUSH2 0x469 JUMP JUMPDEST JUMPDEST DUP2 CALLDATALOAD PUSH2 0x595 DUP5 DUP3 PUSH1 0x20 DUP7 ADD PUSH2 0x52E JUMP JUMPDEST SWAP2 POP POP SWAP3 SWAP2 POP POP JUMP JUMPDEST PUSH2 0x5A7 DUP2 PUSH2 0x420 JUMP JUMPDEST DUP2 EQ PUSH2 0x5B2 JUMPI PUSH1 0x0 DUP1 REVERT JUMPDEST POP JUMP JUMPDEST PUSH1 0x0 DUP2 CALLDATALOAD SWAP1 POP PUSH2 0x5C4 DUP2 PUSH2 0x59E JUMP JUMPDEST SWAP3 SWAP2 POP POP JUMP JUMPDEST PUSH1 0x0 DUP1 PUSH1 0x0 PUSH1 0x60 DUP5 DUP7 SUB SLT ISZERO PUSH2 0x5E3 JUMPI PUSH2 0x5E2 PUSH2 0x2FB JUMP JUMPDEST JUMPDEST PUSH1 0x0 PUSH2 0x5F1 DUP7 DUP3 DUP8 ADD PUSH2 0x34E JUMP JUMPDEST SWAP4 POP POP PUSH1 0x20 DUP5 ADD CALLDATALOAD PUSH8 0xFFFFFFFFFFFFFFFF DUP2 GT ISZERO PUSH2 0x612 JUMPI PUSH2 0x611 PUSH2 0x300 JUMP JUMPDEST JUMPDEST PUSH2 0x61E DUP7 DUP3 DUP8 ADD PUSH2 0x570 JUMP JUMPDEST SWAP3 POP POP PUSH1 0x40 PUSH2 0x62F DUP7 DUP3 DUP8 ADD PUSH2 0x5B5 JUMP JUMPDEST SWAP2 POP POP SWAP3 POP SWAP3 POP SWAP3 JUMP JUMPDEST PUSH32 0x4E487B7100000000000000000000000000000000000000000000000000000000 PUSH1 0x0 MSTORE PUSH1 0x22 PUSH1 0x4 MSTORE PUSH1 0x24 PUSH1 0x0 REVERT JUMPDEST PUSH1 0x0 PUSH1 0x2 DUP3 DIV SWAP1 POP PUSH1 0x1 DUP3 AND DUP1 PUSH2 0x680 JUMPI PUSH1 0x7F DUP3 AND SWAP2 POP JUMPDEST PUSH1 0x20 DUP3 LT DUP2 SUB PUSH2 0x693 JUMPI PUSH2 0x692 PUSH2 0x639 JUMP JUMPDEST JUMPDEST POP SWAP2 SWAP1 POP JUMP JUMPDEST PUSH1 0x0 DUP2 SWAP1 POP DUP2 PUSH1 0x0 MSTORE PUSH1 0x20 PUSH1 0x0 KECCAK256 SWAP1 POP SWAP2 SWAP1 POP JUMP JUMPDEST PUSH1 0x0 PUSH1 0x20 PUSH1 0x1F DUP4 ADD DIV SWAP1 POP SWAP2 SWAP1 POP JUMP JUMPDEST PUSH1 0x0 DUP3 DUP3 SHL SWAP1 POP SWAP3 SWAP2 POP POP JUMP JUMPDEST PUSH1 0x0 PUSH1 0x8 DUP4 MUL PUSH2 0x6FB PUSH32 0xFFFFFFFFFFFFFFFFFFFFFFFFFFFFFFFFFFFFFFFFFFFFFFFFFFFFFFFFFFFFFFFF DUP3 PUSH2 0x6BE JUMP JUMPDEST PUSH2 0x705 DUP7 DUP4 PUSH2 0x6BE JUMP JUMPDEST SWAP6 POP DUP1 NOT DUP5 AND SWAP4 POP DUP1 DUP7 AND DUP5 OR SWAP3 POP POP POP SWAP4 SWAP3 POP POP POP JUMP JUMPDEST PUSH1 0x0 DUP2 SWAP1 POP SWAP2 SWAP1 POP JUMP JUMPDEST PUSH1 0x0 PUSH2 0x742 PUSH2 0x73D PUSH2 0x738 DUP5 PUSH2 0x420 JUMP JUMPDEST PUSH2 0x71D JUMP JUMPDEST PUSH2 0x420 JUMP JUMPDEST SWAP1 POP SWAP2 SWAP1 POP JUMP JUMPDEST PUSH1 0x0 DUP2 SWAP1 POP SWAP2 SWAP1 POP JUMP JUMPDEST PUSH2 0x75C DUP4 PUSH2 0x727 JUMP JUMPDEST PUSH2 0x770 PUSH2 0x768 DUP3 PUSH2 0x749 JUMP JUMPDEST DUP5 DUP5 SLOAD PUSH2 0x6CB JUMP JUMPDEST DUP3 SSTORE POP POP POP POP JUMP JUMPDEST PUSH1 0x0 SWAP1 JUMP JUMPDEST PUSH2 0x785 PUSH2 0x778 JUMP JUMPDEST PUSH2 0x790 DUP2 DUP5 DUP5 PUSH2 0x753 JUMP JUMPDEST POP POP POP JUMP JUMPDEST JUMPDEST DUP2 DUP2 LT ISZERO PUSH2 0x7B4 JUMPI PUSH2 0x7A9 PUSH1 0x0 DUP3 PUSH2 0x77D JUMP JUMPDEST PUSH1 0x1 DUP2 ADD SWAP1 POP PUSH2 0x796 JUMP JUMPDEST POP POP JUMP JUMPDEST PUSH1 0x1F DUP3 GT ISZERO PUSH2 0x7F9 JUMPI PUSH2 0x7CA DUP2 PUSH2 0x699 JUMP JUMPDEST PUSH2 0x7D3 DUP5 PUSH2 0x6AE JUMP JUMPDEST DUP2 ADD PUSH1 0x20 DUP6 LT ISZERO PUSH2 0x7E2 JUMPI DUP2 SWAP1 POP JUMPDEST PUSH2 0x7F6 PUSH2 0x7EE DUP6 PUSH2 0x6AE JUMP JUMPDEST DUP4 ADD DUP3 PUSH2 0x795 JUMP JUMPDEST POP POP JUMPDEST POP POP POP JUMP JUMPDEST PUSH1 0x0 DUP3 DUP3 SHR SWAP1 POP SWAP3 SWAP2 POP POP JUMP JUMPDEST PUSH1 0x0 PUSH2 0x81C PUSH1 0x0 NOT DUP5 PUSH1 0x8 MUL PUSH2 0x7FE JUMP JUMPDEST NOT DUP1 DUP4 AND SWAP2 POP POP SWAP3 SWAP2 POP POP JUMP JUMPDEST PUSH1 0x0 PUSH2 0x835 DUP4 DUP4 PUSH2 0x80B JUMP JUMPDEST SWAP2 POP DUP3 PUSH1 0x2 MUL DUP3 OR SWAP1 POP SWAP3 SWAP2 POP POP JUMP JUMPDEST PUSH2 0x84E DUP3 PUSH2 0x390 JUMP JUMPDEST PUSH8 0xFFFFFFFFFFFFFFFF DUP2 GT ISZERO PUSH2 0x867 JUMPI PUSH2 0x866 PUSH2 0x473 JUMP JUMPDEST JUMPDEST PUSH2 0x871 DUP3 SLOAD PUSH2 0x668 JUMP JUMPDEST PUSH2 0x87C DUP3 DUP3 DUP6 PUSH2 0x7B8 JUMP JUMPDEST PUSH1 0x0 PUSH1 0x20 SWAP1 POP PUSH1 0x1F DUP4 GT PUSH1 0x1 DUP2 EQ PUSH2 0x8AF JUMPI PUSH1 0x0 DUP5 ISZERO PUSH2 0x89D JUMPI DUP3 DUP8 ADD MLOAD SWAP1 POP JUMPDEST PUSH2 0x8A7 DUP6 DUP3 PUSH2 0x829 JUMP JUMPDEST DUP7 SSTORE POP PUSH2 0x90F JUMP JUMPDEST PUSH1 0x1F NOT DUP5 AND PUSH2 0x8BD DUP7 PUSH2 0x699 JUMP JUMPDEST PUSH1 0x0 JUMPDEST DUP3 DUP2 LT ISZERO PUSH2 0x8E5 JUMPI DUP5 DUP10 ADD MLOAD DUP3 SSTORE PUSH1 0x1 DUP3 ADD SWAP2 POP PUSH1 0x20 DUP6 ADD SWAP5 POP PUSH1 0x20 DUP2 ADD SWAP1 POP PUSH2 0x8C0 JUMP JUMPDEST DUP7 DUP4 LT ISZERO PUSH2 0x902 JUMPI DUP5 DUP10 ADD MLOAD PUSH2 0x8FE PUSH1 0x1F DUP10 AND DUP3 PUSH2 0x80B JUMP JUMPDEST DUP4 SSTORE POP JUMPDEST PUSH1 0x1 PUSH1 0x2 DUP9 MUL ADD DUP9 SSTORE POP POP POP JUMPDEST POP POP POP POP POP POP JUMP INVALID LOG2 PUSH5 0x6970667358 0x22 SLT KECCAK256 0xBF 0x5C CALL PUSH2 0xF25D 0xCD DUP10 0x4C 0xB5 SWAP10 0xC9 0xDF CALLDATALOAD PUSH31 0xE9DBFBC10B07C6C3E8A719AEFB80A2A00E64736F6C63430008120033000000 "
				},
				"gasEstimates": {
					"creation": {
						"codeDepositCost": "476200",
						"executionCost": "511",
						"totalCost": "476711"
					},
					"external": {
						"addPerson(address,string,uint256)": "infinite",
						"getPerson(address)": "infinite",
						"people(address)": "infinite"
					}
				},
				"methodIdentifiers": {
					"addPerson(address,string,uint256)": "6c57d814",
					"getPerson(address)": "552d2d5c",
					"people(address)": "07de9735"
				}
			},
			"storageLayout": {
				"storage": [
					{
						"astId": 11,
						"contract": "smartwallet/struct-mapping.sol:dataStructure",
						"label": "people",
						"offset": 0,
						"slot": "0",
						"type": "t_mapping(t_address,t_struct(Person)6_storage)"
					}
				],
				"types": {
					"t_address": {
						"encoding": "inplace",
						"label": "address",
						"numberOfBytes": "20"
					},
					"t_mapping(t_address,t_struct(Person)6_storage)": {
						"encoding": "mapping",
						"key": "t_address",
						"label": "mapping(address => struct dataStructure.Person)",
						"numberOfBytes": "32",
						"value": "t_struct(Person)6_storage"
					},
					"t_string_storage": {
						"encoding": "bytes",
						"label": "string",
						"numberOfBytes": "32"
					},
					"t_struct(Person)6_storage": {
						"encoding": "inplace",
						"label": "struct dataStructure.Person",
						"members": [
							{
								"astId": 3,
								"contract": "smartwallet/struct-mapping.sol:dataStructure",
								"label": "name",
								"offset": 0,
								"slot": "0",
								"type": "t_string_storage"
							},
							{
								"astId": 5,
								"contract": "smartwallet/struct-mapping.sol:dataStructure",
								"label": "age",
								"offset": 0,
								"slot": "1",
								"type": "t_uint256"
							}
						],
						"numberOfBytes": "64"
					},
					"t_uint256": {
						"encoding": "inplace",
						"label": "uint256",
						"numberOfBytes": "32"
					}
				}
			},
			"userdoc": {
				"kind": "user",
				"methods": {},
				"version": 1
			}
		}
	}
}