{
	"smartwallet/try-catch.sol": {
		"FundWithdrawalExample": {
			"abi": [
				{
					"inputs": [
						{
							"internalType": "uint256",
							"name": "_goal",
							"type": "uint256"
						}
					],
					"stateMutability": "nonpayable",
					"type": "constructor"
				},
				{
					"anonymous": false,
					"inputs": [
						{
							"indexed": false,
							"internalType": "string",
							"name": "error",
							"type": "string"
						}
					],
					"name": "WithdrawalError",
					"type": "event"
				},
				{
					"inputs": [],
					"name": "contribute",
					"outputs": [],
					"stateMutability": "payable",
					"type": "function"
				},
				{
					"inputs": [],
					"name": "fundingGoal",
					"outputs": [
						{
							"internalType": "uint256",
							"name": "",
							"type": "uint256"
						}
					],
					"stateMutability": "view",
					"type": "function"
				},
				{
					"inputs": [],
					"name": "getBalance",
					"outputs": [
						{
							"internalType": "uint256",
							"name": "",
							"type": "uint256"
						}
					],
					"stateMutability": "view",
					"type": "function"
				},
				{
					"inputs": [],
					"name": "owner",
					"outputs": [
						{
							"internalType": "address payable",
							"name": "",
							"type": "address"
						}
					],
					"stateMutability": "view",
					"type": "function"
				},
				{
					"inputs": [],
					"name": "totalFunds",
					"outputs": [
						{
							"internalType": "uint256",
							"name": "",
							"type": "uint256"
						}
					],
					"stateMutability": "view",
					"type": "function"
				},
				{
					"inputs": [],
					"name": "withdrawFunds",
					"outputs": [],
					"stateMutability": "nonpayable",
					"type": "function"
				}
			],
			"devdoc": {
				"kind": "dev",
				"methods": {},
				"version": 1
			},
			"evm": {
				"assembly": "    /* \"smartwallet/try-catch.sol\":57:1478  contract FundWithdrawalExample {... */\n  mstore(0x40, 0x80)\n    /* \"smartwallet/try-catch.sol\":192:292  constructor(uint256 _goal) {... */\n  callvalue\n  dup1\n  iszero\n  tag_1\n  jumpi\n  0x00\n  dup1\n  revert\ntag_1:\n  pop\n  mload(0x40)\n  sub(codesize, bytecodeSize)\n  dup1\n  bytecodeSize\n  dup4\n  codecopy\n  dup2\n  dup2\n  add\n  0x40\n  mstore\n  dup2\n  add\n  swap1\n  tag_2\n  swap2\n  swap1\n  tag_3\n  jump\t// in\ntag_2:\n    /* \"smartwallet/try-catch.sol\":245:255  msg.sender */\n  caller\n    /* \"smartwallet/try-catch.sol\":229:234  owner */\n  0x00\n  dup1\n    /* \"smartwallet/try-catch.sol\":229:256  owner = payable(msg.sender) */\n  0x0100\n  exp\n  dup2\n  sload\n  dup2\n  0xffffffffffffffffffffffffffffffffffffffff\n  mul\n  not\n  and\n  swap1\n  dup4\n  0xffffffffffffffffffffffffffffffffffffffff\n  and\n  mul\n  or\n  swap1\n  sstore\n  pop\n    /* \"smartwallet/try-catch.sol\":280:285  _goal */\n  dup1\n    /* \"smartwallet/try-catch.sol\":266:277  fundingGoal */\n  0x01\n    /* \"smartwallet/try-catch.sol\":266:285  fundingGoal = _goal */\n  dup2\n  swap1\n  sstore\n  pop\n    /* \"smartwallet/try-catch.sol\":192:292  constructor(uint256 _goal) {... */\n  pop\n    /* \"smartwallet/try-catch.sol\":57:1478  contract FundWithdrawalExample {... */\n  jump(tag_6)\n    /* \"#utility.yul\":88:205   */\ntag_8:\n    /* \"#utility.yul\":197:198   */\n  0x00\n    /* \"#utility.yul\":194:195   */\n  dup1\n    /* \"#utility.yul\":187:199   */\n  revert\n    /* \"#utility.yul\":334:411   */\ntag_10:\n    /* \"#utility.yul\":371:378   */\n  0x00\n    /* \"#utility.yul\":400:405   */\n  dup2\n    /* \"#utility.yul\":389:405   */\n  swap1\n  pop\n    /* \"#utility.yul\":334:411   */\n  swap2\n  swap1\n  pop\n  jump\t// out\n    /* \"#utility.yul\":417:539   */\ntag_11:\n    /* \"#utility.yul\":490:514   */\n  tag_19\n    /* \"#utility.yul\":508:513   */\n  dup2\n    /* \"#utility.yul\":490:514   */\n  tag_10\n  jump\t// in\ntag_19:\n    /* \"#utility.yul\":483:488   */\n  dup2\n    /* \"#utility.yul\":480:515   */\n  eq\n    /* \"#utility.yul\":470:533   */\n  tag_20\n  jumpi\n    /* \"#utility.yul\":529:530   */\n  0x00\n    /* \"#utility.yul\":526:527   */\n  dup1\n    /* \"#utility.yul\":519:531   */\n  revert\n    /* \"#utility.yul\":470:533   */\ntag_20:\n    /* \"#utility.yul\":417:539   */\n  pop\n  jump\t// out\n    /* \"#utility.yul\":545:688   */\ntag_12:\n    /* \"#utility.yul\":602:607   */\n  0x00\n    /* \"#utility.yul\":633:639   */\n  dup2\n    /* \"#utility.yul\":627:640   */\n  mload\n    /* \"#utility.yul\":618:640   */\n  swap1\n  pop\n    /* \"#utility.yul\":649:682   */\n  tag_22\n    /* \"#utility.yul\":676:681   */\n  dup2\n    /* \"#utility.yul\":649:682   */\n  tag_11\n  jump\t// in\ntag_22:\n    /* \"#utility.yul\":545:688   */\n  swap3\n  swap2\n  pop\n  pop\n  jump\t// out\n    /* \"#utility.yul\":694:1045   */\ntag_3:\n    /* \"#utility.yul\":764:770   */\n  0x00\n    /* \"#utility.yul\":813:815   */\n  0x20\n    /* \"#utility.yul\":801:810   */\n  dup3\n    /* \"#utility.yul\":792:799   */\n  dup5\n    /* \"#utility.yul\":788:811   */\n  sub\n    /* \"#utility.yul\":784:816   */\n  slt\n    /* \"#utility.yul\":781:900   */\n  iszero\n  tag_24\n  jumpi\n    /* \"#utility.yul\":819:898   */\n  tag_25\n  tag_8\n  jump\t// in\ntag_25:\n    /* \"#utility.yul\":781:900   */\ntag_24:\n    /* \"#utility.yul\":939:940   */\n  0x00\n    /* \"#utility.yul\":964:1028   */\n  tag_26\n    /* \"#utility.yul\":1020:1027   */\n  dup5\n    /* \"#utility.yul\":1011:1017   */\n  dup3\n    /* \"#utility.yul\":1000:1009   */\n  dup6\n    /* \"#utility.yul\":996:1018   */\n  add\n    /* \"#utility.yul\":964:1028   */\n  tag_12\n  jump\t// in\ntag_26:\n    /* \"#utility.yul\":954:1028   */\n  swap2\n  pop\n    /* \"#utility.yul\":910:1038   */\n  pop\n    /* \"#utility.yul\":694:1045   */\n  swap3\n  swap2\n  pop\n  pop\n  jump\t// out\n    /* \"smartwallet/try-catch.sol\":57:1478  contract FundWithdrawalExample {... */\ntag_6:\n  dataSize(sub_0)\n  dup1\n  dataOffset(sub_0)\n  0x00\n  codecopy\n  0x00\n  return\nstop\n\nsub_0: assembly {\n        /* \"smartwallet/try-catch.sol\":57:1478  contract FundWithdrawalExample {... */\n      mstore(0x40, 0x80)\n      jumpi(tag_1, lt(calldatasize, 0x04))\n      shr(0xe0, calldataload(0x00))\n      dup1\n      0x12065fe0\n      eq\n      tag_2\n      jumpi\n      dup1\n      0x24600fc3\n      eq\n      tag_3\n      jumpi\n      dup1\n      0x7a3a0e84\n      eq\n      tag_4\n      jumpi\n      dup1\n      0x8da5cb5b\n      eq\n      tag_5\n      jumpi\n      dup1\n      0x968ed600\n      eq\n      tag_6\n      jumpi\n      dup1\n      0xd7bb99ba\n      eq\n      tag_7\n      jumpi\n    tag_1:\n      0x00\n      dup1\n      revert\n        /* \"smartwallet/try-catch.sol\":1297:1396  function getBalance() external view returns (uint256) {... */\n    tag_2:\n      callvalue\n      dup1\n      iszero\n      tag_8\n      jumpi\n      0x00\n      dup1\n      revert\n    tag_8:\n      pop\n      tag_9\n      tag_10\n      jump\t// in\n    tag_9:\n      mload(0x40)\n      tag_11\n      swap2\n      swap1\n      tag_12\n      jump\t// in\n    tag_11:\n      mload(0x40)\n      dup1\n      swap2\n      sub\n      swap1\n      return\n        /* \"smartwallet/try-catch.sol\":673:1230  function withdrawFunds() external onlyOwner {... */\n    tag_3:\n      callvalue\n      dup1\n      iszero\n      tag_13\n      jumpi\n      0x00\n      dup1\n      revert\n    tag_13:\n      pop\n      tag_14\n      tag_15\n      jump\t// in\n    tag_14:\n      stop\n        /* \"smartwallet/try-catch.sol\":128:154  uint256 public fundingGoal */\n    tag_4:\n      callvalue\n      dup1\n      iszero\n      tag_16\n      jumpi\n      0x00\n      dup1\n      revert\n    tag_16:\n      pop\n      tag_17\n      tag_18\n      jump\t// in\n    tag_17:\n      mload(0x40)\n      tag_19\n      swap2\n      swap1\n      tag_12\n      jump\t// in\n    tag_19:\n      mload(0x40)\n      dup1\n      swap2\n      sub\n      swap1\n      return\n        /* \"smartwallet/try-catch.sol\":94:122  address payable public owner */\n    tag_5:\n      callvalue\n      dup1\n      iszero\n      tag_20\n      jumpi\n      0x00\n      dup1\n      revert\n    tag_20:\n      pop\n      tag_21\n      tag_22\n      jump\t// in\n    tag_21:\n      mload(0x40)\n      tag_23\n      swap2\n      swap1\n      tag_24\n      jump\t// in\n    tag_23:\n      mload(0x40)\n      dup1\n      swap2\n      sub\n      swap1\n      return\n        /* \"smartwallet/try-catch.sol\":160:185  uint256 public totalFunds */\n    tag_6:\n      callvalue\n      dup1\n      iszero\n      tag_25\n      jumpi\n      0x00\n      dup1\n      revert\n    tag_25:\n      pop\n      tag_26\n      tag_27\n      jump\t// in\n    tag_26:\n      mload(0x40)\n      tag_28\n      swap2\n      swap1\n      tag_12\n      jump\t// in\n    tag_28:\n      mload(0x40)\n      dup1\n      swap2\n      sub\n      swap1\n      return\n        /* \"smartwallet/try-catch.sol\":469:619  function contribute() external payable {... */\n    tag_7:\n      tag_29\n      tag_30\n      jump\t// in\n    tag_29:\n      stop\n        /* \"smartwallet/try-catch.sol\":1297:1396  function getBalance() external view returns (uint256) {... */\n    tag_10:\n        /* \"smartwallet/try-catch.sol\":1342:1349  uint256 */\n      0x00\n        /* \"smartwallet/try-catch.sol\":1368:1389  address(this).balance */\n      selfbalance\n        /* \"smartwallet/try-catch.sol\":1361:1389  return address(this).balance */\n      swap1\n      pop\n        /* \"smartwallet/try-catch.sol\":1297:1396  function getBalance() external view returns (uint256) {... */\n      swap1\n      jump\t// out\n        /* \"smartwallet/try-catch.sol\":673:1230  function withdrawFunds() external onlyOwner {... */\n    tag_15:\n        /* \"smartwallet/try-catch.sol\":351:356  owner */\n      0x00\n      dup1\n      sload\n      swap1\n      0x0100\n      exp\n      swap1\n      div\n      0xffffffffffffffffffffffffffffffffffffffff\n      and\n        /* \"smartwallet/try-catch.sol\":337:356  msg.sender == owner */\n      0xffffffffffffffffffffffffffffffffffffffff\n      and\n        /* \"smartwallet/try-catch.sol\":337:347  msg.sender */\n      caller\n        /* \"smartwallet/try-catch.sol\":337:356  msg.sender == owner */\n      0xffffffffffffffffffffffffffffffffffffffff\n      and\n      eq\n        /* \"smartwallet/try-catch.sol\":329:398  require(msg.sender == owner, \"Only the owner can call this function\") */\n      tag_33\n      jumpi\n      mload(0x40)\n      0x08c379a000000000000000000000000000000000000000000000000000000000\n      dup2\n      mstore\n      0x04\n      add\n      tag_34\n      swap1\n      tag_35\n      jump\t// in\n    tag_34:\n      mload(0x40)\n      dup1\n      swap2\n      sub\n      swap1\n      revert\n    tag_33:\n        /* \"smartwallet/try-catch.sol\":793:804  fundingGoal */\n      sload(0x01)\n        /* \"smartwallet/try-catch.sol\":779:789  totalFunds */\n      sload(0x02)\n        /* \"smartwallet/try-catch.sol\":779:804  totalFunds >= fundingGoal */\n      lt\n      iszero\n        /* \"smartwallet/try-catch.sol\":771:829  require(totalFunds >= fundingGoal, \"Funding goal not met\") */\n      tag_37\n      jumpi\n      mload(0x40)\n      0x08c379a000000000000000000000000000000000000000000000000000000000\n      dup2\n      mstore\n      0x04\n      add\n      tag_38\n      swap1\n      tag_39\n      jump\t// in\n    tag_38:\n      mload(0x40)\n      dup1\n      swap2\n      sub\n      swap1\n      revert\n    tag_37:\n        /* \"smartwallet/try-catch.sol\":898:910  bool success */\n      0x00\n        /* \"smartwallet/try-catch.sol\":913:918  owner */\n      dup1\n      0x00\n      swap1\n      sload\n      swap1\n      0x0100\n      exp\n      swap1\n      div\n      0xffffffffffffffffffffffffffffffffffffffff\n      and\n        /* \"smartwallet/try-catch.sol\":913:923  owner.send */\n      0xffffffffffffffffffffffffffffffffffffffff\n      and\n        /* \"smartwallet/try-catch.sol\":913:935  owner.send(totalFunds) */\n      0x08fc\n        /* \"smartwallet/try-catch.sol\":924:934  totalFunds */\n      sload(0x02)\n        /* \"smartwallet/try-catch.sol\":913:935  owner.send(totalFunds) */\n      swap1\n      dup2\n      iszero\n      mul\n      swap1\n      mload(0x40)\n      0x00\n      mload(0x40)\n      dup1\n      dup4\n      sub\n      dup2\n      dup6\n      dup9\n      dup9\n      call\n      swap4\n      pop\n      pop\n      pop\n      pop\n        /* \"smartwallet/try-catch.sol\":898:935  bool success = owner.send(totalFunds) */\n      swap1\n      pop\n        /* \"smartwallet/try-catch.sol\":949:956  success */\n      dup1\n        /* \"smartwallet/try-catch.sol\":945:1224  if (success) {... */\n      iszero\n      tag_41\n      jumpi\n        /* \"smartwallet/try-catch.sol\":985:986  0 */\n      0x00\n        /* \"smartwallet/try-catch.sol\":972:982  totalFunds */\n      0x02\n        /* \"smartwallet/try-catch.sol\":972:986  totalFunds = 0 */\n      dup2\n      swap1\n      sstore\n      pop\n        /* \"smartwallet/try-catch.sol\":945:1224  if (success) {... */\n      jump(tag_42)\n    tag_41:\n        /* \"smartwallet/try-catch.sol\":1179:1213  WithdrawalError(\"Transfer failed\") */\n      0xbf736152dc0ee781fa11477377cfeddca2078a599e4d5f600ab4fb85ad77f83a\n      mload(0x40)\n      tag_43\n      swap1\n      tag_44\n      jump\t// in\n    tag_43:\n      mload(0x40)\n      dup1\n      swap2\n      sub\n      swap1\n      log1\n        /* \"smartwallet/try-catch.sol\":945:1224  if (success) {... */\n    tag_42:\n        /* \"smartwallet/try-catch.sol\":717:1230  {... */\n      pop\n        /* \"smartwallet/try-catch.sol\":673:1230  function withdrawFunds() external onlyOwner {... */\n      jump\t// out\n        /* \"smartwallet/try-catch.sol\":128:154  uint256 public fundingGoal */\n    tag_18:\n      sload(0x01)\n      dup2\n      jump\t// out\n        /* \"smartwallet/try-catch.sol\":94:122  address payable public owner */\n    tag_22:\n      0x00\n      dup1\n      sload\n      swap1\n      0x0100\n      exp\n      swap1\n      div\n      0xffffffffffffffffffffffffffffffffffffffff\n      and\n      dup2\n      jump\t// out\n        /* \"smartwallet/try-catch.sol\":160:185  uint256 public totalFunds */\n    tag_27:\n      sload(0x02)\n      dup2\n      jump\t// out\n        /* \"smartwallet/try-catch.sol\":469:619  function contribute() external payable {... */\n    tag_30:\n        /* \"smartwallet/try-catch.sol\":538:539  0 */\n      0x00\n        /* \"smartwallet/try-catch.sol\":526:535  msg.value */\n      callvalue\n        /* \"smartwallet/try-catch.sol\":526:539  msg.value > 0 */\n      gt\n        /* \"smartwallet/try-catch.sol\":518:579  require(msg.value > 0, \"Contribution must be greater than 0\") */\n      tag_46\n      jumpi\n      mload(0x40)\n      0x08c379a000000000000000000000000000000000000000000000000000000000\n      dup2\n      mstore\n      0x04\n      add\n      tag_47\n      swap1\n      tag_48\n      jump\t// in\n    tag_47:\n      mload(0x40)\n      dup1\n      swap2\n      sub\n      swap1\n      revert\n    tag_46:\n        /* \"smartwallet/try-catch.sol\":603:612  msg.value */\n      callvalue\n        /* \"smartwallet/try-catch.sol\":589:599  totalFunds */\n      0x02\n      0x00\n        /* \"smartwallet/try-catch.sol\":589:612  totalFunds += msg.value */\n      dup3\n      dup3\n      sload\n      tag_49\n      swap2\n      swap1\n      tag_50\n      jump\t// in\n    tag_49:\n      swap3\n      pop\n      pop\n      dup2\n      swap1\n      sstore\n      pop\n        /* \"smartwallet/try-catch.sol\":469:619  function contribute() external payable {... */\n      jump\t// out\n        /* \"#utility.yul\":7:84   */\n    tag_51:\n        /* \"#utility.yul\":44:51   */\n      0x00\n        /* \"#utility.yul\":73:78   */\n      dup2\n        /* \"#utility.yul\":62:78   */\n      swap1\n      pop\n        /* \"#utility.yul\":7:84   */\n      swap2\n      swap1\n      pop\n      jump\t// out\n        /* \"#utility.yul\":90:208   */\n    tag_52:\n        /* \"#utility.yul\":177:201   */\n      tag_69\n        /* \"#utility.yul\":195:200   */\n      dup2\n        /* \"#utility.yul\":177:201   */\n      tag_51\n      jump\t// in\n    tag_69:\n        /* \"#utility.yul\":172:175   */\n      dup3\n        /* \"#utility.yul\":165:202   */\n      mstore\n        /* \"#utility.yul\":90:208   */\n      pop\n      pop\n      jump\t// out\n        /* \"#utility.yul\":214:436   */\n    tag_12:\n        /* \"#utility.yul\":307:311   */\n      0x00\n        /* \"#utility.yul\":345:347   */\n      0x20\n        /* \"#utility.yul\":334:343   */\n      dup3\n        /* \"#utility.yul\":330:348   */\n      add\n        /* \"#utility.yul\":322:348   */\n      swap1\n      pop\n        /* \"#utility.yul\":358:429   */\n      tag_71\n        /* \"#utility.yul\":426:427   */\n      0x00\n        /* \"#utility.yul\":415:424   */\n      dup4\n        /* \"#utility.yul\":411:428   */\n      add\n        /* \"#utility.yul\":402:408   */\n      dup5\n        /* \"#utility.yul\":358:429   */\n      tag_52\n      jump\t// in\n    tag_71:\n        /* \"#utility.yul\":214:436   */\n      swap3\n      swap2\n      pop\n      pop\n      jump\t// out\n        /* \"#utility.yul\":442:568   */\n    tag_53:\n        /* \"#utility.yul\":479:486   */\n      0x00\n        /* \"#utility.yul\":519:561   */\n      0xffffffffffffffffffffffffffffffffffffffff\n        /* \"#utility.yul\":512:517   */\n      dup3\n        /* \"#utility.yul\":508:562   */\n      and\n        /* \"#utility.yul\":497:562   */\n      swap1\n      pop\n        /* \"#utility.yul\":442:568   */\n      swap2\n      swap1\n      pop\n      jump\t// out\n        /* \"#utility.yul\":574:678   */\n    tag_54:\n        /* \"#utility.yul\":619:626   */\n      0x00\n        /* \"#utility.yul\":648:672   */\n      tag_74\n        /* \"#utility.yul\":666:671   */\n      dup3\n        /* \"#utility.yul\":648:672   */\n      tag_53\n      jump\t// in\n    tag_74:\n        /* \"#utility.yul\":637:672   */\n      swap1\n      pop\n        /* \"#utility.yul\":574:678   */\n      swap2\n      swap1\n      pop\n      jump\t// out\n        /* \"#utility.yul\":684:826   */\n    tag_55:\n        /* \"#utility.yul\":787:819   */\n      tag_76\n        /* \"#utility.yul\":813:818   */\n      dup2\n        /* \"#utility.yul\":787:819   */\n      tag_54\n      jump\t// in\n    tag_76:\n        /* \"#utility.yul\":782:785   */\n      dup3\n        /* \"#utility.yul\":775:820   */\n      mstore\n        /* \"#utility.yul\":684:826   */\n      pop\n      pop\n      jump\t// out\n        /* \"#utility.yul\":832:1086   */\n    tag_24:\n        /* \"#utility.yul\":941:945   */\n      0x00\n        /* \"#utility.yul\":979:981   */\n      0x20\n        /* \"#utility.yul\":968:977   */\n      dup3\n        /* \"#utility.yul\":964:982   */\n      add\n        /* \"#utility.yul\":956:982   */\n      swap1\n      pop\n        /* \"#utility.yul\":992:1079   */\n      tag_78\n        /* \"#utility.yul\":1076:1077   */\n      0x00\n        /* \"#utility.yul\":1065:1074   */\n      dup4\n        /* \"#utility.yul\":1061:1078   */\n      add\n        /* \"#utility.yul\":1052:1058   */\n      dup5\n        /* \"#utility.yul\":992:1079   */\n      tag_55\n      jump\t// in\n    tag_78:\n        /* \"#utility.yul\":832:1086   */\n      swap3\n      swap2\n      pop\n      pop\n      jump\t// out\n        /* \"#utility.yul\":1092:1261   */\n    tag_56:\n        /* \"#utility.yul\":1176:1187   */\n      0x00\n        /* \"#utility.yul\":1210:1216   */\n      dup3\n        /* \"#utility.yul\":1205:1208   */\n      dup3\n        /* \"#utility.yul\":1198:1217   */\n      mstore\n        /* \"#utility.yul\":1250:1254   */\n      0x20\n        /* \"#utility.yul\":1245:1248   */\n      dup3\n        /* \"#utility.yul\":1241:1255   */\n      add\n        /* \"#utility.yul\":1226:1255   */\n      swap1\n      pop\n        /* \"#utility.yul\":1092:1261   */\n      swap3\n      swap2\n      pop\n      pop\n      jump\t// out\n        /* \"#utility.yul\":1267:1491   */\n    tag_57:\n        /* \"#utility.yul\":1407:1441   */\n      0x4f6e6c7920746865206f776e65722063616e2063616c6c20746869732066756e\n        /* \"#utility.yul\":1403:1404   */\n      0x00\n        /* \"#utility.yul\":1395:1401   */\n      dup3\n        /* \"#utility.yul\":1391:1405   */\n      add\n        /* \"#utility.yul\":1384:1442   */\n      mstore\n        /* \"#utility.yul\":1476:1483   */\n      0x6374696f6e000000000000000000000000000000000000000000000000000000\n        /* \"#utility.yul\":1471:1473   */\n      0x20\n        /* \"#utility.yul\":1463:1469   */\n      dup3\n        /* \"#utility.yul\":1459:1474   */\n      add\n        /* \"#utility.yul\":1452:1484   */\n      mstore\n        /* \"#utility.yul\":1267:1491   */\n      pop\n      jump\t// out\n        /* \"#utility.yul\":1497:1863   */\n    tag_58:\n        /* \"#utility.yul\":1639:1642   */\n      0x00\n        /* \"#utility.yul\":1660:1727   */\n      tag_82\n        /* \"#utility.yul\":1724:1726   */\n      0x25\n        /* \"#utility.yul\":1719:1722   */\n      dup4\n        /* \"#utility.yul\":1660:1727   */\n      tag_56\n      jump\t// in\n    tag_82:\n        /* \"#utility.yul\":1653:1727   */\n      swap2\n      pop\n        /* \"#utility.yul\":1736:1829   */\n      tag_83\n        /* \"#utility.yul\":1825:1828   */\n      dup3\n        /* \"#utility.yul\":1736:1829   */\n      tag_57\n      jump\t// in\n    tag_83:\n        /* \"#utility.yul\":1854:1856   */\n      0x40\n        /* \"#utility.yul\":1849:1852   */\n      dup3\n        /* \"#utility.yul\":1845:1857   */\n      add\n        /* \"#utility.yul\":1838:1857   */\n      swap1\n      pop\n        /* \"#utility.yul\":1497:1863   */\n      swap2\n      swap1\n      pop\n      jump\t// out\n        /* \"#utility.yul\":1869:2288   */\n    tag_35:\n        /* \"#utility.yul\":2035:2039   */\n      0x00\n        /* \"#utility.yul\":2073:2075   */\n      0x20\n        /* \"#utility.yul\":2062:2071   */\n      dup3\n        /* \"#utility.yul\":2058:2076   */\n      add\n        /* \"#utility.yul\":2050:2076   */\n      swap1\n      pop\n        /* \"#utility.yul\":2122:2131   */\n      dup2\n        /* \"#utility.yul\":2116:2120   */\n      dup2\n        /* \"#utility.yul\":2112:2132   */\n      sub\n        /* \"#utility.yul\":2108:2109   */\n      0x00\n        /* \"#utility.yul\":2097:2106   */\n      dup4\n        /* \"#utility.yul\":2093:2110   */\n      add\n        /* \"#utility.yul\":2086:2133   */\n      mstore\n        /* \"#utility.yul\":2150:2281   */\n      tag_85\n        /* \"#utility.yul\":2276:2280   */\n      dup2\n        /* \"#utility.yul\":2150:2281   */\n      tag_58\n      jump\t// in\n    tag_85:\n        /* \"#utility.yul\":2142:2281   */\n      swap1\n      pop\n        /* \"#utility.yul\":1869:2288   */\n      swap2\n      swap1\n      pop\n      jump\t// out\n        /* \"#utility.yul\":2294:2464   */\n    tag_59:\n        /* \"#utility.yul\":2434:2456   */\n      0x46756e64696e6720676f616c206e6f74206d6574000000000000000000000000\n        /* \"#utility.yul\":2430:2431   */\n      0x00\n        /* \"#utility.yul\":2422:2428   */\n      dup3\n        /* \"#utility.yul\":2418:2432   */\n      add\n        /* \"#utility.yul\":2411:2457   */\n      mstore\n        /* \"#utility.yul\":2294:2464   */\n      pop\n      jump\t// out\n        /* \"#utility.yul\":2470:2836   */\n    tag_60:\n        /* \"#utility.yul\":2612:2615   */\n      0x00\n        /* \"#utility.yul\":2633:2700   */\n      tag_88\n        /* \"#utility.yul\":2697:2699   */\n      0x14\n        /* \"#utility.yul\":2692:2695   */\n      dup4\n        /* \"#utility.yul\":2633:2700   */\n      tag_56\n      jump\t// in\n    tag_88:\n        /* \"#utility.yul\":2626:2700   */\n      swap2\n      pop\n        /* \"#utility.yul\":2709:2802   */\n      tag_89\n        /* \"#utility.yul\":2798:2801   */\n      dup3\n        /* \"#utility.yul\":2709:2802   */\n      tag_59\n      jump\t// in\n    tag_89:\n        /* \"#utility.yul\":2827:2829   */\n      0x20\n        /* \"#utility.yul\":2822:2825   */\n      dup3\n        /* \"#utility.yul\":2818:2830   */\n      add\n        /* \"#utility.yul\":2811:2830   */\n      swap1\n      pop\n        /* \"#utility.yul\":2470:2836   */\n      swap2\n      swap1\n      pop\n      jump\t// out\n        /* \"#utility.yul\":2842:3261   */\n    tag_39:\n        /* \"#utility.yul\":3008:3012   */\n      0x00\n        /* \"#utility.yul\":3046:3048   */\n      0x20\n        /* \"#utility.yul\":3035:3044   */\n      dup3\n        /* \"#utility.yul\":3031:3049   */\n      add\n        /* \"#utility.yul\":3023:3049   */\n      swap1\n      pop\n        /* \"#utility.yul\":3095:3104   */\n      dup2\n        /* \"#utility.yul\":3089:3093   */\n      dup2\n        /* \"#utility.yul\":3085:3105   */\n      sub\n        /* \"#utility.yul\":3081:3082   */\n      0x00\n        /* \"#utility.yul\":3070:3079   */\n      dup4\n        /* \"#utility.yul\":3066:3083   */\n      add\n        /* \"#utility.yul\":3059:3106   */\n      mstore\n        /* \"#utility.yul\":3123:3254   */\n      tag_91\n        /* \"#utility.yul\":3249:3253   */\n      dup2\n        /* \"#utility.yul\":3123:3254   */\n      tag_60\n      jump\t// in\n    tag_91:\n        /* \"#utility.yul\":3115:3254   */\n      swap1\n      pop\n        /* \"#utility.yul\":2842:3261   */\n      swap2\n      swap1\n      pop\n      jump\t// out\n        /* \"#utility.yul\":3267:3432   */\n    tag_61:\n        /* \"#utility.yul\":3407:3424   */\n      0x5472616e73666572206661696c65640000000000000000000000000000000000\n        /* \"#utility.yul\":3403:3404   */\n      0x00\n        /* \"#utility.yul\":3395:3401   */\n      dup3\n        /* \"#utility.yul\":3391:3405   */\n      add\n        /* \"#utility.yul\":3384:3425   */\n      mstore\n        /* \"#utility.yul\":3267:3432   */\n      pop\n      jump\t// out\n        /* \"#utility.yul\":3438:3804   */\n    tag_62:\n        /* \"#utility.yul\":3580:3583   */\n      0x00\n        /* \"#utility.yul\":3601:3668   */\n      tag_94\n        /* \"#utility.yul\":3665:3667   */\n      0x0f\n        /* \"#utility.yul\":3660:3663   */\n      dup4\n        /* \"#utility.yul\":3601:3668   */\n      tag_56\n      jump\t// in\n    tag_94:\n        /* \"#utility.yul\":3594:3668   */\n      swap2\n      pop\n        /* \"#utility.yul\":3677:3770   */\n      tag_95\n        /* \"#utility.yul\":3766:3769   */\n      dup3\n        /* \"#utility.yul\":3677:3770   */\n      tag_61\n      jump\t// in\n    tag_95:\n        /* \"#utility.yul\":3795:3797   */\n      0x20\n        /* \"#utility.yul\":3790:3793   */\n      dup3\n        /* \"#utility.yul\":3786:3798   */\n      add\n        /* \"#utility.yul\":3779:3798   */\n      swap1\n      pop\n        /* \"#utility.yul\":3438:3804   */\n      swap2\n      swap1\n      pop\n      jump\t// out\n        /* \"#utility.yul\":3810:4229   */\n    tag_44:\n        /* \"#utility.yul\":3976:3980   */\n      0x00\n        /* \"#utility.yul\":4014:4016   */\n      0x20\n        /* \"#utility.yul\":4003:4012   */\n      dup3\n        /* \"#utility.yul\":3999:4017   */\n      add\n        /* \"#utility.yul\":3991:4017   */\n      swap1\n      pop\n        /* \"#utility.yul\":4063:4072   */\n      dup2\n        /* \"#utility.yul\":4057:4061   */\n      dup2\n        /* \"#utility.yul\":4053:4073   */\n      sub\n        /* \"#utility.yul\":4049:4050   */\n      0x00\n        /* \"#utility.yul\":4038:4047   */\n      dup4\n        /* \"#utility.yul\":4034:4051   */\n      add\n        /* \"#utility.yul\":4027:4074   */\n      mstore\n        /* \"#utility.yul\":4091:4222   */\n      tag_97\n        /* \"#utility.yul\":4217:4221   */\n      dup2\n        /* \"#utility.yul\":4091:4222   */\n      tag_62\n      jump\t// in\n    tag_97:\n        /* \"#utility.yul\":4083:4222   */\n      swap1\n      pop\n        /* \"#utility.yul\":3810:4229   */\n      swap2\n      swap1\n      pop\n      jump\t// out\n        /* \"#utility.yul\":4235:4457   */\n    tag_63:\n        /* \"#utility.yul\":4375:4409   */\n      0x436f6e747269627574696f6e206d757374206265206772656174657220746861\n        /* \"#utility.yul\":4371:4372   */\n      0x00\n        /* \"#utility.yul\":4363:4369   */\n      dup3\n        /* \"#utility.yul\":4359:4373   */\n      add\n        /* \"#utility.yul\":4352:4410   */\n      mstore\n        /* \"#utility.yul\":4444:4449   */\n      0x6e20300000000000000000000000000000000000000000000000000000000000\n        /* \"#utility.yul\":4439:4441   */\n      0x20\n        /* \"#utility.yul\":4431:4437   */\n      dup3\n        /* \"#utility.yul\":4427:4442   */\n      add\n        /* \"#utility.yul\":4420:4450   */\n      mstore\n        /* \"#utility.yul\":4235:4457   */\n      pop\n      jump\t// out\n        /* \"#utility.yul\":4463:4829   */\n    tag_64:\n        /* \"#utility.yul\":4605:4608   */\n      0x00\n        /* \"#utility.yul\":4626:4693   */\n      tag_100\n        /* \"#utility.yul\":4690:4692   */\n      0x23\n        /* \"#utility.yul\":4685:4688   */\n      dup4\n        /* \"#utility.yul\":4626:4693   */\n      tag_56\n      jump\t// in\n    tag_100:\n        /* \"#utility.yul\":4619:4693   */\n      swap2\n      pop\n        /* \"#utility.yul\":4702:4795   */\n      tag_101\n        /* \"#utility.yul\":4791:4794   */\n      dup3\n        /* \"#utility.yul\":4702:4795   */\n      tag_63\n      jump\t// in\n    tag_101:\n        /* \"#utility.yul\":4820:4822   */\n      0x40\n        /* \"#utility.yul\":4815:4818   */\n      dup3\n        /* \"#utility.yul\":4811:4823   */\n      add\n        /* \"#utility.yul\":4804:4823   */\n      swap1\n      pop\n        /* \"#utility.yul\":4463:4829   */\n      swap2\n      swap1\n      pop\n      jump\t// out\n        /* \"#utility.yul\":4835:5254   */\n    tag_48:\n        /* \"#utility.yul\":5001:5005   */\n      0x00\n        /* \"#utility.yul\":5039:5041   */\n      0x20\n        /* \"#utility.yul\":5028:5037   */\n      dup3\n        /* \"#utility.yul\":5024:5042   */\n      add\n        /* \"#utility.yul\":5016:5042   */\n      swap1\n      pop\n        /* \"#utility.yul\":5088:5097   */\n      dup2\n        /* \"#utility.yul\":5082:5086   */\n      dup2\n        /* \"#utility.yul\":5078:5098   */\n      sub\n        /* \"#utility.yul\":5074:5075   */\n      0x00\n        /* \"#utility.yul\":5063:5072   */\n      dup4\n        /* \"#utility.yul\":5059:5076   */\n      add\n        /* \"#utility.yul\":5052:5099   */\n      mstore\n        /* \"#utility.yul\":5116:5247   */\n      tag_103\n        /* \"#utility.yul\":5242:5246   */\n      dup2\n        /* \"#utility.yul\":5116:5247   */\n      tag_64\n      jump\t// in\n    tag_103:\n        /* \"#utility.yul\":5108:5247   */\n      swap1\n      pop\n        /* \"#utility.yul\":4835:5254   */\n      swap2\n      swap1\n      pop\n      jump\t// out\n        /* \"#utility.yul\":5260:5440   */\n    tag_65:\n        /* \"#utility.yul\":5308:5385   */\n      0x4e487b7100000000000000000000000000000000000000000000000000000000\n        /* \"#utility.yul\":5305:5306   */\n      0x00\n        /* \"#utility.yul\":5298:5386   */\n      mstore\n        /* \"#utility.yul\":5405:5409   */\n      0x11\n        /* \"#utility.yul\":5402:5403   */\n      0x04\n        /* \"#utility.yul\":5395:5410   */\n      mstore\n        /* \"#utility.yul\":5429:5433   */\n      0x24\n        /* \"#utility.yul\":5426:5427   */\n      0x00\n        /* \"#utility.yul\":5419:5434   */\n      revert\n        /* \"#utility.yul\":5446:5637   */\n    tag_50:\n        /* \"#utility.yul\":5486:5489   */\n      0x00\n        /* \"#utility.yul\":5505:5525   */\n      tag_106\n        /* \"#utility.yul\":5523:5524   */\n      dup3\n        /* \"#utility.yul\":5505:5525   */\n      tag_51\n      jump\t// in\n    tag_106:\n        /* \"#utility.yul\":5500:5525   */\n      swap2\n      pop\n        /* \"#utility.yul\":5539:5559   */\n      tag_107\n        /* \"#utility.yul\":5557:5558   */\n      dup4\n        /* \"#utility.yul\":5539:5559   */\n      tag_51\n      jump\t// in\n    tag_107:\n        /* \"#utility.yul\":5534:5559   */\n      swap3\n      pop\n        /* \"#utility.yul\":5582:5583   */\n      dup3\n        /* \"#utility.yul\":5579:5580   */\n      dup3\n        /* \"#utility.yul\":5575:5584   */\n      add\n        /* \"#utility.yul\":5568:5584   */\n      swap1\n      pop\n        /* \"#utility.yul\":5603:5606   */\n      dup1\n        /* \"#utility.yul\":5600:5601   */\n      dup3\n        /* \"#utility.yul\":5597:5607   */\n      gt\n        /* \"#utility.yul\":5594:5630   */\n      iszero\n      tag_108\n      jumpi\n        /* \"#utility.yul\":5610:5628   */\n      tag_109\n      tag_65\n      jump\t// in\n    tag_109:\n        /* \"#utility.yul\":5594:5630   */\n    tag_108:\n        /* \"#utility.yul\":5446:5637   */\n      swap3\n      swap2\n      pop\n      pop\n      jump\t// out\n\n    auxdata: 0xa264697066735822122077d0f952cdb38d899206cce66dd584d1444cabee340ca7f83fc0a624bc69f2a664736f6c63430008150033\n}\n",
				"bytecode": {
					"linkReferences": {},
					"object": "608060405234801561000f575f80fd5b50604051610731380380610731833981810160405281019061003191906100b4565b335f806101000a81548173ffffffffffffffffffffffffffffffffffffffff021916908373ffffffffffffffffffffffffffffffffffffffff16021790555080600181905550506100df565b5f80fd5b5f819050919050565b61009381610081565b811461009d575f80fd5b50565b5f815190506100ae8161008a565b92915050565b5f602082840312156100c9576100c861007d565b5b5f6100d6848285016100a0565b91505092915050565b610645806100ec5f395ff3fe608060405260043610610054575f3560e01c806312065fe01461005857806324600fc3146100825780637a3a0e84146100985780638da5cb5b146100c2578063968ed600146100ec578063d7bb99ba14610116575b5f80fd5b348015610063575f80fd5b5061006c610120565b6040516100799190610342565b60405180910390f35b34801561008d575f80fd5b50610096610127565b005b3480156100a3575f80fd5b506100ac61029f565b6040516100b99190610342565b60405180910390f35b3480156100cd575f80fd5b506100d66102a5565b6040516100e3919061039a565b60405180910390f35b3480156100f7575f80fd5b506101006102c8565b60405161010d9190610342565b60405180910390f35b61011e6102ce565b005b5f47905090565b5f8054906101000a900473ffffffffffffffffffffffffffffffffffffffff1673ffffffffffffffffffffffffffffffffffffffff163373ffffffffffffffffffffffffffffffffffffffff16146101b4576040517f08c379a00000000000000000000000000000000000000000000000000000000081526004016101ab90610433565b60405180910390fd5b60015460025410156101fb576040517f08c379a00000000000000000000000000000000000000000000000000000000081526004016101f29061049b565b60405180910390fd5b5f805f9054906101000a900473ffffffffffffffffffffffffffffffffffffffff1673ffffffffffffffffffffffffffffffffffffffff166108fc60025490811502906040515f60405180830381858888f1935050505090508015610266575f60028190555061029c565b7fbf736152dc0ee781fa11477377cfeddca2078a599e4d5f600ab4fb85ad77f83a60405161029390610503565b60405180910390a15b50565b60015481565b5f8054906101000a900473ffffffffffffffffffffffffffffffffffffffff1681565b60025481565b5f3411610310576040517f08c379a000000000000000000000000000000000000000000000000000000000815260040161030790610591565b60405180910390fd5b3460025f82825461032191906105dc565b92505081905550565b5f819050919050565b61033c8161032a565b82525050565b5f6020820190506103555f830184610333565b92915050565b5f73ffffffffffffffffffffffffffffffffffffffff82169050919050565b5f6103848261035b565b9050919050565b6103948161037a565b82525050565b5f6020820190506103ad5f83018461038b565b92915050565b5f82825260208201905092915050565b7f4f6e6c7920746865206f776e65722063616e2063616c6c20746869732066756e5f8201527f6374696f6e000000000000000000000000000000000000000000000000000000602082015250565b5f61041d6025836103b3565b9150610428826103c3565b604082019050919050565b5f6020820190508181035f83015261044a81610411565b9050919050565b7f46756e64696e6720676f616c206e6f74206d65740000000000000000000000005f82015250565b5f6104856014836103b3565b915061049082610451565b602082019050919050565b5f6020820190508181035f8301526104b281610479565b9050919050565b7f5472616e73666572206661696c656400000000000000000000000000000000005f82015250565b5f6104ed600f836103b3565b91506104f8826104b9565b602082019050919050565b5f6020820190508181035f83015261051a816104e1565b9050919050565b7f436f6e747269627574696f6e206d7573742062652067726561746572207468615f8201527f6e20300000000000000000000000000000000000000000000000000000000000602082015250565b5f61057b6023836103b3565b915061058682610521565b604082019050919050565b5f6020820190508181035f8301526105a88161056f565b9050919050565b7f4e487b71000000000000000000000000000000000000000000000000000000005f52601160045260245ffd5b5f6105e68261032a565b91506105f18361032a565b9250828201905080821115610609576106086105af565b5b9291505056fea264697066735822122077d0f952cdb38d899206cce66dd584d1444cabee340ca7f83fc0a624bc69f2a664736f6c63430008150033",
					"opcodes": "PUSH1 0x80 PUSH1 0x40 MSTORE CALLVALUE DUP1 ISZERO PUSH2 0xF JUMPI PUSH0 DUP1 REVERT JUMPDEST POP PUSH1 0x40 MLOAD PUSH2 0x731 CODESIZE SUB DUP1 PUSH2 0x731 DUP4 CODECOPY DUP2 DUP2 ADD PUSH1 0x40 MSTORE DUP2 ADD SWAP1 PUSH2 0x31 SWAP2 SWAP1 PUSH2 0xB4 JUMP JUMPDEST CALLER PUSH0 DUP1 PUSH2 0x100 EXP DUP2 SLOAD DUP2 PUSH20 0xFFFFFFFFFFFFFFFFFFFFFFFFFFFFFFFFFFFFFFFF MUL NOT AND SWAP1 DUP4 PUSH20 0xFFFFFFFFFFFFFFFFFFFFFFFFFFFFFFFFFFFFFFFF AND MUL OR SWAP1 SSTORE POP DUP1 PUSH1 0x1 DUP2 SWAP1 SSTORE POP POP PUSH2 0xDF JUMP JUMPDEST PUSH0 DUP1 REVERT JUMPDEST PUSH0 DUP2 SWAP1 POP SWAP2 SWAP1 POP JUMP JUMPDEST PUSH2 0x93 DUP2 PUSH2 0x81 JUMP JUMPDEST DUP2 EQ PUSH2 0x9D JUMPI PUSH0 DUP1 REVERT JUMPDEST POP JUMP JUMPDEST PUSH0 DUP2 MLOAD SWAP1 POP PUSH2 0xAE DUP2 PUSH2 0x8A JUMP JUMPDEST SWAP3 SWAP2 POP POP JUMP JUMPDEST PUSH0 PUSH1 0x20 DUP3 DUP5 SUB SLT ISZERO PUSH2 0xC9 JUMPI PUSH2 0xC8 PUSH2 0x7D JUMP JUMPDEST JUMPDEST PUSH0 PUSH2 0xD6 DUP5 DUP3 DUP6 ADD PUSH2 0xA0 JUMP JUMPDEST SWAP2 POP POP SWAP3 SWAP2 POP POP JUMP JUMPDEST PUSH2 0x645 DUP1 PUSH2 0xEC PUSH0 CODECOPY PUSH0 RETURN INVALID PUSH1 0x80 PUSH1 0x40 MSTORE PUSH1 0x4 CALLDATASIZE LT PUSH2 0x54 JUMPI PUSH0 CALLDATALOAD PUSH1 0xE0 SHR DUP1 PUSH4 0x12065FE0 EQ PUSH2 0x58 JUMPI DUP1 PUSH4 0x24600FC3 EQ PUSH2 0x82 JUMPI DUP1 PUSH4 0x7A3A0E84 EQ PUSH2 0x98 JUMPI DUP1 PUSH4 0x8DA5CB5B EQ PUSH2 0xC2 JUMPI DUP1 PUSH4 0x968ED600 EQ PUSH2 0xEC JUMPI DUP1 PUSH4 0xD7BB99BA EQ PUSH2 0x116 JUMPI JUMPDEST PUSH0 DUP1 REVERT JUMPDEST CALLVALUE DUP1 ISZERO PUSH2 0x63 JUMPI PUSH0 DUP1 REVERT JUMPDEST POP PUSH2 0x6C PUSH2 0x120 JUMP JUMPDEST PUSH1 0x40 MLOAD PUSH2 0x79 SWAP2 SWAP1 PUSH2 0x342 JUMP JUMPDEST PUSH1 0x40 MLOAD DUP1 SWAP2 SUB SWAP1 RETURN JUMPDEST CALLVALUE DUP1 ISZERO PUSH2 0x8D JUMPI PUSH0 DUP1 REVERT JUMPDEST POP PUSH2 0x96 PUSH2 0x127 JUMP JUMPDEST STOP JUMPDEST CALLVALUE DUP1 ISZERO PUSH2 0xA3 JUMPI PUSH0 DUP1 REVERT JUMPDEST POP PUSH2 0xAC PUSH2 0x29F JUMP JUMPDEST PUSH1 0x40 MLOAD PUSH2 0xB9 SWAP2 SWAP1 PUSH2 0x342 JUMP JUMPDEST PUSH1 0x40 MLOAD DUP1 SWAP2 SUB SWAP1 RETURN JUMPDEST CALLVALUE DUP1 ISZERO PUSH2 0xCD JUMPI PUSH0 DUP1 REVERT JUMPDEST POP PUSH2 0xD6 PUSH2 0x2A5 JUMP JUMPDEST PUSH1 0x40 MLOAD PUSH2 0xE3 SWAP2 SWAP1 PUSH2 0x39A JUMP JUMPDEST PUSH1 0x40 MLOAD DUP1 SWAP2 SUB SWAP1 RETURN JUMPDEST CALLVALUE DUP1 ISZERO PUSH2 0xF7 JUMPI PUSH0 DUP1 REVERT JUMPDEST POP PUSH2 0x100 PUSH2 0x2C8 JUMP JUMPDEST PUSH1 0x40 MLOAD PUSH2 0x10D SWAP2 SWAP1 PUSH2 0x342 JUMP JUMPDEST PUSH1 0x40 MLOAD DUP1 SWAP2 SUB SWAP1 RETURN JUMPDEST PUSH2 0x11E PUSH2 0x2CE JUMP JUMPDEST STOP JUMPDEST PUSH0 SELFBALANCE SWAP1 POP SWAP1 JUMP JUMPDEST PUSH0 DUP1 SLOAD SWAP1 PUSH2 0x100 EXP SWAP1 DIV PUSH20 0xFFFFFFFFFFFFFFFFFFFFFFFFFFFFFFFFFFFFFFFF AND PUSH20 0xFFFFFFFFFFFFFFFFFFFFFFFFFFFFFFFFFFFFFFFF AND CALLER PUSH20 0xFFFFFFFFFFFFFFFFFFFFFFFFFFFFFFFFFFFFFFFF AND EQ PUSH2 0x1B4 JUMPI PUSH1 0x40 MLOAD PUSH32 0x8C379A000000000000000000000000000000000000000000000000000000000 DUP2 MSTORE PUSH1 0x4 ADD PUSH2 0x1AB SWAP1 PUSH2 0x433 JUMP JUMPDEST PUSH1 0x40 MLOAD DUP1 SWAP2 SUB SWAP1 REVERT JUMPDEST PUSH1 0x1 SLOAD PUSH1 0x2 SLOAD LT ISZERO PUSH2 0x1FB JUMPI PUSH1 0x40 MLOAD PUSH32 0x8C379A000000000000000000000000000000000000000000000000000000000 DUP2 MSTORE PUSH1 0x4 ADD PUSH2 0x1F2 SWAP1 PUSH2 0x49B JUMP JUMPDEST PUSH1 0x40 MLOAD DUP1 SWAP2 SUB SWAP1 REVERT JUMPDEST PUSH0 DUP1 PUSH0 SWAP1 SLOAD SWAP1 PUSH2 0x100 EXP SWAP1 DIV PUSH20 0xFFFFFFFFFFFFFFFFFFFFFFFFFFFFFFFFFFFFFFFF AND PUSH20 0xFFFFFFFFFFFFFFFFFFFFFFFFFFFFFFFFFFFFFFFF AND PUSH2 0x8FC PUSH1 0x2 SLOAD SWAP1 DUP2 ISZERO MUL SWAP1 PUSH1 0x40 MLOAD PUSH0 PUSH1 0x40 MLOAD DUP1 DUP4 SUB DUP2 DUP6 DUP9 DUP9 CALL SWAP4 POP POP POP POP SWAP1 POP DUP1 ISZERO PUSH2 0x266 JUMPI PUSH0 PUSH1 0x2 DUP2 SWAP1 SSTORE POP PUSH2 0x29C JUMP JUMPDEST PUSH32 0xBF736152DC0EE781FA11477377CFEDDCA2078A599E4D5F600AB4FB85AD77F83A PUSH1 0x40 MLOAD PUSH2 0x293 SWAP1 PUSH2 0x503 JUMP JUMPDEST PUSH1 0x40 MLOAD DUP1 SWAP2 SUB SWAP1 LOG1 JUMPDEST POP JUMP JUMPDEST PUSH1 0x1 SLOAD DUP2 JUMP JUMPDEST PUSH0 DUP1 SLOAD SWAP1 PUSH2 0x100 EXP SWAP1 DIV PUSH20 0xFFFFFFFFFFFFFFFFFFFFFFFFFFFFFFFFFFFFFFFF AND DUP2 JUMP JUMPDEST PUSH1 0x2 SLOAD DUP2 JUMP JUMPDEST PUSH0 CALLVALUE GT PUSH2 0x310 JUMPI PUSH1 0x40 MLOAD PUSH32 0x8C379A000000000000000000000000000000000000000000000000000000000 DUP2 MSTORE PUSH1 0x4 ADD PUSH2 0x307 SWAP1 PUSH2 0x591 JUMP JUMPDEST PUSH1 0x40 MLOAD DUP1 SWAP2 SUB SWAP1 REVERT JUMPDEST CALLVALUE PUSH1 0x2 PUSH0 DUP3 DUP3 SLOAD PUSH2 0x321 SWAP2 SWAP1 PUSH2 0x5DC JUMP JUMPDEST SWAP3 POP POP DUP2 SWAP1 SSTORE POP JUMP JUMPDEST PUSH0 DUP2 SWAP1 POP SWAP2 SWAP1 POP JUMP JUMPDEST PUSH2 0x33C DUP2 PUSH2 0x32A JUMP JUMPDEST DUP3 MSTORE POP POP JUMP JUMPDEST PUSH0 PUSH1 0x20 DUP3 ADD SWAP1 POP PUSH2 0x355 PUSH0 DUP4 ADD DUP5 PUSH2 0x333 JUMP JUMPDEST SWAP3 SWAP2 POP POP JUMP JUMPDEST PUSH0 PUSH20 0xFFFFFFFFFFFFFFFFFFFFFFFFFFFFFFFFFFFFFFFF DUP3 AND SWAP1 POP SWAP2 SWAP1 POP JUMP JUMPDEST PUSH0 PUSH2 0x384 DUP3 PUSH2 0x35B JUMP JUMPDEST SWAP1 POP SWAP2 SWAP1 POP JUMP JUMPDEST PUSH2 0x394 DUP2 PUSH2 0x37A JUMP JUMPDEST DUP3 MSTORE POP POP JUMP JUMPDEST PUSH0 PUSH1 0x20 DUP3 ADD SWAP1 POP PUSH2 0x3AD PUSH0 DUP4 ADD DUP5 PUSH2 0x38B JUMP JUMPDEST SWAP3 SWAP2 POP POP JUMP JUMPDEST PUSH0 DUP3 DUP3 MSTORE PUSH1 0x20 DUP3 ADD SWAP1 POP SWAP3 SWAP2 POP POP JUMP JUMPDEST PUSH32 0x4F6E6C7920746865206F776E65722063616E2063616C6C20746869732066756E PUSH0 DUP3 ADD MSTORE PUSH32 0x6374696F6E000000000000000000000000000000000000000000000000000000 PUSH1 0x20 DUP3 ADD MSTORE POP JUMP JUMPDEST PUSH0 PUSH2 0x41D PUSH1 0x25 DUP4 PUSH2 0x3B3 JUMP JUMPDEST SWAP2 POP PUSH2 0x428 DUP3 PUSH2 0x3C3 JUMP JUMPDEST PUSH1 0x40 DUP3 ADD SWAP1 POP SWAP2 SWAP1 POP JUMP JUMPDEST PUSH0 PUSH1 0x20 DUP3 ADD SWAP1 POP DUP2 DUP2 SUB PUSH0 DUP4 ADD MSTORE PUSH2 0x44A DUP2 PUSH2 0x411 JUMP JUMPDEST SWAP1 POP SWAP2 SWAP1 POP JUMP JUMPDEST PUSH32 0x46756E64696E6720676F616C206E6F74206D6574000000000000000000000000 PUSH0 DUP3 ADD MSTORE POP JUMP JUMPDEST PUSH0 PUSH2 0x485 PUSH1 0x14 DUP4 PUSH2 0x3B3 JUMP JUMPDEST SWAP2 POP PUSH2 0x490 DUP3 PUSH2 0x451 JUMP JUMPDEST PUSH1 0x20 DUP3 ADD SWAP1 POP SWAP2 SWAP1 POP JUMP JUMPDEST PUSH0 PUSH1 0x20 DUP3 ADD SWAP1 POP DUP2 DUP2 SUB PUSH0 DUP4 ADD MSTORE PUSH2 0x4B2 DUP2 PUSH2 0x479 JUMP JUMPDEST SWAP1 POP SWAP2 SWAP1 POP JUMP JUMPDEST PUSH32 0x5472616E73666572206661696C65640000000000000000000000000000000000 PUSH0 DUP3 ADD MSTORE POP JUMP JUMPDEST PUSH0 PUSH2 0x4ED PUSH1 0xF DUP4 PUSH2 0x3B3 JUMP JUMPDEST SWAP2 POP PUSH2 0x4F8 DUP3 PUSH2 0x4B9 JUMP JUMPDEST PUSH1 0x20 DUP3 ADD SWAP1 POP SWAP2 SWAP1 POP JUMP JUMPDEST PUSH0 PUSH1 0x20 DUP3 ADD SWAP1 POP DUP2 DUP2 SUB PUSH0 DUP4 ADD MSTORE PUSH2 0x51A DUP2 PUSH2 0x4E1 JUMP JUMPDEST SWAP1 POP SWAP2 SWAP1 POP JUMP JUMPDEST PUSH32 0x436F6E747269627574696F6E206D757374206265206772656174657220746861 PUSH0 DUP3 ADD MSTORE PUSH32 0x6E20300000000000000000000000000000000000000000000000000000000000 PUSH1 0x20 DUP3 ADD MSTORE POP JUMP JUMPDEST PUSH0 PUSH2 0x57B PUSH1 0x23 DUP4 PUSH2 0x3B3 JUMP JUMPDEST SWAP2 POP PUSH2 0x586 DUP3 PUSH2 0x521 JUMP JUMPDEST PUSH1 0x40 DUP3 ADD SWAP1 POP SWAP2 SWAP1 POP JUMP JUMPDEST PUSH0 PUSH1 0x20 DUP3 ADD SWAP1 POP DUP2 DUP2 SUB PUSH0 DUP4 ADD MSTORE PUSH2 0x5A8 DUP2 PUSH2 0x56F JUMP JUMPDEST SWAP1 POP SWAP2 SWAP1 POP JUMP JUMPDEST PUSH32 0x4E487B7100000000000000000000000000000000000000000000000000000000 PUSH0 MSTORE PUSH1 0x11 PUSH1 0x4 MSTORE PUSH1 0x24 PUSH0 REVERT JUMPDEST PUSH0 PUSH2 0x5E6 DUP3 PUSH2 0x32A JUMP JUMPDEST SWAP2 POP PUSH2 0x5F1 DUP4 PUSH2 0x32A JUMP JUMPDEST SWAP3 POP DUP3 DUP3 ADD SWAP1 POP DUP1 DUP3 GT ISZERO PUSH2 0x609 JUMPI PUSH2 0x608 PUSH2 0x5AF JUMP JUMPDEST JUMPDEST SWAP3 SWAP2 POP POP JUMP INVALID LOG2 PUSH5 0x6970667358 0x22 SLT KECCAK256 PUSH24 0xD0F952CDB38D899206CCE66DD584D1444CABEE340CA7F83F 0xC0 0xA6 0x24 0xBC PUSH10 0xF2A664736F6C63430008 ISZERO STOP CALLER "
				},
				"gasEstimates": {
					"creation": {
						"codeDepositCost": "321000",
						"executionCost": "infinite",
						"totalCost": "infinite"
					},
					"external": {
						"contribute()": "infinite",
						"fundingGoal()": "2447",
						"getBalance()": "312",
						"owner()": "2549",
						"totalFunds()": "2491",
						"withdrawFunds()": "infinite"
					}
				},
				"methodIdentifiers": {
					"contribute()": "d7bb99ba",
					"fundingGoal()": "7a3a0e84",
					"getBalance()": "12065fe0",
					"owner()": "8da5cb5b",
					"totalFunds()": "968ed600",
					"withdrawFunds()": "24600fc3"
				}
			},
			"storageLayout": {
				"storage": [
					{
						"astId": 3,
						"contract": "smartwallet/try-catch.sol:FundWithdrawalExample",
						"label": "owner",
						"offset": 0,
						"slot": "0",
						"type": "t_address_payable"
					},
					{
						"astId": 5,
						"contract": "smartwallet/try-catch.sol:FundWithdrawalExample",
						"label": "fundingGoal",
						"offset": 0,
						"slot": "1",
						"type": "t_uint256"
					},
					{
						"astId": 7,
						"contract": "smartwallet/try-catch.sol:FundWithdrawalExample",
						"label": "totalFunds",
						"offset": 0,
						"slot": "2",
						"type": "t_uint256"
					}
				],
				"types": {
					"t_address_payable": {
						"encoding": "inplace",
						"label": "address payable",
						"numberOfBytes": "20"
					},
					"t_uint256": {
						"encoding": "inplace",
						"label": "uint256",
						"numberOfBytes": "32"
					}
				}
			},
			"userdoc": {
				"kind": "user",
				"methods": {},
				"version": 1
			}
		}
	}
}