{
	"smartwallet/smart-wallet.sol": {
		"smartWallet": {
			"abi": [
				{
					"inputs": [],
					"stateMutability": "nonpayable",
					"type": "constructor"
				},
				{
					"inputs": [],
					"name": "balances",
					"outputs": [
						{
							"internalType": "uint256",
							"name": "",
							"type": "uint256"
						}
					],
					"stateMutability": "view",
					"type": "function"
				},
				{
					"inputs": [],
					"name": "owner",
					"outputs": [
						{
							"internalType": "address",
							"name": "",
							"type": "address"
						}
					],
					"stateMutability": "view",
					"type": "function"
				},
				{
					"inputs": [
						{
							"internalType": "address payable",
							"name": "to",
							"type": "address"
						},
						{
							"internalType": "uint256",
							"name": "amount",
							"type": "uint256"
						}
					],
					"name": "transfer",
					"outputs": [],
					"stateMutability": "nonpayable",
					"type": "function"
				},
				{
					"inputs": [],
					"name": "viewBalance",
					"outputs": [
						{
							"internalType": "uint256",
							"name": "",
							"type": "uint256"
						}
					],
					"stateMutability": "view",
					"type": "function"
				},
				{
					"stateMutability": "payable",
					"type": "receive"
				}
			],
			"devdoc": {
				"kind": "dev",
				"methods": {},
				"version": 1
			},
			"evm": {
				"assembly": "    /* \"smartwallet/smart-wallet.sol\":57:519  contract smartWallet {... */\n  mstore(0x40, 0x80)\n    /* \"smartwallet/smart-wallet.sol\":140:188  constructor(){... */\n  callvalue\n  dup1\n  iszero\n  tag_1\n  jumpi\n  0x00\n  dup1\n  revert\ntag_1:\n  pop\n    /* \"smartwallet/smart-wallet.sol\":171:181  msg.sender */\n  caller\n    /* \"smartwallet/smart-wallet.sol\":163:168  owner */\n  0x00\n  dup1\n    /* \"smartwallet/smart-wallet.sol\":163:181  owner = msg.sender */\n  0x0100\n  exp\n  dup2\n  sload\n  dup2\n  0xffffffffffffffffffffffffffffffffffffffff\n  mul\n  not\n  and\n  swap1\n  dup4\n  0xffffffffffffffffffffffffffffffffffffffff\n  and\n  mul\n  or\n  swap1\n  sstore\n  pop\n    /* \"smartwallet/smart-wallet.sol\":57:519  contract smartWallet {... */\n  dataSize(sub_0)\n  dup1\n  dataOffset(sub_0)\n  0x00\n  codecopy\n  0x00\n  return\nstop\n\nsub_0: assembly {\n        /* \"smartwallet/smart-wallet.sol\":57:519  contract smartWallet {... */\n      mstore(0x40, 0x80)\n      jumpi(tag_1, lt(calldatasize, 0x04))\n      shr(0xe0, calldataload(0x00))\n      dup1\n      0x3ff1e05b\n      eq\n      tag_3\n      jumpi\n      dup1\n      0x7bb98a68\n      eq\n      tag_4\n      jumpi\n      dup1\n      0x8da5cb5b\n      eq\n      tag_5\n      jumpi\n      dup1\n      0xa9059cbb\n      eq\n      tag_6\n      jumpi\n      jump(tag_2)\n    tag_1:\n      jumpi(tag_2, calldatasize)\n        /* \"smartwallet/smart-wallet.sol\":252:253  0 */\n      0x00\n        /* \"smartwallet/smart-wallet.sol\":240:249  msg.value */\n      callvalue\n        /* \"smartwallet/smart-wallet.sol\":240:253  msg.value > 0 */\n      gt\n        /* \"smartwallet/smart-wallet.sol\":232:277  require(msg.value > 0, \"Insuffucient Amount\") */\n      tag_9\n      jumpi\n      mload(0x40)\n      0x08c379a000000000000000000000000000000000000000000000000000000000\n      dup2\n      mstore\n      0x04\n      add\n      tag_10\n      swap1\n      tag_11\n      jump\t// in\n    tag_10:\n      mload(0x40)\n      dup1\n      swap2\n      sub\n      swap1\n      revert\n    tag_9:\n        /* \"smartwallet/smart-wallet.sol\":299:308  msg.value */\n      callvalue\n        /* \"smartwallet/smart-wallet.sol\":287:295  balances */\n      0x01\n      0x00\n        /* \"smartwallet/smart-wallet.sol\":287:308  balances += msg.value */\n      dup3\n      dup3\n      sload\n      tag_12\n      swap2\n      swap1\n      tag_13\n      jump\t// in\n    tag_12:\n      swap3\n      pop\n      pop\n      dup2\n      swap1\n      sstore\n      stop\n        /* \"smartwallet/smart-wallet.sol\":57:519  contract smartWallet {... */\n    tag_2:\n      0x00\n      dup1\n      revert\n        /* \"smartwallet/smart-wallet.sol\":422:516  function viewBalance() public view returns (uint){... */\n    tag_3:\n      callvalue\n      dup1\n      iszero\n      tag_14\n      jumpi\n      0x00\n      dup1\n      revert\n    tag_14:\n      pop\n      tag_15\n      tag_16\n      jump\t// in\n    tag_15:\n      mload(0x40)\n      tag_17\n      swap2\n      swap1\n      tag_18\n      jump\t// in\n    tag_17:\n      mload(0x40)\n      dup1\n      swap2\n      sub\n      swap1\n      return\n        /* \"smartwallet/smart-wallet.sol\":110:133  uint256 public balances */\n    tag_4:\n      callvalue\n      dup1\n      iszero\n      tag_19\n      jumpi\n      0x00\n      dup1\n      revert\n    tag_19:\n      pop\n      tag_20\n      tag_21\n      jump\t// in\n    tag_20:\n      mload(0x40)\n      tag_22\n      swap2\n      swap1\n      tag_18\n      jump\t// in\n    tag_22:\n      mload(0x40)\n      dup1\n      swap2\n      sub\n      swap1\n      return\n        /* \"smartwallet/smart-wallet.sol\":84:104  address public owner */\n    tag_5:\n      callvalue\n      dup1\n      iszero\n      tag_23\n      jumpi\n      0x00\n      dup1\n      revert\n    tag_23:\n      pop\n      tag_24\n      tag_25\n      jump\t// in\n    tag_24:\n      mload(0x40)\n      tag_26\n      swap2\n      swap1\n      tag_27\n      jump\t// in\n    tag_26:\n      mload(0x40)\n      dup1\n      swap2\n      sub\n      swap1\n      return\n        /* \"smartwallet/smart-wallet.sol\":322:416  function transfer(address payable to, uint amount) public {... */\n    tag_6:\n      callvalue\n      dup1\n      iszero\n      tag_28\n      jumpi\n      0x00\n      dup1\n      revert\n    tag_28:\n      pop\n      tag_29\n      0x04\n      dup1\n      calldatasize\n      sub\n      dup2\n      add\n      swap1\n      tag_30\n      swap2\n      swap1\n      tag_31\n      jump\t// in\n    tag_30:\n      tag_32\n      jump\t// in\n    tag_29:\n      stop\n        /* \"smartwallet/smart-wallet.sol\":422:516  function viewBalance() public view returns (uint){... */\n    tag_16:\n        /* \"smartwallet/smart-wallet.sol\":466:470  uint */\n      0x00\n        /* \"smartwallet/smart-wallet.sol\":488:509  address(this).balance */\n      selfbalance\n        /* \"smartwallet/smart-wallet.sol\":481:509  return address(this).balance */\n      swap1\n      pop\n        /* \"smartwallet/smart-wallet.sol\":422:516  function viewBalance() public view returns (uint){... */\n      swap1\n      jump\t// out\n        /* \"smartwallet/smart-wallet.sol\":110:133  uint256 public balances */\n    tag_21:\n      sload(0x01)\n      dup2\n      jump\t// out\n        /* \"smartwallet/smart-wallet.sol\":84:104  address public owner */\n    tag_25:\n      0x00\n      dup1\n      sload\n      swap1\n      0x0100\n      exp\n      swap1\n      div\n      0xffffffffffffffffffffffffffffffffffffffff\n      and\n      dup2\n      jump\t// out\n        /* \"smartwallet/smart-wallet.sol\":322:416  function transfer(address payable to, uint amount) public {... */\n    tag_32:\n        /* \"smartwallet/smart-wallet.sol\":390:392  to */\n      dup2\n        /* \"smartwallet/smart-wallet.sol\":390:401  to.transfer */\n      0xffffffffffffffffffffffffffffffffffffffff\n      and\n        /* \"smartwallet/smart-wallet.sol\":390:409  to.transfer(amount) */\n      0x08fc\n        /* \"smartwallet/smart-wallet.sol\":402:408  amount */\n      dup3\n        /* \"smartwallet/smart-wallet.sol\":390:409  to.transfer(amount) */\n      swap1\n      dup2\n      iszero\n      mul\n      swap1\n      mload(0x40)\n      0x00\n      mload(0x40)\n      dup1\n      dup4\n      sub\n      dup2\n      dup6\n      dup9\n      dup9\n      call\n      swap4\n      pop\n      pop\n      pop\n      pop\n      iszero\n      dup1\n      iszero\n      tag_36\n      jumpi\n      returndatasize\n      0x00\n      dup1\n      returndatacopy\n      revert(0x00, returndatasize)\n    tag_36:\n      pop\n        /* \"smartwallet/smart-wallet.sol\":322:416  function transfer(address payable to, uint amount) public {... */\n      pop\n      pop\n      jump\t// out\n        /* \"#utility.yul\":7:176   */\n    tag_37:\n        /* \"#utility.yul\":91:102   */\n      0x00\n        /* \"#utility.yul\":125:131   */\n      dup3\n        /* \"#utility.yul\":120:123   */\n      dup3\n        /* \"#utility.yul\":113:132   */\n      mstore\n        /* \"#utility.yul\":165:169   */\n      0x20\n        /* \"#utility.yul\":160:163   */\n      dup3\n        /* \"#utility.yul\":156:170   */\n      add\n        /* \"#utility.yul\":141:170   */\n      swap1\n      pop\n        /* \"#utility.yul\":7:176   */\n      swap3\n      swap2\n      pop\n      pop\n      jump\t// out\n        /* \"#utility.yul\":182:351   */\n    tag_38:\n        /* \"#utility.yul\":322:343   */\n      0x496e73756666756369656e7420416d6f756e7400000000000000000000000000\n        /* \"#utility.yul\":318:319   */\n      0x00\n        /* \"#utility.yul\":310:316   */\n      dup3\n        /* \"#utility.yul\":306:320   */\n      add\n        /* \"#utility.yul\":299:344   */\n      mstore\n        /* \"#utility.yul\":182:351   */\n      pop\n      jump\t// out\n        /* \"#utility.yul\":357:723   */\n    tag_39:\n        /* \"#utility.yul\":499:502   */\n      0x00\n        /* \"#utility.yul\":520:587   */\n      tag_58\n        /* \"#utility.yul\":584:586   */\n      0x13\n        /* \"#utility.yul\":579:582   */\n      dup4\n        /* \"#utility.yul\":520:587   */\n      tag_37\n      jump\t// in\n    tag_58:\n        /* \"#utility.yul\":513:587   */\n      swap2\n      pop\n        /* \"#utility.yul\":596:689   */\n      tag_59\n        /* \"#utility.yul\":685:688   */\n      dup3\n        /* \"#utility.yul\":596:689   */\n      tag_38\n      jump\t// in\n    tag_59:\n        /* \"#utility.yul\":714:716   */\n      0x20\n        /* \"#utility.yul\":709:712   */\n      dup3\n        /* \"#utility.yul\":705:717   */\n      add\n        /* \"#utility.yul\":698:717   */\n      swap1\n      pop\n        /* \"#utility.yul\":357:723   */\n      swap2\n      swap1\n      pop\n      jump\t// out\n        /* \"#utility.yul\":729:1148   */\n    tag_11:\n        /* \"#utility.yul\":895:899   */\n      0x00\n        /* \"#utility.yul\":933:935   */\n      0x20\n        /* \"#utility.yul\":922:931   */\n      dup3\n        /* \"#utility.yul\":918:936   */\n      add\n        /* \"#utility.yul\":910:936   */\n      swap1\n      pop\n        /* \"#utility.yul\":982:991   */\n      dup2\n        /* \"#utility.yul\":976:980   */\n      dup2\n        /* \"#utility.yul\":972:992   */\n      sub\n        /* \"#utility.yul\":968:969   */\n      0x00\n        /* \"#utility.yul\":957:966   */\n      dup4\n        /* \"#utility.yul\":953:970   */\n      add\n        /* \"#utility.yul\":946:993   */\n      mstore\n        /* \"#utility.yul\":1010:1141   */\n      tag_61\n        /* \"#utility.yul\":1136:1140   */\n      dup2\n        /* \"#utility.yul\":1010:1141   */\n      tag_39\n      jump\t// in\n    tag_61:\n        /* \"#utility.yul\":1002:1141   */\n      swap1\n      pop\n        /* \"#utility.yul\":729:1148   */\n      swap2\n      swap1\n      pop\n      jump\t// out\n        /* \"#utility.yul\":1154:1231   */\n    tag_40:\n        /* \"#utility.yul\":1191:1198   */\n      0x00\n        /* \"#utility.yul\":1220:1225   */\n      dup2\n        /* \"#utility.yul\":1209:1225   */\n      swap1\n      pop\n        /* \"#utility.yul\":1154:1231   */\n      swap2\n      swap1\n      pop\n      jump\t// out\n        /* \"#utility.yul\":1237:1417   */\n    tag_41:\n        /* \"#utility.yul\":1285:1362   */\n      0x4e487b7100000000000000000000000000000000000000000000000000000000\n        /* \"#utility.yul\":1282:1283   */\n      0x00\n        /* \"#utility.yul\":1275:1363   */\n      mstore\n        /* \"#utility.yul\":1382:1386   */\n      0x11\n        /* \"#utility.yul\":1379:1380   */\n      0x04\n        /* \"#utility.yul\":1372:1387   */\n      mstore\n        /* \"#utility.yul\":1406:1410   */\n      0x24\n        /* \"#utility.yul\":1403:1404   */\n      0x00\n        /* \"#utility.yul\":1396:1411   */\n      revert\n        /* \"#utility.yul\":1423:1614   */\n    tag_13:\n        /* \"#utility.yul\":1463:1466   */\n      0x00\n        /* \"#utility.yul\":1482:1502   */\n      tag_65\n        /* \"#utility.yul\":1500:1501   */\n      dup3\n        /* \"#utility.yul\":1482:1502   */\n      tag_40\n      jump\t// in\n    tag_65:\n        /* \"#utility.yul\":1477:1502   */\n      swap2\n      pop\n        /* \"#utility.yul\":1516:1536   */\n      tag_66\n        /* \"#utility.yul\":1534:1535   */\n      dup4\n        /* \"#utility.yul\":1516:1536   */\n      tag_40\n      jump\t// in\n    tag_66:\n        /* \"#utility.yul\":1511:1536   */\n      swap3\n      pop\n        /* \"#utility.yul\":1559:1560   */\n      dup3\n        /* \"#utility.yul\":1556:1557   */\n      dup3\n        /* \"#utility.yul\":1552:1561   */\n      add\n        /* \"#utility.yul\":1545:1561   */\n      swap1\n      pop\n        /* \"#utility.yul\":1580:1583   */\n      dup1\n        /* \"#utility.yul\":1577:1578   */\n      dup3\n        /* \"#utility.yul\":1574:1584   */\n      gt\n        /* \"#utility.yul\":1571:1607   */\n      iszero\n      tag_67\n      jumpi\n        /* \"#utility.yul\":1587:1605   */\n      tag_68\n      tag_41\n      jump\t// in\n    tag_68:\n        /* \"#utility.yul\":1571:1607   */\n    tag_67:\n        /* \"#utility.yul\":1423:1614   */\n      swap3\n      swap2\n      pop\n      pop\n      jump\t// out\n        /* \"#utility.yul\":1620:1738   */\n    tag_42:\n        /* \"#utility.yul\":1707:1731   */\n      tag_70\n        /* \"#utility.yul\":1725:1730   */\n      dup2\n        /* \"#utility.yul\":1707:1731   */\n      tag_40\n      jump\t// in\n    tag_70:\n        /* \"#utility.yul\":1702:1705   */\n      dup3\n        /* \"#utility.yul\":1695:1732   */\n      mstore\n        /* \"#utility.yul\":1620:1738   */\n      pop\n      pop\n      jump\t// out\n        /* \"#utility.yul\":1744:1966   */\n    tag_18:\n        /* \"#utility.yul\":1837:1841   */\n      0x00\n        /* \"#utility.yul\":1875:1877   */\n      0x20\n        /* \"#utility.yul\":1864:1873   */\n      dup3\n        /* \"#utility.yul\":1860:1878   */\n      add\n        /* \"#utility.yul\":1852:1878   */\n      swap1\n      pop\n        /* \"#utility.yul\":1888:1959   */\n      tag_72\n        /* \"#utility.yul\":1956:1957   */\n      0x00\n        /* \"#utility.yul\":1945:1954   */\n      dup4\n        /* \"#utility.yul\":1941:1958   */\n      add\n        /* \"#utility.yul\":1932:1938   */\n      dup5\n        /* \"#utility.yul\":1888:1959   */\n      tag_42\n      jump\t// in\n    tag_72:\n        /* \"#utility.yul\":1744:1966   */\n      swap3\n      swap2\n      pop\n      pop\n      jump\t// out\n        /* \"#utility.yul\":1972:2098   */\n    tag_43:\n        /* \"#utility.yul\":2009:2016   */\n      0x00\n        /* \"#utility.yul\":2049:2091   */\n      0xffffffffffffffffffffffffffffffffffffffff\n        /* \"#utility.yul\":2042:2047   */\n      dup3\n        /* \"#utility.yul\":2038:2092   */\n      and\n        /* \"#utility.yul\":2027:2092   */\n      swap1\n      pop\n        /* \"#utility.yul\":1972:2098   */\n      swap2\n      swap1\n      pop\n      jump\t// out\n        /* \"#utility.yul\":2104:2200   */\n    tag_44:\n        /* \"#utility.yul\":2141:2148   */\n      0x00\n        /* \"#utility.yul\":2170:2194   */\n      tag_75\n        /* \"#utility.yul\":2188:2193   */\n      dup3\n        /* \"#utility.yul\":2170:2194   */\n      tag_43\n      jump\t// in\n    tag_75:\n        /* \"#utility.yul\":2159:2194   */\n      swap1\n      pop\n        /* \"#utility.yul\":2104:2200   */\n      swap2\n      swap1\n      pop\n      jump\t// out\n        /* \"#utility.yul\":2206:2324   */\n    tag_45:\n        /* \"#utility.yul\":2293:2317   */\n      tag_77\n        /* \"#utility.yul\":2311:2316   */\n      dup2\n        /* \"#utility.yul\":2293:2317   */\n      tag_44\n      jump\t// in\n    tag_77:\n        /* \"#utility.yul\":2288:2291   */\n      dup3\n        /* \"#utility.yul\":2281:2318   */\n      mstore\n        /* \"#utility.yul\":2206:2324   */\n      pop\n      pop\n      jump\t// out\n        /* \"#utility.yul\":2330:2552   */\n    tag_27:\n        /* \"#utility.yul\":2423:2427   */\n      0x00\n        /* \"#utility.yul\":2461:2463   */\n      0x20\n        /* \"#utility.yul\":2450:2459   */\n      dup3\n        /* \"#utility.yul\":2446:2464   */\n      add\n        /* \"#utility.yul\":2438:2464   */\n      swap1\n      pop\n        /* \"#utility.yul\":2474:2545   */\n      tag_79\n        /* \"#utility.yul\":2542:2543   */\n      0x00\n        /* \"#utility.yul\":2531:2540   */\n      dup4\n        /* \"#utility.yul\":2527:2544   */\n      add\n        /* \"#utility.yul\":2518:2524   */\n      dup5\n        /* \"#utility.yul\":2474:2545   */\n      tag_45\n      jump\t// in\n    tag_79:\n        /* \"#utility.yul\":2330:2552   */\n      swap3\n      swap2\n      pop\n      pop\n      jump\t// out\n        /* \"#utility.yul\":2639:2756   */\n    tag_47:\n        /* \"#utility.yul\":2748:2749   */\n      0x00\n        /* \"#utility.yul\":2745:2746   */\n      dup1\n        /* \"#utility.yul\":2738:2750   */\n      revert\n        /* \"#utility.yul\":2885:2989   */\n    tag_49:\n        /* \"#utility.yul\":2930:2937   */\n      0x00\n        /* \"#utility.yul\":2959:2983   */\n      tag_84\n        /* \"#utility.yul\":2977:2982   */\n      dup3\n        /* \"#utility.yul\":2959:2983   */\n      tag_43\n      jump\t// in\n    tag_84:\n        /* \"#utility.yul\":2948:2983   */\n      swap1\n      pop\n        /* \"#utility.yul\":2885:2989   */\n      swap2\n      swap1\n      pop\n      jump\t// out\n        /* \"#utility.yul\":2995:3133   */\n    tag_50:\n        /* \"#utility.yul\":3076:3108   */\n      tag_86\n        /* \"#utility.yul\":3102:3107   */\n      dup2\n        /* \"#utility.yul\":3076:3108   */\n      tag_49\n      jump\t// in\n    tag_86:\n        /* \"#utility.yul\":3069:3074   */\n      dup2\n        /* \"#utility.yul\":3066:3109   */\n      eq\n        /* \"#utility.yul\":3056:3127   */\n      tag_87\n      jumpi\n        /* \"#utility.yul\":3123:3124   */\n      0x00\n        /* \"#utility.yul\":3120:3121   */\n      dup1\n        /* \"#utility.yul\":3113:3125   */\n      revert\n        /* \"#utility.yul\":3056:3127   */\n    tag_87:\n        /* \"#utility.yul\":2995:3133   */\n      pop\n      jump\t// out\n        /* \"#utility.yul\":3139:3294   */\n    tag_51:\n        /* \"#utility.yul\":3193:3198   */\n      0x00\n        /* \"#utility.yul\":3231:3237   */\n      dup2\n        /* \"#utility.yul\":3218:3238   */\n      calldataload\n        /* \"#utility.yul\":3209:3238   */\n      swap1\n      pop\n        /* \"#utility.yul\":3247:3288   */\n      tag_89\n        /* \"#utility.yul\":3282:3287   */\n      dup2\n        /* \"#utility.yul\":3247:3288   */\n      tag_50\n      jump\t// in\n    tag_89:\n        /* \"#utility.yul\":3139:3294   */\n      swap3\n      swap2\n      pop\n      pop\n      jump\t// out\n        /* \"#utility.yul\":3300:3422   */\n    tag_52:\n        /* \"#utility.yul\":3373:3397   */\n      tag_91\n        /* \"#utility.yul\":3391:3396   */\n      dup2\n        /* \"#utility.yul\":3373:3397   */\n      tag_40\n      jump\t// in\n    tag_91:\n        /* \"#utility.yul\":3366:3371   */\n      dup2\n        /* \"#utility.yul\":3363:3398   */\n      eq\n        /* \"#utility.yul\":3353:3416   */\n      tag_92\n      jumpi\n        /* \"#utility.yul\":3412:3413   */\n      0x00\n        /* \"#utility.yul\":3409:3410   */\n      dup1\n        /* \"#utility.yul\":3402:3414   */\n      revert\n        /* \"#utility.yul\":3353:3416   */\n    tag_92:\n        /* \"#utility.yul\":3300:3422   */\n      pop\n      jump\t// out\n        /* \"#utility.yul\":3428:3567   */\n    tag_53:\n        /* \"#utility.yul\":3474:3479   */\n      0x00\n        /* \"#utility.yul\":3512:3518   */\n      dup2\n        /* \"#utility.yul\":3499:3519   */\n      calldataload\n        /* \"#utility.yul\":3490:3519   */\n      swap1\n      pop\n        /* \"#utility.yul\":3528:3561   */\n      tag_94\n        /* \"#utility.yul\":3555:3560   */\n      dup2\n        /* \"#utility.yul\":3528:3561   */\n      tag_52\n      jump\t// in\n    tag_94:\n        /* \"#utility.yul\":3428:3567   */\n      swap3\n      swap2\n      pop\n      pop\n      jump\t// out\n        /* \"#utility.yul\":3573:4063   */\n    tag_31:\n        /* \"#utility.yul\":3649:3655   */\n      0x00\n        /* \"#utility.yul\":3657:3663   */\n      dup1\n        /* \"#utility.yul\":3706:3708   */\n      0x40\n        /* \"#utility.yul\":3694:3703   */\n      dup4\n        /* \"#utility.yul\":3685:3692   */\n      dup6\n        /* \"#utility.yul\":3681:3704   */\n      sub\n        /* \"#utility.yul\":3677:3709   */\n      slt\n        /* \"#utility.yul\":3674:3793   */\n      iszero\n      tag_96\n      jumpi\n        /* \"#utility.yul\":3712:3791   */\n      tag_97\n      tag_47\n      jump\t// in\n    tag_97:\n        /* \"#utility.yul\":3674:3793   */\n    tag_96:\n        /* \"#utility.yul\":3832:3833   */\n      0x00\n        /* \"#utility.yul\":3857:3918   */\n      tag_98\n        /* \"#utility.yul\":3910:3917   */\n      dup6\n        /* \"#utility.yul\":3901:3907   */\n      dup3\n        /* \"#utility.yul\":3890:3899   */\n      dup7\n        /* \"#utility.yul\":3886:3908   */\n      add\n        /* \"#utility.yul\":3857:3918   */\n      tag_51\n      jump\t// in\n    tag_98:\n        /* \"#utility.yul\":3847:3918   */\n      swap3\n      pop\n        /* \"#utility.yul\":3803:3928   */\n      pop\n        /* \"#utility.yul\":3967:3969   */\n      0x20\n        /* \"#utility.yul\":3993:4046   */\n      tag_99\n        /* \"#utility.yul\":4038:4045   */\n      dup6\n        /* \"#utility.yul\":4029:4035   */\n      dup3\n        /* \"#utility.yul\":4018:4027   */\n      dup7\n        /* \"#utility.yul\":4014:4036   */\n      add\n        /* \"#utility.yul\":3993:4046   */\n      tag_53\n      jump\t// in\n    tag_99:\n        /* \"#utility.yul\":3983:4046   */\n      swap2\n      pop\n        /* \"#utility.yul\":3938:4056   */\n      pop\n        /* \"#utility.yul\":3573:4063   */\n      swap3\n      pop\n      swap3\n      swap1\n      pop\n      jump\t// out\n\n    auxdata: 0xa26469706673582212204aa607ca661c7361708590eef3a3253983e05e4f08c99cec183921c51b5e2f0f64736f6c63430008120033\n}\n",
				"bytecode": {
					"linkReferences": {},
					"object": "608060405234801561001057600080fd5b50336000806101000a81548173ffffffffffffffffffffffffffffffffffffffff021916908373ffffffffffffffffffffffffffffffffffffffff160217905550610426806100606000396000f3fe6080604052600436106100435760003560e01c80633ff1e05b146100aa5780637bb98a68146100d55780638da5cb5b14610100578063a9059cbb1461012b576100a5565b366100a5576000341161008b576040517f08c379a00000000000000000000000000000000000000000000000000000000081526004016100829061022e565b60405180910390fd5b346001600082825461009d9190610287565b925050819055005b600080fd5b3480156100b657600080fd5b506100bf610154565b6040516100cc91906102ca565b60405180910390f35b3480156100e157600080fd5b506100ea61015c565b6040516100f791906102ca565b60405180910390f35b34801561010c57600080fd5b50610115610162565b6040516101229190610326565b60405180910390f35b34801561013757600080fd5b50610152600480360381019061014d91906103b0565b610186565b005b600047905090565b60015481565b60008054906101000a900473ffffffffffffffffffffffffffffffffffffffff1681565b8173ffffffffffffffffffffffffffffffffffffffff166108fc829081150290604051600060405180830381858888f193505050501580156101cc573d6000803e3d6000fd5b505050565b600082825260208201905092915050565b7f496e73756666756369656e7420416d6f756e7400000000000000000000000000600082015250565b60006102186013836101d1565b9150610223826101e2565b602082019050919050565b600060208201905081810360008301526102478161020b565b9050919050565b6000819050919050565b7f4e487b7100000000000000000000000000000000000000000000000000000000600052601160045260246000fd5b60006102928261024e565b915061029d8361024e565b92508282019050808211156102b5576102b4610258565b5b92915050565b6102c48161024e565b82525050565b60006020820190506102df60008301846102bb565b92915050565b600073ffffffffffffffffffffffffffffffffffffffff82169050919050565b6000610310826102e5565b9050919050565b61032081610305565b82525050565b600060208201905061033b6000830184610317565b92915050565b600080fd5b6000610351826102e5565b9050919050565b61036181610346565b811461036c57600080fd5b50565b60008135905061037e81610358565b92915050565b61038d8161024e565b811461039857600080fd5b50565b6000813590506103aa81610384565b92915050565b600080604083850312156103c7576103c6610341565b5b60006103d58582860161036f565b92505060206103e68582860161039b565b915050925092905056fea26469706673582212204aa607ca661c7361708590eef3a3253983e05e4f08c99cec183921c51b5e2f0f64736f6c63430008120033",
					"opcodes": "PUSH1 0x80 PUSH1 0x40 MSTORE CALLVALUE DUP1 ISZERO PUSH2 0x10 JUMPI PUSH1 0x0 DUP1 REVERT JUMPDEST POP CALLER PUSH1 0x0 DUP1 PUSH2 0x100 EXP DUP2 SLOAD DUP2 PUSH20 0xFFFFFFFFFFFFFFFFFFFFFFFFFFFFFFFFFFFFFFFF MUL NOT AND SWAP1 DUP4 PUSH20 0xFFFFFFFFFFFFFFFFFFFFFFFFFFFFFFFFFFFFFFFF AND MUL OR SWAP1 SSTORE POP PUSH2 0x426 DUP1 PUSH2 0x60 PUSH1 0x0 CODECOPY PUSH1 0x0 RETURN INVALID PUSH1 0x80 PUSH1 0x40 MSTORE PUSH1 0x4 CALLDATASIZE LT PUSH2 0x43 JUMPI PUSH1 0x0 CALLDATALOAD PUSH1 0xE0 SHR DUP1 PUSH4 0x3FF1E05B EQ PUSH2 0xAA JUMPI DUP1 PUSH4 0x7BB98A68 EQ PUSH2 0xD5 JUMPI DUP1 PUSH4 0x8DA5CB5B EQ PUSH2 0x100 JUMPI DUP1 PUSH4 0xA9059CBB EQ PUSH2 0x12B JUMPI PUSH2 0xA5 JUMP JUMPDEST CALLDATASIZE PUSH2 0xA5 JUMPI PUSH1 0x0 CALLVALUE GT PUSH2 0x8B JUMPI PUSH1 0x40 MLOAD PUSH32 0x8C379A000000000000000000000000000000000000000000000000000000000 DUP2 MSTORE PUSH1 0x4 ADD PUSH2 0x82 SWAP1 PUSH2 0x22E JUMP JUMPDEST PUSH1 0x40 MLOAD DUP1 SWAP2 SUB SWAP1 REVERT JUMPDEST CALLVALUE PUSH1 0x1 PUSH1 0x0 DUP3 DUP3 SLOAD PUSH2 0x9D SWAP2 SWAP1 PUSH2 0x287 JUMP JUMPDEST SWAP3 POP POP DUP2 SWAP1 SSTORE STOP JUMPDEST PUSH1 0x0 DUP1 REVERT JUMPDEST CALLVALUE DUP1 ISZERO PUSH2 0xB6 JUMPI PUSH1 0x0 DUP1 REVERT JUMPDEST POP PUSH2 0xBF PUSH2 0x154 JUMP JUMPDEST PUSH1 0x40 MLOAD PUSH2 0xCC SWAP2 SWAP1 PUSH2 0x2CA JUMP JUMPDEST PUSH1 0x40 MLOAD DUP1 SWAP2 SUB SWAP1 RETURN JUMPDEST CALLVALUE DUP1 ISZERO PUSH2 0xE1 JUMPI PUSH1 0x0 DUP1 REVERT JUMPDEST POP PUSH2 0xEA PUSH2 0x15C JUMP JUMPDEST PUSH1 0x40 MLOAD PUSH2 0xF7 SWAP2 SWAP1 PUSH2 0x2CA JUMP JUMPDEST PUSH1 0x40 MLOAD DUP1 SWAP2 SUB SWAP1 RETURN JUMPDEST CALLVALUE DUP1 ISZERO PUSH2 0x10C JUMPI PUSH1 0x0 DUP1 REVERT JUMPDEST POP PUSH2 0x115 PUSH2 0x162 JUMP JUMPDEST PUSH1 0x40 MLOAD PUSH2 0x122 SWAP2 SWAP1 PUSH2 0x326 JUMP JUMPDEST PUSH1 0x40 MLOAD DUP1 SWAP2 SUB SWAP1 RETURN JUMPDEST CALLVALUE DUP1 ISZERO PUSH2 0x137 JUMPI PUSH1 0x0 DUP1 REVERT JUMPDEST POP PUSH2 0x152 PUSH1 0x4 DUP1 CALLDATASIZE SUB DUP2 ADD SWAP1 PUSH2 0x14D SWAP2 SWAP1 PUSH2 0x3B0 JUMP JUMPDEST PUSH2 0x186 JUMP JUMPDEST STOP JUMPDEST PUSH1 0x0 SELFBALANCE SWAP1 POP SWAP1 JUMP JUMPDEST PUSH1 0x1 SLOAD DUP2 JUMP JUMPDEST PUSH1 0x0 DUP1 SLOAD SWAP1 PUSH2 0x100 EXP SWAP1 DIV PUSH20 0xFFFFFFFFFFFFFFFFFFFFFFFFFFFFFFFFFFFFFFFF AND DUP2 JUMP JUMPDEST DUP2 PUSH20 0xFFFFFFFFFFFFFFFFFFFFFFFFFFFFFFFFFFFFFFFF AND PUSH2 0x8FC DUP3 SWAP1 DUP2 ISZERO MUL SWAP1 PUSH1 0x40 MLOAD PUSH1 0x0 PUSH1 0x40 MLOAD DUP1 DUP4 SUB DUP2 DUP6 DUP9 DUP9 CALL SWAP4 POP POP POP POP ISZERO DUP1 ISZERO PUSH2 0x1CC JUMPI RETURNDATASIZE PUSH1 0x0 DUP1 RETURNDATACOPY RETURNDATASIZE PUSH1 0x0 REVERT JUMPDEST POP POP POP JUMP JUMPDEST PUSH1 0x0 DUP3 DUP3 MSTORE PUSH1 0x20 DUP3 ADD SWAP1 POP SWAP3 SWAP2 POP POP JUMP JUMPDEST PUSH32 0x496E73756666756369656E7420416D6F756E7400000000000000000000000000 PUSH1 0x0 DUP3 ADD MSTORE POP JUMP JUMPDEST PUSH1 0x0 PUSH2 0x218 PUSH1 0x13 DUP4 PUSH2 0x1D1 JUMP JUMPDEST SWAP2 POP PUSH2 0x223 DUP3 PUSH2 0x1E2 JUMP JUMPDEST PUSH1 0x20 DUP3 ADD SWAP1 POP SWAP2 SWAP1 POP JUMP JUMPDEST PUSH1 0x0 PUSH1 0x20 DUP3 ADD SWAP1 POP DUP2 DUP2 SUB PUSH1 0x0 DUP4 ADD MSTORE PUSH2 0x247 DUP2 PUSH2 0x20B JUMP JUMPDEST SWAP1 POP SWAP2 SWAP1 POP JUMP JUMPDEST PUSH1 0x0 DUP2 SWAP1 POP SWAP2 SWAP1 POP JUMP JUMPDEST PUSH32 0x4E487B7100000000000000000000000000000000000000000000000000000000 PUSH1 0x0 MSTORE PUSH1 0x11 PUSH1 0x4 MSTORE PUSH1 0x24 PUSH1 0x0 REVERT JUMPDEST PUSH1 0x0 PUSH2 0x292 DUP3 PUSH2 0x24E JUMP JUMPDEST SWAP2 POP PUSH2 0x29D DUP4 PUSH2 0x24E JUMP JUMPDEST SWAP3 POP DUP3 DUP3 ADD SWAP1 POP DUP1 DUP3 GT ISZERO PUSH2 0x2B5 JUMPI PUSH2 0x2B4 PUSH2 0x258 JUMP JUMPDEST JUMPDEST SWAP3 SWAP2 POP POP JUMP JUMPDEST PUSH2 0x2C4 DUP2 PUSH2 0x24E JUMP JUMPDEST DUP3 MSTORE POP POP JUMP JUMPDEST PUSH1 0x0 PUSH1 0x20 DUP3 ADD SWAP1 POP PUSH2 0x2DF PUSH1 0x0 DUP4 ADD DUP5 PUSH2 0x2BB JUMP JUMPDEST SWAP3 SWAP2 POP POP JUMP JUMPDEST PUSH1 0x0 PUSH20 0xFFFFFFFFFFFFFFFFFFFFFFFFFFFFFFFFFFFFFFFF DUP3 AND SWAP1 POP SWAP2 SWAP1 POP JUMP JUMPDEST PUSH1 0x0 PUSH2 0x310 DUP3 PUSH2 0x2E5 JUMP JUMPDEST SWAP1 POP SWAP2 SWAP1 POP JUMP JUMPDEST PUSH2 0x320 DUP2 PUSH2 0x305 JUMP JUMPDEST DUP3 MSTORE POP POP JUMP JUMPDEST PUSH1 0x0 PUSH1 0x20 DUP3 ADD SWAP1 POP PUSH2 0x33B PUSH1 0x0 DUP4 ADD DUP5 PUSH2 0x317 JUMP JUMPDEST SWAP3 SWAP2 POP POP JUMP JUMPDEST PUSH1 0x0 DUP1 REVERT JUMPDEST PUSH1 0x0 PUSH2 0x351 DUP3 PUSH2 0x2E5 JUMP JUMPDEST SWAP1 POP SWAP2 SWAP1 POP JUMP JUMPDEST PUSH2 0x361 DUP2 PUSH2 0x346 JUMP JUMPDEST DUP2 EQ PUSH2 0x36C JUMPI PUSH1 0x0 DUP1 REVERT JUMPDEST POP JUMP JUMPDEST PUSH1 0x0 DUP2 CALLDATALOAD SWAP1 POP PUSH2 0x37E DUP2 PUSH2 0x358 JUMP JUMPDEST SWAP3 SWAP2 POP POP JUMP JUMPDEST PUSH2 0x38D DUP2 PUSH2 0x24E JUMP JUMPDEST DUP2 EQ PUSH2 0x398 JUMPI PUSH1 0x0 DUP1 REVERT JUMPDEST POP JUMP JUMPDEST PUSH1 0x0 DUP2 CALLDATALOAD SWAP1 POP PUSH2 0x3AA DUP2 PUSH2 0x384 JUMP JUMPDEST SWAP3 SWAP2 POP POP JUMP JUMPDEST PUSH1 0x0 DUP1 PUSH1 0x40 DUP4 DUP6 SUB SLT ISZERO PUSH2 0x3C7 JUMPI PUSH2 0x3C6 PUSH2 0x341 JUMP JUMPDEST JUMPDEST PUSH1 0x0 PUSH2 0x3D5 DUP6 DUP3 DUP7 ADD PUSH2 0x36F JUMP JUMPDEST SWAP3 POP POP PUSH1 0x20 PUSH2 0x3E6 DUP6 DUP3 DUP7 ADD PUSH2 0x39B JUMP JUMPDEST SWAP2 POP POP SWAP3 POP SWAP3 SWAP1 POP JUMP INVALID LOG2 PUSH5 0x6970667358 0x22 SLT KECCAK256 0x4A 0xA6 SMOD 0xCA PUSH7 0x1C7361708590EE RETURN LOG3 0x25 CODECOPY DUP4 0xE0 0x5E 0x4F ADDMOD 0xC9 SWAP13 0xEC XOR CODECOPY 0x21 0xC5 SHL 0x5E 0x2F 0xF PUSH5 0x736F6C6343 STOP ADDMOD SLT STOP CALLER "
				},
				"gasEstimates": {
					"creation": {
						"codeDepositCost": "212400",
						"executionCost": "24523",
						"totalCost": "236923"
					},
					"external": {
						"balances()": "2429",
						"owner()": "2533",
						"transfer(address,uint256)": "infinite",
						"viewBalance()": "317"
					}
				},
				"methodIdentifiers": {
					"balances()": "7bb98a68",
					"owner()": "8da5cb5b",
					"transfer(address,uint256)": "a9059cbb",
					"viewBalance()": "3ff1e05b"
				}
			},
			"storageLayout": {
				"storage": [
					{
						"astId": 3,
						"contract": "smartwallet/smart-wallet.sol:smartWallet",
						"label": "owner",
						"offset": 0,
						"slot": "0",
						"type": "t_address"
					},
					{
						"astId": 5,
						"contract": "smartwallet/smart-wallet.sol:smartWallet",
						"label": "balances",
						"offset": 0,
						"slot": "1",
						"type": "t_uint256"
					}
				],
				"types": {
					"t_address": {
						"encoding": "inplace",
						"label": "address",
						"numberOfBytes": "20"
					},
					"t_uint256": {
						"encoding": "inplace",
						"label": "uint256",
						"numberOfBytes": "32"
					}
				}
			},
			"userdoc": {
				"kind": "user",
				"methods": {},
				"version": 1
			}
		}
	}
}