{
	"smartwallet/struct.sol": {
		"myContract": {
			"abi": [
				{
					"inputs": [],
					"stateMutability": "nonpayable",
					"type": "constructor"
				},
				{
					"inputs": [],
					"name": "MrBeast",
					"outputs": [
						{
							"internalType": "string",
							"name": "name",
							"type": "string"
						},
						{
							"internalType": "uint256",
							"name": "age",
							"type": "uint256"
						},
						{
							"internalType": "bool",
							"name": "married",
							"type": "bool"
						},
						{
							"internalType": "string",
							"name": "Job",
							"type": "string"
						}
					],
					"stateMutability": "view",
					"type": "function"
				},
				{
					"inputs": [],
					"name": "Revealer",
					"outputs": [
						{
							"internalType": "string",
							"name": "name",
							"type": "string"
						},
						{
							"internalType": "uint256",
							"name": "age",
							"type": "uint256"
						},
						{
							"internalType": "bool",
							"name": "married",
							"type": "bool"
						},
						{
							"internalType": "string",
							"name": "Job",
							"type": "string"
						}
					],
					"stateMutability": "view",
					"type": "function"
				},
				{
					"inputs": [
						{
							"internalType": "string",
							"name": "_name",
							"type": "string"
						},
						{
							"internalType": "uint256",
							"name": "_age",
							"type": "uint256"
						},
						{
							"internalType": "bool",
							"name": "_married",
							"type": "bool"
						},
						{
							"internalType": "string",
							"name": "_Job",
							"type": "string"
						}
					],
					"name": "addPerson",
					"outputs": [],
					"stateMutability": "nonpayable",
					"type": "function"
				},
				{
					"inputs": [
						{
							"internalType": "uint256",
							"name": "newAge",
							"type": "uint256"
						}
					],
					"name": "updateAge",
					"outputs": [],
					"stateMutability": "nonpayable",
					"type": "function"
				}
			],
			"devdoc": {
				"kind": "dev",
				"methods": {},
				"version": 1
			},
			"evm": {
				"assembly": "    /* \"smartwallet/struct.sol\":56:694  contract myContract {... */\n  mstore(0x40, 0x80)\n    /* \"smartwallet/struct.sol\":336:464  constructor(){... */\n  callvalue\n  dup1\n  iszero\n  tag_1\n  jumpi\n  0x00\n  dup1\n  revert\ntag_1:\n  pop\n    /* \"smartwallet/struct.sol\":366:404  Person(\"Jimmy\", 24, false, \"Youtuber\") */\n  mload(0x40)\n  dup1\n  0x80\n  add\n  0x40\n  mstore\n  dup1\n  mload(0x40)\n  dup1\n  0x40\n  add\n  0x40\n  mstore\n  dup1\n  0x05\n  dup2\n  mstore\n  0x20\n  add\n  0x4a696d6d79000000000000000000000000000000000000000000000000000000\n  dup2\n  mstore\n  pop\n  dup2\n  mstore\n  0x20\n  add\n    /* \"smartwallet/struct.sol\":382:384  24 */\n  0x18\n    /* \"smartwallet/struct.sol\":366:404  Person(\"Jimmy\", 24, false, \"Youtuber\") */\n  dup2\n  mstore\n  0x20\n  add\n    /* \"smartwallet/struct.sol\":386:391  false */\n  0x00\n    /* \"smartwallet/struct.sol\":366:404  Person(\"Jimmy\", 24, false, \"Youtuber\") */\n  iszero\n  iszero\n  dup2\n  mstore\n  0x20\n  add\n  mload(0x40)\n  dup1\n  0x40\n  add\n  0x40\n  mstore\n  dup1\n  0x08\n  dup2\n  mstore\n  0x20\n  add\n  0x596f757475626572000000000000000000000000000000000000000000000000\n  dup2\n  mstore\n  pop\n  dup2\n  mstore\n  pop\n    /* \"smartwallet/struct.sol\":356:363  MrBeast */\n  0x00\n    /* \"smartwallet/struct.sol\":356:404  MrBeast = Person(\"Jimmy\", 24, false, \"Youtuber\") */\n  dup1\n  dup3\n  add\n  mload\n  dup2\n  0x00\n  add\n  swap1\n  dup2\n  tag_4\n  swap2\n  swap1\n  tag_5\n  jump\t// in\ntag_4:\n  pop\n  0x20\n  dup3\n  add\n  mload\n  dup2\n  0x01\n  add\n  sstore\n  0x40\n  dup3\n  add\n  mload\n  dup2\n  0x02\n  add\n  exp(0x0100, 0x00)\n  dup2\n  sload\n  dup2\n  0xff\n  mul\n  not\n  and\n  swap1\n  dup4\n  iszero\n  iszero\n  mul\n  or\n  swap1\n  sstore\n  pop\n  0x60\n  dup3\n  add\n  mload\n  dup2\n  0x03\n  add\n  swap1\n  dup2\n  tag_6\n  swap2\n  swap1\n  tag_5\n  jump\t// in\ntag_6:\n  pop\n  swap1\n  pop\n  pop\n    /* \"smartwallet/struct.sol\":422:460  Person(\"Jimmy\", 24, false, \"Youtuber\") */\n  mload(0x40)\n  dup1\n  0x80\n  add\n  0x40\n  mstore\n  dup1\n  mload(0x40)\n  dup1\n  0x40\n  add\n  0x40\n  mstore\n  dup1\n  0x05\n  dup2\n  mstore\n  0x20\n  add\n  0x4a696d6d79000000000000000000000000000000000000000000000000000000\n  dup2\n  mstore\n  pop\n  dup2\n  mstore\n  0x20\n  add\n    /* \"smartwallet/struct.sol\":438:440  24 */\n  0x18\n    /* \"smartwallet/struct.sol\":422:460  Person(\"Jimmy\", 24, false, \"Youtuber\") */\n  dup2\n  mstore\n  0x20\n  add\n    /* \"smartwallet/struct.sol\":442:447  false */\n  0x00\n    /* \"smartwallet/struct.sol\":422:460  Person(\"Jimmy\", 24, false, \"Youtuber\") */\n  iszero\n  iszero\n  dup2\n  mstore\n  0x20\n  add\n  mload(0x40)\n  dup1\n  0x40\n  add\n  0x40\n  mstore\n  dup1\n  0x08\n  dup2\n  mstore\n  0x20\n  add\n  0x596f757475626572000000000000000000000000000000000000000000000000\n  dup2\n  mstore\n  pop\n  dup2\n  mstore\n  pop\n    /* \"smartwallet/struct.sol\":411:419  Revealer */\n  0x04\n    /* \"smartwallet/struct.sol\":411:460  Revealer = Person(\"Jimmy\", 24, false, \"Youtuber\") */\n  0x00\n  dup3\n  add\n  mload\n  dup2\n  0x00\n  add\n  swap1\n  dup2\n  tag_7\n  swap2\n  swap1\n  tag_5\n  jump\t// in\ntag_7:\n  pop\n  0x20\n  dup3\n  add\n  mload\n  dup2\n  0x01\n  add\n  sstore\n  0x40\n  dup3\n  add\n  mload\n  dup2\n  0x02\n  add\n  exp(0x0100, 0x00)\n  dup2\n  sload\n  dup2\n  0xff\n  mul\n  not\n  and\n  swap1\n  dup4\n  iszero\n  iszero\n  mul\n  or\n  swap1\n  sstore\n  pop\n  0x60\n  dup3\n  add\n  mload\n  dup2\n  0x03\n  add\n  swap1\n  dup2\n  tag_8\n  swap2\n  swap1\n  tag_5\n  jump\t// in\ntag_8:\n  pop\n  swap1\n  pop\n  pop\n    /* \"smartwallet/struct.sol\":56:694  contract myContract {... */\n  jump(tag_9)\n    /* \"#utility.yul\":7:106   */\ntag_10:\n    /* \"#utility.yul\":59:65   */\n  0x00\n    /* \"#utility.yul\":93:98   */\n  dup2\n    /* \"#utility.yul\":87:99   */\n  mload\n    /* \"#utility.yul\":77:99   */\n  swap1\n  pop\n    /* \"#utility.yul\":7:106   */\n  swap2\n  swap1\n  pop\n  jump\t// out\n    /* \"#utility.yul\":112:292   */\ntag_11:\n    /* \"#utility.yul\":160:237   */\n  0x4e487b7100000000000000000000000000000000000000000000000000000000\n    /* \"#utility.yul\":157:158   */\n  0x00\n    /* \"#utility.yul\":150:238   */\n  mstore\n    /* \"#utility.yul\":257:261   */\n  0x41\n    /* \"#utility.yul\":254:255   */\n  0x04\n    /* \"#utility.yul\":247:262   */\n  mstore\n    /* \"#utility.yul\":281:285   */\n  0x24\n    /* \"#utility.yul\":278:279   */\n  0x00\n    /* \"#utility.yul\":271:286   */\n  revert\n    /* \"#utility.yul\":298:478   */\ntag_12:\n    /* \"#utility.yul\":346:423   */\n  0x4e487b7100000000000000000000000000000000000000000000000000000000\n    /* \"#utility.yul\":343:344   */\n  0x00\n    /* \"#utility.yul\":336:424   */\n  mstore\n    /* \"#utility.yul\":443:447   */\n  0x22\n    /* \"#utility.yul\":440:441   */\n  0x04\n    /* \"#utility.yul\":433:448   */\n  mstore\n    /* \"#utility.yul\":467:471   */\n  0x24\n    /* \"#utility.yul\":464:465   */\n  0x00\n    /* \"#utility.yul\":457:472   */\n  revert\n    /* \"#utility.yul\":484:804   */\ntag_13:\n    /* \"#utility.yul\":528:534   */\n  0x00\n    /* \"#utility.yul\":565:566   */\n  0x02\n    /* \"#utility.yul\":559:563   */\n  dup3\n    /* \"#utility.yul\":555:567   */\n  div\n    /* \"#utility.yul\":545:567   */\n  swap1\n  pop\n    /* \"#utility.yul\":612:613   */\n  0x01\n    /* \"#utility.yul\":606:610   */\n  dup3\n    /* \"#utility.yul\":602:614   */\n  and\n    /* \"#utility.yul\":633:651   */\n  dup1\n    /* \"#utility.yul\":623:704   */\n  tag_35\n  jumpi\n    /* \"#utility.yul\":689:693   */\n  0x7f\n    /* \"#utility.yul\":681:687   */\n  dup3\n    /* \"#utility.yul\":677:694   */\n  and\n    /* \"#utility.yul\":667:694   */\n  swap2\n  pop\n    /* \"#utility.yul\":623:704   */\ntag_35:\n    /* \"#utility.yul\":751:753   */\n  0x20\n    /* \"#utility.yul\":743:749   */\n  dup3\n    /* \"#utility.yul\":740:754   */\n  lt\n    /* \"#utility.yul\":720:738   */\n  dup2\n    /* \"#utility.yul\":717:755   */\n  sub\n    /* \"#utility.yul\":714:798   */\n  tag_36\n  jumpi\n    /* \"#utility.yul\":770:788   */\n  tag_37\n  tag_12\n  jump\t// in\ntag_37:\n    /* \"#utility.yul\":714:798   */\ntag_36:\n    /* \"#utility.yul\":535:804   */\n  pop\n    /* \"#utility.yul\":484:804   */\n  swap2\n  swap1\n  pop\n  jump\t// out\n    /* \"#utility.yul\":810:951   */\ntag_14:\n    /* \"#utility.yul\":859:863   */\n  0x00\n    /* \"#utility.yul\":882:885   */\n  dup2\n    /* \"#utility.yul\":874:885   */\n  swap1\n  pop\n    /* \"#utility.yul\":905:908   */\n  dup2\n    /* \"#utility.yul\":902:903   */\n  0x00\n    /* \"#utility.yul\":895:909   */\n  mstore\n    /* \"#utility.yul\":939:943   */\n  0x20\n    /* \"#utility.yul\":936:937   */\n  0x00\n    /* \"#utility.yul\":926:944   */\n  keccak256\n    /* \"#utility.yul\":918:944   */\n  swap1\n  pop\n    /* \"#utility.yul\":810:951   */\n  swap2\n  swap1\n  pop\n  jump\t// out\n    /* \"#utility.yul\":957:1050   */\ntag_15:\n    /* \"#utility.yul\":994:1000   */\n  0x00\n    /* \"#utility.yul\":1041:1043   */\n  0x20\n    /* \"#utility.yul\":1036:1038   */\n  0x1f\n    /* \"#utility.yul\":1029:1034   */\n  dup4\n    /* \"#utility.yul\":1025:1039   */\n  add\n    /* \"#utility.yul\":1021:1044   */\n  div\n    /* \"#utility.yul\":1011:1044   */\n  swap1\n  pop\n    /* \"#utility.yul\":957:1050   */\n  swap2\n  swap1\n  pop\n  jump\t// out\n    /* \"#utility.yul\":1056:1163   */\ntag_16:\n    /* \"#utility.yul\":1100:1108   */\n  0x00\n    /* \"#utility.yul\":1150:1155   */\n  dup3\n    /* \"#utility.yul\":1144:1148   */\n  dup3\n    /* \"#utility.yul\":1140:1156   */\n  shl\n    /* \"#utility.yul\":1119:1156   */\n  swap1\n  pop\n    /* \"#utility.yul\":1056:1163   */\n  swap3\n  swap2\n  pop\n  pop\n  jump\t// out\n    /* \"#utility.yul\":1169:1562   */\ntag_17:\n    /* \"#utility.yul\":1238:1244   */\n  0x00\n    /* \"#utility.yul\":1288:1289   */\n  0x08\n    /* \"#utility.yul\":1276:1286   */\n  dup4\n    /* \"#utility.yul\":1272:1290   */\n  mul\n    /* \"#utility.yul\":1311:1408   */\n  tag_42\n    /* \"#utility.yul\":1341:1407   */\n  0xffffffffffffffffffffffffffffffffffffffffffffffffffffffffffffffff\n    /* \"#utility.yul\":1330:1339   */\n  dup3\n    /* \"#utility.yul\":1311:1408   */\n  tag_16\n  jump\t// in\ntag_42:\n    /* \"#utility.yul\":1429:1468   */\n  tag_43\n    /* \"#utility.yul\":1459:1467   */\n  dup7\n    /* \"#utility.yul\":1448:1457   */\n  dup4\n    /* \"#utility.yul\":1429:1468   */\n  tag_16\n  jump\t// in\ntag_43:\n    /* \"#utility.yul\":1417:1468   */\n  swap6\n  pop\n    /* \"#utility.yul\":1501:1505   */\n  dup1\n    /* \"#utility.yul\":1497:1506   */\n  not\n    /* \"#utility.yul\":1490:1495   */\n  dup5\n    /* \"#utility.yul\":1486:1507   */\n  and\n    /* \"#utility.yul\":1477:1507   */\n  swap4\n  pop\n    /* \"#utility.yul\":1550:1554   */\n  dup1\n    /* \"#utility.yul\":1540:1548   */\n  dup7\n    /* \"#utility.yul\":1536:1555   */\n  and\n    /* \"#utility.yul\":1529:1534   */\n  dup5\n    /* \"#utility.yul\":1526:1556   */\n  or\n    /* \"#utility.yul\":1516:1556   */\n  swap3\n  pop\n    /* \"#utility.yul\":1245:1562   */\n  pop\n  pop\n    /* \"#utility.yul\":1169:1562   */\n  swap4\n  swap3\n  pop\n  pop\n  pop\n  jump\t// out\n    /* \"#utility.yul\":1568:1645   */\ntag_18:\n    /* \"#utility.yul\":1605:1612   */\n  0x00\n    /* \"#utility.yul\":1634:1639   */\n  dup2\n    /* \"#utility.yul\":1623:1639   */\n  swap1\n  pop\n    /* \"#utility.yul\":1568:1645   */\n  swap2\n  swap1\n  pop\n  jump\t// out\n    /* \"#utility.yul\":1651:1711   */\ntag_19:\n    /* \"#utility.yul\":1679:1682   */\n  0x00\n    /* \"#utility.yul\":1700:1705   */\n  dup2\n    /* \"#utility.yul\":1693:1705   */\n  swap1\n  pop\n    /* \"#utility.yul\":1651:1711   */\n  swap2\n  swap1\n  pop\n  jump\t// out\n    /* \"#utility.yul\":1717:1859   */\ntag_20:\n    /* \"#utility.yul\":1767:1776   */\n  0x00\n    /* \"#utility.yul\":1800:1853   */\n  tag_47\n    /* \"#utility.yul\":1818:1852   */\n  tag_48\n    /* \"#utility.yul\":1827:1851   */\n  tag_49\n    /* \"#utility.yul\":1845:1850   */\n  dup5\n    /* \"#utility.yul\":1827:1851   */\n  tag_18\n  jump\t// in\ntag_49:\n    /* \"#utility.yul\":1818:1852   */\n  tag_19\n  jump\t// in\ntag_48:\n    /* \"#utility.yul\":1800:1853   */\n  tag_18\n  jump\t// in\ntag_47:\n    /* \"#utility.yul\":1787:1853   */\n  swap1\n  pop\n    /* \"#utility.yul\":1717:1859   */\n  swap2\n  swap1\n  pop\n  jump\t// out\n    /* \"#utility.yul\":1865:1940   */\ntag_21:\n    /* \"#utility.yul\":1908:1911   */\n  0x00\n    /* \"#utility.yul\":1929:1934   */\n  dup2\n    /* \"#utility.yul\":1922:1934   */\n  swap1\n  pop\n    /* \"#utility.yul\":1865:1940   */\n  swap2\n  swap1\n  pop\n  jump\t// out\n    /* \"#utility.yul\":1946:2215   */\ntag_22:\n    /* \"#utility.yul\":2056:2095   */\n  tag_52\n    /* \"#utility.yul\":2087:2094   */\n  dup4\n    /* \"#utility.yul\":2056:2095   */\n  tag_20\n  jump\t// in\ntag_52:\n    /* \"#utility.yul\":2117:2208   */\n  tag_53\n    /* \"#utility.yul\":2166:2207   */\n  tag_54\n    /* \"#utility.yul\":2190:2206   */\n  dup3\n    /* \"#utility.yul\":2166:2207   */\n  tag_21\n  jump\t// in\ntag_54:\n    /* \"#utility.yul\":2158:2164   */\n  dup5\n    /* \"#utility.yul\":2151:2155   */\n  dup5\n    /* \"#utility.yul\":2145:2156   */\n  sload\n    /* \"#utility.yul\":2117:2208   */\n  tag_17\n  jump\t// in\ntag_53:\n    /* \"#utility.yul\":2111:2115   */\n  dup3\n    /* \"#utility.yul\":2104:2209   */\n  sstore\n    /* \"#utility.yul\":2022:2215   */\n  pop\n    /* \"#utility.yul\":1946:2215   */\n  pop\n  pop\n  pop\n  jump\t// out\n    /* \"#utility.yul\":2221:2294   */\ntag_23:\n    /* \"#utility.yul\":2266:2269   */\n  0x00\n    /* \"#utility.yul\":2221:2294   */\n  swap1\n  jump\t// out\n    /* \"#utility.yul\":2300:2489   */\ntag_24:\n    /* \"#utility.yul\":2377:2409   */\n  tag_57\n  tag_23\n  jump\t// in\ntag_57:\n    /* \"#utility.yul\":2418:2483   */\n  tag_58\n    /* \"#utility.yul\":2476:2482   */\n  dup2\n    /* \"#utility.yul\":2468:2474   */\n  dup5\n    /* \"#utility.yul\":2462:2466   */\n  dup5\n    /* \"#utility.yul\":2418:2483   */\n  tag_22\n  jump\t// in\ntag_58:\n    /* \"#utility.yul\":2353:2489   */\n  pop\n    /* \"#utility.yul\":2300:2489   */\n  pop\n  pop\n  jump\t// out\n    /* \"#utility.yul\":2495:2681   */\ntag_25:\n    /* \"#utility.yul\":2555:2675   */\ntag_60:\n    /* \"#utility.yul\":2572:2575   */\n  dup2\n    /* \"#utility.yul\":2565:2570   */\n  dup2\n    /* \"#utility.yul\":2562:2576   */\n  lt\n    /* \"#utility.yul\":2555:2675   */\n  iszero\n  tag_62\n  jumpi\n    /* \"#utility.yul\":2626:2665   */\n  tag_63\n    /* \"#utility.yul\":2663:2664   */\n  0x00\n    /* \"#utility.yul\":2656:2661   */\n  dup3\n    /* \"#utility.yul\":2626:2665   */\n  tag_24\n  jump\t// in\ntag_63:\n    /* \"#utility.yul\":2599:2600   */\n  0x01\n    /* \"#utility.yul\":2592:2597   */\n  dup2\n    /* \"#utility.yul\":2588:2601   */\n  add\n    /* \"#utility.yul\":2579:2601   */\n  swap1\n  pop\n    /* \"#utility.yul\":2555:2675   */\n  jump(tag_60)\ntag_62:\n    /* \"#utility.yul\":2495:2681   */\n  pop\n  pop\n  jump\t// out\n    /* \"#utility.yul\":2687:3230   */\ntag_26:\n    /* \"#utility.yul\":2788:2790   */\n  0x1f\n    /* \"#utility.yul\":2783:2786   */\n  dup3\n    /* \"#utility.yul\":2780:2791   */\n  gt\n    /* \"#utility.yul\":2777:3223   */\n  iszero\n  tag_65\n  jumpi\n    /* \"#utility.yul\":2822:2860   */\n  tag_66\n    /* \"#utility.yul\":2854:2859   */\n  dup2\n    /* \"#utility.yul\":2822:2860   */\n  tag_14\n  jump\t// in\ntag_66:\n    /* \"#utility.yul\":2906:2935   */\n  tag_67\n    /* \"#utility.yul\":2924:2934   */\n  dup5\n    /* \"#utility.yul\":2906:2935   */\n  tag_15\n  jump\t// in\ntag_67:\n    /* \"#utility.yul\":2896:2904   */\n  dup2\n    /* \"#utility.yul\":2892:2936   */\n  add\n    /* \"#utility.yul\":3089:3091   */\n  0x20\n    /* \"#utility.yul\":3077:3087   */\n  dup6\n    /* \"#utility.yul\":3074:3092   */\n  lt\n    /* \"#utility.yul\":3071:3120   */\n  iszero\n  tag_68\n  jumpi\n    /* \"#utility.yul\":3110:3118   */\n  dup2\n    /* \"#utility.yul\":3095:3118   */\n  swap1\n  pop\n    /* \"#utility.yul\":3071:3120   */\ntag_68:\n    /* \"#utility.yul\":3133:3213   */\n  tag_69\n    /* \"#utility.yul\":3189:3211   */\n  tag_70\n    /* \"#utility.yul\":3207:3210   */\n  dup6\n    /* \"#utility.yul\":3189:3211   */\n  tag_15\n  jump\t// in\ntag_70:\n    /* \"#utility.yul\":3179:3187   */\n  dup4\n    /* \"#utility.yul\":3175:3212   */\n  add\n    /* \"#utility.yul\":3162:3173   */\n  dup3\n    /* \"#utility.yul\":3133:3213   */\n  tag_25\n  jump\t// in\ntag_69:\n    /* \"#utility.yul\":2792:3223   */\n  pop\n  pop\n    /* \"#utility.yul\":2777:3223   */\ntag_65:\n    /* \"#utility.yul\":2687:3230   */\n  pop\n  pop\n  pop\n  jump\t// out\n    /* \"#utility.yul\":3236:3353   */\ntag_27:\n    /* \"#utility.yul\":3290:3298   */\n  0x00\n    /* \"#utility.yul\":3340:3345   */\n  dup3\n    /* \"#utility.yul\":3334:3338   */\n  dup3\n    /* \"#utility.yul\":3330:3346   */\n  shr\n    /* \"#utility.yul\":3309:3346   */\n  swap1\n  pop\n    /* \"#utility.yul\":3236:3353   */\n  swap3\n  swap2\n  pop\n  pop\n  jump\t// out\n    /* \"#utility.yul\":3359:3528   */\ntag_28:\n    /* \"#utility.yul\":3403:3409   */\n  0x00\n    /* \"#utility.yul\":3436:3487   */\n  tag_73\n    /* \"#utility.yul\":3484:3485   */\n  0x00\n    /* \"#utility.yul\":3480:3486   */\n  not\n    /* \"#utility.yul\":3472:3477   */\n  dup5\n    /* \"#utility.yul\":3469:3470   */\n  0x08\n    /* \"#utility.yul\":3465:3478   */\n  mul\n    /* \"#utility.yul\":3436:3487   */\n  tag_27\n  jump\t// in\ntag_73:\n    /* \"#utility.yul\":3432:3488   */\n  not\n    /* \"#utility.yul\":3517:3521   */\n  dup1\n    /* \"#utility.yul\":3511:3515   */\n  dup4\n    /* \"#utility.yul\":3507:3522   */\n  and\n    /* \"#utility.yul\":3497:3522   */\n  swap2\n  pop\n    /* \"#utility.yul\":3410:3528   */\n  pop\n    /* \"#utility.yul\":3359:3528   */\n  swap3\n  swap2\n  pop\n  pop\n  jump\t// out\n    /* \"#utility.yul\":3533:3828   */\ntag_29:\n    /* \"#utility.yul\":3609:3613   */\n  0x00\n    /* \"#utility.yul\":3755:3784   */\n  tag_75\n    /* \"#utility.yul\":3780:3783   */\n  dup4\n    /* \"#utility.yul\":3774:3778   */\n  dup4\n    /* \"#utility.yul\":3755:3784   */\n  tag_28\n  jump\t// in\ntag_75:\n    /* \"#utility.yul\":3747:3784   */\n  swap2\n  pop\n    /* \"#utility.yul\":3817:3820   */\n  dup3\n    /* \"#utility.yul\":3814:3815   */\n  0x02\n    /* \"#utility.yul\":3810:3821   */\n  mul\n    /* \"#utility.yul\":3804:3808   */\n  dup3\n    /* \"#utility.yul\":3801:3822   */\n  or\n    /* \"#utility.yul\":3793:3822   */\n  swap1\n  pop\n    /* \"#utility.yul\":3533:3828   */\n  swap3\n  swap2\n  pop\n  pop\n  jump\t// out\n    /* \"#utility.yul\":3833:5228   */\ntag_5:\n    /* \"#utility.yul\":3950:3987   */\n  tag_77\n    /* \"#utility.yul\":3983:3986   */\n  dup3\n    /* \"#utility.yul\":3950:3987   */\n  tag_10\n  jump\t// in\ntag_77:\n    /* \"#utility.yul\":4052:4070   */\n  0xffffffffffffffff\n    /* \"#utility.yul\":4044:4050   */\n  dup2\n    /* \"#utility.yul\":4041:4071   */\n  gt\n    /* \"#utility.yul\":4038:4094   */\n  iszero\n  tag_78\n  jumpi\n    /* \"#utility.yul\":4074:4092   */\n  tag_79\n  tag_11\n  jump\t// in\ntag_79:\n    /* \"#utility.yul\":4038:4094   */\ntag_78:\n    /* \"#utility.yul\":4118:4156   */\n  tag_80\n    /* \"#utility.yul\":4150:4154   */\n  dup3\n    /* \"#utility.yul\":4144:4155   */\n  sload\n    /* \"#utility.yul\":4118:4156   */\n  tag_13\n  jump\t// in\ntag_80:\n    /* \"#utility.yul\":4203:4270   */\n  tag_81\n    /* \"#utility.yul\":4263:4269   */\n  dup3\n    /* \"#utility.yul\":4255:4261   */\n  dup3\n    /* \"#utility.yul\":4249:4253   */\n  dup6\n    /* \"#utility.yul\":4203:4270   */\n  tag_26\n  jump\t// in\ntag_81:\n    /* \"#utility.yul\":4297:4298   */\n  0x00\n    /* \"#utility.yul\":4321:4325   */\n  0x20\n    /* \"#utility.yul\":4308:4325   */\n  swap1\n  pop\n    /* \"#utility.yul\":4353:4355   */\n  0x1f\n    /* \"#utility.yul\":4345:4351   */\n  dup4\n    /* \"#utility.yul\":4342:4356   */\n  gt\n    /* \"#utility.yul\":4370:4371   */\n  0x01\n    /* \"#utility.yul\":4365:4983   */\n  dup2\n  eq\n  tag_83\n  jumpi\n    /* \"#utility.yul\":5027:5028   */\n  0x00\n    /* \"#utility.yul\":5044:5050   */\n  dup5\n    /* \"#utility.yul\":5041:5118   */\n  iszero\n  tag_84\n  jumpi\n    /* \"#utility.yul\":5093:5102   */\n  dup3\n    /* \"#utility.yul\":5088:5091   */\n  dup8\n    /* \"#utility.yul\":5084:5103   */\n  add\n    /* \"#utility.yul\":5078:5104   */\n  mload\n    /* \"#utility.yul\":5069:5104   */\n  swap1\n  pop\n    /* \"#utility.yul\":5041:5118   */\ntag_84:\n    /* \"#utility.yul\":5144:5211   */\n  tag_85\n    /* \"#utility.yul\":5204:5210   */\n  dup6\n    /* \"#utility.yul\":5197:5202   */\n  dup3\n    /* \"#utility.yul\":5144:5211   */\n  tag_29\n  jump\t// in\ntag_85:\n    /* \"#utility.yul\":5138:5142   */\n  dup7\n    /* \"#utility.yul\":5131:5212   */\n  sstore\n    /* \"#utility.yul\":5000:5222   */\n  pop\n    /* \"#utility.yul\":4335:5222   */\n  jump(tag_82)\n    /* \"#utility.yul\":4365:4983   */\ntag_83:\n    /* \"#utility.yul\":4417:4421   */\n  0x1f\n    /* \"#utility.yul\":4413:4422   */\n  not\n    /* \"#utility.yul\":4405:4411   */\n  dup5\n    /* \"#utility.yul\":4401:4423   */\n  and\n    /* \"#utility.yul\":4451:4488   */\n  tag_86\n    /* \"#utility.yul\":4483:4487   */\n  dup7\n    /* \"#utility.yul\":4451:4488   */\n  tag_14\n  jump\t// in\ntag_86:\n    /* \"#utility.yul\":4510:4511   */\n  0x00\n    /* \"#utility.yul\":4524:4732   */\ntag_87:\n    /* \"#utility.yul\":4538:4545   */\n  dup3\n    /* \"#utility.yul\":4535:4536   */\n  dup2\n    /* \"#utility.yul\":4532:4546   */\n  lt\n    /* \"#utility.yul\":4524:4732   */\n  iszero\n  tag_89\n  jumpi\n    /* \"#utility.yul\":4617:4626   */\n  dup5\n    /* \"#utility.yul\":4612:4615   */\n  dup10\n    /* \"#utility.yul\":4608:4627   */\n  add\n    /* \"#utility.yul\":4602:4628   */\n  mload\n    /* \"#utility.yul\":4594:4600   */\n  dup3\n    /* \"#utility.yul\":4587:4629   */\n  sstore\n    /* \"#utility.yul\":4668:4669   */\n  0x01\n    /* \"#utility.yul\":4660:4666   */\n  dup3\n    /* \"#utility.yul\":4656:4670   */\n  add\n    /* \"#utility.yul\":4646:4670   */\n  swap2\n  pop\n    /* \"#utility.yul\":4715:4717   */\n  0x20\n    /* \"#utility.yul\":4704:4713   */\n  dup6\n    /* \"#utility.yul\":4700:4718   */\n  add\n    /* \"#utility.yul\":4687:4718   */\n  swap5\n  pop\n    /* \"#utility.yul\":4561:4565   */\n  0x20\n    /* \"#utility.yul\":4558:4559   */\n  dup2\n    /* \"#utility.yul\":4554:4566   */\n  add\n    /* \"#utility.yul\":4549:4566   */\n  swap1\n  pop\n    /* \"#utility.yul\":4524:4732   */\n  jump(tag_87)\ntag_89:\n    /* \"#utility.yul\":4760:4766   */\n  dup7\n    /* \"#utility.yul\":4751:4758   */\n  dup4\n    /* \"#utility.yul\":4748:4767   */\n  lt\n    /* \"#utility.yul\":4745:4924   */\n  iszero\n  tag_90\n  jumpi\n    /* \"#utility.yul\":4818:4827   */\n  dup5\n    /* \"#utility.yul\":4813:4816   */\n  dup10\n    /* \"#utility.yul\":4809:4828   */\n  add\n    /* \"#utility.yul\":4803:4829   */\n  mload\n    /* \"#utility.yul\":4861:4909   */\n  tag_91\n    /* \"#utility.yul\":4903:4907   */\n  0x1f\n    /* \"#utility.yul\":4895:4901   */\n  dup10\n    /* \"#utility.yul\":4891:4908   */\n  and\n    /* \"#utility.yul\":4880:4889   */\n  dup3\n    /* \"#utility.yul\":4861:4909   */\n  tag_28\n  jump\t// in\ntag_91:\n    /* \"#utility.yul\":4853:4859   */\n  dup4\n    /* \"#utility.yul\":4846:4910   */\n  sstore\n    /* \"#utility.yul\":4768:4924   */\n  pop\n    /* \"#utility.yul\":4745:4924   */\ntag_90:\n    /* \"#utility.yul\":4970:4971   */\n  0x01\n    /* \"#utility.yul\":4966:4967   */\n  0x02\n    /* \"#utility.yul\":4958:4964   */\n  dup9\n    /* \"#utility.yul\":4954:4968   */\n  mul\n    /* \"#utility.yul\":4950:4972   */\n  add\n    /* \"#utility.yul\":4944:4948   */\n  dup9\n    /* \"#utility.yul\":4937:4973   */\n  sstore\n    /* \"#utility.yul\":4372:4983   */\n  pop\n  pop\n  pop\n    /* \"#utility.yul\":4335:5222   */\ntag_82:\n  pop\n    /* \"#utility.yul\":3925:5228   */\n  pop\n  pop\n  pop\n    /* \"#utility.yul\":3833:5228   */\n  pop\n  pop\n  jump\t// out\n    /* \"smartwallet/struct.sol\":56:694  contract myContract {... */\ntag_9:\n  dataSize(sub_0)\n  dup1\n  dataOffset(sub_0)\n  0x00\n  codecopy\n  0x00\n  return\nstop\n\nsub_0: assembly {\n        /* \"smartwallet/struct.sol\":56:694  contract myContract {... */\n      mstore(0x40, 0x80)\n      callvalue\n      dup1\n      iszero\n      tag_1\n      jumpi\n      0x00\n      dup1\n      revert\n    tag_1:\n      pop\n      jumpi(tag_2, lt(calldatasize, 0x04))\n      shr(0xe0, calldataload(0x00))\n      dup1\n      0x3c39a4bf\n      eq\n      tag_3\n      jumpi\n      dup1\n      0x7d625c07\n      eq\n      tag_4\n      jumpi\n      dup1\n      0xc25f3b8c\n      eq\n      tag_5\n      jumpi\n      dup1\n      0xf740c058\n      eq\n      tag_6\n      jumpi\n    tag_2:\n      0x00\n      dup1\n      revert\n        /* \"smartwallet/struct.sol\":466:617  function addPerson(string memory _name, uint _age, bool _married, string memory _Job ) public{... */\n    tag_3:\n      tag_7\n      0x04\n      dup1\n      calldatasize\n      sub\n      dup2\n      add\n      swap1\n      tag_8\n      swap2\n      swap1\n      tag_9\n      jump\t// in\n    tag_8:\n      tag_10\n      jump\t// in\n    tag_7:\n      stop\n        /* \"smartwallet/struct.sol\":620:691  function updateAge (uint newAge) public {... */\n    tag_4:\n      tag_11\n      0x04\n      dup1\n      calldatasize\n      sub\n      dup2\n      add\n      swap1\n      tag_12\n      swap2\n      swap1\n      tag_13\n      jump\t// in\n    tag_12:\n      tag_14\n      jump\t// in\n    tag_11:\n      stop\n        /* \"smartwallet/struct.sol\":248:269  Person public MrBeast */\n    tag_5:\n      tag_15\n      tag_16\n      jump\t// in\n    tag_15:\n      mload(0x40)\n      tag_17\n      swap5\n      swap4\n      swap3\n      swap2\n      swap1\n      tag_18\n      jump\t// in\n    tag_17:\n      mload(0x40)\n      dup1\n      swap2\n      sub\n      swap1\n      return\n        /* \"smartwallet/struct.sol\":275:297  Person public Revealer */\n    tag_6:\n      tag_19\n      tag_20\n      jump\t// in\n    tag_19:\n      mload(0x40)\n      tag_21\n      swap5\n      swap4\n      swap3\n      swap2\n      swap1\n      tag_18\n      jump\t// in\n    tag_21:\n      mload(0x40)\n      dup1\n      swap2\n      sub\n      swap1\n      return\n        /* \"smartwallet/struct.sol\":466:617  function addPerson(string memory _name, uint _age, bool _married, string memory _Job ) public{... */\n    tag_10:\n        /* \"smartwallet/struct.sol\":577:613  Person(_name, _age, _married, _Job ) */\n      mload(0x40)\n      dup1\n      0x80\n      add\n      0x40\n      mstore\n      dup1\n        /* \"smartwallet/struct.sol\":584:589  _name */\n      dup6\n        /* \"smartwallet/struct.sol\":577:613  Person(_name, _age, _married, _Job ) */\n      dup2\n      mstore\n      0x20\n      add\n        /* \"smartwallet/struct.sol\":591:595  _age */\n      dup5\n        /* \"smartwallet/struct.sol\":577:613  Person(_name, _age, _married, _Job ) */\n      dup2\n      mstore\n      0x20\n      add\n        /* \"smartwallet/struct.sol\":597:605  _married */\n      dup4\n        /* \"smartwallet/struct.sol\":577:613  Person(_name, _age, _married, _Job ) */\n      iszero\n      iszero\n      dup2\n      mstore\n      0x20\n      add\n        /* \"smartwallet/struct.sol\":607:611  _Job */\n      dup3\n        /* \"smartwallet/struct.sol\":577:613  Person(_name, _age, _married, _Job ) */\n      dup2\n      mstore\n      pop\n        /* \"smartwallet/struct.sol\":566:574  Revealer */\n      0x04\n        /* \"smartwallet/struct.sol\":566:613  Revealer = Person(_name, _age, _married, _Job ) */\n      0x00\n      dup3\n      add\n      mload\n      dup2\n      0x00\n      add\n      swap1\n      dup2\n      tag_23\n      swap2\n      swap1\n      tag_24\n      jump\t// in\n    tag_23:\n      pop\n      0x20\n      dup3\n      add\n      mload\n      dup2\n      0x01\n      add\n      sstore\n      0x40\n      dup3\n      add\n      mload\n      dup2\n      0x02\n      add\n      exp(0x0100, 0x00)\n      dup2\n      sload\n      dup2\n      0xff\n      mul\n      not\n      and\n      swap1\n      dup4\n      iszero\n      iszero\n      mul\n      or\n      swap1\n      sstore\n      pop\n      0x60\n      dup3\n      add\n      mload\n      dup2\n      0x03\n      add\n      swap1\n      dup2\n      tag_25\n      swap2\n      swap1\n      tag_24\n      jump\t// in\n    tag_25:\n      pop\n      swap1\n      pop\n      pop\n        /* \"smartwallet/struct.sol\":466:617  function addPerson(string memory _name, uint _age, bool _married, string memory _Job ) public{... */\n      pop\n      pop\n      pop\n      pop\n      jump\t// out\n        /* \"smartwallet/struct.sol\":620:691  function updateAge (uint newAge) public {... */\n    tag_14:\n        /* \"smartwallet/struct.sol\":681:687  newAge */\n      dup1\n        /* \"smartwallet/struct.sol\":667:674  MrBeast */\n      0x00\n        /* \"smartwallet/struct.sol\":667:678  MrBeast.age */\n      0x01\n      add\n        /* \"smartwallet/struct.sol\":667:687  MrBeast.age = newAge */\n      dup2\n      swap1\n      sstore\n      pop\n        /* \"smartwallet/struct.sol\":620:691  function updateAge (uint newAge) public {... */\n      pop\n      jump\t// out\n        /* \"smartwallet/struct.sol\":248:269  Person public MrBeast */\n    tag_16:\n      0x00\n      dup1\n      0x00\n      add\n      dup1\n      sload\n      tag_27\n      swap1\n      tag_28\n      jump\t// in\n    tag_27:\n      dup1\n      0x1f\n      add\n      0x20\n      dup1\n      swap2\n      div\n      mul\n      0x20\n      add\n      mload(0x40)\n      swap1\n      dup2\n      add\n      0x40\n      mstore\n      dup1\n      swap3\n      swap2\n      swap1\n      dup2\n      dup2\n      mstore\n      0x20\n      add\n      dup3\n      dup1\n      sload\n      tag_29\n      swap1\n      tag_28\n      jump\t// in\n    tag_29:\n      dup1\n      iszero\n      tag_30\n      jumpi\n      dup1\n      0x1f\n      lt\n      tag_31\n      jumpi\n      0x0100\n      dup1\n      dup4\n      sload\n      div\n      mul\n      dup4\n      mstore\n      swap2\n      0x20\n      add\n      swap2\n      jump(tag_30)\n    tag_31:\n      dup3\n      add\n      swap2\n      swap1\n      0x00\n      mstore\n      keccak256(0x00, 0x20)\n      swap1\n    tag_32:\n      dup2\n      sload\n      dup2\n      mstore\n      swap1\n      0x01\n      add\n      swap1\n      0x20\n      add\n      dup1\n      dup4\n      gt\n      tag_32\n      jumpi\n      dup3\n      swap1\n      sub\n      0x1f\n      and\n      dup3\n      add\n      swap2\n    tag_30:\n      pop\n      pop\n      pop\n      pop\n      pop\n      swap1\n      dup1\n      0x01\n      add\n      sload\n      swap1\n      dup1\n      0x02\n      add\n      0x00\n      swap1\n      sload\n      swap1\n      0x0100\n      exp\n      swap1\n      div\n      0xff\n      and\n      swap1\n      dup1\n      0x03\n      add\n      dup1\n      sload\n      tag_33\n      swap1\n      tag_28\n      jump\t// in\n    tag_33:\n      dup1\n      0x1f\n      add\n      0x20\n      dup1\n      swap2\n      div\n      mul\n      0x20\n      add\n      mload(0x40)\n      swap1\n      dup2\n      add\n      0x40\n      mstore\n      dup1\n      swap3\n      swap2\n      swap1\n      dup2\n      dup2\n      mstore\n      0x20\n      add\n      dup3\n      dup1\n      sload\n      tag_34\n      swap1\n      tag_28\n      jump\t// in\n    tag_34:\n      dup1\n      iszero\n      tag_35\n      jumpi\n      dup1\n      0x1f\n      lt\n      tag_36\n      jumpi\n      0x0100\n      dup1\n      dup4\n      sload\n      div\n      mul\n      dup4\n      mstore\n      swap2\n      0x20\n      add\n      swap2\n      jump(tag_35)\n    tag_36:\n      dup3\n      add\n      swap2\n      swap1\n      0x00\n      mstore\n      keccak256(0x00, 0x20)\n      swap1\n    tag_37:\n      dup2\n      sload\n      dup2\n      mstore\n      swap1\n      0x01\n      add\n      swap1\n      0x20\n      add\n      dup1\n      dup4\n      gt\n      tag_37\n      jumpi\n      dup3\n      swap1\n      sub\n      0x1f\n      and\n      dup3\n      add\n      swap2\n    tag_35:\n      pop\n      pop\n      pop\n      pop\n      pop\n      swap1\n      pop\n      dup5\n      jump\t// out\n        /* \"smartwallet/struct.sol\":275:297  Person public Revealer */\n    tag_20:\n      0x04\n      dup1\n      0x00\n      add\n      dup1\n      sload\n      tag_38\n      swap1\n      tag_28\n      jump\t// in\n    tag_38:\n      dup1\n      0x1f\n      add\n      0x20\n      dup1\n      swap2\n      div\n      mul\n      0x20\n      add\n      mload(0x40)\n      swap1\n      dup2\n      add\n      0x40\n      mstore\n      dup1\n      swap3\n      swap2\n      swap1\n      dup2\n      dup2\n      mstore\n      0x20\n      add\n      dup3\n      dup1\n      sload\n      tag_39\n      swap1\n      tag_28\n      jump\t// in\n    tag_39:\n      dup1\n      iszero\n      tag_40\n      jumpi\n      dup1\n      0x1f\n      lt\n      tag_41\n      jumpi\n      0x0100\n      dup1\n      dup4\n      sload\n      div\n      mul\n      dup4\n      mstore\n      swap2\n      0x20\n      add\n      swap2\n      jump(tag_40)\n    tag_41:\n      dup3\n      add\n      swap2\n      swap1\n      0x00\n      mstore\n      keccak256(0x00, 0x20)\n      swap1\n    tag_42:\n      dup2\n      sload\n      dup2\n      mstore\n      swap1\n      0x01\n      add\n      swap1\n      0x20\n      add\n      dup1\n      dup4\n      gt\n      tag_42\n      jumpi\n      dup3\n      swap1\n      sub\n      0x1f\n      and\n      dup3\n      add\n      swap2\n    tag_40:\n      pop\n      pop\n      pop\n      pop\n      pop\n      swap1\n      dup1\n      0x01\n      add\n      sload\n      swap1\n      dup1\n      0x02\n      add\n      0x00\n      swap1\n      sload\n      swap1\n      0x0100\n      exp\n      swap1\n      div\n      0xff\n      and\n      swap1\n      dup1\n      0x03\n      add\n      dup1\n      sload\n      tag_43\n      swap1\n      tag_28\n      jump\t// in\n    tag_43:\n      dup1\n      0x1f\n      add\n      0x20\n      dup1\n      swap2\n      div\n      mul\n      0x20\n      add\n      mload(0x40)\n      swap1\n      dup2\n      add\n      0x40\n      mstore\n      dup1\n      swap3\n      swap2\n      swap1\n      dup2\n      dup2\n      mstore\n      0x20\n      add\n      dup3\n      dup1\n      sload\n      tag_44\n      swap1\n      tag_28\n      jump\t// in\n    tag_44:\n      dup1\n      iszero\n      tag_45\n      jumpi\n      dup1\n      0x1f\n      lt\n      tag_46\n      jumpi\n      0x0100\n      dup1\n      dup4\n      sload\n      div\n      mul\n      dup4\n      mstore\n      swap2\n      0x20\n      add\n      swap2\n      jump(tag_45)\n    tag_46:\n      dup3\n      add\n      swap2\n      swap1\n      0x00\n      mstore\n      keccak256(0x00, 0x20)\n      swap1\n    tag_47:\n      dup2\n      sload\n      dup2\n      mstore\n      swap1\n      0x01\n      add\n      swap1\n      0x20\n      add\n      dup1\n      dup4\n      gt\n      tag_47\n      jumpi\n      dup3\n      swap1\n      sub\n      0x1f\n      and\n      dup3\n      add\n      swap2\n    tag_45:\n      pop\n      pop\n      pop\n      pop\n      pop\n      swap1\n      pop\n      dup5\n      jump\t// out\n        /* \"#utility.yul\":7:82   */\n    tag_48:\n        /* \"#utility.yul\":40:46   */\n      0x00\n        /* \"#utility.yul\":73:75   */\n      0x40\n        /* \"#utility.yul\":67:76   */\n      mload\n        /* \"#utility.yul\":57:76   */\n      swap1\n      pop\n        /* \"#utility.yul\":7:82   */\n      swap1\n      jump\t// out\n        /* \"#utility.yul\":88:205   */\n    tag_49:\n        /* \"#utility.yul\":197:198   */\n      0x00\n        /* \"#utility.yul\":194:195   */\n      dup1\n        /* \"#utility.yul\":187:199   */\n      revert\n        /* \"#utility.yul\":211:328   */\n    tag_50:\n        /* \"#utility.yul\":320:321   */\n      0x00\n        /* \"#utility.yul\":317:318   */\n      dup1\n        /* \"#utility.yul\":310:322   */\n      revert\n        /* \"#utility.yul\":334:451   */\n    tag_51:\n        /* \"#utility.yul\":443:444   */\n      0x00\n        /* \"#utility.yul\":440:441   */\n      dup1\n        /* \"#utility.yul\":433:445   */\n      revert\n        /* \"#utility.yul\":457:574   */\n    tag_52:\n        /* \"#utility.yul\":566:567   */\n      0x00\n        /* \"#utility.yul\":563:564   */\n      dup1\n        /* \"#utility.yul\":556:568   */\n      revert\n        /* \"#utility.yul\":580:682   */\n    tag_53:\n        /* \"#utility.yul\":621:627   */\n      0x00\n        /* \"#utility.yul\":672:674   */\n      0x1f\n        /* \"#utility.yul\":668:675   */\n      not\n        /* \"#utility.yul\":663:665   */\n      0x1f\n        /* \"#utility.yul\":656:661   */\n      dup4\n        /* \"#utility.yul\":652:666   */\n      add\n        /* \"#utility.yul\":648:676   */\n      and\n        /* \"#utility.yul\":638:676   */\n      swap1\n      pop\n        /* \"#utility.yul\":580:682   */\n      swap2\n      swap1\n      pop\n      jump\t// out\n        /* \"#utility.yul\":688:868   */\n    tag_54:\n        /* \"#utility.yul\":736:813   */\n      0x4e487b7100000000000000000000000000000000000000000000000000000000\n        /* \"#utility.yul\":733:734   */\n      0x00\n        /* \"#utility.yul\":726:814   */\n      mstore\n        /* \"#utility.yul\":833:837   */\n      0x41\n        /* \"#utility.yul\":830:831   */\n      0x04\n        /* \"#utility.yul\":823:838   */\n      mstore\n        /* \"#utility.yul\":857:861   */\n      0x24\n        /* \"#utility.yul\":854:855   */\n      0x00\n        /* \"#utility.yul\":847:862   */\n      revert\n        /* \"#utility.yul\":874:1155   */\n    tag_55:\n        /* \"#utility.yul\":957:984   */\n      tag_98\n        /* \"#utility.yul\":979:983   */\n      dup3\n        /* \"#utility.yul\":957:984   */\n      tag_53\n      jump\t// in\n    tag_98:\n        /* \"#utility.yul\":949:955   */\n      dup2\n        /* \"#utility.yul\":945:985   */\n      add\n        /* \"#utility.yul\":1087:1093   */\n      dup2\n        /* \"#utility.yul\":1075:1085   */\n      dup2\n        /* \"#utility.yul\":1072:1094   */\n      lt\n        /* \"#utility.yul\":1051:1069   */\n      0xffffffffffffffff\n        /* \"#utility.yul\":1039:1049   */\n      dup3\n        /* \"#utility.yul\":1036:1070   */\n      gt\n        /* \"#utility.yul\":1033:1095   */\n      or\n        /* \"#utility.yul\":1030:1118   */\n      iszero\n      tag_99\n      jumpi\n        /* \"#utility.yul\":1098:1116   */\n      tag_100\n      tag_54\n      jump\t// in\n    tag_100:\n        /* \"#utility.yul\":1030:1118   */\n    tag_99:\n        /* \"#utility.yul\":1138:1148   */\n      dup1\n        /* \"#utility.yul\":1134:1136   */\n      0x40\n        /* \"#utility.yul\":1127:1149   */\n      mstore\n        /* \"#utility.yul\":917:1155   */\n      pop\n        /* \"#utility.yul\":874:1155   */\n      pop\n      pop\n      jump\t// out\n        /* \"#utility.yul\":1161:1290   */\n    tag_56:\n        /* \"#utility.yul\":1195:1201   */\n      0x00\n        /* \"#utility.yul\":1222:1242   */\n      tag_102\n      tag_48\n      jump\t// in\n    tag_102:\n        /* \"#utility.yul\":1212:1242   */\n      swap1\n      pop\n        /* \"#utility.yul\":1251:1284   */\n      tag_103\n        /* \"#utility.yul\":1279:1283   */\n      dup3\n        /* \"#utility.yul\":1271:1277   */\n      dup3\n        /* \"#utility.yul\":1251:1284   */\n      tag_55\n      jump\t// in\n    tag_103:\n        /* \"#utility.yul\":1161:1290   */\n      swap2\n      swap1\n      pop\n      jump\t// out\n        /* \"#utility.yul\":1296:1604   */\n    tag_57:\n        /* \"#utility.yul\":1358:1362   */\n      0x00\n        /* \"#utility.yul\":1448:1466   */\n      0xffffffffffffffff\n        /* \"#utility.yul\":1440:1446   */\n      dup3\n        /* \"#utility.yul\":1437:1467   */\n      gt\n        /* \"#utility.yul\":1434:1490   */\n      iszero\n      tag_105\n      jumpi\n        /* \"#utility.yul\":1470:1488   */\n      tag_106\n      tag_54\n      jump\t// in\n    tag_106:\n        /* \"#utility.yul\":1434:1490   */\n    tag_105:\n        /* \"#utility.yul\":1508:1537   */\n      tag_107\n        /* \"#utility.yul\":1530:1536   */\n      dup3\n        /* \"#utility.yul\":1508:1537   */\n      tag_53\n      jump\t// in\n    tag_107:\n        /* \"#utility.yul\":1500:1537   */\n      swap1\n      pop\n        /* \"#utility.yul\":1592:1596   */\n      0x20\n        /* \"#utility.yul\":1586:1590   */\n      dup2\n        /* \"#utility.yul\":1582:1597   */\n      add\n        /* \"#utility.yul\":1574:1597   */\n      swap1\n      pop\n        /* \"#utility.yul\":1296:1604   */\n      swap2\n      swap1\n      pop\n      jump\t// out\n        /* \"#utility.yul\":1610:1756   */\n    tag_58:\n        /* \"#utility.yul\":1707:1713   */\n      dup3\n        /* \"#utility.yul\":1702:1705   */\n      dup2\n        /* \"#utility.yul\":1697:1700   */\n      dup4\n        /* \"#utility.yul\":1684:1714   */\n      calldatacopy\n        /* \"#utility.yul\":1748:1749   */\n      0x00\n        /* \"#utility.yul\":1739:1745   */\n      dup4\n        /* \"#utility.yul\":1734:1737   */\n      dup4\n        /* \"#utility.yul\":1730:1746   */\n      add\n        /* \"#utility.yul\":1723:1750   */\n      mstore\n        /* \"#utility.yul\":1610:1756   */\n      pop\n      pop\n      pop\n      jump\t// out\n        /* \"#utility.yul\":1762:2187   */\n    tag_59:\n        /* \"#utility.yul\":1840:1845   */\n      0x00\n        /* \"#utility.yul\":1865:1931   */\n      tag_110\n        /* \"#utility.yul\":1881:1930   */\n      tag_111\n        /* \"#utility.yul\":1923:1929   */\n      dup5\n        /* \"#utility.yul\":1881:1930   */\n      tag_57\n      jump\t// in\n    tag_111:\n        /* \"#utility.yul\":1865:1931   */\n      tag_56\n      jump\t// in\n    tag_110:\n        /* \"#utility.yul\":1856:1931   */\n      swap1\n      pop\n        /* \"#utility.yul\":1954:1960   */\n      dup3\n        /* \"#utility.yul\":1947:1952   */\n      dup2\n        /* \"#utility.yul\":1940:1961   */\n      mstore\n        /* \"#utility.yul\":1992:1996   */\n      0x20\n        /* \"#utility.yul\":1985:1990   */\n      dup2\n        /* \"#utility.yul\":1981:1997   */\n      add\n        /* \"#utility.yul\":2030:2033   */\n      dup5\n        /* \"#utility.yul\":2021:2027   */\n      dup5\n        /* \"#utility.yul\":2016:2019   */\n      dup5\n        /* \"#utility.yul\":2012:2028   */\n      add\n        /* \"#utility.yul\":2009:2034   */\n      gt\n        /* \"#utility.yul\":2006:2118   */\n      iszero\n      tag_112\n      jumpi\n        /* \"#utility.yul\":2037:2116   */\n      tag_113\n      tag_52\n      jump\t// in\n    tag_113:\n        /* \"#utility.yul\":2006:2118   */\n    tag_112:\n        /* \"#utility.yul\":2127:2181   */\n      tag_114\n        /* \"#utility.yul\":2174:2180   */\n      dup5\n        /* \"#utility.yul\":2169:2172   */\n      dup3\n        /* \"#utility.yul\":2164:2167   */\n      dup6\n        /* \"#utility.yul\":2127:2181   */\n      tag_58\n      jump\t// in\n    tag_114:\n        /* \"#utility.yul\":1846:2187   */\n      pop\n        /* \"#utility.yul\":1762:2187   */\n      swap4\n      swap3\n      pop\n      pop\n      pop\n      jump\t// out\n        /* \"#utility.yul\":2207:2547   */\n    tag_60:\n        /* \"#utility.yul\":2263:2268   */\n      0x00\n        /* \"#utility.yul\":2312:2315   */\n      dup3\n        /* \"#utility.yul\":2305:2309   */\n      0x1f\n        /* \"#utility.yul\":2297:2303   */\n      dup4\n        /* \"#utility.yul\":2293:2310   */\n      add\n        /* \"#utility.yul\":2289:2316   */\n      slt\n        /* \"#utility.yul\":2279:2401   */\n      tag_116\n      jumpi\n        /* \"#utility.yul\":2320:2399   */\n      tag_117\n      tag_51\n      jump\t// in\n    tag_117:\n        /* \"#utility.yul\":2279:2401   */\n    tag_116:\n        /* \"#utility.yul\":2437:2443   */\n      dup2\n        /* \"#utility.yul\":2424:2444   */\n      calldataload\n        /* \"#utility.yul\":2462:2541   */\n      tag_118\n        /* \"#utility.yul\":2537:2540   */\n      dup5\n        /* \"#utility.yul\":2529:2535   */\n      dup3\n        /* \"#utility.yul\":2522:2526   */\n      0x20\n        /* \"#utility.yul\":2514:2520   */\n      dup7\n        /* \"#utility.yul\":2510:2527   */\n      add\n        /* \"#utility.yul\":2462:2541   */\n      tag_59\n      jump\t// in\n    tag_118:\n        /* \"#utility.yul\":2453:2541   */\n      swap2\n      pop\n        /* \"#utility.yul\":2269:2547   */\n      pop\n        /* \"#utility.yul\":2207:2547   */\n      swap3\n      swap2\n      pop\n      pop\n      jump\t// out\n        /* \"#utility.yul\":2553:2630   */\n    tag_61:\n        /* \"#utility.yul\":2590:2597   */\n      0x00\n        /* \"#utility.yul\":2619:2624   */\n      dup2\n        /* \"#utility.yul\":2608:2624   */\n      swap1\n      pop\n        /* \"#utility.yul\":2553:2630   */\n      swap2\n      swap1\n      pop\n      jump\t// out\n        /* \"#utility.yul\":2636:2758   */\n    tag_62:\n        /* \"#utility.yul\":2709:2733   */\n      tag_121\n        /* \"#utility.yul\":2727:2732   */\n      dup2\n        /* \"#utility.yul\":2709:2733   */\n      tag_61\n      jump\t// in\n    tag_121:\n        /* \"#utility.yul\":2702:2707   */\n      dup2\n        /* \"#utility.yul\":2699:2734   */\n      eq\n        /* \"#utility.yul\":2689:2752   */\n      tag_122\n      jumpi\n        /* \"#utility.yul\":2748:2749   */\n      0x00\n        /* \"#utility.yul\":2745:2746   */\n      dup1\n        /* \"#utility.yul\":2738:2750   */\n      revert\n        /* \"#utility.yul\":2689:2752   */\n    tag_122:\n        /* \"#utility.yul\":2636:2758   */\n      pop\n      jump\t// out\n        /* \"#utility.yul\":2764:2903   */\n    tag_63:\n        /* \"#utility.yul\":2810:2815   */\n      0x00\n        /* \"#utility.yul\":2848:2854   */\n      dup2\n        /* \"#utility.yul\":2835:2855   */\n      calldataload\n        /* \"#utility.yul\":2826:2855   */\n      swap1\n      pop\n        /* \"#utility.yul\":2864:2897   */\n      tag_124\n        /* \"#utility.yul\":2891:2896   */\n      dup2\n        /* \"#utility.yul\":2864:2897   */\n      tag_62\n      jump\t// in\n    tag_124:\n        /* \"#utility.yul\":2764:2903   */\n      swap3\n      swap2\n      pop\n      pop\n      jump\t// out\n        /* \"#utility.yul\":2909:2999   */\n    tag_64:\n        /* \"#utility.yul\":2943:2950   */\n      0x00\n        /* \"#utility.yul\":2986:2991   */\n      dup2\n        /* \"#utility.yul\":2979:2992   */\n      iszero\n        /* \"#utility.yul\":2972:2993   */\n      iszero\n        /* \"#utility.yul\":2961:2993   */\n      swap1\n      pop\n        /* \"#utility.yul\":2909:2999   */\n      swap2\n      swap1\n      pop\n      jump\t// out\n        /* \"#utility.yul\":3005:3121   */\n    tag_65:\n        /* \"#utility.yul\":3075:3096   */\n      tag_127\n        /* \"#utility.yul\":3090:3095   */\n      dup2\n        /* \"#utility.yul\":3075:3096   */\n      tag_64\n      jump\t// in\n    tag_127:\n        /* \"#utility.yul\":3068:3073   */\n      dup2\n        /* \"#utility.yul\":3065:3097   */\n      eq\n        /* \"#utility.yul\":3055:3115   */\n      tag_128\n      jumpi\n        /* \"#utility.yul\":3111:3112   */\n      0x00\n        /* \"#utility.yul\":3108:3109   */\n      dup1\n        /* \"#utility.yul\":3101:3113   */\n      revert\n        /* \"#utility.yul\":3055:3115   */\n    tag_128:\n        /* \"#utility.yul\":3005:3121   */\n      pop\n      jump\t// out\n        /* \"#utility.yul\":3127:3260   */\n    tag_66:\n        /* \"#utility.yul\":3170:3175   */\n      0x00\n        /* \"#utility.yul\":3208:3214   */\n      dup2\n        /* \"#utility.yul\":3195:3215   */\n      calldataload\n        /* \"#utility.yul\":3186:3215   */\n      swap1\n      pop\n        /* \"#utility.yul\":3224:3254   */\n      tag_130\n        /* \"#utility.yul\":3248:3253   */\n      dup2\n        /* \"#utility.yul\":3224:3254   */\n      tag_65\n      jump\t// in\n    tag_130:\n        /* \"#utility.yul\":3127:3260   */\n      swap3\n      swap2\n      pop\n      pop\n      jump\t// out\n        /* \"#utility.yul\":3266:4385   */\n    tag_9:\n        /* \"#utility.yul\":3369:3375   */\n      0x00\n        /* \"#utility.yul\":3377:3383   */\n      dup1\n        /* \"#utility.yul\":3385:3391   */\n      0x00\n        /* \"#utility.yul\":3393:3399   */\n      dup1\n        /* \"#utility.yul\":3442:3445   */\n      0x80\n        /* \"#utility.yul\":3430:3439   */\n      dup6\n        /* \"#utility.yul\":3421:3428   */\n      dup8\n        /* \"#utility.yul\":3417:3440   */\n      sub\n        /* \"#utility.yul\":3413:3446   */\n      slt\n        /* \"#utility.yul\":3410:3530   */\n      iszero\n      tag_132\n      jumpi\n        /* \"#utility.yul\":3449:3528   */\n      tag_133\n      tag_49\n      jump\t// in\n    tag_133:\n        /* \"#utility.yul\":3410:3530   */\n    tag_132:\n        /* \"#utility.yul\":3597:3598   */\n      0x00\n        /* \"#utility.yul\":3586:3595   */\n      dup6\n        /* \"#utility.yul\":3582:3599   */\n      add\n        /* \"#utility.yul\":3569:3600   */\n      calldataload\n        /* \"#utility.yul\":3627:3645   */\n      0xffffffffffffffff\n        /* \"#utility.yul\":3619:3625   */\n      dup2\n        /* \"#utility.yul\":3616:3646   */\n      gt\n        /* \"#utility.yul\":3613:3730   */\n      iszero\n      tag_134\n      jumpi\n        /* \"#utility.yul\":3649:3728   */\n      tag_135\n      tag_50\n      jump\t// in\n    tag_135:\n        /* \"#utility.yul\":3613:3730   */\n    tag_134:\n        /* \"#utility.yul\":3754:3817   */\n      tag_136\n        /* \"#utility.yul\":3809:3816   */\n      dup8\n        /* \"#utility.yul\":3800:3806   */\n      dup3\n        /* \"#utility.yul\":3789:3798   */\n      dup9\n        /* \"#utility.yul\":3785:3807   */\n      add\n        /* \"#utility.yul\":3754:3817   */\n      tag_60\n      jump\t// in\n    tag_136:\n        /* \"#utility.yul\":3744:3817   */\n      swap5\n      pop\n        /* \"#utility.yul\":3540:3827   */\n      pop\n        /* \"#utility.yul\":3866:3868   */\n      0x20\n        /* \"#utility.yul\":3892:3945   */\n      tag_137\n        /* \"#utility.yul\":3937:3944   */\n      dup8\n        /* \"#utility.yul\":3928:3934   */\n      dup3\n        /* \"#utility.yul\":3917:3926   */\n      dup9\n        /* \"#utility.yul\":3913:3935   */\n      add\n        /* \"#utility.yul\":3892:3945   */\n      tag_63\n      jump\t// in\n    tag_137:\n        /* \"#utility.yul\":3882:3945   */\n      swap4\n      pop\n        /* \"#utility.yul\":3837:3955   */\n      pop\n        /* \"#utility.yul\":3994:3996   */\n      0x40\n        /* \"#utility.yul\":4020:4070   */\n      tag_138\n        /* \"#utility.yul\":4062:4069   */\n      dup8\n        /* \"#utility.yul\":4053:4059   */\n      dup3\n        /* \"#utility.yul\":4042:4051   */\n      dup9\n        /* \"#utility.yul\":4038:4060   */\n      add\n        /* \"#utility.yul\":4020:4070   */\n      tag_66\n      jump\t// in\n    tag_138:\n        /* \"#utility.yul\":4010:4070   */\n      swap3\n      pop\n        /* \"#utility.yul\":3965:4080   */\n      pop\n        /* \"#utility.yul\":4147:4149   */\n      0x60\n        /* \"#utility.yul\":4136:4145   */\n      dup6\n        /* \"#utility.yul\":4132:4150   */\n      add\n        /* \"#utility.yul\":4119:4151   */\n      calldataload\n        /* \"#utility.yul\":4178:4196   */\n      0xffffffffffffffff\n        /* \"#utility.yul\":4170:4176   */\n      dup2\n        /* \"#utility.yul\":4167:4197   */\n      gt\n        /* \"#utility.yul\":4164:4281   */\n      iszero\n      tag_139\n      jumpi\n        /* \"#utility.yul\":4200:4279   */\n      tag_140\n      tag_50\n      jump\t// in\n    tag_140:\n        /* \"#utility.yul\":4164:4281   */\n    tag_139:\n        /* \"#utility.yul\":4305:4368   */\n      tag_141\n        /* \"#utility.yul\":4360:4367   */\n      dup8\n        /* \"#utility.yul\":4351:4357   */\n      dup3\n        /* \"#utility.yul\":4340:4349   */\n      dup9\n        /* \"#utility.yul\":4336:4358   */\n      add\n        /* \"#utility.yul\":4305:4368   */\n      tag_60\n      jump\t// in\n    tag_141:\n        /* \"#utility.yul\":4295:4368   */\n      swap2\n      pop\n        /* \"#utility.yul\":4090:4378   */\n      pop\n        /* \"#utility.yul\":3266:4385   */\n      swap3\n      swap6\n      swap2\n      swap5\n      pop\n      swap3\n      pop\n      jump\t// out\n        /* \"#utility.yul\":4391:4720   */\n    tag_13:\n        /* \"#utility.yul\":4450:4456   */\n      0x00\n        /* \"#utility.yul\":4499:4501   */\n      0x20\n        /* \"#utility.yul\":4487:4496   */\n      dup3\n        /* \"#utility.yul\":4478:4485   */\n      dup5\n        /* \"#utility.yul\":4474:4497   */\n      sub\n        /* \"#utility.yul\":4470:4502   */\n      slt\n        /* \"#utility.yul\":4467:4586   */\n      iszero\n      tag_143\n      jumpi\n        /* \"#utility.yul\":4505:4584   */\n      tag_144\n      tag_49\n      jump\t// in\n    tag_144:\n        /* \"#utility.yul\":4467:4586   */\n    tag_143:\n        /* \"#utility.yul\":4625:4626   */\n      0x00\n        /* \"#utility.yul\":4650:4703   */\n      tag_145\n        /* \"#utility.yul\":4695:4702   */\n      dup5\n        /* \"#utility.yul\":4686:4692   */\n      dup3\n        /* \"#utility.yul\":4675:4684   */\n      dup6\n        /* \"#utility.yul\":4671:4693   */\n      add\n        /* \"#utility.yul\":4650:4703   */\n      tag_63\n      jump\t// in\n    tag_145:\n        /* \"#utility.yul\":4640:4703   */\n      swap2\n      pop\n        /* \"#utility.yul\":4596:4713   */\n      pop\n        /* \"#utility.yul\":4391:4720   */\n      swap3\n      swap2\n      pop\n      pop\n      jump\t// out\n        /* \"#utility.yul\":4726:4825   */\n    tag_67:\n        /* \"#utility.yul\":4778:4784   */\n      0x00\n        /* \"#utility.yul\":4812:4817   */\n      dup2\n        /* \"#utility.yul\":4806:4818   */\n      mload\n        /* \"#utility.yul\":4796:4818   */\n      swap1\n      pop\n        /* \"#utility.yul\":4726:4825   */\n      swap2\n      swap1\n      pop\n      jump\t// out\n        /* \"#utility.yul\":4831:5000   */\n    tag_68:\n        /* \"#utility.yul\":4915:4926   */\n      0x00\n        /* \"#utility.yul\":4949:4955   */\n      dup3\n        /* \"#utility.yul\":4944:4947   */\n      dup3\n        /* \"#utility.yul\":4937:4956   */\n      mstore\n        /* \"#utility.yul\":4989:4993   */\n      0x20\n        /* \"#utility.yul\":4984:4987   */\n      dup3\n        /* \"#utility.yul\":4980:4994   */\n      add\n        /* \"#utility.yul\":4965:4994   */\n      swap1\n      pop\n        /* \"#utility.yul\":4831:5000   */\n      swap3\n      swap2\n      pop\n      pop\n      jump\t// out\n        /* \"#utility.yul\":5006:5252   */\n    tag_69:\n        /* \"#utility.yul\":5087:5088   */\n      0x00\n        /* \"#utility.yul\":5097:5210   */\n    tag_149:\n        /* \"#utility.yul\":5111:5117   */\n      dup4\n        /* \"#utility.yul\":5108:5109   */\n      dup2\n        /* \"#utility.yul\":5105:5118   */\n      lt\n        /* \"#utility.yul\":5097:5210   */\n      iszero\n      tag_151\n      jumpi\n        /* \"#utility.yul\":5196:5197   */\n      dup1\n        /* \"#utility.yul\":5191:5194   */\n      dup3\n        /* \"#utility.yul\":5187:5198   */\n      add\n        /* \"#utility.yul\":5181:5199   */\n      mload\n        /* \"#utility.yul\":5177:5178   */\n      dup2\n        /* \"#utility.yul\":5172:5175   */\n      dup5\n        /* \"#utility.yul\":5168:5179   */\n      add\n        /* \"#utility.yul\":5161:5200   */\n      mstore\n        /* \"#utility.yul\":5133:5135   */\n      0x20\n        /* \"#utility.yul\":5130:5131   */\n      dup2\n        /* \"#utility.yul\":5126:5136   */\n      add\n        /* \"#utility.yul\":5121:5136   */\n      swap1\n      pop\n        /* \"#utility.yul\":5097:5210   */\n      jump(tag_149)\n    tag_151:\n        /* \"#utility.yul\":5244:5245   */\n      0x00\n        /* \"#utility.yul\":5235:5241   */\n      dup5\n        /* \"#utility.yul\":5230:5233   */\n      dup5\n        /* \"#utility.yul\":5226:5242   */\n      add\n        /* \"#utility.yul\":5219:5246   */\n      mstore\n        /* \"#utility.yul\":5068:5252   */\n      pop\n        /* \"#utility.yul\":5006:5252   */\n      pop\n      pop\n      pop\n      jump\t// out\n        /* \"#utility.yul\":5258:5635   */\n    tag_70:\n        /* \"#utility.yul\":5346:5349   */\n      0x00\n        /* \"#utility.yul\":5374:5413   */\n      tag_153\n        /* \"#utility.yul\":5407:5412   */\n      dup3\n        /* \"#utility.yul\":5374:5413   */\n      tag_67\n      jump\t// in\n    tag_153:\n        /* \"#utility.yul\":5429:5500   */\n      tag_154\n        /* \"#utility.yul\":5493:5499   */\n      dup2\n        /* \"#utility.yul\":5488:5491   */\n      dup6\n        /* \"#utility.yul\":5429:5500   */\n      tag_68\n      jump\t// in\n    tag_154:\n        /* \"#utility.yul\":5422:5500   */\n      swap4\n      pop\n        /* \"#utility.yul\":5509:5574   */\n      tag_155\n        /* \"#utility.yul\":5567:5573   */\n      dup2\n        /* \"#utility.yul\":5562:5565   */\n      dup6\n        /* \"#utility.yul\":5555:5559   */\n      0x20\n        /* \"#utility.yul\":5548:5553   */\n      dup7\n        /* \"#utility.yul\":5544:5560   */\n      add\n        /* \"#utility.yul\":5509:5574   */\n      tag_69\n      jump\t// in\n    tag_155:\n        /* \"#utility.yul\":5599:5628   */\n      tag_156\n        /* \"#utility.yul\":5621:5627   */\n      dup2\n        /* \"#utility.yul\":5599:5628   */\n      tag_53\n      jump\t// in\n    tag_156:\n        /* \"#utility.yul\":5594:5597   */\n      dup5\n        /* \"#utility.yul\":5590:5629   */\n      add\n        /* \"#utility.yul\":5583:5629   */\n      swap2\n      pop\n        /* \"#utility.yul\":5350:5635   */\n      pop\n        /* \"#utility.yul\":5258:5635   */\n      swap3\n      swap2\n      pop\n      pop\n      jump\t// out\n        /* \"#utility.yul\":5641:5759   */\n    tag_71:\n        /* \"#utility.yul\":5728:5752   */\n      tag_158\n        /* \"#utility.yul\":5746:5751   */\n      dup2\n        /* \"#utility.yul\":5728:5752   */\n      tag_61\n      jump\t// in\n    tag_158:\n        /* \"#utility.yul\":5723:5726   */\n      dup3\n        /* \"#utility.yul\":5716:5753   */\n      mstore\n        /* \"#utility.yul\":5641:5759   */\n      pop\n      pop\n      jump\t// out\n        /* \"#utility.yul\":5765:5874   */\n    tag_72:\n        /* \"#utility.yul\":5846:5867   */\n      tag_160\n        /* \"#utility.yul\":5861:5866   */\n      dup2\n        /* \"#utility.yul\":5846:5867   */\n      tag_64\n      jump\t// in\n    tag_160:\n        /* \"#utility.yul\":5841:5844   */\n      dup3\n        /* \"#utility.yul\":5834:5868   */\n      mstore\n        /* \"#utility.yul\":5765:5874   */\n      pop\n      pop\n      jump\t// out\n        /* \"#utility.yul\":5880:6603   */\n    tag_18:\n        /* \"#utility.yul\":6091:6095   */\n      0x00\n        /* \"#utility.yul\":6129:6132   */\n      0x80\n        /* \"#utility.yul\":6118:6127   */\n      dup3\n        /* \"#utility.yul\":6114:6133   */\n      add\n        /* \"#utility.yul\":6106:6133   */\n      swap1\n      pop\n        /* \"#utility.yul\":6179:6188   */\n      dup2\n        /* \"#utility.yul\":6173:6177   */\n      dup2\n        /* \"#utility.yul\":6169:6189   */\n      sub\n        /* \"#utility.yul\":6165:6166   */\n      0x00\n        /* \"#utility.yul\":6154:6163   */\n      dup4\n        /* \"#utility.yul\":6150:6167   */\n      add\n        /* \"#utility.yul\":6143:6190   */\n      mstore\n        /* \"#utility.yul\":6207:6285   */\n      tag_162\n        /* \"#utility.yul\":6280:6284   */\n      dup2\n        /* \"#utility.yul\":6271:6277   */\n      dup8\n        /* \"#utility.yul\":6207:6285   */\n      tag_70\n      jump\t// in\n    tag_162:\n        /* \"#utility.yul\":6199:6285   */\n      swap1\n      pop\n        /* \"#utility.yul\":6295:6367   */\n      tag_163\n        /* \"#utility.yul\":6363:6365   */\n      0x20\n        /* \"#utility.yul\":6352:6361   */\n      dup4\n        /* \"#utility.yul\":6348:6366   */\n      add\n        /* \"#utility.yul\":6339:6345   */\n      dup7\n        /* \"#utility.yul\":6295:6367   */\n      tag_71\n      jump\t// in\n    tag_163:\n        /* \"#utility.yul\":6377:6443   */\n      tag_164\n        /* \"#utility.yul\":6439:6441   */\n      0x40\n        /* \"#utility.yul\":6428:6437   */\n      dup4\n        /* \"#utility.yul\":6424:6442   */\n      add\n        /* \"#utility.yul\":6415:6421   */\n      dup6\n        /* \"#utility.yul\":6377:6443   */\n      tag_72\n      jump\t// in\n    tag_164:\n        /* \"#utility.yul\":6490:6499   */\n      dup2\n        /* \"#utility.yul\":6484:6488   */\n      dup2\n        /* \"#utility.yul\":6480:6500   */\n      sub\n        /* \"#utility.yul\":6475:6477   */\n      0x60\n        /* \"#utility.yul\":6464:6473   */\n      dup4\n        /* \"#utility.yul\":6460:6478   */\n      add\n        /* \"#utility.yul\":6453:6501   */\n      mstore\n        /* \"#utility.yul\":6518:6596   */\n      tag_165\n        /* \"#utility.yul\":6591:6595   */\n      dup2\n        /* \"#utility.yul\":6582:6588   */\n      dup5\n        /* \"#utility.yul\":6518:6596   */\n      tag_70\n      jump\t// in\n    tag_165:\n        /* \"#utility.yul\":6510:6596   */\n      swap1\n      pop\n        /* \"#utility.yul\":5880:6603   */\n      swap6\n      swap5\n      pop\n      pop\n      pop\n      pop\n      pop\n      jump\t// out\n        /* \"#utility.yul\":6609:6789   */\n    tag_73:\n        /* \"#utility.yul\":6657:6734   */\n      0x4e487b7100000000000000000000000000000000000000000000000000000000\n        /* \"#utility.yul\":6654:6655   */\n      0x00\n        /* \"#utility.yul\":6647:6735   */\n      mstore\n        /* \"#utility.yul\":6754:6758   */\n      0x22\n        /* \"#utility.yul\":6751:6752   */\n      0x04\n        /* \"#utility.yul\":6744:6759   */\n      mstore\n        /* \"#utility.yul\":6778:6782   */\n      0x24\n        /* \"#utility.yul\":6775:6776   */\n      0x00\n        /* \"#utility.yul\":6768:6783   */\n      revert\n        /* \"#utility.yul\":6795:7115   */\n    tag_28:\n        /* \"#utility.yul\":6839:6845   */\n      0x00\n        /* \"#utility.yul\":6876:6877   */\n      0x02\n        /* \"#utility.yul\":6870:6874   */\n      dup3\n        /* \"#utility.yul\":6866:6878   */\n      div\n        /* \"#utility.yul\":6856:6878   */\n      swap1\n      pop\n        /* \"#utility.yul\":6923:6924   */\n      0x01\n        /* \"#utility.yul\":6917:6921   */\n      dup3\n        /* \"#utility.yul\":6913:6925   */\n      and\n        /* \"#utility.yul\":6944:6962   */\n      dup1\n        /* \"#utility.yul\":6934:7015   */\n      tag_168\n      jumpi\n        /* \"#utility.yul\":7000:7004   */\n      0x7f\n        /* \"#utility.yul\":6992:6998   */\n      dup3\n        /* \"#utility.yul\":6988:7005   */\n      and\n        /* \"#utility.yul\":6978:7005   */\n      swap2\n      pop\n        /* \"#utility.yul\":6934:7015   */\n    tag_168:\n        /* \"#utility.yul\":7062:7064   */\n      0x20\n        /* \"#utility.yul\":7054:7060   */\n      dup3\n        /* \"#utility.yul\":7051:7065   */\n      lt\n        /* \"#utility.yul\":7031:7049   */\n      dup2\n        /* \"#utility.yul\":7028:7066   */\n      sub\n        /* \"#utility.yul\":7025:7109   */\n      tag_169\n      jumpi\n        /* \"#utility.yul\":7081:7099   */\n      tag_170\n      tag_73\n      jump\t// in\n    tag_170:\n        /* \"#utility.yul\":7025:7109   */\n    tag_169:\n        /* \"#utility.yul\":6846:7115   */\n      pop\n        /* \"#utility.yul\":6795:7115   */\n      swap2\n      swap1\n      pop\n      jump\t// out\n        /* \"#utility.yul\":7121:7262   */\n    tag_74:\n        /* \"#utility.yul\":7170:7174   */\n      0x00\n        /* \"#utility.yul\":7193:7196   */\n      dup2\n        /* \"#utility.yul\":7185:7196   */\n      swap1\n      pop\n        /* \"#utility.yul\":7216:7219   */\n      dup2\n        /* \"#utility.yul\":7213:7214   */\n      0x00\n        /* \"#utility.yul\":7206:7220   */\n      mstore\n        /* \"#utility.yul\":7250:7254   */\n      0x20\n        /* \"#utility.yul\":7247:7248   */\n      0x00\n        /* \"#utility.yul\":7237:7255   */\n      keccak256\n        /* \"#utility.yul\":7229:7255   */\n      swap1\n      pop\n        /* \"#utility.yul\":7121:7262   */\n      swap2\n      swap1\n      pop\n      jump\t// out\n        /* \"#utility.yul\":7268:7361   */\n    tag_75:\n        /* \"#utility.yul\":7305:7311   */\n      0x00\n        /* \"#utility.yul\":7352:7354   */\n      0x20\n        /* \"#utility.yul\":7347:7349   */\n      0x1f\n        /* \"#utility.yul\":7340:7345   */\n      dup4\n        /* \"#utility.yul\":7336:7350   */\n      add\n        /* \"#utility.yul\":7332:7355   */\n      div\n        /* \"#utility.yul\":7322:7355   */\n      swap1\n      pop\n        /* \"#utility.yul\":7268:7361   */\n      swap2\n      swap1\n      pop\n      jump\t// out\n        /* \"#utility.yul\":7367:7474   */\n    tag_76:\n        /* \"#utility.yul\":7411:7419   */\n      0x00\n        /* \"#utility.yul\":7461:7466   */\n      dup3\n        /* \"#utility.yul\":7455:7459   */\n      dup3\n        /* \"#utility.yul\":7451:7467   */\n      shl\n        /* \"#utility.yul\":7430:7467   */\n      swap1\n      pop\n        /* \"#utility.yul\":7367:7474   */\n      swap3\n      swap2\n      pop\n      pop\n      jump\t// out\n        /* \"#utility.yul\":7480:7873   */\n    tag_77:\n        /* \"#utility.yul\":7549:7555   */\n      0x00\n        /* \"#utility.yul\":7599:7600   */\n      0x08\n        /* \"#utility.yul\":7587:7597   */\n      dup4\n        /* \"#utility.yul\":7583:7601   */\n      mul\n        /* \"#utility.yul\":7622:7719   */\n      tag_175\n        /* \"#utility.yul\":7652:7718   */\n      0xffffffffffffffffffffffffffffffffffffffffffffffffffffffffffffffff\n        /* \"#utility.yul\":7641:7650   */\n      dup3\n        /* \"#utility.yul\":7622:7719   */\n      tag_76\n      jump\t// in\n    tag_175:\n        /* \"#utility.yul\":7740:7779   */\n      tag_176\n        /* \"#utility.yul\":7770:7778   */\n      dup7\n        /* \"#utility.yul\":7759:7768   */\n      dup4\n        /* \"#utility.yul\":7740:7779   */\n      tag_76\n      jump\t// in\n    tag_176:\n        /* \"#utility.yul\":7728:7779   */\n      swap6\n      pop\n        /* \"#utility.yul\":7812:7816   */\n      dup1\n        /* \"#utility.yul\":7808:7817   */\n      not\n        /* \"#utility.yul\":7801:7806   */\n      dup5\n        /* \"#utility.yul\":7797:7818   */\n      and\n        /* \"#utility.yul\":7788:7818   */\n      swap4\n      pop\n        /* \"#utility.yul\":7861:7865   */\n      dup1\n        /* \"#utility.yul\":7851:7859   */\n      dup7\n        /* \"#utility.yul\":7847:7866   */\n      and\n        /* \"#utility.yul\":7840:7845   */\n      dup5\n        /* \"#utility.yul\":7837:7867   */\n      or\n        /* \"#utility.yul\":7827:7867   */\n      swap3\n      pop\n        /* \"#utility.yul\":7556:7873   */\n      pop\n      pop\n        /* \"#utility.yul\":7480:7873   */\n      swap4\n      swap3\n      pop\n      pop\n      pop\n      jump\t// out\n        /* \"#utility.yul\":7879:7939   */\n    tag_78:\n        /* \"#utility.yul\":7907:7910   */\n      0x00\n        /* \"#utility.yul\":7928:7933   */\n      dup2\n        /* \"#utility.yul\":7921:7933   */\n      swap1\n      pop\n        /* \"#utility.yul\":7879:7939   */\n      swap2\n      swap1\n      pop\n      jump\t// out\n        /* \"#utility.yul\":7945:8087   */\n    tag_79:\n        /* \"#utility.yul\":7995:8004   */\n      0x00\n        /* \"#utility.yul\":8028:8081   */\n      tag_179\n        /* \"#utility.yul\":8046:8080   */\n      tag_180\n        /* \"#utility.yul\":8055:8079   */\n      tag_181\n        /* \"#utility.yul\":8073:8078   */\n      dup5\n        /* \"#utility.yul\":8055:8079   */\n      tag_61\n      jump\t// in\n    tag_181:\n        /* \"#utility.yul\":8046:8080   */\n      tag_78\n      jump\t// in\n    tag_180:\n        /* \"#utility.yul\":8028:8081   */\n      tag_61\n      jump\t// in\n    tag_179:\n        /* \"#utility.yul\":8015:8081   */\n      swap1\n      pop\n        /* \"#utility.yul\":7945:8087   */\n      swap2\n      swap1\n      pop\n      jump\t// out\n        /* \"#utility.yul\":8093:8168   */\n    tag_80:\n        /* \"#utility.yul\":8136:8139   */\n      0x00\n        /* \"#utility.yul\":8157:8162   */\n      dup2\n        /* \"#utility.yul\":8150:8162   */\n      swap1\n      pop\n        /* \"#utility.yul\":8093:8168   */\n      swap2\n      swap1\n      pop\n      jump\t// out\n        /* \"#utility.yul\":8174:8443   */\n    tag_81:\n        /* \"#utility.yul\":8284:8323   */\n      tag_184\n        /* \"#utility.yul\":8315:8322   */\n      dup4\n        /* \"#utility.yul\":8284:8323   */\n      tag_79\n      jump\t// in\n    tag_184:\n        /* \"#utility.yul\":8345:8436   */\n      tag_185\n        /* \"#utility.yul\":8394:8435   */\n      tag_186\n        /* \"#utility.yul\":8418:8434   */\n      dup3\n        /* \"#utility.yul\":8394:8435   */\n      tag_80\n      jump\t// in\n    tag_186:\n        /* \"#utility.yul\":8386:8392   */\n      dup5\n        /* \"#utility.yul\":8379:8383   */\n      dup5\n        /* \"#utility.yul\":8373:8384   */\n      sload\n        /* \"#utility.yul\":8345:8436   */\n      tag_77\n      jump\t// in\n    tag_185:\n        /* \"#utility.yul\":8339:8343   */\n      dup3\n        /* \"#utility.yul\":8332:8437   */\n      sstore\n        /* \"#utility.yul\":8250:8443   */\n      pop\n        /* \"#utility.yul\":8174:8443   */\n      pop\n      pop\n      pop\n      jump\t// out\n        /* \"#utility.yul\":8449:8522   */\n    tag_82:\n        /* \"#utility.yul\":8494:8497   */\n      0x00\n        /* \"#utility.yul\":8449:8522   */\n      swap1\n      jump\t// out\n        /* \"#utility.yul\":8528:8717   */\n    tag_83:\n        /* \"#utility.yul\":8605:8637   */\n      tag_189\n      tag_82\n      jump\t// in\n    tag_189:\n        /* \"#utility.yul\":8646:8711   */\n      tag_190\n        /* \"#utility.yul\":8704:8710   */\n      dup2\n        /* \"#utility.yul\":8696:8702   */\n      dup5\n        /* \"#utility.yul\":8690:8694   */\n      dup5\n        /* \"#utility.yul\":8646:8711   */\n      tag_81\n      jump\t// in\n    tag_190:\n        /* \"#utility.yul\":8581:8717   */\n      pop\n        /* \"#utility.yul\":8528:8717   */\n      pop\n      pop\n      jump\t// out\n        /* \"#utility.yul\":8723:8909   */\n    tag_84:\n        /* \"#utility.yul\":8783:8903   */\n    tag_192:\n        /* \"#utility.yul\":8800:8803   */\n      dup2\n        /* \"#utility.yul\":8793:8798   */\n      dup2\n        /* \"#utility.yul\":8790:8804   */\n      lt\n        /* \"#utility.yul\":8783:8903   */\n      iszero\n      tag_194\n      jumpi\n        /* \"#utility.yul\":8854:8893   */\n      tag_195\n        /* \"#utility.yul\":8891:8892   */\n      0x00\n        /* \"#utility.yul\":8884:8889   */\n      dup3\n        /* \"#utility.yul\":8854:8893   */\n      tag_83\n      jump\t// in\n    tag_195:\n        /* \"#utility.yul\":8827:8828   */\n      0x01\n        /* \"#utility.yul\":8820:8825   */\n      dup2\n        /* \"#utility.yul\":8816:8829   */\n      add\n        /* \"#utility.yul\":8807:8829   */\n      swap1\n      pop\n        /* \"#utility.yul\":8783:8903   */\n      jump(tag_192)\n    tag_194:\n        /* \"#utility.yul\":8723:8909   */\n      pop\n      pop\n      jump\t// out\n        /* \"#utility.yul\":8915:9458   */\n    tag_85:\n        /* \"#utility.yul\":9016:9018   */\n      0x1f\n        /* \"#utility.yul\":9011:9014   */\n      dup3\n        /* \"#utility.yul\":9008:9019   */\n      gt\n        /* \"#utility.yul\":9005:9451   */\n      iszero\n      tag_197\n      jumpi\n        /* \"#utility.yul\":9050:9088   */\n      tag_198\n        /* \"#utility.yul\":9082:9087   */\n      dup2\n        /* \"#utility.yul\":9050:9088   */\n      tag_74\n      jump\t// in\n    tag_198:\n        /* \"#utility.yul\":9134:9163   */\n      tag_199\n        /* \"#utility.yul\":9152:9162   */\n      dup5\n        /* \"#utility.yul\":9134:9163   */\n      tag_75\n      jump\t// in\n    tag_199:\n        /* \"#utility.yul\":9124:9132   */\n      dup2\n        /* \"#utility.yul\":9120:9164   */\n      add\n        /* \"#utility.yul\":9317:9319   */\n      0x20\n        /* \"#utility.yul\":9305:9315   */\n      dup6\n        /* \"#utility.yul\":9302:9320   */\n      lt\n        /* \"#utility.yul\":9299:9348   */\n      iszero\n      tag_200\n      jumpi\n        /* \"#utility.yul\":9338:9346   */\n      dup2\n        /* \"#utility.yul\":9323:9346   */\n      swap1\n      pop\n        /* \"#utility.yul\":9299:9348   */\n    tag_200:\n        /* \"#utility.yul\":9361:9441   */\n      tag_201\n        /* \"#utility.yul\":9417:9439   */\n      tag_202\n        /* \"#utility.yul\":9435:9438   */\n      dup6\n        /* \"#utility.yul\":9417:9439   */\n      tag_75\n      jump\t// in\n    tag_202:\n        /* \"#utility.yul\":9407:9415   */\n      dup4\n        /* \"#utility.yul\":9403:9440   */\n      add\n        /* \"#utility.yul\":9390:9401   */\n      dup3\n        /* \"#utility.yul\":9361:9441   */\n      tag_84\n      jump\t// in\n    tag_201:\n        /* \"#utility.yul\":9020:9451   */\n      pop\n      pop\n        /* \"#utility.yul\":9005:9451   */\n    tag_197:\n        /* \"#utility.yul\":8915:9458   */\n      pop\n      pop\n      pop\n      jump\t// out\n        /* \"#utility.yul\":9464:9581   */\n    tag_86:\n        /* \"#utility.yul\":9518:9526   */\n      0x00\n        /* \"#utility.yul\":9568:9573   */\n      dup3\n        /* \"#utility.yul\":9562:9566   */\n      dup3\n        /* \"#utility.yul\":9558:9574   */\n      shr\n        /* \"#utility.yul\":9537:9574   */\n      swap1\n      pop\n        /* \"#utility.yul\":9464:9581   */\n      swap3\n      swap2\n      pop\n      pop\n      jump\t// out\n        /* \"#utility.yul\":9587:9756   */\n    tag_87:\n        /* \"#utility.yul\":9631:9637   */\n      0x00\n        /* \"#utility.yul\":9664:9715   */\n      tag_205\n        /* \"#utility.yul\":9712:9713   */\n      0x00\n        /* \"#utility.yul\":9708:9714   */\n      not\n        /* \"#utility.yul\":9700:9705   */\n      dup5\n        /* \"#utility.yul\":9697:9698   */\n      0x08\n        /* \"#utility.yul\":9693:9706   */\n      mul\n        /* \"#utility.yul\":9664:9715   */\n      tag_86\n      jump\t// in\n    tag_205:\n        /* \"#utility.yul\":9660:9716   */\n      not\n        /* \"#utility.yul\":9745:9749   */\n      dup1\n        /* \"#utility.yul\":9739:9743   */\n      dup4\n        /* \"#utility.yul\":9735:9750   */\n      and\n        /* \"#utility.yul\":9725:9750   */\n      swap2\n      pop\n        /* \"#utility.yul\":9638:9756   */\n      pop\n        /* \"#utility.yul\":9587:9756   */\n      swap3\n      swap2\n      pop\n      pop\n      jump\t// out\n        /* \"#utility.yul\":9761:10056   */\n    tag_88:\n        /* \"#utility.yul\":9837:9841   */\n      0x00\n        /* \"#utility.yul\":9983:10012   */\n      tag_207\n        /* \"#utility.yul\":10008:10011   */\n      dup4\n        /* \"#utility.yul\":10002:10006   */\n      dup4\n        /* \"#utility.yul\":9983:10012   */\n      tag_87\n      jump\t// in\n    tag_207:\n        /* \"#utility.yul\":9975:10012   */\n      swap2\n      pop\n        /* \"#utility.yul\":10045:10048   */\n      dup3\n        /* \"#utility.yul\":10042:10043   */\n      0x02\n        /* \"#utility.yul\":10038:10049   */\n      mul\n        /* \"#utility.yul\":10032:10036   */\n      dup3\n        /* \"#utility.yul\":10029:10050   */\n      or\n        /* \"#utility.yul\":10021:10050   */\n      swap1\n      pop\n        /* \"#utility.yul\":9761:10056   */\n      swap3\n      swap2\n      pop\n      pop\n      jump\t// out\n        /* \"#utility.yul\":10061:11456   */\n    tag_24:\n        /* \"#utility.yul\":10178:10215   */\n      tag_209\n        /* \"#utility.yul\":10211:10214   */\n      dup3\n        /* \"#utility.yul\":10178:10215   */\n      tag_67\n      jump\t// in\n    tag_209:\n        /* \"#utility.yul\":10280:10298   */\n      0xffffffffffffffff\n        /* \"#utility.yul\":10272:10278   */\n      dup2\n        /* \"#utility.yul\":10269:10299   */\n      gt\n        /* \"#utility.yul\":10266:10322   */\n      iszero\n      tag_210\n      jumpi\n        /* \"#utility.yul\":10302:10320   */\n      tag_211\n      tag_54\n      jump\t// in\n    tag_211:\n        /* \"#utility.yul\":10266:10322   */\n    tag_210:\n        /* \"#utility.yul\":10346:10384   */\n      tag_212\n        /* \"#utility.yul\":10378:10382   */\n      dup3\n        /* \"#utility.yul\":10372:10383   */\n      sload\n        /* \"#utility.yul\":10346:10384   */\n      tag_28\n      jump\t// in\n    tag_212:\n        /* \"#utility.yul\":10431:10498   */\n      tag_213\n        /* \"#utility.yul\":10491:10497   */\n      dup3\n        /* \"#utility.yul\":10483:10489   */\n      dup3\n        /* \"#utility.yul\":10477:10481   */\n      dup6\n        /* \"#utility.yul\":10431:10498   */\n      tag_85\n      jump\t// in\n    tag_213:\n        /* \"#utility.yul\":10525:10526   */\n      0x00\n        /* \"#utility.yul\":10549:10553   */\n      0x20\n        /* \"#utility.yul\":10536:10553   */\n      swap1\n      pop\n        /* \"#utility.yul\":10581:10583   */\n      0x1f\n        /* \"#utility.yul\":10573:10579   */\n      dup4\n        /* \"#utility.yul\":10570:10584   */\n      gt\n        /* \"#utility.yul\":10598:10599   */\n      0x01\n        /* \"#utility.yul\":10593:11211   */\n      dup2\n      eq\n      tag_215\n      jumpi\n        /* \"#utility.yul\":11255:11256   */\n      0x00\n        /* \"#utility.yul\":11272:11278   */\n      dup5\n        /* \"#utility.yul\":11269:11346   */\n      iszero\n      tag_216\n      jumpi\n        /* \"#utility.yul\":11321:11330   */\n      dup3\n        /* \"#utility.yul\":11316:11319   */\n      dup8\n        /* \"#utility.yul\":11312:11331   */\n      add\n        /* \"#utility.yul\":11306:11332   */\n      mload\n        /* \"#utility.yul\":11297:11332   */\n      swap1\n      pop\n        /* \"#utility.yul\":11269:11346   */\n    tag_216:\n        /* \"#utility.yul\":11372:11439   */\n      tag_217\n        /* \"#utility.yul\":11432:11438   */\n      dup6\n        /* \"#utility.yul\":11425:11430   */\n      dup3\n        /* \"#utility.yul\":11372:11439   */\n      tag_88\n      jump\t// in\n    tag_217:\n        /* \"#utility.yul\":11366:11370   */\n      dup7\n        /* \"#utility.yul\":11359:11440   */\n      sstore\n        /* \"#utility.yul\":11228:11450   */\n      pop\n        /* \"#utility.yul\":10563:11450   */\n      jump(tag_214)\n        /* \"#utility.yul\":10593:11211   */\n    tag_215:\n        /* \"#utility.yul\":10645:10649   */\n      0x1f\n        /* \"#utility.yul\":10641:10650   */\n      not\n        /* \"#utility.yul\":10633:10639   */\n      dup5\n        /* \"#utility.yul\":10629:10651   */\n      and\n        /* \"#utility.yul\":10679:10716   */\n      tag_218\n        /* \"#utility.yul\":10711:10715   */\n      dup7\n        /* \"#utility.yul\":10679:10716   */\n      tag_74\n      jump\t// in\n    tag_218:\n        /* \"#utility.yul\":10738:10739   */\n      0x00\n        /* \"#utility.yul\":10752:10960   */\n    tag_219:\n        /* \"#utility.yul\":10766:10773   */\n      dup3\n        /* \"#utility.yul\":10763:10764   */\n      dup2\n        /* \"#utility.yul\":10760:10774   */\n      lt\n        /* \"#utility.yul\":10752:10960   */\n      iszero\n      tag_221\n      jumpi\n        /* \"#utility.yul\":10845:10854   */\n      dup5\n        /* \"#utility.yul\":10840:10843   */\n      dup10\n        /* \"#utility.yul\":10836:10855   */\n      add\n        /* \"#utility.yul\":10830:10856   */\n      mload\n        /* \"#utility.yul\":10822:10828   */\n      dup3\n        /* \"#utility.yul\":10815:10857   */\n      sstore\n        /* \"#utility.yul\":10896:10897   */\n      0x01\n        /* \"#utility.yul\":10888:10894   */\n      dup3\n        /* \"#utility.yul\":10884:10898   */\n      add\n        /* \"#utility.yul\":10874:10898   */\n      swap2\n      pop\n        /* \"#utility.yul\":10943:10945   */\n      0x20\n        /* \"#utility.yul\":10932:10941   */\n      dup6\n        /* \"#utility.yul\":10928:10946   */\n      add\n        /* \"#utility.yul\":10915:10946   */\n      swap5\n      pop\n        /* \"#utility.yul\":10789:10793   */\n      0x20\n        /* \"#utility.yul\":10786:10787   */\n      dup2\n        /* \"#utility.yul\":10782:10794   */\n      add\n        /* \"#utility.yul\":10777:10794   */\n      swap1\n      pop\n        /* \"#utility.yul\":10752:10960   */\n      jump(tag_219)\n    tag_221:\n        /* \"#utility.yul\":10988:10994   */\n      dup7\n        /* \"#utility.yul\":10979:10986   */\n      dup4\n        /* \"#utility.yul\":10976:10995   */\n      lt\n        /* \"#utility.yul\":10973:11152   */\n      iszero\n      tag_222\n      jumpi\n        /* \"#utility.yul\":11046:11055   */\n      dup5\n        /* \"#utility.yul\":11041:11044   */\n      dup10\n        /* \"#utility.yul\":11037:11056   */\n      add\n        /* \"#utility.yul\":11031:11057   */\n      mload\n        /* \"#utility.yul\":11089:11137   */\n      tag_223\n        /* \"#utility.yul\":11131:11135   */\n      0x1f\n        /* \"#utility.yul\":11123:11129   */\n      dup10\n        /* \"#utility.yul\":11119:11136   */\n      and\n        /* \"#utility.yul\":11108:11117   */\n      dup3\n        /* \"#utility.yul\":11089:11137   */\n      tag_87\n      jump\t// in\n    tag_223:\n        /* \"#utility.yul\":11081:11087   */\n      dup4\n        /* \"#utility.yul\":11074:11138   */\n      sstore\n        /* \"#utility.yul\":10996:11152   */\n      pop\n        /* \"#utility.yul\":10973:11152   */\n    tag_222:\n        /* \"#utility.yul\":11198:11199   */\n      0x01\n        /* \"#utility.yul\":11194:11195   */\n      0x02\n        /* \"#utility.yul\":11186:11192   */\n      dup9\n        /* \"#utility.yul\":11182:11196   */\n      mul\n        /* \"#utility.yul\":11178:11200   */\n      add\n        /* \"#utility.yul\":11172:11176   */\n      dup9\n        /* \"#utility.yul\":11165:11201   */\n      sstore\n        /* \"#utility.yul\":10600:11211   */\n      pop\n      pop\n      pop\n        /* \"#utility.yul\":10563:11450   */\n    tag_214:\n      pop\n        /* \"#utility.yul\":10153:11456   */\n      pop\n      pop\n      pop\n        /* \"#utility.yul\":10061:11456   */\n      pop\n      pop\n      jump\t// out\n\n    auxdata: 0xa26469706673582212202292e5a19ef139f82bf9f8a0864ad0a1d77ad96e81871c8dd0b5a2a3a56c012f64736f6c63430008120033\n}\n",
				"bytecode": {
					"linkReferences": {},
					"object": "60806040523480156200001157600080fd5b5060405180608001604052806040518060400160405280600581526020017f4a696d6d790000000000000000000000000000000000000000000000000000008152508152602001601881526020016000151581526020016040518060400160405280600881526020017f596f757475626572000000000000000000000000000000000000000000000000815250815250600080820151816000019081620000b991906200046d565b506020820151816001015560408201518160020160006101000a81548160ff0219169083151502179055506060820151816003019081620000fb91906200046d565b5090505060405180608001604052806040518060400160405280600581526020017f4a696d6d790000000000000000000000000000000000000000000000000000008152508152602001601881526020016000151581526020016040518060400160405280600881526020017f596f75747562657200000000000000000000000000000000000000000000000081525081525060046000820151816000019081620001a791906200046d565b506020820151816001015560408201518160020160006101000a81548160ff0219169083151502179055506060820151816003019081620001e991906200046d565b5090505062000554565b600081519050919050565b7f4e487b7100000000000000000000000000000000000000000000000000000000600052604160045260246000fd5b7f4e487b7100000000000000000000000000000000000000000000000000000000600052602260045260246000fd5b600060028204905060018216806200027557607f821691505b6020821081036200028b576200028a6200022d565b5b50919050565b60008190508160005260206000209050919050565b60006020601f8301049050919050565b600082821b905092915050565b600060088302620002f57fffffffffffffffffffffffffffffffffffffffffffffffffffffffffffffffff82620002b6565b620003018683620002b6565b95508019841693508086168417925050509392505050565b6000819050919050565b6000819050919050565b60006200034e62000348620003428462000319565b62000323565b62000319565b9050919050565b6000819050919050565b6200036a836200032d565b62000382620003798262000355565b848454620002c3565b825550505050565b600090565b620003996200038a565b620003a68184846200035f565b505050565b5b81811015620003ce57620003c26000826200038f565b600181019050620003ac565b5050565b601f8211156200041d57620003e78162000291565b620003f284620002a6565b8101602085101562000402578190505b6200041a6200041185620002a6565b830182620003ab565b50505b505050565b600082821c905092915050565b6000620004426000198460080262000422565b1980831691505092915050565b60006200045d83836200042f565b9150826002028217905092915050565b6200047882620001f3565b67ffffffffffffffff811115620004945762000493620001fe565b5b620004a082546200025c565b620004ad828285620003d2565b600060209050601f831160018114620004e55760008415620004d0578287015190505b620004dc85826200044f565b8655506200054c565b601f198416620004f58662000291565b60005b828110156200051f57848901518255600182019150602085019450602081019050620004f8565b868310156200053f57848901516200053b601f8916826200042f565b8355505b6001600288020188555050505b505050505050565b610a6a80620005646000396000f3fe608060405234801561001057600080fd5b506004361061004c5760003560e01c80633c39a4bf146100515780637d625c071461006d578063c25f3b8c14610089578063f740c058146100aa575b600080fd5b61006b6004803603810190610066919061059a565b6100cb565b005b61008760048036038101906100829190610639565b61014f565b005b61009161015c565b6040516100a19493929190610703565b60405180910390f35b6100b2610297565b6040516100c29493929190610703565b60405180910390f35b6040518060800160405280858152602001848152602001831515815260200182815250600460008201518160000190816101059190610962565b506020820151816001015560408201518160020160006101000a81548160ff02191690831515021790555060608201518160030190816101459190610962565b5090505050505050565b8060006001018190555050565b600080600001805461016d90610785565b80601f016020809104026020016040519081016040528092919081815260200182805461019990610785565b80156101e65780601f106101bb576101008083540402835291602001916101e6565b820191906000526020600020905b8154815290600101906020018083116101c957829003601f168201915b5050505050908060010154908060020160009054906101000a900460ff169080600301805461021490610785565b80601f016020809104026020016040519081016040528092919081815260200182805461024090610785565b801561028d5780601f106102625761010080835404028352916020019161028d565b820191906000526020600020905b81548152906001019060200180831161027057829003601f168201915b5050505050905084565b60048060000180546102a890610785565b80601f01602080910402602001604051908101604052809291908181526020018280546102d490610785565b80156103215780601f106102f657610100808354040283529160200191610321565b820191906000526020600020905b81548152906001019060200180831161030457829003601f168201915b5050505050908060010154908060020160009054906101000a900460ff169080600301805461034f90610785565b80601f016020809104026020016040519081016040528092919081815260200182805461037b90610785565b80156103c85780601f1061039d576101008083540402835291602001916103c8565b820191906000526020600020905b8154815290600101906020018083116103ab57829003601f168201915b5050505050905084565b6000604051905090565b600080fd5b600080fd5b600080fd5b600080fd5b6000601f19601f8301169050919050565b7f4e487b7100000000000000000000000000000000000000000000000000000000600052604160045260246000fd5b610439826103f0565b810181811067ffffffffffffffff8211171561045857610457610401565b5b80604052505050565b600061046b6103d2565b90506104778282610430565b919050565b600067ffffffffffffffff82111561049757610496610401565b5b6104a0826103f0565b9050602081019050919050565b82818337600083830152505050565b60006104cf6104ca8461047c565b610461565b9050828152602081018484840111156104eb576104ea6103eb565b5b6104f68482856104ad565b509392505050565b600082601f830112610513576105126103e6565b5b81356105238482602086016104bc565b91505092915050565b6000819050919050565b61053f8161052c565b811461054a57600080fd5b50565b60008135905061055c81610536565b92915050565b60008115159050919050565b61057781610562565b811461058257600080fd5b50565b6000813590506105948161056e565b92915050565b600080600080608085870312156105b4576105b36103dc565b5b600085013567ffffffffffffffff8111156105d2576105d16103e1565b5b6105de878288016104fe565b94505060206105ef8782880161054d565b935050604061060087828801610585565b925050606085013567ffffffffffffffff811115610621576106206103e1565b5b61062d878288016104fe565b91505092959194509250565b60006020828403121561064f5761064e6103dc565b5b600061065d8482850161054d565b91505092915050565b600081519050919050565b600082825260208201905092915050565b60005b838110156106a0578082015181840152602081019050610685565b60008484015250505050565b60006106b782610666565b6106c18185610671565b93506106d1818560208601610682565b6106da816103f0565b840191505092915050565b6106ee8161052c565b82525050565b6106fd81610562565b82525050565b6000608082019050818103600083015261071d81876106ac565b905061072c60208301866106e5565b61073960408301856106f4565b818103606083015261074b81846106ac565b905095945050505050565b7f4e487b7100000000000000000000000000000000000000000000000000000000600052602260045260246000fd5b6000600282049050600182168061079d57607f821691505b6020821081036107b0576107af610756565b5b50919050565b60008190508160005260206000209050919050565b60006020601f8301049050919050565b600082821b905092915050565b6000600883026108187fffffffffffffffffffffffffffffffffffffffffffffffffffffffffffffffff826107db565b61082286836107db565b95508019841693508086168417925050509392505050565b6000819050919050565b600061085f61085a6108558461052c565b61083a565b61052c565b9050919050565b6000819050919050565b61087983610844565b61088d61088582610866565b8484546107e8565b825550505050565b600090565b6108a2610895565b6108ad818484610870565b505050565b5b818110156108d1576108c660008261089a565b6001810190506108b3565b5050565b601f821115610916576108e7816107b6565b6108f0846107cb565b810160208510156108ff578190505b61091361090b856107cb565b8301826108b2565b50505b505050565b600082821c905092915050565b60006109396000198460080261091b565b1980831691505092915050565b60006109528383610928565b9150826002028217905092915050565b61096b82610666565b67ffffffffffffffff81111561098457610983610401565b5b61098e8254610785565b6109998282856108d5565b600060209050601f8311600181146109cc57600084156109ba578287015190505b6109c48582610946565b865550610a2c565b601f1984166109da866107b6565b60005b82811015610a02578489015182556001820191506020850194506020810190506109dd565b86831015610a1f5784890151610a1b601f891682610928565b8355505b6001600288020188555050505b50505050505056fea26469706673582212202292e5a19ef139f82bf9f8a0864ad0a1d77ad96e81871c8dd0b5a2a3a56c012f64736f6c63430008120033",
					"opcodes": "PUSH1 0x80 PUSH1 0x40 MSTORE CALLVALUE DUP1 ISZERO PUSH3 0x11 JUMPI PUSH1 0x0 DUP1 REVERT JUMPDEST POP PUSH1 0x40 MLOAD DUP1 PUSH1 0x80 ADD PUSH1 0x40 MSTORE DUP1 PUSH1 0x40 MLOAD DUP1 PUSH1 0x40 ADD PUSH1 0x40 MSTORE DUP1 PUSH1 0x5 DUP2 MSTORE PUSH1 0x20 ADD PUSH32 0x4A696D6D79000000000000000000000000000000000000000000000000000000 DUP2 MSTORE POP DUP2 MSTORE PUSH1 0x20 ADD PUSH1 0x18 DUP2 MSTORE PUSH1 0x20 ADD PUSH1 0x0 ISZERO ISZERO DUP2 MSTORE PUSH1 0x20 ADD PUSH1 0x40 MLOAD DUP1 PUSH1 0x40 ADD PUSH1 0x40 MSTORE DUP1 PUSH1 0x8 DUP2 MSTORE PUSH1 0x20 ADD PUSH32 0x596F757475626572000000000000000000000000000000000000000000000000 DUP2 MSTORE POP DUP2 MSTORE POP PUSH1 0x0 DUP1 DUP3 ADD MLOAD DUP2 PUSH1 0x0 ADD SWAP1 DUP2 PUSH3 0xB9 SWAP2 SWAP1 PUSH3 0x46D JUMP JUMPDEST POP PUSH1 0x20 DUP3 ADD MLOAD DUP2 PUSH1 0x1 ADD SSTORE PUSH1 0x40 DUP3 ADD MLOAD DUP2 PUSH1 0x2 ADD PUSH1 0x0 PUSH2 0x100 EXP DUP2 SLOAD DUP2 PUSH1 0xFF MUL NOT AND SWAP1 DUP4 ISZERO ISZERO MUL OR SWAP1 SSTORE POP PUSH1 0x60 DUP3 ADD MLOAD DUP2 PUSH1 0x3 ADD SWAP1 DUP2 PUSH3 0xFB SWAP2 SWAP1 PUSH3 0x46D JUMP JUMPDEST POP SWAP1 POP POP PUSH1 0x40 MLOAD DUP1 PUSH1 0x80 ADD PUSH1 0x40 MSTORE DUP1 PUSH1 0x40 MLOAD DUP1 PUSH1 0x40 ADD PUSH1 0x40 MSTORE DUP1 PUSH1 0x5 DUP2 MSTORE PUSH1 0x20 ADD PUSH32 0x4A696D6D79000000000000000000000000000000000000000000000000000000 DUP2 MSTORE POP DUP2 MSTORE PUSH1 0x20 ADD PUSH1 0x18 DUP2 MSTORE PUSH1 0x20 ADD PUSH1 0x0 ISZERO ISZERO DUP2 MSTORE PUSH1 0x20 ADD PUSH1 0x40 MLOAD DUP1 PUSH1 0x40 ADD PUSH1 0x40 MSTORE DUP1 PUSH1 0x8 DUP2 MSTORE PUSH1 0x20 ADD PUSH32 0x596F757475626572000000000000000000000000000000000000000000000000 DUP2 MSTORE POP DUP2 MSTORE POP PUSH1 0x4 PUSH1 0x0 DUP3 ADD MLOAD DUP2 PUSH1 0x0 ADD SWAP1 DUP2 PUSH3 0x1A7 SWAP2 SWAP1 PUSH3 0x46D JUMP JUMPDEST POP PUSH1 0x20 DUP3 ADD MLOAD DUP2 PUSH1 0x1 ADD SSTORE PUSH1 0x40 DUP3 ADD MLOAD DUP2 PUSH1 0x2 ADD PUSH1 0x0 PUSH2 0x100 EXP DUP2 SLOAD DUP2 PUSH1 0xFF MUL NOT AND SWAP1 DUP4 ISZERO ISZERO MUL OR SWAP1 SSTORE POP PUSH1 0x60 DUP3 ADD MLOAD DUP2 PUSH1 0x3 ADD SWAP1 DUP2 PUSH3 0x1E9 SWAP2 SWAP1 PUSH3 0x46D JUMP JUMPDEST POP SWAP1 POP POP PUSH3 0x554 JUMP JUMPDEST PUSH1 0x0 DUP2 MLOAD SWAP1 POP SWAP2 SWAP1 POP JUMP JUMPDEST PUSH32 0x4E487B7100000000000000000000000000000000000000000000000000000000 PUSH1 0x0 MSTORE PUSH1 0x41 PUSH1 0x4 MSTORE PUSH1 0x24 PUSH1 0x0 REVERT JUMPDEST PUSH32 0x4E487B7100000000000000000000000000000000000000000000000000000000 PUSH1 0x0 MSTORE PUSH1 0x22 PUSH1 0x4 MSTORE PUSH1 0x24 PUSH1 0x0 REVERT JUMPDEST PUSH1 0x0 PUSH1 0x2 DUP3 DIV SWAP1 POP PUSH1 0x1 DUP3 AND DUP1 PUSH3 0x275 JUMPI PUSH1 0x7F DUP3 AND SWAP2 POP JUMPDEST PUSH1 0x20 DUP3 LT DUP2 SUB PUSH3 0x28B JUMPI PUSH3 0x28A PUSH3 0x22D JUMP JUMPDEST JUMPDEST POP SWAP2 SWAP1 POP JUMP JUMPDEST PUSH1 0x0 DUP2 SWAP1 POP DUP2 PUSH1 0x0 MSTORE PUSH1 0x20 PUSH1 0x0 KECCAK256 SWAP1 POP SWAP2 SWAP1 POP JUMP JUMPDEST PUSH1 0x0 PUSH1 0x20 PUSH1 0x1F DUP4 ADD DIV SWAP1 POP SWAP2 SWAP1 POP JUMP JUMPDEST PUSH1 0x0 DUP3 DUP3 SHL SWAP1 POP SWAP3 SWAP2 POP POP JUMP JUMPDEST PUSH1 0x0 PUSH1 0x8 DUP4 MUL PUSH3 0x2F5 PUSH32 0xFFFFFFFFFFFFFFFFFFFFFFFFFFFFFFFFFFFFFFFFFFFFFFFFFFFFFFFFFFFFFFFF DUP3 PUSH3 0x2B6 JUMP JUMPDEST PUSH3 0x301 DUP7 DUP4 PUSH3 0x2B6 JUMP JUMPDEST SWAP6 POP DUP1 NOT DUP5 AND SWAP4 POP DUP1 DUP7 AND DUP5 OR SWAP3 POP POP POP SWAP4 SWAP3 POP POP POP JUMP JUMPDEST PUSH1 0x0 DUP2 SWAP1 POP SWAP2 SWAP1 POP JUMP JUMPDEST PUSH1 0x0 DUP2 SWAP1 POP SWAP2 SWAP1 POP JUMP JUMPDEST PUSH1 0x0 PUSH3 0x34E PUSH3 0x348 PUSH3 0x342 DUP5 PUSH3 0x319 JUMP JUMPDEST PUSH3 0x323 JUMP JUMPDEST PUSH3 0x319 JUMP JUMPDEST SWAP1 POP SWAP2 SWAP1 POP JUMP JUMPDEST PUSH1 0x0 DUP2 SWAP1 POP SWAP2 SWAP1 POP JUMP JUMPDEST PUSH3 0x36A DUP4 PUSH3 0x32D JUMP JUMPDEST PUSH3 0x382 PUSH3 0x379 DUP3 PUSH3 0x355 JUMP JUMPDEST DUP5 DUP5 SLOAD PUSH3 0x2C3 JUMP JUMPDEST DUP3 SSTORE POP POP POP POP JUMP JUMPDEST PUSH1 0x0 SWAP1 JUMP JUMPDEST PUSH3 0x399 PUSH3 0x38A JUMP JUMPDEST PUSH3 0x3A6 DUP2 DUP5 DUP5 PUSH3 0x35F JUMP JUMPDEST POP POP POP JUMP JUMPDEST JUMPDEST DUP2 DUP2 LT ISZERO PUSH3 0x3CE JUMPI PUSH3 0x3C2 PUSH1 0x0 DUP3 PUSH3 0x38F JUMP JUMPDEST PUSH1 0x1 DUP2 ADD SWAP1 POP PUSH3 0x3AC JUMP JUMPDEST POP POP JUMP JUMPDEST PUSH1 0x1F DUP3 GT ISZERO PUSH3 0x41D JUMPI PUSH3 0x3E7 DUP2 PUSH3 0x291 JUMP JUMPDEST PUSH3 0x3F2 DUP5 PUSH3 0x2A6 JUMP JUMPDEST DUP2 ADD PUSH1 0x20 DUP6 LT ISZERO PUSH3 0x402 JUMPI DUP2 SWAP1 POP JUMPDEST PUSH3 0x41A PUSH3 0x411 DUP6 PUSH3 0x2A6 JUMP JUMPDEST DUP4 ADD DUP3 PUSH3 0x3AB JUMP JUMPDEST POP POP JUMPDEST POP POP POP JUMP JUMPDEST PUSH1 0x0 DUP3 DUP3 SHR SWAP1 POP SWAP3 SWAP2 POP POP JUMP JUMPDEST PUSH1 0x0 PUSH3 0x442 PUSH1 0x0 NOT DUP5 PUSH1 0x8 MUL PUSH3 0x422 JUMP JUMPDEST NOT DUP1 DUP4 AND SWAP2 POP POP SWAP3 SWAP2 POP POP JUMP JUMPDEST PUSH1 0x0 PUSH3 0x45D DUP4 DUP4 PUSH3 0x42F JUMP JUMPDEST SWAP2 POP DUP3 PUSH1 0x2 MUL DUP3 OR SWAP1 POP SWAP3 SWAP2 POP POP JUMP JUMPDEST PUSH3 0x478 DUP3 PUSH3 0x1F3 JUMP JUMPDEST PUSH8 0xFFFFFFFFFFFFFFFF DUP2 GT ISZERO PUSH3 0x494 JUMPI PUSH3 0x493 PUSH3 0x1FE JUMP JUMPDEST JUMPDEST PUSH3 0x4A0 DUP3 SLOAD PUSH3 0x25C JUMP JUMPDEST PUSH3 0x4AD DUP3 DUP3 DUP6 PUSH3 0x3D2 JUMP JUMPDEST PUSH1 0x0 PUSH1 0x20 SWAP1 POP PUSH1 0x1F DUP4 GT PUSH1 0x1 DUP2 EQ PUSH3 0x4E5 JUMPI PUSH1 0x0 DUP5 ISZERO PUSH3 0x4D0 JUMPI DUP3 DUP8 ADD MLOAD SWAP1 POP JUMPDEST PUSH3 0x4DC DUP6 DUP3 PUSH3 0x44F JUMP JUMPDEST DUP7 SSTORE POP PUSH3 0x54C JUMP JUMPDEST PUSH1 0x1F NOT DUP5 AND PUSH3 0x4F5 DUP7 PUSH3 0x291 JUMP JUMPDEST PUSH1 0x0 JUMPDEST DUP3 DUP2 LT ISZERO PUSH3 0x51F JUMPI DUP5 DUP10 ADD MLOAD DUP3 SSTORE PUSH1 0x1 DUP3 ADD SWAP2 POP PUSH1 0x20 DUP6 ADD SWAP5 POP PUSH1 0x20 DUP2 ADD SWAP1 POP PUSH3 0x4F8 JUMP JUMPDEST DUP7 DUP4 LT ISZERO PUSH3 0x53F JUMPI DUP5 DUP10 ADD MLOAD PUSH3 0x53B PUSH1 0x1F DUP10 AND DUP3 PUSH3 0x42F JUMP JUMPDEST DUP4 SSTORE POP JUMPDEST PUSH1 0x1 PUSH1 0x2 DUP9 MUL ADD DUP9 SSTORE POP POP POP JUMPDEST POP POP POP POP POP POP JUMP JUMPDEST PUSH2 0xA6A DUP1 PUSH3 0x564 PUSH1 0x0 CODECOPY PUSH1 0x0 RETURN INVALID PUSH1 0x80 PUSH1 0x40 MSTORE CALLVALUE DUP1 ISZERO PUSH2 0x10 JUMPI PUSH1 0x0 DUP1 REVERT JUMPDEST POP PUSH1 0x4 CALLDATASIZE LT PUSH2 0x4C JUMPI PUSH1 0x0 CALLDATALOAD PUSH1 0xE0 SHR DUP1 PUSH4 0x3C39A4BF EQ PUSH2 0x51 JUMPI DUP1 PUSH4 0x7D625C07 EQ PUSH2 0x6D JUMPI DUP1 PUSH4 0xC25F3B8C EQ PUSH2 0x89 JUMPI DUP1 PUSH4 0xF740C058 EQ PUSH2 0xAA JUMPI JUMPDEST PUSH1 0x0 DUP1 REVERT JUMPDEST PUSH2 0x6B PUSH1 0x4 DUP1 CALLDATASIZE SUB DUP2 ADD SWAP1 PUSH2 0x66 SWAP2 SWAP1 PUSH2 0x59A JUMP JUMPDEST PUSH2 0xCB JUMP JUMPDEST STOP JUMPDEST PUSH2 0x87 PUSH1 0x4 DUP1 CALLDATASIZE SUB DUP2 ADD SWAP1 PUSH2 0x82 SWAP2 SWAP1 PUSH2 0x639 JUMP JUMPDEST PUSH2 0x14F JUMP JUMPDEST STOP JUMPDEST PUSH2 0x91 PUSH2 0x15C JUMP JUMPDEST PUSH1 0x40 MLOAD PUSH2 0xA1 SWAP5 SWAP4 SWAP3 SWAP2 SWAP1 PUSH2 0x703 JUMP JUMPDEST PUSH1 0x40 MLOAD DUP1 SWAP2 SUB SWAP1 RETURN JUMPDEST PUSH2 0xB2 PUSH2 0x297 JUMP JUMPDEST PUSH1 0x40 MLOAD PUSH2 0xC2 SWAP5 SWAP4 SWAP3 SWAP2 SWAP1 PUSH2 0x703 JUMP JUMPDEST PUSH1 0x40 MLOAD DUP1 SWAP2 SUB SWAP1 RETURN JUMPDEST PUSH1 0x40 MLOAD DUP1 PUSH1 0x80 ADD PUSH1 0x40 MSTORE DUP1 DUP6 DUP2 MSTORE PUSH1 0x20 ADD DUP5 DUP2 MSTORE PUSH1 0x20 ADD DUP4 ISZERO ISZERO DUP2 MSTORE PUSH1 0x20 ADD DUP3 DUP2 MSTORE POP PUSH1 0x4 PUSH1 0x0 DUP3 ADD MLOAD DUP2 PUSH1 0x0 ADD SWAP1 DUP2 PUSH2 0x105 SWAP2 SWAP1 PUSH2 0x962 JUMP JUMPDEST POP PUSH1 0x20 DUP3 ADD MLOAD DUP2 PUSH1 0x1 ADD SSTORE PUSH1 0x40 DUP3 ADD MLOAD DUP2 PUSH1 0x2 ADD PUSH1 0x0 PUSH2 0x100 EXP DUP2 SLOAD DUP2 PUSH1 0xFF MUL NOT AND SWAP1 DUP4 ISZERO ISZERO MUL OR SWAP1 SSTORE POP PUSH1 0x60 DUP3 ADD MLOAD DUP2 PUSH1 0x3 ADD SWAP1 DUP2 PUSH2 0x145 SWAP2 SWAP1 PUSH2 0x962 JUMP JUMPDEST POP SWAP1 POP POP POP POP POP POP JUMP JUMPDEST DUP1 PUSH1 0x0 PUSH1 0x1 ADD DUP2 SWAP1 SSTORE POP POP JUMP JUMPDEST PUSH1 0x0 DUP1 PUSH1 0x0 ADD DUP1 SLOAD PUSH2 0x16D SWAP1 PUSH2 0x785 JUMP JUMPDEST DUP1 PUSH1 0x1F ADD PUSH1 0x20 DUP1 SWAP2 DIV MUL PUSH1 0x20 ADD PUSH1 0x40 MLOAD SWAP1 DUP2 ADD PUSH1 0x40 MSTORE DUP1 SWAP3 SWAP2 SWAP1 DUP2 DUP2 MSTORE PUSH1 0x20 ADD DUP3 DUP1 SLOAD PUSH2 0x199 SWAP1 PUSH2 0x785 JUMP JUMPDEST DUP1 ISZERO PUSH2 0x1E6 JUMPI DUP1 PUSH1 0x1F LT PUSH2 0x1BB JUMPI PUSH2 0x100 DUP1 DUP4 SLOAD DIV MUL DUP4 MSTORE SWAP2 PUSH1 0x20 ADD SWAP2 PUSH2 0x1E6 JUMP JUMPDEST DUP3 ADD SWAP2 SWAP1 PUSH1 0x0 MSTORE PUSH1 0x20 PUSH1 0x0 KECCAK256 SWAP1 JUMPDEST DUP2 SLOAD DUP2 MSTORE SWAP1 PUSH1 0x1 ADD SWAP1 PUSH1 0x20 ADD DUP1 DUP4 GT PUSH2 0x1C9 JUMPI DUP3 SWAP1 SUB PUSH1 0x1F AND DUP3 ADD SWAP2 JUMPDEST POP POP POP POP POP SWAP1 DUP1 PUSH1 0x1 ADD SLOAD SWAP1 DUP1 PUSH1 0x2 ADD PUSH1 0x0 SWAP1 SLOAD SWAP1 PUSH2 0x100 EXP SWAP1 DIV PUSH1 0xFF AND SWAP1 DUP1 PUSH1 0x3 ADD DUP1 SLOAD PUSH2 0x214 SWAP1 PUSH2 0x785 JUMP JUMPDEST DUP1 PUSH1 0x1F ADD PUSH1 0x20 DUP1 SWAP2 DIV MUL PUSH1 0x20 ADD PUSH1 0x40 MLOAD SWAP1 DUP2 ADD PUSH1 0x40 MSTORE DUP1 SWAP3 SWAP2 SWAP1 DUP2 DUP2 MSTORE PUSH1 0x20 ADD DUP3 DUP1 SLOAD PUSH2 0x240 SWAP1 PUSH2 0x785 JUMP JUMPDEST DUP1 ISZERO PUSH2 0x28D JUMPI DUP1 PUSH1 0x1F LT PUSH2 0x262 JUMPI PUSH2 0x100 DUP1 DUP4 SLOAD DIV MUL DUP4 MSTORE SWAP2 PUSH1 0x20 ADD SWAP2 PUSH2 0x28D JUMP JUMPDEST DUP3 ADD SWAP2 SWAP1 PUSH1 0x0 MSTORE PUSH1 0x20 PUSH1 0x0 KECCAK256 SWAP1 JUMPDEST DUP2 SLOAD DUP2 MSTORE SWAP1 PUSH1 0x1 ADD SWAP1 PUSH1 0x20 ADD DUP1 DUP4 GT PUSH2 0x270 JUMPI DUP3 SWAP1 SUB PUSH1 0x1F AND DUP3 ADD SWAP2 JUMPDEST POP POP POP POP POP SWAP1 POP DUP5 JUMP JUMPDEST PUSH1 0x4 DUP1 PUSH1 0x0 ADD DUP1 SLOAD PUSH2 0x2A8 SWAP1 PUSH2 0x785 JUMP JUMPDEST DUP1 PUSH1 0x1F ADD PUSH1 0x20 DUP1 SWAP2 DIV MUL PUSH1 0x20 ADD PUSH1 0x40 MLOAD SWAP1 DUP2 ADD PUSH1 0x40 MSTORE DUP1 SWAP3 SWAP2 SWAP1 DUP2 DUP2 MSTORE PUSH1 0x20 ADD DUP3 DUP1 SLOAD PUSH2 0x2D4 SWAP1 PUSH2 0x785 JUMP JUMPDEST DUP1 ISZERO PUSH2 0x321 JUMPI DUP1 PUSH1 0x1F LT PUSH2 0x2F6 JUMPI PUSH2 0x100 DUP1 DUP4 SLOAD DIV MUL DUP4 MSTORE SWAP2 PUSH1 0x20 ADD SWAP2 PUSH2 0x321 JUMP JUMPDEST DUP3 ADD SWAP2 SWAP1 PUSH1 0x0 MSTORE PUSH1 0x20 PUSH1 0x0 KECCAK256 SWAP1 JUMPDEST DUP2 SLOAD DUP2 MSTORE SWAP1 PUSH1 0x1 ADD SWAP1 PUSH1 0x20 ADD DUP1 DUP4 GT PUSH2 0x304 JUMPI DUP3 SWAP1 SUB PUSH1 0x1F AND DUP3 ADD SWAP2 JUMPDEST POP POP POP POP POP SWAP1 DUP1 PUSH1 0x1 ADD SLOAD SWAP1 DUP1 PUSH1 0x2 ADD PUSH1 0x0 SWAP1 SLOAD SWAP1 PUSH2 0x100 EXP SWAP1 DIV PUSH1 0xFF AND SWAP1 DUP1 PUSH1 0x3 ADD DUP1 SLOAD PUSH2 0x34F SWAP1 PUSH2 0x785 JUMP JUMPDEST DUP1 PUSH1 0x1F ADD PUSH1 0x20 DUP1 SWAP2 DIV MUL PUSH1 0x20 ADD PUSH1 0x40 MLOAD SWAP1 DUP2 ADD PUSH1 0x40 MSTORE DUP1 SWAP3 SWAP2 SWAP1 DUP2 DUP2 MSTORE PUSH1 0x20 ADD DUP3 DUP1 SLOAD PUSH2 0x37B SWAP1 PUSH2 0x785 JUMP JUMPDEST DUP1 ISZERO PUSH2 0x3C8 JUMPI DUP1 PUSH1 0x1F LT PUSH2 0x39D JUMPI PUSH2 0x100 DUP1 DUP4 SLOAD DIV MUL DUP4 MSTORE SWAP2 PUSH1 0x20 ADD SWAP2 PUSH2 0x3C8 JUMP JUMPDEST DUP3 ADD SWAP2 SWAP1 PUSH1 0x0 MSTORE PUSH1 0x20 PUSH1 0x0 KECCAK256 SWAP1 JUMPDEST DUP2 SLOAD DUP2 MSTORE SWAP1 PUSH1 0x1 ADD SWAP1 PUSH1 0x20 ADD DUP1 DUP4 GT PUSH2 0x3AB JUMPI DUP3 SWAP1 SUB PUSH1 0x1F AND DUP3 ADD SWAP2 JUMPDEST POP POP POP POP POP SWAP1 POP DUP5 JUMP JUMPDEST PUSH1 0x0 PUSH1 0x40 MLOAD SWAP1 POP SWAP1 JUMP JUMPDEST PUSH1 0x0 DUP1 REVERT JUMPDEST PUSH1 0x0 DUP1 REVERT JUMPDEST PUSH1 0x0 DUP1 REVERT JUMPDEST PUSH1 0x0 DUP1 REVERT JUMPDEST PUSH1 0x0 PUSH1 0x1F NOT PUSH1 0x1F DUP4 ADD AND SWAP1 POP SWAP2 SWAP1 POP JUMP JUMPDEST PUSH32 0x4E487B7100000000000000000000000000000000000000000000000000000000 PUSH1 0x0 MSTORE PUSH1 0x41 PUSH1 0x4 MSTORE PUSH1 0x24 PUSH1 0x0 REVERT JUMPDEST PUSH2 0x439 DUP3 PUSH2 0x3F0 JUMP JUMPDEST DUP2 ADD DUP2 DUP2 LT PUSH8 0xFFFFFFFFFFFFFFFF DUP3 GT OR ISZERO PUSH2 0x458 JUMPI PUSH2 0x457 PUSH2 0x401 JUMP JUMPDEST JUMPDEST DUP1 PUSH1 0x40 MSTORE POP POP POP JUMP JUMPDEST PUSH1 0x0 PUSH2 0x46B PUSH2 0x3D2 JUMP JUMPDEST SWAP1 POP PUSH2 0x477 DUP3 DUP3 PUSH2 0x430 JUMP JUMPDEST SWAP2 SWAP1 POP JUMP JUMPDEST PUSH1 0x0 PUSH8 0xFFFFFFFFFFFFFFFF DUP3 GT ISZERO PUSH2 0x497 JUMPI PUSH2 0x496 PUSH2 0x401 JUMP JUMPDEST JUMPDEST PUSH2 0x4A0 DUP3 PUSH2 0x3F0 JUMP JUMPDEST SWAP1 POP PUSH1 0x20 DUP2 ADD SWAP1 POP SWAP2 SWAP1 POP JUMP JUMPDEST DUP3 DUP2 DUP4 CALLDATACOPY PUSH1 0x0 DUP4 DUP4 ADD MSTORE POP POP POP JUMP JUMPDEST PUSH1 0x0 PUSH2 0x4CF PUSH2 0x4CA DUP5 PUSH2 0x47C JUMP JUMPDEST PUSH2 0x461 JUMP JUMPDEST SWAP1 POP DUP3 DUP2 MSTORE PUSH1 0x20 DUP2 ADD DUP5 DUP5 DUP5 ADD GT ISZERO PUSH2 0x4EB JUMPI PUSH2 0x4EA PUSH2 0x3EB JUMP JUMPDEST JUMPDEST PUSH2 0x4F6 DUP5 DUP3 DUP6 PUSH2 0x4AD JUMP JUMPDEST POP SWAP4 SWAP3 POP POP POP JUMP JUMPDEST PUSH1 0x0 DUP3 PUSH1 0x1F DUP4 ADD SLT PUSH2 0x513 JUMPI PUSH2 0x512 PUSH2 0x3E6 JUMP JUMPDEST JUMPDEST DUP2 CALLDATALOAD PUSH2 0x523 DUP5 DUP3 PUSH1 0x20 DUP7 ADD PUSH2 0x4BC JUMP JUMPDEST SWAP2 POP POP SWAP3 SWAP2 POP POP JUMP JUMPDEST PUSH1 0x0 DUP2 SWAP1 POP SWAP2 SWAP1 POP JUMP JUMPDEST PUSH2 0x53F DUP2 PUSH2 0x52C JUMP JUMPDEST DUP2 EQ PUSH2 0x54A JUMPI PUSH1 0x0 DUP1 REVERT JUMPDEST POP JUMP JUMPDEST PUSH1 0x0 DUP2 CALLDATALOAD SWAP1 POP PUSH2 0x55C DUP2 PUSH2 0x536 JUMP JUMPDEST SWAP3 SWAP2 POP POP JUMP JUMPDEST PUSH1 0x0 DUP2 ISZERO ISZERO SWAP1 POP SWAP2 SWAP1 POP JUMP JUMPDEST PUSH2 0x577 DUP2 PUSH2 0x562 JUMP JUMPDEST DUP2 EQ PUSH2 0x582 JUMPI PUSH1 0x0 DUP1 REVERT JUMPDEST POP JUMP JUMPDEST PUSH1 0x0 DUP2 CALLDATALOAD SWAP1 POP PUSH2 0x594 DUP2 PUSH2 0x56E JUMP JUMPDEST SWAP3 SWAP2 POP POP JUMP JUMPDEST PUSH1 0x0 DUP1 PUSH1 0x0 DUP1 PUSH1 0x80 DUP6 DUP8 SUB SLT ISZERO PUSH2 0x5B4 JUMPI PUSH2 0x5B3 PUSH2 0x3DC JUMP JUMPDEST JUMPDEST PUSH1 0x0 DUP6 ADD CALLDATALOAD PUSH8 0xFFFFFFFFFFFFFFFF DUP2 GT ISZERO PUSH2 0x5D2 JUMPI PUSH2 0x5D1 PUSH2 0x3E1 JUMP JUMPDEST JUMPDEST PUSH2 0x5DE DUP8 DUP3 DUP9 ADD PUSH2 0x4FE JUMP JUMPDEST SWAP5 POP POP PUSH1 0x20 PUSH2 0x5EF DUP8 DUP3 DUP9 ADD PUSH2 0x54D JUMP JUMPDEST SWAP4 POP POP PUSH1 0x40 PUSH2 0x600 DUP8 DUP3 DUP9 ADD PUSH2 0x585 JUMP JUMPDEST SWAP3 POP POP PUSH1 0x60 DUP6 ADD CALLDATALOAD PUSH8 0xFFFFFFFFFFFFFFFF DUP2 GT ISZERO PUSH2 0x621 JUMPI PUSH2 0x620 PUSH2 0x3E1 JUMP JUMPDEST JUMPDEST PUSH2 0x62D DUP8 DUP3 DUP9 ADD PUSH2 0x4FE JUMP JUMPDEST SWAP2 POP POP SWAP3 SWAP6 SWAP2 SWAP5 POP SWAP3 POP JUMP JUMPDEST PUSH1 0x0 PUSH1 0x20 DUP3 DUP5 SUB SLT ISZERO PUSH2 0x64F JUMPI PUSH2 0x64E PUSH2 0x3DC JUMP JUMPDEST JUMPDEST PUSH1 0x0 PUSH2 0x65D DUP5 DUP3 DUP6 ADD PUSH2 0x54D JUMP JUMPDEST SWAP2 POP POP SWAP3 SWAP2 POP POP JUMP JUMPDEST PUSH1 0x0 DUP2 MLOAD SWAP1 POP SWAP2 SWAP1 POP JUMP JUMPDEST PUSH1 0x0 DUP3 DUP3 MSTORE PUSH1 0x20 DUP3 ADD SWAP1 POP SWAP3 SWAP2 POP POP JUMP JUMPDEST PUSH1 0x0 JUMPDEST DUP4 DUP2 LT ISZERO PUSH2 0x6A0 JUMPI DUP1 DUP3 ADD MLOAD DUP2 DUP5 ADD MSTORE PUSH1 0x20 DUP2 ADD SWAP1 POP PUSH2 0x685 JUMP JUMPDEST PUSH1 0x0 DUP5 DUP5 ADD MSTORE POP POP POP POP JUMP JUMPDEST PUSH1 0x0 PUSH2 0x6B7 DUP3 PUSH2 0x666 JUMP JUMPDEST PUSH2 0x6C1 DUP2 DUP6 PUSH2 0x671 JUMP JUMPDEST SWAP4 POP PUSH2 0x6D1 DUP2 DUP6 PUSH1 0x20 DUP7 ADD PUSH2 0x682 JUMP JUMPDEST PUSH2 0x6DA DUP2 PUSH2 0x3F0 JUMP JUMPDEST DUP5 ADD SWAP2 POP POP SWAP3 SWAP2 POP POP JUMP JUMPDEST PUSH2 0x6EE DUP2 PUSH2 0x52C JUMP JUMPDEST DUP3 MSTORE POP POP JUMP JUMPDEST PUSH2 0x6FD DUP2 PUSH2 0x562 JUMP JUMPDEST DUP3 MSTORE POP POP JUMP JUMPDEST PUSH1 0x0 PUSH1 0x80 DUP3 ADD SWAP1 POP DUP2 DUP2 SUB PUSH1 0x0 DUP4 ADD MSTORE PUSH2 0x71D DUP2 DUP8 PUSH2 0x6AC JUMP JUMPDEST SWAP1 POP PUSH2 0x72C PUSH1 0x20 DUP4 ADD DUP7 PUSH2 0x6E5 JUMP JUMPDEST PUSH2 0x739 PUSH1 0x40 DUP4 ADD DUP6 PUSH2 0x6F4 JUMP JUMPDEST DUP2 DUP2 SUB PUSH1 0x60 DUP4 ADD MSTORE PUSH2 0x74B DUP2 DUP5 PUSH2 0x6AC JUMP JUMPDEST SWAP1 POP SWAP6 SWAP5 POP POP POP POP POP JUMP JUMPDEST PUSH32 0x4E487B7100000000000000000000000000000000000000000000000000000000 PUSH1 0x0 MSTORE PUSH1 0x22 PUSH1 0x4 MSTORE PUSH1 0x24 PUSH1 0x0 REVERT JUMPDEST PUSH1 0x0 PUSH1 0x2 DUP3 DIV SWAP1 POP PUSH1 0x1 DUP3 AND DUP1 PUSH2 0x79D JUMPI PUSH1 0x7F DUP3 AND SWAP2 POP JUMPDEST PUSH1 0x20 DUP3 LT DUP2 SUB PUSH2 0x7B0 JUMPI PUSH2 0x7AF PUSH2 0x756 JUMP JUMPDEST JUMPDEST POP SWAP2 SWAP1 POP JUMP JUMPDEST PUSH1 0x0 DUP2 SWAP1 POP DUP2 PUSH1 0x0 MSTORE PUSH1 0x20 PUSH1 0x0 KECCAK256 SWAP1 POP SWAP2 SWAP1 POP JUMP JUMPDEST PUSH1 0x0 PUSH1 0x20 PUSH1 0x1F DUP4 ADD DIV SWAP1 POP SWAP2 SWAP1 POP JUMP JUMPDEST PUSH1 0x0 DUP3 DUP3 SHL SWAP1 POP SWAP3 SWAP2 POP POP JUMP JUMPDEST PUSH1 0x0 PUSH1 0x8 DUP4 MUL PUSH2 0x818 PUSH32 0xFFFFFFFFFFFFFFFFFFFFFFFFFFFFFFFFFFFFFFFFFFFFFFFFFFFFFFFFFFFFFFFF DUP3 PUSH2 0x7DB JUMP JUMPDEST PUSH2 0x822 DUP7 DUP4 PUSH2 0x7DB JUMP JUMPDEST SWAP6 POP DUP1 NOT DUP5 AND SWAP4 POP DUP1 DUP7 AND DUP5 OR SWAP3 POP POP POP SWAP4 SWAP3 POP POP POP JUMP JUMPDEST PUSH1 0x0 DUP2 SWAP1 POP SWAP2 SWAP1 POP JUMP JUMPDEST PUSH1 0x0 PUSH2 0x85F PUSH2 0x85A PUSH2 0x855 DUP5 PUSH2 0x52C JUMP JUMPDEST PUSH2 0x83A JUMP JUMPDEST PUSH2 0x52C JUMP JUMPDEST SWAP1 POP SWAP2 SWAP1 POP JUMP JUMPDEST PUSH1 0x0 DUP2 SWAP1 POP SWAP2 SWAP1 POP JUMP JUMPDEST PUSH2 0x879 DUP4 PUSH2 0x844 JUMP JUMPDEST PUSH2 0x88D PUSH2 0x885 DUP3 PUSH2 0x866 JUMP JUMPDEST DUP5 DUP5 SLOAD PUSH2 0x7E8 JUMP JUMPDEST DUP3 SSTORE POP POP POP POP JUMP JUMPDEST PUSH1 0x0 SWAP1 JUMP JUMPDEST PUSH2 0x8A2 PUSH2 0x895 JUMP JUMPDEST PUSH2 0x8AD DUP2 DUP5 DUP5 PUSH2 0x870 JUMP JUMPDEST POP POP POP JUMP JUMPDEST JUMPDEST DUP2 DUP2 LT ISZERO PUSH2 0x8D1 JUMPI PUSH2 0x8C6 PUSH1 0x0 DUP3 PUSH2 0x89A JUMP JUMPDEST PUSH1 0x1 DUP2 ADD SWAP1 POP PUSH2 0x8B3 JUMP JUMPDEST POP POP JUMP JUMPDEST PUSH1 0x1F DUP3 GT ISZERO PUSH2 0x916 JUMPI PUSH2 0x8E7 DUP2 PUSH2 0x7B6 JUMP JUMPDEST PUSH2 0x8F0 DUP5 PUSH2 0x7CB JUMP JUMPDEST DUP2 ADD PUSH1 0x20 DUP6 LT ISZERO PUSH2 0x8FF JUMPI DUP2 SWAP1 POP JUMPDEST PUSH2 0x913 PUSH2 0x90B DUP6 PUSH2 0x7CB JUMP JUMPDEST DUP4 ADD DUP3 PUSH2 0x8B2 JUMP JUMPDEST POP POP JUMPDEST POP POP POP JUMP JUMPDEST PUSH1 0x0 DUP3 DUP3 SHR SWAP1 POP SWAP3 SWAP2 POP POP JUMP JUMPDEST PUSH1 0x0 PUSH2 0x939 PUSH1 0x0 NOT DUP5 PUSH1 0x8 MUL PUSH2 0x91B JUMP JUMPDEST NOT DUP1 DUP4 AND SWAP2 POP POP SWAP3 SWAP2 POP POP JUMP JUMPDEST PUSH1 0x0 PUSH2 0x952 DUP4 DUP4 PUSH2 0x928 JUMP JUMPDEST SWAP2 POP DUP3 PUSH1 0x2 MUL DUP3 OR SWAP1 POP SWAP3 SWAP2 POP POP JUMP JUMPDEST PUSH2 0x96B DUP3 PUSH2 0x666 JUMP JUMPDEST PUSH8 0xFFFFFFFFFFFFFFFF DUP2 GT ISZERO PUSH2 0x984 JUMPI PUSH2 0x983 PUSH2 0x401 JUMP JUMPDEST JUMPDEST PUSH2 0x98E DUP3 SLOAD PUSH2 0x785 JUMP JUMPDEST PUSH2 0x999 DUP3 DUP3 DUP6 PUSH2 0x8D5 JUMP JUMPDEST PUSH1 0x0 PUSH1 0x20 SWAP1 POP PUSH1 0x1F DUP4 GT PUSH1 0x1 DUP2 EQ PUSH2 0x9CC JUMPI PUSH1 0x0 DUP5 ISZERO PUSH2 0x9BA JUMPI DUP3 DUP8 ADD MLOAD SWAP1 POP JUMPDEST PUSH2 0x9C4 DUP6 DUP3 PUSH2 0x946 JUMP JUMPDEST DUP7 SSTORE POP PUSH2 0xA2C JUMP JUMPDEST PUSH1 0x1F NOT DUP5 AND PUSH2 0x9DA DUP7 PUSH2 0x7B6 JUMP JUMPDEST PUSH1 0x0 JUMPDEST DUP3 DUP2 LT ISZERO PUSH2 0xA02 JUMPI DUP5 DUP10 ADD MLOAD DUP3 SSTORE PUSH1 0x1 DUP3 ADD SWAP2 POP PUSH1 0x20 DUP6 ADD SWAP5 POP PUSH1 0x20 DUP2 ADD SWAP1 POP PUSH2 0x9DD JUMP JUMPDEST DUP7 DUP4 LT ISZERO PUSH2 0xA1F JUMPI DUP5 DUP10 ADD MLOAD PUSH2 0xA1B PUSH1 0x1F DUP10 AND DUP3 PUSH2 0x928 JUMP JUMPDEST DUP4 SSTORE POP JUMPDEST PUSH1 0x1 PUSH1 0x2 DUP9 MUL ADD DUP9 SSTORE POP POP POP JUMPDEST POP POP POP POP POP POP JUMP INVALID LOG2 PUSH5 0x6970667358 0x22 SLT KECCAK256 0x22 SWAP3 0xE5 LOG1 SWAP15 CALL CODECOPY 0xF8 0x2B 0xF9 0xF8 LOG0 DUP7 0x4A 0xD0 LOG1 0xD7 PUSH27 0xD96E81871C8DD0B5A2A3A56C012F64736F6C634300081200330000 "
				},
				"gasEstimates": {
					"creation": {
						"codeDepositCost": "533200",
						"executionCost": "infinite",
						"totalCost": "infinite"
					},
					"external": {
						"MrBeast()": "infinite",
						"Revealer()": "infinite",
						"addPerson(string,uint256,bool,string)": "infinite",
						"updateAge(uint256)": "22526"
					}
				},
				"methodIdentifiers": {
					"MrBeast()": "c25f3b8c",
					"Revealer()": "f740c058",
					"addPerson(string,uint256,bool,string)": "3c39a4bf",
					"updateAge(uint256)": "7d625c07"
				}
			},
			"storageLayout": {
				"storage": [
					{
						"astId": 13,
						"contract": "smartwallet/struct.sol:myContract",
						"label": "MrBeast",
						"offset": 0,
						"slot": "0",
						"type": "t_struct(Person)10_storage"
					},
					{
						"astId": 16,
						"contract": "smartwallet/struct.sol:myContract",
						"label": "Revealer",
						"offset": 0,
						"slot": "4",
						"type": "t_struct(Person)10_storage"
					}
				],
				"types": {
					"t_bool": {
						"encoding": "inplace",
						"label": "bool",
						"numberOfBytes": "1"
					},
					"t_string_storage": {
						"encoding": "bytes",
						"label": "string",
						"numberOfBytes": "32"
					},
					"t_struct(Person)10_storage": {
						"encoding": "inplace",
						"label": "struct myContract.Person",
						"members": [
							{
								"astId": 3,
								"contract": "smartwallet/struct.sol:myContract",
								"label": "name",
								"offset": 0,
								"slot": "0",
								"type": "t_string_storage"
							},
							{
								"astId": 5,
								"contract": "smartwallet/struct.sol:myContract",
								"label": "age",
								"offset": 0,
								"slot": "1",
								"type": "t_uint256"
							},
							{
								"astId": 7,
								"contract": "smartwallet/struct.sol:myContract",
								"label": "married",
								"offset": 0,
								"slot": "2",
								"type": "t_bool"
							},
							{
								"astId": 9,
								"contract": "smartwallet/struct.sol:myContract",
								"label": "Job",
								"offset": 0,
								"slot": "3",
								"type": "t_string_storage"
							}
						],
						"numberOfBytes": "128"
					},
					"t_uint256": {
						"encoding": "inplace",
						"label": "uint256",
						"numberOfBytes": "32"
					}
				}
			},
			"userdoc": {
				"kind": "user",
				"methods": {},
				"version": 1
			}
		}
	}
}