{
	"data": {
		"bytecode": {
			"linkReferences": {},
			"object": "608060405234801562000010575f80fd5b5060405180608001604052806040518060400160405280600581526020017f4a696d6d790000000000000000000000000000000000000000000000000000008152508152602001601881526020015f151581526020016040518060400160405280600881526020017f596f7574756265720000000000000000000000000000000000000000000000008152508152505f80820151815f019081620000b5919062000364565b50602082015181600101556040820151816002015f6101000a81548160ff0219169083151502179055506060820151816003019081620000f6919062000364565b5090505062000448565b5f81519050919050565b7f4e487b71000000000000000000000000000000000000000000000000000000005f52604160045260245ffd5b7f4e487b71000000000000000000000000000000000000000000000000000000005f52602260045260245ffd5b5f60028204905060018216806200017c57607f821691505b60208210810362000192576200019162000137565b5b50919050565b5f819050815f5260205f209050919050565b5f6020601f8301049050919050565b5f82821b905092915050565b5f60088302620001f67fffffffffffffffffffffffffffffffffffffffffffffffffffffffffffffffff82620001b9565b620002028683620001b9565b95508019841693508086168417925050509392505050565b5f819050919050565b5f819050919050565b5f6200024c6200024662000240846200021a565b62000223565b6200021a565b9050919050565b5f819050919050565b62000267836200022c565b6200027f620002768262000253565b848454620001c5565b825550505050565b5f90565b6200029562000287565b620002a28184846200025c565b505050565b5b81811015620002c957620002bd5f826200028b565b600181019050620002a8565b5050565b601f8211156200031857620002e28162000198565b620002ed84620001aa565b81016020851015620002fd578190505b620003156200030c85620001aa565b830182620002a7565b50505b505050565b5f82821c905092915050565b5f6200033a5f19846008026200031d565b1980831691505092915050565b5f62000354838362000329565b9150826002028217905092915050565b6200036f8262000100565b67ffffffffffffffff8111156200038b576200038a6200010a565b5b62000397825462000164565b620003a4828285620002cd565b5f60209050601f831160018114620003da575f8415620003c5578287015190505b620003d1858262000347565b86555062000440565b601f198416620003ea8662000198565b5f5b828110156200041357848901518255600182019150602085019450602081019050620003ec565b868310156200043357848901516200042f601f89168262000329565b8355505b6001600288020188555050505b505050505050565b610aca80620004565f395ff3fe608060405234801561000f575f80fd5b5060043610610055575f3560e01c8063186e7f00146100595780633c39a4bf146100775780637d625c07146100935780639e7a13ad146100af578063c25f3b8c146100e2575b5f80fd5b610061610103565b60405161006e9190610465565b60405180910390f35b610091600480360381019061008c919061062a565b61010f565b005b6100ad60048036038101906100a891906106c6565b6101ba565b005b6100c960048036038101906100c491906106c6565b6101c6565b6040516100d9949392919061077a565b60405180910390f35b6100ea610319565b6040516100fa949392919061077a565b60405180910390f35b5f600480549050905090565b5f60405180608001604052808681526020018581526020018415158152602001838152509050600481908060018154018082558091505060019003905f5260205f2090600402015f909190919091505f820151815f01908161017191906109c5565b50602082015181600101556040820151816002015f6101000a81548160ff02191690831515021790555060608201518160030190816101b091906109c5565b5050505050505050565b805f6001018190555050565b600481815481106101d5575f80fd5b905f5260205f2090600402015f91509050805f0180546101f4906107f8565b80601f0160208091040260200160405190810160405280929190818152602001828054610220906107f8565b801561026b5780601f106102425761010080835404028352916020019161026b565b820191905f5260205f20905b81548152906001019060200180831161024e57829003601f168201915b505050505090806001015490806002015f9054906101000a900460ff1690806003018054610298906107f8565b80601f01602080910402602001604051908101604052809291908181526020018280546102c4906107f8565b801561030f5780601f106102e65761010080835404028352916020019161030f565b820191905f5260205f20905b8154815290600101906020018083116102f257829003601f168201915b5050505050905084565b5f805f018054610328906107f8565b80601f0160208091040260200160405190810160405280929190818152602001828054610354906107f8565b801561039f5780601f106103765761010080835404028352916020019161039f565b820191905f5260205f20905b81548152906001019060200180831161038257829003601f168201915b505050505090806001015490806002015f9054906101000a900460ff16908060030180546103cc906107f8565b80601f01602080910402602001604051908101604052809291908181526020018280546103f8906107f8565b80156104435780601f1061041a57610100808354040283529160200191610443565b820191905f5260205f20905b81548152906001019060200180831161042657829003601f168201915b5050505050905084565b5f819050919050565b61045f8161044d565b82525050565b5f6020820190506104785f830184610456565b92915050565b5f604051905090565b5f80fd5b5f80fd5b5f80fd5b5f80fd5b5f601f19601f8301169050919050565b7f4e487b71000000000000000000000000000000000000000000000000000000005f52604160045260245ffd5b6104dd82610497565b810181811067ffffffffffffffff821117156104fc576104fb6104a7565b5b80604052505050565b5f61050e61047e565b905061051a82826104d4565b919050565b5f67ffffffffffffffff821115610539576105386104a7565b5b61054282610497565b9050602081019050919050565b828183375f83830152505050565b5f61056f61056a8461051f565b610505565b90508281526020810184848401111561058b5761058a610493565b5b61059684828561054f565b509392505050565b5f82601f8301126105b2576105b161048f565b5b81356105c284826020860161055d565b91505092915050565b6105d48161044d565b81146105de575f80fd5b50565b5f813590506105ef816105cb565b92915050565b5f8115159050919050565b610609816105f5565b8114610613575f80fd5b50565b5f8135905061062481610600565b92915050565b5f805f806080858703121561064257610641610487565b5b5f85013567ffffffffffffffff81111561065f5761065e61048b565b5b61066b8782880161059e565b945050602061067c878288016105e1565b935050604061068d87828801610616565b925050606085013567ffffffffffffffff8111156106ae576106ad61048b565b5b6106ba8782880161059e565b91505092959194509250565b5f602082840312156106db576106da610487565b5b5f6106e8848285016105e1565b91505092915050565b5f81519050919050565b5f82825260208201905092915050565b5f5b8381101561072857808201518184015260208101905061070d565b5f8484015250505050565b5f61073d826106f1565b61074781856106fb565b935061075781856020860161070b565b61076081610497565b840191505092915050565b610774816105f5565b82525050565b5f6080820190508181035f8301526107928187610733565b90506107a16020830186610456565b6107ae604083018561076b565b81810360608301526107c08184610733565b905095945050505050565b7f4e487b71000000000000000000000000000000000000000000000000000000005f52602260045260245ffd5b5f600282049050600182168061080f57607f821691505b602082108103610822576108216107cb565b5b50919050565b5f819050815f5260205f209050919050565b5f6020601f8301049050919050565b5f82821b905092915050565b5f600883026108847fffffffffffffffffffffffffffffffffffffffffffffffffffffffffffffffff82610849565b61088e8683610849565b95508019841693508086168417925050509392505050565b5f819050919050565b5f6108c96108c46108bf8461044d565b6108a6565b61044d565b9050919050565b5f819050919050565b6108e2836108af565b6108f66108ee826108d0565b848454610855565b825550505050565b5f90565b61090a6108fe565b6109158184846108d9565b505050565b5b818110156109385761092d5f82610902565b60018101905061091b565b5050565b601f82111561097d5761094e81610828565b6109578461083a565b81016020851015610966578190505b61097a6109728561083a565b83018261091a565b50505b505050565b5f82821c905092915050565b5f61099d5f1984600802610982565b1980831691505092915050565b5f6109b5838361098e565b9150826002028217905092915050565b6109ce826106f1565b67ffffffffffffffff8111156109e7576109e66104a7565b5b6109f182546107f8565b6109fc82828561093c565b5f60209050601f831160018114610a2d575f8415610a1b578287015190505b610a2585826109aa565b865550610a8c565b601f198416610a3b86610828565b5f5b82811015610a6257848901518255600182019150602085019450602081019050610a3d565b86831015610a7f5784890151610a7b601f89168261098e565b8355505b6001600288020188555050505b50505050505056fea26469706673582212207e23f8cfb84e5ce77ea65a5b8d78f900caf7d20bc36153e9bc8020c7eae23d4064736f6c63430008150033",
			"opcodes": "PUSH1 0x80 PUSH1 0x40 MSTORE CALLVALUE DUP1 ISZERO PUSH3 0x10 JUMPI PUSH0 DUP1 REVERT JUMPDEST POP PUSH1 0x40 MLOAD DUP1 PUSH1 0x80 ADD PUSH1 0x40 MSTORE DUP1 PUSH1 0x40 MLOAD DUP1 PUSH1 0x40 ADD PUSH1 0x40 MSTORE DUP1 PUSH1 0x5 DUP2 MSTORE PUSH1 0x20 ADD PUSH32 0x4A696D6D79000000000000000000000000000000000000000000000000000000 DUP2 MSTORE POP DUP2 MSTORE PUSH1 0x20 ADD PUSH1 0x18 DUP2 MSTORE PUSH1 0x20 ADD PUSH0 ISZERO ISZERO DUP2 MSTORE PUSH1 0x20 ADD PUSH1 0x40 MLOAD DUP1 PUSH1 0x40 ADD PUSH1 0x40 MSTORE DUP1 PUSH1 0x8 DUP2 MSTORE PUSH1 0x20 ADD PUSH32 0x596F757475626572000000000000000000000000000000000000000000000000 DUP2 MSTORE POP DUP2 MSTORE POP PUSH0 DUP1 DUP3 ADD MLOAD DUP2 PUSH0 ADD SWAP1 DUP2 PUSH3 0xB5 SWAP2 SWAP1 PUSH3 0x364 JUMP JUMPDEST POP PUSH1 0x20 DUP3 ADD MLOAD DUP2 PUSH1 0x1 ADD SSTORE PUSH1 0x40 DUP3 ADD MLOAD DUP2 PUSH1 0x2 ADD PUSH0 PUSH2 0x100 EXP DUP2 SLOAD DUP2 PUSH1 0xFF MUL NOT AND SWAP1 DUP4 ISZERO ISZERO MUL OR SWAP1 SSTORE POP PUSH1 0x60 DUP3 ADD MLOAD DUP2 PUSH1 0x3 ADD SWAP1 DUP2 PUSH3 0xF6 SWAP2 SWAP1 PUSH3 0x364 JUMP JUMPDEST POP SWAP1 POP POP PUSH3 0x448 JUMP JUMPDEST PUSH0 DUP2 MLOAD SWAP1 POP SWAP2 SWAP1 POP JUMP JUMPDEST PUSH32 0x4E487B7100000000000000000000000000000000000000000000000000000000 PUSH0 MSTORE PUSH1 0x41 PUSH1 0x4 MSTORE PUSH1 0x24 PUSH0 REVERT JUMPDEST PUSH32 0x4E487B7100000000000000000000000000000000000000000000000000000000 PUSH0 MSTORE PUSH1 0x22 PUSH1 0x4 MSTORE PUSH1 0x24 PUSH0 REVERT JUMPDEST PUSH0 PUSH1 0x2 DUP3 DIV SWAP1 POP PUSH1 0x1 DUP3 AND DUP1 PUSH3 0x17C JUMPI PUSH1 0x7F DUP3 AND SWAP2 POP JUMPDEST PUSH1 0x20 DUP3 LT DUP2 SUB PUSH3 0x192 JUMPI PUSH3 0x191 PUSH3 0x137 JUMP JUMPDEST JUMPDEST POP SWAP2 SWAP1 POP JUMP JUMPDEST PUSH0 DUP2 SWAP1 POP DUP2 PUSH0 MSTORE PUSH1 0x20 PUSH0 KECCAK256 SWAP1 POP SWAP2 SWAP1 POP JUMP JUMPDEST PUSH0 PUSH1 0x20 PUSH1 0x1F DUP4 ADD DIV SWAP1 POP SWAP2 SWAP1 POP JUMP JUMPDEST PUSH0 DUP3 DUP3 SHL SWAP1 POP SWAP3 SWAP2 POP POP JUMP JUMPDEST PUSH0 PUSH1 0x8 DUP4 MUL PUSH3 0x1F6 PUSH32 0xFFFFFFFFFFFFFFFFFFFFFFFFFFFFFFFFFFFFFFFFFFFFFFFFFFFFFFFFFFFFFFFF DUP3 PUSH3 0x1B9 JUMP JUMPDEST PUSH3 0x202 DUP7 DUP4 PUSH3 0x1B9 JUMP JUMPDEST SWAP6 POP DUP1 NOT DUP5 AND SWAP4 POP DUP1 DUP7 AND DUP5 OR SWAP3 POP POP POP SWAP4 SWAP3 POP POP POP JUMP JUMPDEST PUSH0 DUP2 SWAP1 POP SWAP2 SWAP1 POP JUMP JUMPDEST PUSH0 DUP2 SWAP1 POP SWAP2 SWAP1 POP JUMP JUMPDEST PUSH0 PUSH3 0x24C PUSH3 0x246 PUSH3 0x240 DUP5 PUSH3 0x21A JUMP JUMPDEST PUSH3 0x223 JUMP JUMPDEST PUSH3 0x21A JUMP JUMPDEST SWAP1 POP SWAP2 SWAP1 POP JUMP JUMPDEST PUSH0 DUP2 SWAP1 POP SWAP2 SWAP1 POP JUMP JUMPDEST PUSH3 0x267 DUP4 PUSH3 0x22C JUMP JUMPDEST PUSH3 0x27F PUSH3 0x276 DUP3 PUSH3 0x253 JUMP JUMPDEST DUP5 DUP5 SLOAD PUSH3 0x1C5 JUMP JUMPDEST DUP3 SSTORE POP POP POP POP JUMP JUMPDEST PUSH0 SWAP1 JUMP JUMPDEST PUSH3 0x295 PUSH3 0x287 JUMP JUMPDEST PUSH3 0x2A2 DUP2 DUP5 DUP5 PUSH3 0x25C JUMP JUMPDEST POP POP POP JUMP JUMPDEST JUMPDEST DUP2 DUP2 LT ISZERO PUSH3 0x2C9 JUMPI PUSH3 0x2BD PUSH0 DUP3 PUSH3 0x28B JUMP JUMPDEST PUSH1 0x1 DUP2 ADD SWAP1 POP PUSH3 0x2A8 JUMP JUMPDEST POP POP JUMP JUMPDEST PUSH1 0x1F DUP3 GT ISZERO PUSH3 0x318 JUMPI PUSH3 0x2E2 DUP2 PUSH3 0x198 JUMP JUMPDEST PUSH3 0x2ED DUP5 PUSH3 0x1AA JUMP JUMPDEST DUP2 ADD PUSH1 0x20 DUP6 LT ISZERO PUSH3 0x2FD JUMPI DUP2 SWAP1 POP JUMPDEST PUSH3 0x315 PUSH3 0x30C DUP6 PUSH3 0x1AA JUMP JUMPDEST DUP4 ADD DUP3 PUSH3 0x2A7 JUMP JUMPDEST POP POP JUMPDEST POP POP POP JUMP JUMPDEST PUSH0 DUP3 DUP3 SHR SWAP1 POP SWAP3 SWAP2 POP POP JUMP JUMPDEST PUSH0 PUSH3 0x33A PUSH0 NOT DUP5 PUSH1 0x8 MUL PUSH3 0x31D JUMP JUMPDEST NOT DUP1 DUP4 AND SWAP2 POP POP SWAP3 SWAP2 POP POP JUMP JUMPDEST PUSH0 PUSH3 0x354 DUP4 DUP4 PUSH3 0x329 JUMP JUMPDEST SWAP2 POP DUP3 PUSH1 0x2 MUL DUP3 OR SWAP1 POP SWAP3 SWAP2 POP POP JUMP JUMPDEST PUSH3 0x36F DUP3 PUSH3 0x100 JUMP JUMPDEST PUSH8 0xFFFFFFFFFFFFFFFF DUP2 GT ISZERO PUSH3 0x38B JUMPI PUSH3 0x38A PUSH3 0x10A JUMP JUMPDEST JUMPDEST PUSH3 0x397 DUP3 SLOAD PUSH3 0x164 JUMP JUMPDEST PUSH3 0x3A4 DUP3 DUP3 DUP6 PUSH3 0x2CD JUMP JUMPDEST PUSH0 PUSH1 0x20 SWAP1 POP PUSH1 0x1F DUP4 GT PUSH1 0x1 DUP2 EQ PUSH3 0x3DA JUMPI PUSH0 DUP5 ISZERO PUSH3 0x3C5 JUMPI DUP3 DUP8 ADD MLOAD SWAP1 POP JUMPDEST PUSH3 0x3D1 DUP6 DUP3 PUSH3 0x347 JUMP JUMPDEST DUP7 SSTORE POP PUSH3 0x440 JUMP JUMPDEST PUSH1 0x1F NOT DUP5 AND PUSH3 0x3EA DUP7 PUSH3 0x198 JUMP JUMPDEST PUSH0 JUMPDEST DUP3 DUP2 LT ISZERO PUSH3 0x413 JUMPI DUP5 DUP10 ADD MLOAD DUP3 SSTORE PUSH1 0x1 DUP3 ADD SWAP2 POP PUSH1 0x20 DUP6 ADD SWAP5 POP PUSH1 0x20 DUP2 ADD SWAP1 POP PUSH3 0x3EC JUMP JUMPDEST DUP7 DUP4 LT ISZERO PUSH3 0x433 JUMPI DUP5 DUP10 ADD MLOAD PUSH3 0x42F PUSH1 0x1F DUP10 AND DUP3 PUSH3 0x329 JUMP JUMPDEST DUP4 SSTORE POP JUMPDEST PUSH1 0x1 PUSH1 0x2 DUP9 MUL ADD DUP9 SSTORE POP POP POP JUMPDEST POP POP POP POP POP POP JUMP JUMPDEST PUSH2 0xACA DUP1 PUSH3 0x456 PUSH0 CODECOPY PUSH0 RETURN INVALID PUSH1 0x80 PUSH1 0x40 MSTORE CALLVALUE DUP1 ISZERO PUSH2 0xF JUMPI PUSH0 DUP1 REVERT JUMPDEST POP PUSH1 0x4 CALLDATASIZE LT PUSH2 0x55 JUMPI PUSH0 CALLDATALOAD PUSH1 0xE0 SHR DUP1 PUSH4 0x186E7F00 EQ PUSH2 0x59 JUMPI DUP1 PUSH4 0x3C39A4BF EQ PUSH2 0x77 JUMPI DUP1 PUSH4 0x7D625C07 EQ PUSH2 0x93 JUMPI DUP1 PUSH4 0x9E7A13AD EQ PUSH2 0xAF JUMPI DUP1 PUSH4 0xC25F3B8C EQ PUSH2 0xE2 JUMPI JUMPDEST PUSH0 DUP1 REVERT JUMPDEST PUSH2 0x61 PUSH2 0x103 JUMP JUMPDEST PUSH1 0x40 MLOAD PUSH2 0x6E SWAP2 SWAP1 PUSH2 0x465 JUMP JUMPDEST PUSH1 0x40 MLOAD DUP1 SWAP2 SUB SWAP1 RETURN JUMPDEST PUSH2 0x91 PUSH1 0x4 DUP1 CALLDATASIZE SUB DUP2 ADD SWAP1 PUSH2 0x8C SWAP2 SWAP1 PUSH2 0x62A JUMP JUMPDEST PUSH2 0x10F JUMP JUMPDEST STOP JUMPDEST PUSH2 0xAD PUSH1 0x4 DUP1 CALLDATASIZE SUB DUP2 ADD SWAP1 PUSH2 0xA8 SWAP2 SWAP1 PUSH2 0x6C6 JUMP JUMPDEST PUSH2 0x1BA JUMP JUMPDEST STOP JUMPDEST PUSH2 0xC9 PUSH1 0x4 DUP1 CALLDATASIZE SUB DUP2 ADD SWAP1 PUSH2 0xC4 SWAP2 SWAP1 PUSH2 0x6C6 JUMP JUMPDEST PUSH2 0x1C6 JUMP JUMPDEST PUSH1 0x40 MLOAD PUSH2 0xD9 SWAP5 SWAP4 SWAP3 SWAP2 SWAP1 PUSH2 0x77A JUMP JUMPDEST PUSH1 0x40 MLOAD DUP1 SWAP2 SUB SWAP1 RETURN JUMPDEST PUSH2 0xEA PUSH2 0x319 JUMP JUMPDEST PUSH1 0x40 MLOAD PUSH2 0xFA SWAP5 SWAP4 SWAP3 SWAP2 SWAP1 PUSH2 0x77A JUMP JUMPDEST PUSH1 0x40 MLOAD DUP1 SWAP2 SUB SWAP1 RETURN JUMPDEST PUSH0 PUSH1 0x4 DUP1 SLOAD SWAP1 POP SWAP1 POP SWAP1 JUMP JUMPDEST PUSH0 PUSH1 0x40 MLOAD DUP1 PUSH1 0x80 ADD PUSH1 0x40 MSTORE DUP1 DUP7 DUP2 MSTORE PUSH1 0x20 ADD DUP6 DUP2 MSTORE PUSH1 0x20 ADD DUP5 ISZERO ISZERO DUP2 MSTORE PUSH1 0x20 ADD DUP4 DUP2 MSTORE POP SWAP1 POP PUSH1 0x4 DUP2 SWAP1 DUP1 PUSH1 0x1 DUP2 SLOAD ADD DUP1 DUP3 SSTORE DUP1 SWAP2 POP POP PUSH1 0x1 SWAP1 SUB SWAP1 PUSH0 MSTORE PUSH1 0x20 PUSH0 KECCAK256 SWAP1 PUSH1 0x4 MUL ADD PUSH0 SWAP1 SWAP2 SWAP1 SWAP2 SWAP1 SWAP2 POP PUSH0 DUP3 ADD MLOAD DUP2 PUSH0 ADD SWAP1 DUP2 PUSH2 0x171 SWAP2 SWAP1 PUSH2 0x9C5 JUMP JUMPDEST POP PUSH1 0x20 DUP3 ADD MLOAD DUP2 PUSH1 0x1 ADD SSTORE PUSH1 0x40 DUP3 ADD MLOAD DUP2 PUSH1 0x2 ADD PUSH0 PUSH2 0x100 EXP DUP2 SLOAD DUP2 PUSH1 0xFF MUL NOT AND SWAP1 DUP4 ISZERO ISZERO MUL OR SWAP1 SSTORE POP PUSH1 0x60 DUP3 ADD MLOAD DUP2 PUSH1 0x3 ADD SWAP1 DUP2 PUSH2 0x1B0 SWAP2 SWAP1 PUSH2 0x9C5 JUMP JUMPDEST POP POP POP POP POP POP POP POP JUMP JUMPDEST DUP1 PUSH0 PUSH1 0x1 ADD DUP2 SWAP1 SSTORE POP POP JUMP JUMPDEST PUSH1 0x4 DUP2 DUP2 SLOAD DUP2 LT PUSH2 0x1D5 JUMPI PUSH0 DUP1 REVERT JUMPDEST SWAP1 PUSH0 MSTORE PUSH1 0x20 PUSH0 KECCAK256 SWAP1 PUSH1 0x4 MUL ADD PUSH0 SWAP2 POP SWAP1 POP DUP1 PUSH0 ADD DUP1 SLOAD PUSH2 0x1F4 SWAP1 PUSH2 0x7F8 JUMP JUMPDEST DUP1 PUSH1 0x1F ADD PUSH1 0x20 DUP1 SWAP2 DIV MUL PUSH1 0x20 ADD PUSH1 0x40 MLOAD SWAP1 DUP2 ADD PUSH1 0x40 MSTORE DUP1 SWAP3 SWAP2 SWAP1 DUP2 DUP2 MSTORE PUSH1 0x20 ADD DUP3 DUP1 SLOAD PUSH2 0x220 SWAP1 PUSH2 0x7F8 JUMP JUMPDEST DUP1 ISZERO PUSH2 0x26B JUMPI DUP1 PUSH1 0x1F LT PUSH2 0x242 JUMPI PUSH2 0x100 DUP1 DUP4 SLOAD DIV MUL DUP4 MSTORE SWAP2 PUSH1 0x20 ADD SWAP2 PUSH2 0x26B JUMP JUMPDEST DUP3 ADD SWAP2 SWAP1 PUSH0 MSTORE PUSH1 0x20 PUSH0 KECCAK256 SWAP1 JUMPDEST DUP2 SLOAD DUP2 MSTORE SWAP1 PUSH1 0x1 ADD SWAP1 PUSH1 0x20 ADD DUP1 DUP4 GT PUSH2 0x24E JUMPI DUP3 SWAP1 SUB PUSH1 0x1F AND DUP3 ADD SWAP2 JUMPDEST POP POP POP POP POP SWAP1 DUP1 PUSH1 0x1 ADD SLOAD SWAP1 DUP1 PUSH1 0x2 ADD PUSH0 SWAP1 SLOAD SWAP1 PUSH2 0x100 EXP SWAP1 DIV PUSH1 0xFF AND SWAP1 DUP1 PUSH1 0x3 ADD DUP1 SLOAD PUSH2 0x298 SWAP1 PUSH2 0x7F8 JUMP JUMPDEST DUP1 PUSH1 0x1F ADD PUSH1 0x20 DUP1 SWAP2 DIV MUL PUSH1 0x20 ADD PUSH1 0x40 MLOAD SWAP1 DUP2 ADD PUSH1 0x40 MSTORE DUP1 SWAP3 SWAP2 SWAP1 DUP2 DUP2 MSTORE PUSH1 0x20 ADD DUP3 DUP1 SLOAD PUSH2 0x2C4 SWAP1 PUSH2 0x7F8 JUMP JUMPDEST DUP1 ISZERO PUSH2 0x30F JUMPI DUP1 PUSH1 0x1F LT PUSH2 0x2E6 JUMPI PUSH2 0x100 DUP1 DUP4 SLOAD DIV MUL DUP4 MSTORE SWAP2 PUSH1 0x20 ADD SWAP2 PUSH2 0x30F JUMP JUMPDEST DUP3 ADD SWAP2 SWAP1 PUSH0 MSTORE PUSH1 0x20 PUSH0 KECCAK256 SWAP1 JUMPDEST DUP2 SLOAD DUP2 MSTORE SWAP1 PUSH1 0x1 ADD SWAP1 PUSH1 0x20 ADD DUP1 DUP4 GT PUSH2 0x2F2 JUMPI DUP3 SWAP1 SUB PUSH1 0x1F AND DUP3 ADD SWAP2 JUMPDEST POP POP POP POP POP SWAP1 POP DUP5 JUMP JUMPDEST PUSH0 DUP1 PUSH0 ADD DUP1 SLOAD PUSH2 0x328 SWAP1 PUSH2 0x7F8 JUMP JUMPDEST DUP1 PUSH1 0x1F ADD PUSH1 0x20 DUP1 SWAP2 DIV MUL PUSH1 0x20 ADD PUSH1 0x40 MLOAD SWAP1 DUP2 ADD PUSH1 0x40 MSTORE DUP1 SWAP3 SWAP2 SWAP1 DUP2 DUP2 MSTORE PUSH1 0x20 ADD DUP3 DUP1 SLOAD PUSH2 0x354 SWAP1 PUSH2 0x7F8 JUMP JUMPDEST DUP1 ISZERO PUSH2 0x39F JUMPI DUP1 PUSH1 0x1F LT PUSH2 0x376 JUMPI PUSH2 0x100 DUP1 DUP4 SLOAD DIV MUL DUP4 MSTORE SWAP2 PUSH1 0x20 ADD SWAP2 PUSH2 0x39F JUMP JUMPDEST DUP3 ADD SWAP2 SWAP1 PUSH0 MSTORE PUSH1 0x20 PUSH0 KECCAK256 SWAP1 JUMPDEST DUP2 SLOAD DUP2 MSTORE SWAP1 PUSH1 0x1 ADD SWAP1 PUSH1 0x20 ADD DUP1 DUP4 GT PUSH2 0x382 JUMPI DUP3 SWAP1 SUB PUSH1 0x1F AND DUP3 ADD SWAP2 JUMPDEST POP POP POP POP POP SWAP1 DUP1 PUSH1 0x1 ADD SLOAD SWAP1 DUP1 PUSH1 0x2 ADD PUSH0 SWAP1 SLOAD SWAP1 PUSH2 0x100 EXP SWAP1 DIV PUSH1 0xFF AND SWAP1 DUP1 PUSH1 0x3 ADD DUP1 SLOAD PUSH2 0x3CC SWAP1 PUSH2 0x7F8 JUMP JUMPDEST DUP1 PUSH1 0x1F ADD PUSH1 0x20 DUP1 SWAP2 DIV MUL PUSH1 0x20 ADD PUSH1 0x40 MLOAD SWAP1 DUP2 ADD PUSH1 0x40 MSTORE DUP1 SWAP3 SWAP2 SWAP1 DUP2 DUP2 MSTORE PUSH1 0x20 ADD DUP3 DUP1 SLOAD PUSH2 0x3F8 SWAP1 PUSH2 0x7F8 JUMP JUMPDEST DUP1 ISZERO PUSH2 0x443 JUMPI DUP1 PUSH1 0x1F LT PUSH2 0x41A JUMPI PUSH2 0x100 DUP1 DUP4 SLOAD DIV MUL DUP4 MSTORE SWAP2 PUSH1 0x20 ADD SWAP2 PUSH2 0x443 JUMP JUMPDEST DUP3 ADD SWAP2 SWAP1 PUSH0 MSTORE PUSH1 0x20 PUSH0 KECCAK256 SWAP1 JUMPDEST DUP2 SLOAD DUP2 MSTORE SWAP1 PUSH1 0x1 ADD SWAP1 PUSH1 0x20 ADD DUP1 DUP4 GT PUSH2 0x426 JUMPI DUP3 SWAP1 SUB PUSH1 0x1F AND DUP3 ADD SWAP2 JUMPDEST POP POP POP POP POP SWAP1 POP DUP5 JUMP JUMPDEST PUSH0 DUP2 SWAP1 POP SWAP2 SWAP1 POP JUMP JUMPDEST PUSH2 0x45F DUP2 PUSH2 0x44D JUMP JUMPDEST DUP3 MSTORE POP POP JUMP JUMPDEST PUSH0 PUSH1 0x20 DUP3 ADD SWAP1 POP PUSH2 0x478 PUSH0 DUP4 ADD DUP5 PUSH2 0x456 JUMP JUMPDEST SWAP3 SWAP2 POP POP JUMP JUMPDEST PUSH0 PUSH1 0x40 MLOAD SWAP1 POP SWAP1 JUMP JUMPDEST PUSH0 DUP1 REVERT JUMPDEST PUSH0 DUP1 REVERT JUMPDEST PUSH0 DUP1 REVERT JUMPDEST PUSH0 DUP1 REVERT JUMPDEST PUSH0 PUSH1 0x1F NOT PUSH1 0x1F DUP4 ADD AND SWAP1 POP SWAP2 SWAP1 POP JUMP JUMPDEST PUSH32 0x4E487B7100000000000000000000000000000000000000000000000000000000 PUSH0 MSTORE PUSH1 0x41 PUSH1 0x4 MSTORE PUSH1 0x24 PUSH0 REVERT JUMPDEST PUSH2 0x4DD DUP3 PUSH2 0x497 JUMP JUMPDEST DUP2 ADD DUP2 DUP2 LT PUSH8 0xFFFFFFFFFFFFFFFF DUP3 GT OR ISZERO PUSH2 0x4FC JUMPI PUSH2 0x4FB PUSH2 0x4A7 JUMP JUMPDEST JUMPDEST DUP1 PUSH1 0x40 MSTORE POP POP POP JUMP JUMPDEST PUSH0 PUSH2 0x50E PUSH2 0x47E JUMP JUMPDEST SWAP1 POP PUSH2 0x51A DUP3 DUP3 PUSH2 0x4D4 JUMP JUMPDEST SWAP2 SWAP1 POP JUMP JUMPDEST PUSH0 PUSH8 0xFFFFFFFFFFFFFFFF DUP3 GT ISZERO PUSH2 0x539 JUMPI PUSH2 0x538 PUSH2 0x4A7 JUMP JUMPDEST JUMPDEST PUSH2 0x542 DUP3 PUSH2 0x497 JUMP JUMPDEST SWAP1 POP PUSH1 0x20 DUP2 ADD SWAP1 POP SWAP2 SWAP1 POP JUMP JUMPDEST DUP3 DUP2 DUP4 CALLDATACOPY PUSH0 DUP4 DUP4 ADD MSTORE POP POP POP JUMP JUMPDEST PUSH0 PUSH2 0x56F PUSH2 0x56A DUP5 PUSH2 0x51F JUMP JUMPDEST PUSH2 0x505 JUMP JUMPDEST SWAP1 POP DUP3 DUP2 MSTORE PUSH1 0x20 DUP2 ADD DUP5 DUP5 DUP5 ADD GT ISZERO PUSH2 0x58B JUMPI PUSH2 0x58A PUSH2 0x493 JUMP JUMPDEST JUMPDEST PUSH2 0x596 DUP5 DUP3 DUP6 PUSH2 0x54F JUMP JUMPDEST POP SWAP4 SWAP3 POP POP POP JUMP JUMPDEST PUSH0 DUP3 PUSH1 0x1F DUP4 ADD SLT PUSH2 0x5B2 JUMPI PUSH2 0x5B1 PUSH2 0x48F JUMP JUMPDEST JUMPDEST DUP2 CALLDATALOAD PUSH2 0x5C2 DUP5 DUP3 PUSH1 0x20 DUP7 ADD PUSH2 0x55D JUMP JUMPDEST SWAP2 POP POP SWAP3 SWAP2 POP POP JUMP JUMPDEST PUSH2 0x5D4 DUP2 PUSH2 0x44D JUMP JUMPDEST DUP2 EQ PUSH2 0x5DE JUMPI PUSH0 DUP1 REVERT JUMPDEST POP JUMP JUMPDEST PUSH0 DUP2 CALLDATALOAD SWAP1 POP PUSH2 0x5EF DUP2 PUSH2 0x5CB JUMP JUMPDEST SWAP3 SWAP2 POP POP JUMP JUMPDEST PUSH0 DUP2 ISZERO ISZERO SWAP1 POP SWAP2 SWAP1 POP JUMP JUMPDEST PUSH2 0x609 DUP2 PUSH2 0x5F5 JUMP JUMPDEST DUP2 EQ PUSH2 0x613 JUMPI PUSH0 DUP1 REVERT JUMPDEST POP JUMP JUMPDEST PUSH0 DUP2 CALLDATALOAD SWAP1 POP PUSH2 0x624 DUP2 PUSH2 0x600 JUMP JUMPDEST SWAP3 SWAP2 POP POP JUMP JUMPDEST PUSH0 DUP1 PUSH0 DUP1 PUSH1 0x80 DUP6 DUP8 SUB SLT ISZERO PUSH2 0x642 JUMPI PUSH2 0x641 PUSH2 0x487 JUMP JUMPDEST JUMPDEST PUSH0 DUP6 ADD CALLDATALOAD PUSH8 0xFFFFFFFFFFFFFFFF DUP2 GT ISZERO PUSH2 0x65F JUMPI PUSH2 0x65E PUSH2 0x48B JUMP JUMPDEST JUMPDEST PUSH2 0x66B DUP8 DUP3 DUP9 ADD PUSH2 0x59E JUMP JUMPDEST SWAP5 POP POP PUSH1 0x20 PUSH2 0x67C DUP8 DUP3 DUP9 ADD PUSH2 0x5E1 JUMP JUMPDEST SWAP4 POP POP PUSH1 0x40 PUSH2 0x68D DUP8 DUP3 DUP9 ADD PUSH2 0x616 JUMP JUMPDEST SWAP3 POP POP PUSH1 0x60 DUP6 ADD CALLDATALOAD PUSH8 0xFFFFFFFFFFFFFFFF DUP2 GT ISZERO PUSH2 0x6AE JUMPI PUSH2 0x6AD PUSH2 0x48B JUMP JUMPDEST JUMPDEST PUSH2 0x6BA DUP8 DUP3 DUP9 ADD PUSH2 0x59E JUMP JUMPDEST SWAP2 POP POP SWAP3 SWAP6 SWAP2 SWAP5 POP SWAP3 POP JUMP JUMPDEST PUSH0 PUSH1 0x20 DUP3 DUP5 SUB SLT ISZERO PUSH2 0x6DB JUMPI PUSH2 0x6DA PUSH2 0x487 JUMP JUMPDEST JUMPDEST PUSH0 PUSH2 0x6E8 DUP5 DUP3 DUP6 ADD PUSH2 0x5E1 JUMP JUMPDEST SWAP2 POP POP SWAP3 SWAP2 POP POP JUMP JUMPDEST PUSH0 DUP2 MLOAD SWAP1 POP SWAP2 SWAP1 POP JUMP JUMPDEST PUSH0 DUP3 DUP3 MSTORE PUSH1 0x20 DUP3 ADD SWAP1 POP SWAP3 SWAP2 POP POP JUMP JUMPDEST PUSH0 JUMPDEST DUP4 DUP2 LT ISZERO PUSH2 0x728 JUMPI DUP1 DUP3 ADD MLOAD DUP2 DUP5 ADD MSTORE PUSH1 0x20 DUP2 ADD SWAP1 POP PUSH2 0x70D JUMP JUMPDEST PUSH0 DUP5 DUP5 ADD MSTORE POP POP POP POP JUMP JUMPDEST PUSH0 PUSH2 0x73D DUP3 PUSH2 0x6F1 JUMP JUMPDEST PUSH2 0x747 DUP2 DUP6 PUSH2 0x6FB JUMP JUMPDEST SWAP4 POP PUSH2 0x757 DUP2 DUP6 PUSH1 0x20 DUP7 ADD PUSH2 0x70B JUMP JUMPDEST PUSH2 0x760 DUP2 PUSH2 0x497 JUMP JUMPDEST DUP5 ADD SWAP2 POP POP SWAP3 SWAP2 POP POP JUMP JUMPDEST PUSH2 0x774 DUP2 PUSH2 0x5F5 JUMP JUMPDEST DUP3 MSTORE POP POP JUMP JUMPDEST PUSH0 PUSH1 0x80 DUP3 ADD SWAP1 POP DUP2 DUP2 SUB PUSH0 DUP4 ADD MSTORE PUSH2 0x792 DUP2 DUP8 PUSH2 0x733 JUMP JUMPDEST SWAP1 POP PUSH2 0x7A1 PUSH1 0x20 DUP4 ADD DUP7 PUSH2 0x456 JUMP JUMPDEST PUSH2 0x7AE PUSH1 0x40 DUP4 ADD DUP6 PUSH2 0x76B JUMP JUMPDEST DUP2 DUP2 SUB PUSH1 0x60 DUP4 ADD MSTORE PUSH2 0x7C0 DUP2 DUP5 PUSH2 0x733 JUMP JUMPDEST SWAP1 POP SWAP6 SWAP5 POP POP POP POP POP JUMP JUMPDEST PUSH32 0x4E487B7100000000000000000000000000000000000000000000000000000000 PUSH0 MSTORE PUSH1 0x22 PUSH1 0x4 MSTORE PUSH1 0x24 PUSH0 REVERT JUMPDEST PUSH0 PUSH1 0x2 DUP3 DIV SWAP1 POP PUSH1 0x1 DUP3 AND DUP1 PUSH2 0x80F JUMPI PUSH1 0x7F DUP3 AND SWAP2 POP JUMPDEST PUSH1 0x20 DUP3 LT DUP2 SUB PUSH2 0x822 JUMPI PUSH2 0x821 PUSH2 0x7CB JUMP JUMPDEST JUMPDEST POP SWAP2 SWAP1 POP JUMP JUMPDEST PUSH0 DUP2 SWAP1 POP DUP2 PUSH0 MSTORE PUSH1 0x20 PUSH0 KECCAK256 SWAP1 POP SWAP2 SWAP1 POP JUMP JUMPDEST PUSH0 PUSH1 0x20 PUSH1 0x1F DUP4 ADD DIV SWAP1 POP SWAP2 SWAP1 POP JUMP JUMPDEST PUSH0 DUP3 DUP3 SHL SWAP1 POP SWAP3 SWAP2 POP POP JUMP JUMPDEST PUSH0 PUSH1 0x8 DUP4 MUL PUSH2 0x884 PUSH32 0xFFFFFFFFFFFFFFFFFFFFFFFFFFFFFFFFFFFFFFFFFFFFFFFFFFFFFFFFFFFFFFFF DUP3 PUSH2 0x849 JUMP JUMPDEST PUSH2 0x88E DUP7 DUP4 PUSH2 0x849 JUMP JUMPDEST SWAP6 POP DUP1 NOT DUP5 AND SWAP4 POP DUP1 DUP7 AND DUP5 OR SWAP3 POP POP POP SWAP4 SWAP3 POP POP POP JUMP JUMPDEST PUSH0 DUP2 SWAP1 POP SWAP2 SWAP1 POP JUMP JUMPDEST PUSH0 PUSH2 0x8C9 PUSH2 0x8C4 PUSH2 0x8BF DUP5 PUSH2 0x44D JUMP JUMPDEST PUSH2 0x8A6 JUMP JUMPDEST PUSH2 0x44D JUMP JUMPDEST SWAP1 POP SWAP2 SWAP1 POP JUMP JUMPDEST PUSH0 DUP2 SWAP1 POP SWAP2 SWAP1 POP JUMP JUMPDEST PUSH2 0x8E2 DUP4 PUSH2 0x8AF JUMP JUMPDEST PUSH2 0x8F6 PUSH2 0x8EE DUP3 PUSH2 0x8D0 JUMP JUMPDEST DUP5 DUP5 SLOAD PUSH2 0x855 JUMP JUMPDEST DUP3 SSTORE POP POP POP POP JUMP JUMPDEST PUSH0 SWAP1 JUMP JUMPDEST PUSH2 0x90A PUSH2 0x8FE JUMP JUMPDEST PUSH2 0x915 DUP2 DUP5 DUP5 PUSH2 0x8D9 JUMP JUMPDEST POP POP POP JUMP JUMPDEST JUMPDEST DUP2 DUP2 LT ISZERO PUSH2 0x938 JUMPI PUSH2 0x92D PUSH0 DUP3 PUSH2 0x902 JUMP JUMPDEST PUSH1 0x1 DUP2 ADD SWAP1 POP PUSH2 0x91B JUMP JUMPDEST POP POP JUMP JUMPDEST PUSH1 0x1F DUP3 GT ISZERO PUSH2 0x97D JUMPI PUSH2 0x94E DUP2 PUSH2 0x828 JUMP JUMPDEST PUSH2 0x957 DUP5 PUSH2 0x83A JUMP JUMPDEST DUP2 ADD PUSH1 0x20 DUP6 LT ISZERO PUSH2 0x966 JUMPI DUP2 SWAP1 POP JUMPDEST PUSH2 0x97A PUSH2 0x972 DUP6 PUSH2 0x83A JUMP JUMPDEST DUP4 ADD DUP3 PUSH2 0x91A JUMP JUMPDEST POP POP JUMPDEST POP POP POP JUMP JUMPDEST PUSH0 DUP3 DUP3 SHR SWAP1 POP SWAP3 SWAP2 POP POP JUMP JUMPDEST PUSH0 PUSH2 0x99D PUSH0 NOT DUP5 PUSH1 0x8 MUL PUSH2 0x982 JUMP JUMPDEST NOT DUP1 DUP4 AND SWAP2 POP POP SWAP3 SWAP2 POP POP JUMP JUMPDEST PUSH0 PUSH2 0x9B5 DUP4 DUP4 PUSH2 0x98E JUMP JUMPDEST SWAP2 POP DUP3 PUSH1 0x2 MUL DUP3 OR SWAP1 POP SWAP3 SWAP2 POP POP JUMP JUMPDEST PUSH2 0x9CE DUP3 PUSH2 0x6F1 JUMP JUMPDEST PUSH8 0xFFFFFFFFFFFFFFFF DUP2 GT ISZERO PUSH2 0x9E7 JUMPI PUSH2 0x9E6 PUSH2 0x4A7 JUMP JUMPDEST JUMPDEST PUSH2 0x9F1 DUP3 SLOAD PUSH2 0x7F8 JUMP JUMPDEST PUSH2 0x9FC DUP3 DUP3 DUP6 PUSH2 0x93C JUMP JUMPDEST PUSH0 PUSH1 0x20 SWAP1 POP PUSH1 0x1F DUP4 GT PUSH1 0x1 DUP2 EQ PUSH2 0xA2D JUMPI PUSH0 DUP5 ISZERO PUSH2 0xA1B JUMPI DUP3 DUP8 ADD MLOAD SWAP1 POP JUMPDEST PUSH2 0xA25 DUP6 DUP3 PUSH2 0x9AA JUMP JUMPDEST DUP7 SSTORE POP PUSH2 0xA8C JUMP JUMPDEST PUSH1 0x1F NOT DUP5 AND PUSH2 0xA3B DUP7 PUSH2 0x828 JUMP JUMPDEST PUSH0 JUMPDEST DUP3 DUP2 LT ISZERO PUSH2 0xA62 JUMPI DUP5 DUP10 ADD MLOAD DUP3 SSTORE PUSH1 0x1 DUP3 ADD SWAP2 POP PUSH1 0x20 DUP6 ADD SWAP5 POP PUSH1 0x20 DUP2 ADD SWAP1 POP PUSH2 0xA3D JUMP JUMPDEST DUP7 DUP4 LT ISZERO PUSH2 0xA7F JUMPI DUP5 DUP10 ADD MLOAD PUSH2 0xA7B PUSH1 0x1F DUP10 AND DUP3 PUSH2 0x98E JUMP JUMPDEST DUP4 SSTORE POP JUMPDEST PUSH1 0x1 PUSH1 0x2 DUP9 MUL ADD DUP9 SSTORE POP POP POP JUMPDEST POP POP POP POP POP POP JUMP INVALID LOG2 PUSH5 0x6970667358 0x22 SLT KECCAK256 PUSH31 0x23F8CFB84E5CE77EA65A5B8D78F900CAF7D20BC36153E9BC8020C7EAE23D40 PUSH5 0x736F6C6343 STOP ADDMOD ISZERO STOP CALLER "
		},
		"gasEstimates": {
			"creation": {
				"codeDepositCost": "552400",
				"executionCost": "infinite",
				"totalCost": "infinite"
			},
			"external": {
				"MrBeast()": "infinite",
				"addPerson(string,uint256,bool,string)": "infinite",
				"people(uint256)": "infinite",
				"totalPeople()": "2418",
				"updateAge(uint256)": "22542"
			}
		},
		"methodIdentifiers": {
			"MrBeast()": "c25f3b8c",
			"addPerson(string,uint256,bool,string)": "3c39a4bf",
			"people(uint256)": "9e7a13ad",
			"totalPeople()": "186e7f00",
			"updateAge(uint256)": "7d625c07"
		}
	},
	"abi": [
		{
			"inputs": [],
			"stateMutability": "nonpayable",
			"type": "constructor"
		},
		{
			"inputs": [],
			"name": "MrBeast",
			"outputs": [
				{
					"internalType": "string",
					"name": "name",
					"type": "string"
				},
				{
					"internalType": "uint256",
					"name": "age",
					"type": "uint256"
				},
				{
					"internalType": "bool",
					"name": "married",
					"type": "bool"
				},
				{
					"internalType": "string",
					"name": "Job",
					"type": "string"
				}
			],
			"stateMutability": "view",
			"type": "function"
		},
		{
			"inputs": [
				{
					"internalType": "string",
					"name": "_name",
					"type": "string"
				},
				{
					"internalType": "uint256",
					"name": "_age",
					"type": "uint256"
				},
				{
					"internalType": "bool",
					"name": "_married",
					"type": "bool"
				},
				{
					"internalType": "string",
					"name": "_Job",
					"type": "string"
				}
			],
			"name": "addPerson",
			"outputs": [],
			"stateMutability": "nonpayable",
			"type": "function"
		},
		{
			"inputs": [
				{
					"internalType": "uint256",
					"name": "",
					"type": "uint256"
				}
			],
			"name": "people",
			"outputs": [
				{
					"internalType": "string",
					"name": "name",
					"type": "string"
				},
				{
					"internalType": "uint256",
					"name": "age",
					"type": "uint256"
				},
				{
					"internalType": "bool",
					"name": "married",
					"type": "bool"
				},
				{
					"internalType": "string",
					"name": "Job",
					"type": "string"
				}
			],
			"stateMutability": "view",
			"type": "function"
		},
		{
			"inputs": [],
			"name": "totalPeople",
			"outputs": [
				{
					"internalType": "uint256",
					"name": "",
					"type": "uint256"
				}
			],
			"stateMutability": "view",
			"type": "function"
		},
		{
			"inputs": [
				{
					"internalType": "uint256",
					"name": "newAge",
					"type": "uint256"
				}
			],
			"name": "updateAge",
			"outputs": [],
			"stateMutability": "nonpayable",
			"type": "function"
		}
	]
}