{
	"solidity by example/tryandcatch.sol": {
		"executor": {
			"abi": [
				{
					"inputs": [],
					"stateMutability": "nonpayable",
					"type": "constructor"
				},
				{
					"anonymous": false,
					"inputs": [
						{
							"indexed": false,
							"internalType": "bytes",
							"name": "data",
							"type": "bytes"
						}
					],
					"name": "logBytes",
					"type": "event"
				},
				{
					"anonymous": false,
					"inputs": [
						{
							"indexed": false,
							"internalType": "string",
							"name": "message",
							"type": "string"
						}
					],
					"name": "logMessage",
					"type": "event"
				},
				{
					"inputs": [],
					"name": "execute",
					"outputs": [
						{
							"internalType": "contract tester",
							"name": "",
							"type": "address"
						}
					],
					"stateMutability": "view",
					"type": "function"
				},
				{
					"inputs": [
						{
							"internalType": "uint256",
							"name": "_input",
							"type": "uint256"
						}
					],
					"name": "tryandCatchCall",
					"outputs": [],
					"stateMutability": "nonpayable",
					"type": "function"
				}
			],
			"devdoc": {
				"kind": "dev",
				"methods": {},
				"version": 1
			},
			"evm": {
				"assembly": "    /* \"solidity by example/tryandcatch.sol\":457:898  contract executor {... */\n  mstore(0x40, 0x80)\n    /* \"solidity by example/tryandcatch.sol\":580:642  constructor(){... */\n  callvalue\n  dup1\n  iszero\n  tag_1\n  jumpi\n  0x00\n  dup1\n  revert\ntag_1:\n  pop\n    /* \"solidity by example/tryandcatch.sol\":624:634  msg.sender */\n  caller\n    /* \"solidity by example/tryandcatch.sol\":613:635  new tester(msg.sender) */\n  mload(0x40)\n  tag_4\n  swap1\n  tag_5\n  jump\t// in\ntag_4:\n  tag_6\n  swap2\n  swap1\n  tag_7\n  jump\t// in\ntag_6:\n  mload(0x40)\n  dup1\n  swap2\n  sub\n  swap1\n  0x00\n  create\n  dup1\n  iszero\n  dup1\n  iszero\n  tag_8\n  jumpi\n  returndatasize\n  0x00\n  dup1\n  returndatacopy\n  revert(0x00, returndatasize)\ntag_8:\n  pop\n    /* \"solidity by example/tryandcatch.sol\":603:610  execute */\n  0x00\n  dup1\n    /* \"solidity by example/tryandcatch.sol\":603:635  execute = new tester(msg.sender) */\n  0x0100\n  exp\n  dup2\n  sload\n  dup2\n  0xffffffffffffffffffffffffffffffffffffffff\n  mul\n  not\n  and\n  swap1\n  dup4\n  0xffffffffffffffffffffffffffffffffffffffff\n  and\n  mul\n  or\n  swap1\n  sstore\n  pop\n    /* \"solidity by example/tryandcatch.sol\":457:898  contract executor {... */\n  jump(tag_9)\ntag_5:\n  dataSize(sub_1)\n  dup1\n  dataOffset(sub_1)\n  dup4\n  codecopy\n  add\n  swap1\n  jump\t// out\n    /* \"#utility.yul\":7:133   */\ntag_10:\n    /* \"#utility.yul\":44:51   */\n  0x00\n    /* \"#utility.yul\":84:126   */\n  0xffffffffffffffffffffffffffffffffffffffff\n    /* \"#utility.yul\":77:82   */\n  dup3\n    /* \"#utility.yul\":73:127   */\n  and\n    /* \"#utility.yul\":62:127   */\n  swap1\n  pop\n    /* \"#utility.yul\":7:133   */\n  swap2\n  swap1\n  pop\n  jump\t// out\n    /* \"#utility.yul\":139:235   */\ntag_11:\n    /* \"#utility.yul\":176:183   */\n  0x00\n    /* \"#utility.yul\":205:229   */\n  tag_16\n    /* \"#utility.yul\":223:228   */\n  dup3\n    /* \"#utility.yul\":205:229   */\n  tag_10\n  jump\t// in\ntag_16:\n    /* \"#utility.yul\":194:229   */\n  swap1\n  pop\n    /* \"#utility.yul\":139:235   */\n  swap2\n  swap1\n  pop\n  jump\t// out\n    /* \"#utility.yul\":241:359   */\ntag_12:\n    /* \"#utility.yul\":328:352   */\n  tag_18\n    /* \"#utility.yul\":346:351   */\n  dup2\n    /* \"#utility.yul\":328:352   */\n  tag_11\n  jump\t// in\ntag_18:\n    /* \"#utility.yul\":323:326   */\n  dup3\n    /* \"#utility.yul\":316:353   */\n  mstore\n    /* \"#utility.yul\":241:359   */\n  pop\n  pop\n  jump\t// out\n    /* \"#utility.yul\":365:587   */\ntag_7:\n    /* \"#utility.yul\":458:462   */\n  0x00\n    /* \"#utility.yul\":496:498   */\n  0x20\n    /* \"#utility.yul\":485:494   */\n  dup3\n    /* \"#utility.yul\":481:499   */\n  add\n    /* \"#utility.yul\":473:499   */\n  swap1\n  pop\n    /* \"#utility.yul\":509:580   */\n  tag_20\n    /* \"#utility.yul\":577:578   */\n  0x00\n    /* \"#utility.yul\":566:575   */\n  dup4\n    /* \"#utility.yul\":562:579   */\n  add\n    /* \"#utility.yul\":553:559   */\n  dup5\n    /* \"#utility.yul\":509:580   */\n  tag_12\n  jump\t// in\ntag_20:\n    /* \"#utility.yul\":365:587   */\n  swap3\n  swap2\n  pop\n  pop\n  jump\t// out\n    /* \"solidity by example/tryandcatch.sol\":457:898  contract executor {... */\ntag_9:\n  dataSize(sub_0)\n  dup1\n  dataOffset(sub_0)\n  0x00\n  codecopy\n  0x00\n  return\nstop\n\nsub_0: assembly {\n        /* \"solidity by example/tryandcatch.sol\":457:898  contract executor {... */\n      mstore(0x40, 0x80)\n      callvalue\n      dup1\n      iszero\n      tag_1\n      jumpi\n      0x00\n      dup1\n      revert\n    tag_1:\n      pop\n      jumpi(tag_2, lt(calldatasize, 0x04))\n      shr(0xe0, calldataload(0x00))\n      dup1\n      0x61461954\n      eq\n      tag_3\n      jumpi\n      dup1\n      0x76f5449f\n      eq\n      tag_4\n      jumpi\n    tag_2:\n      0x00\n      dup1\n      revert\n        /* \"solidity by example/tryandcatch.sol\":552:573  tester public execute */\n    tag_3:\n      tag_5\n      tag_6\n      jump\t// in\n    tag_5:\n      mload(0x40)\n      tag_7\n      swap2\n      swap1\n      tag_8\n      jump\t// in\n    tag_7:\n      mload(0x40)\n      dup1\n      swap2\n      sub\n      swap1\n      return\n        /* \"solidity by example/tryandcatch.sol\":649:894  function tryandCatchCall(uint _input) public {... */\n    tag_4:\n      tag_9\n      0x04\n      dup1\n      calldatasize\n      sub\n      dup2\n      add\n      swap1\n      tag_10\n      swap2\n      swap1\n      tag_11\n      jump\t// in\n    tag_10:\n      tag_12\n      jump\t// in\n    tag_9:\n      stop\n        /* \"solidity by example/tryandcatch.sol\":552:573  tester public execute */\n    tag_6:\n      0x00\n      dup1\n      sload\n      swap1\n      0x0100\n      exp\n      swap1\n      div\n      0xffffffffffffffffffffffffffffffffffffffff\n      and\n      dup2\n      jump\t// out\n        /* \"solidity by example/tryandcatch.sol\":649:894  function tryandCatchCall(uint _input) public {... */\n    tag_12:\n        /* \"solidity by example/tryandcatch.sol\":708:715  execute */\n      0x00\n      dup1\n      sload\n      swap1\n      0x0100\n      exp\n      swap1\n      div\n      0xffffffffffffffffffffffffffffffffffffffff\n      and\n        /* \"solidity by example/tryandcatch.sol\":708:726  execute.myFunction */\n      0xffffffffffffffffffffffffffffffffffffffff\n      and\n      0x50628c96\n        /* \"solidity by example/tryandcatch.sol\":727:733  _input */\n      dup3\n        /* \"solidity by example/tryandcatch.sol\":708:734  execute.myFunction(_input) */\n      mload(0x40)\n      dup3\n      0xffffffff\n      and\n      0xe0\n      shl\n      dup2\n      mstore\n      0x04\n      add\n      tag_14\n      swap2\n      swap1\n      tag_15\n      jump\t// in\n    tag_14:\n      0x00\n      mload(0x40)\n      dup1\n      dup4\n      sub\n      dup2\n      dup7\n      gas\n      staticcall\n      swap3\n      pop\n      pop\n      pop\n      dup1\n      iszero\n      tag_16\n      jumpi\n      pop\n      mload(0x40)\n      returndatasize\n      0x00\n      dup3\n      returndatacopy\n      returndatasize\n      not(0x1f)\n      0x1f\n      dup3\n      add\n      and\n      dup3\n      add\n      dup1\n      0x40\n      mstore\n      pop\n      dup2\n      add\n      swap1\n      tag_17\n      swap2\n      swap1\n      tag_18\n      jump\t// in\n    tag_17:\n      0x01\n    tag_16:\n        /* \"solidity by example/tryandcatch.sol\":704:888  try execute.myFunction(_input) returns (string memory){... */\n      tag_19\n      jumpi\n        /* \"solidity by example/tryandcatch.sol\":843:877  logMessage(\"External call Failed\") */\n      0x7c990052ff7017db6da0c658c0fe7be85f832d1995d7c93f87bf7fd4f8fa711d\n      mload(0x40)\n      tag_23\n      swap1\n      tag_24\n      jump\t// in\n    tag_23:\n      mload(0x40)\n      dup1\n      swap2\n      sub\n      swap1\n      log1\n        /* \"solidity by example/tryandcatch.sol\":704:888  try execute.myFunction(_input) returns (string memory){... */\n      jump(tag_25)\n    tag_19:\n        /* \"solidity by example/tryandcatch.sol\":777:806  logMessage(\"call successful\") */\n      0x7c990052ff7017db6da0c658c0fe7be85f832d1995d7c93f87bf7fd4f8fa711d\n      mload(0x40)\n      tag_26\n      swap1\n      tag_27\n      jump\t// in\n    tag_26:\n      mload(0x40)\n      dup1\n      swap2\n      sub\n      swap1\n      log1\n        /* \"solidity by example/tryandcatch.sol\":735:817  returns (string memory){... */\n      pop\n        /* \"solidity by example/tryandcatch.sol\":704:888  try execute.myFunction(_input) returns (string memory){... */\n    tag_25:\n        /* \"solidity by example/tryandcatch.sol\":649:894  function tryandCatchCall(uint _input) public {... */\n      pop\n      jump\t// out\n        /* \"#utility.yul\":7:133   */\n    tag_28:\n        /* \"#utility.yul\":44:51   */\n      0x00\n        /* \"#utility.yul\":84:126   */\n      0xffffffffffffffffffffffffffffffffffffffff\n        /* \"#utility.yul\":77:82   */\n      dup3\n        /* \"#utility.yul\":73:127   */\n      and\n        /* \"#utility.yul\":62:127   */\n      swap1\n      pop\n        /* \"#utility.yul\":7:133   */\n      swap2\n      swap1\n      pop\n      jump\t// out\n        /* \"#utility.yul\":139:199   */\n    tag_29:\n        /* \"#utility.yul\":167:170   */\n      0x00\n        /* \"#utility.yul\":188:193   */\n      dup2\n        /* \"#utility.yul\":181:193   */\n      swap1\n      pop\n        /* \"#utility.yul\":139:199   */\n      swap2\n      swap1\n      pop\n      jump\t// out\n        /* \"#utility.yul\":205:347   */\n    tag_30:\n        /* \"#utility.yul\":255:264   */\n      0x00\n        /* \"#utility.yul\":288:341   */\n      tag_60\n        /* \"#utility.yul\":306:340   */\n      tag_61\n        /* \"#utility.yul\":315:339   */\n      tag_62\n        /* \"#utility.yul\":333:338   */\n      dup5\n        /* \"#utility.yul\":315:339   */\n      tag_28\n      jump\t// in\n    tag_62:\n        /* \"#utility.yul\":306:340   */\n      tag_29\n      jump\t// in\n    tag_61:\n        /* \"#utility.yul\":288:341   */\n      tag_28\n      jump\t// in\n    tag_60:\n        /* \"#utility.yul\":275:341   */\n      swap1\n      pop\n        /* \"#utility.yul\":205:347   */\n      swap2\n      swap1\n      pop\n      jump\t// out\n        /* \"#utility.yul\":353:479   */\n    tag_31:\n        /* \"#utility.yul\":403:412   */\n      0x00\n        /* \"#utility.yul\":436:473   */\n      tag_64\n        /* \"#utility.yul\":467:472   */\n      dup3\n        /* \"#utility.yul\":436:473   */\n      tag_30\n      jump\t// in\n    tag_64:\n        /* \"#utility.yul\":423:473   */\n      swap1\n      pop\n        /* \"#utility.yul\":353:479   */\n      swap2\n      swap1\n      pop\n      jump\t// out\n        /* \"#utility.yul\":485:624   */\n    tag_32:\n        /* \"#utility.yul\":548:557   */\n      0x00\n        /* \"#utility.yul\":581:618   */\n      tag_66\n        /* \"#utility.yul\":612:617   */\n      dup3\n        /* \"#utility.yul\":581:618   */\n      tag_31\n      jump\t// in\n    tag_66:\n        /* \"#utility.yul\":568:618   */\n      swap1\n      pop\n        /* \"#utility.yul\":485:624   */\n      swap2\n      swap1\n      pop\n      jump\t// out\n        /* \"#utility.yul\":630:787   */\n    tag_33:\n        /* \"#utility.yul\":730:780   */\n      tag_68\n        /* \"#utility.yul\":774:779   */\n      dup2\n        /* \"#utility.yul\":730:780   */\n      tag_32\n      jump\t// in\n    tag_68:\n        /* \"#utility.yul\":725:728   */\n      dup3\n        /* \"#utility.yul\":718:781   */\n      mstore\n        /* \"#utility.yul\":630:787   */\n      pop\n      pop\n      jump\t// out\n        /* \"#utility.yul\":793:1041   */\n    tag_8:\n        /* \"#utility.yul\":899:903   */\n      0x00\n        /* \"#utility.yul\":937:939   */\n      0x20\n        /* \"#utility.yul\":926:935   */\n      dup3\n        /* \"#utility.yul\":922:940   */\n      add\n        /* \"#utility.yul\":914:940   */\n      swap1\n      pop\n        /* \"#utility.yul\":950:1034   */\n      tag_70\n        /* \"#utility.yul\":1031:1032   */\n      0x00\n        /* \"#utility.yul\":1020:1029   */\n      dup4\n        /* \"#utility.yul\":1016:1033   */\n      add\n        /* \"#utility.yul\":1007:1013   */\n      dup5\n        /* \"#utility.yul\":950:1034   */\n      tag_33\n      jump\t// in\n    tag_70:\n        /* \"#utility.yul\":793:1041   */\n      swap3\n      swap2\n      pop\n      pop\n      jump\t// out\n        /* \"#utility.yul\":1047:1122   */\n    tag_34:\n        /* \"#utility.yul\":1080:1086   */\n      0x00\n        /* \"#utility.yul\":1113:1115   */\n      0x40\n        /* \"#utility.yul\":1107:1116   */\n      mload\n        /* \"#utility.yul\":1097:1116   */\n      swap1\n      pop\n        /* \"#utility.yul\":1047:1122   */\n      swap1\n      jump\t// out\n        /* \"#utility.yul\":1128:1245   */\n    tag_35:\n        /* \"#utility.yul\":1237:1238   */\n      0x00\n        /* \"#utility.yul\":1234:1235   */\n      dup1\n        /* \"#utility.yul\":1227:1239   */\n      revert\n        /* \"#utility.yul\":1251:1368   */\n    tag_36:\n        /* \"#utility.yul\":1360:1361   */\n      0x00\n        /* \"#utility.yul\":1357:1358   */\n      dup1\n        /* \"#utility.yul\":1350:1362   */\n      revert\n        /* \"#utility.yul\":1374:1451   */\n    tag_37:\n        /* \"#utility.yul\":1411:1418   */\n      0x00\n        /* \"#utility.yul\":1440:1445   */\n      dup2\n        /* \"#utility.yul\":1429:1445   */\n      swap1\n      pop\n        /* \"#utility.yul\":1374:1451   */\n      swap2\n      swap1\n      pop\n      jump\t// out\n        /* \"#utility.yul\":1457:1579   */\n    tag_38:\n        /* \"#utility.yul\":1530:1554   */\n      tag_76\n        /* \"#utility.yul\":1548:1553   */\n      dup2\n        /* \"#utility.yul\":1530:1554   */\n      tag_37\n      jump\t// in\n    tag_76:\n        /* \"#utility.yul\":1523:1528   */\n      dup2\n        /* \"#utility.yul\":1520:1555   */\n      eq\n        /* \"#utility.yul\":1510:1573   */\n      tag_77\n      jumpi\n        /* \"#utility.yul\":1569:1570   */\n      0x00\n        /* \"#utility.yul\":1566:1567   */\n      dup1\n        /* \"#utility.yul\":1559:1571   */\n      revert\n        /* \"#utility.yul\":1510:1573   */\n    tag_77:\n        /* \"#utility.yul\":1457:1579   */\n      pop\n      jump\t// out\n        /* \"#utility.yul\":1585:1724   */\n    tag_39:\n        /* \"#utility.yul\":1631:1636   */\n      0x00\n        /* \"#utility.yul\":1669:1675   */\n      dup2\n        /* \"#utility.yul\":1656:1676   */\n      calldataload\n        /* \"#utility.yul\":1647:1676   */\n      swap1\n      pop\n        /* \"#utility.yul\":1685:1718   */\n      tag_79\n        /* \"#utility.yul\":1712:1717   */\n      dup2\n        /* \"#utility.yul\":1685:1718   */\n      tag_38\n      jump\t// in\n    tag_79:\n        /* \"#utility.yul\":1585:1724   */\n      swap3\n      swap2\n      pop\n      pop\n      jump\t// out\n        /* \"#utility.yul\":1730:2059   */\n    tag_11:\n        /* \"#utility.yul\":1789:1795   */\n      0x00\n        /* \"#utility.yul\":1838:1840   */\n      0x20\n        /* \"#utility.yul\":1826:1835   */\n      dup3\n        /* \"#utility.yul\":1817:1824   */\n      dup5\n        /* \"#utility.yul\":1813:1836   */\n      sub\n        /* \"#utility.yul\":1809:1841   */\n      slt\n        /* \"#utility.yul\":1806:1925   */\n      iszero\n      tag_81\n      jumpi\n        /* \"#utility.yul\":1844:1923   */\n      tag_82\n      tag_35\n      jump\t// in\n    tag_82:\n        /* \"#utility.yul\":1806:1925   */\n    tag_81:\n        /* \"#utility.yul\":1964:1965   */\n      0x00\n        /* \"#utility.yul\":1989:2042   */\n      tag_83\n        /* \"#utility.yul\":2034:2041   */\n      dup5\n        /* \"#utility.yul\":2025:2031   */\n      dup3\n        /* \"#utility.yul\":2014:2023   */\n      dup6\n        /* \"#utility.yul\":2010:2032   */\n      add\n        /* \"#utility.yul\":1989:2042   */\n      tag_39\n      jump\t// in\n    tag_83:\n        /* \"#utility.yul\":1979:2042   */\n      swap2\n      pop\n        /* \"#utility.yul\":1935:2052   */\n      pop\n        /* \"#utility.yul\":1730:2059   */\n      swap3\n      swap2\n      pop\n      pop\n      jump\t// out\n        /* \"#utility.yul\":2065:2183   */\n    tag_40:\n        /* \"#utility.yul\":2152:2176   */\n      tag_85\n        /* \"#utility.yul\":2170:2175   */\n      dup2\n        /* \"#utility.yul\":2152:2176   */\n      tag_37\n      jump\t// in\n    tag_85:\n        /* \"#utility.yul\":2147:2150   */\n      dup3\n        /* \"#utility.yul\":2140:2177   */\n      mstore\n        /* \"#utility.yul\":2065:2183   */\n      pop\n      pop\n      jump\t// out\n        /* \"#utility.yul\":2189:2411   */\n    tag_15:\n        /* \"#utility.yul\":2282:2286   */\n      0x00\n        /* \"#utility.yul\":2320:2322   */\n      0x20\n        /* \"#utility.yul\":2309:2318   */\n      dup3\n        /* \"#utility.yul\":2305:2323   */\n      add\n        /* \"#utility.yul\":2297:2323   */\n      swap1\n      pop\n        /* \"#utility.yul\":2333:2404   */\n      tag_87\n        /* \"#utility.yul\":2401:2402   */\n      0x00\n        /* \"#utility.yul\":2390:2399   */\n      dup4\n        /* \"#utility.yul\":2386:2403   */\n      add\n        /* \"#utility.yul\":2377:2383   */\n      dup5\n        /* \"#utility.yul\":2333:2404   */\n      tag_40\n      jump\t// in\n    tag_87:\n        /* \"#utility.yul\":2189:2411   */\n      swap3\n      swap2\n      pop\n      pop\n      jump\t// out\n        /* \"#utility.yul\":2417:2534   */\n    tag_41:\n        /* \"#utility.yul\":2526:2527   */\n      0x00\n        /* \"#utility.yul\":2523:2524   */\n      dup1\n        /* \"#utility.yul\":2516:2528   */\n      revert\n        /* \"#utility.yul\":2540:2657   */\n    tag_42:\n        /* \"#utility.yul\":2649:2650   */\n      0x00\n        /* \"#utility.yul\":2646:2647   */\n      dup1\n        /* \"#utility.yul\":2639:2651   */\n      revert\n        /* \"#utility.yul\":2663:2765   */\n    tag_43:\n        /* \"#utility.yul\":2704:2710   */\n      0x00\n        /* \"#utility.yul\":2755:2757   */\n      0x1f\n        /* \"#utility.yul\":2751:2758   */\n      not\n        /* \"#utility.yul\":2746:2748   */\n      0x1f\n        /* \"#utility.yul\":2739:2744   */\n      dup4\n        /* \"#utility.yul\":2735:2749   */\n      add\n        /* \"#utility.yul\":2731:2759   */\n      and\n        /* \"#utility.yul\":2721:2759   */\n      swap1\n      pop\n        /* \"#utility.yul\":2663:2765   */\n      swap2\n      swap1\n      pop\n      jump\t// out\n        /* \"#utility.yul\":2771:2951   */\n    tag_44:\n        /* \"#utility.yul\":2819:2896   */\n      0x4e487b7100000000000000000000000000000000000000000000000000000000\n        /* \"#utility.yul\":2816:2817   */\n      0x00\n        /* \"#utility.yul\":2809:2897   */\n      mstore\n        /* \"#utility.yul\":2916:2920   */\n      0x41\n        /* \"#utility.yul\":2913:2914   */\n      0x04\n        /* \"#utility.yul\":2906:2921   */\n      mstore\n        /* \"#utility.yul\":2940:2944   */\n      0x24\n        /* \"#utility.yul\":2937:2938   */\n      0x00\n        /* \"#utility.yul\":2930:2945   */\n      revert\n        /* \"#utility.yul\":2957:3238   */\n    tag_45:\n        /* \"#utility.yul\":3040:3067   */\n      tag_93\n        /* \"#utility.yul\":3062:3066   */\n      dup3\n        /* \"#utility.yul\":3040:3067   */\n      tag_43\n      jump\t// in\n    tag_93:\n        /* \"#utility.yul\":3032:3038   */\n      dup2\n        /* \"#utility.yul\":3028:3068   */\n      add\n        /* \"#utility.yul\":3170:3176   */\n      dup2\n        /* \"#utility.yul\":3158:3168   */\n      dup2\n        /* \"#utility.yul\":3155:3177   */\n      lt\n        /* \"#utility.yul\":3134:3152   */\n      0xffffffffffffffff\n        /* \"#utility.yul\":3122:3132   */\n      dup3\n        /* \"#utility.yul\":3119:3153   */\n      gt\n        /* \"#utility.yul\":3116:3178   */\n      or\n        /* \"#utility.yul\":3113:3201   */\n      iszero\n      tag_94\n      jumpi\n        /* \"#utility.yul\":3181:3199   */\n      tag_95\n      tag_44\n      jump\t// in\n    tag_95:\n        /* \"#utility.yul\":3113:3201   */\n    tag_94:\n        /* \"#utility.yul\":3221:3231   */\n      dup1\n        /* \"#utility.yul\":3217:3219   */\n      0x40\n        /* \"#utility.yul\":3210:3232   */\n      mstore\n        /* \"#utility.yul\":3000:3238   */\n      pop\n        /* \"#utility.yul\":2957:3238   */\n      pop\n      pop\n      jump\t// out\n        /* \"#utility.yul\":3244:3373   */\n    tag_46:\n        /* \"#utility.yul\":3278:3284   */\n      0x00\n        /* \"#utility.yul\":3305:3325   */\n      tag_97\n      tag_34\n      jump\t// in\n    tag_97:\n        /* \"#utility.yul\":3295:3325   */\n      swap1\n      pop\n        /* \"#utility.yul\":3334:3367   */\n      tag_98\n        /* \"#utility.yul\":3362:3366   */\n      dup3\n        /* \"#utility.yul\":3354:3360   */\n      dup3\n        /* \"#utility.yul\":3334:3367   */\n      tag_45\n      jump\t// in\n    tag_98:\n        /* \"#utility.yul\":3244:3373   */\n      swap2\n      swap1\n      pop\n      jump\t// out\n        /* \"#utility.yul\":3379:3687   */\n    tag_47:\n        /* \"#utility.yul\":3441:3445   */\n      0x00\n        /* \"#utility.yul\":3531:3549   */\n      0xffffffffffffffff\n        /* \"#utility.yul\":3523:3529   */\n      dup3\n        /* \"#utility.yul\":3520:3550   */\n      gt\n        /* \"#utility.yul\":3517:3573   */\n      iszero\n      tag_100\n      jumpi\n        /* \"#utility.yul\":3553:3571   */\n      tag_101\n      tag_44\n      jump\t// in\n    tag_101:\n        /* \"#utility.yul\":3517:3573   */\n    tag_100:\n        /* \"#utility.yul\":3591:3620   */\n      tag_102\n        /* \"#utility.yul\":3613:3619   */\n      dup3\n        /* \"#utility.yul\":3591:3620   */\n      tag_43\n      jump\t// in\n    tag_102:\n        /* \"#utility.yul\":3583:3620   */\n      swap1\n      pop\n        /* \"#utility.yul\":3675:3679   */\n      0x20\n        /* \"#utility.yul\":3669:3673   */\n      dup2\n        /* \"#utility.yul\":3665:3680   */\n      add\n        /* \"#utility.yul\":3657:3680   */\n      swap1\n      pop\n        /* \"#utility.yul\":3379:3687   */\n      swap2\n      swap1\n      pop\n      jump\t// out\n        /* \"#utility.yul\":3693:4000   */\n    tag_48:\n        /* \"#utility.yul\":3761:3762   */\n      0x00\n        /* \"#utility.yul\":3771:3884   */\n    tag_104:\n        /* \"#utility.yul\":3785:3791   */\n      dup4\n        /* \"#utility.yul\":3782:3783   */\n      dup2\n        /* \"#utility.yul\":3779:3792   */\n      lt\n        /* \"#utility.yul\":3771:3884   */\n      iszero\n      tag_106\n      jumpi\n        /* \"#utility.yul\":3870:3871   */\n      dup1\n        /* \"#utility.yul\":3865:3868   */\n      dup3\n        /* \"#utility.yul\":3861:3872   */\n      add\n        /* \"#utility.yul\":3855:3873   */\n      mload\n        /* \"#utility.yul\":3851:3852   */\n      dup2\n        /* \"#utility.yul\":3846:3849   */\n      dup5\n        /* \"#utility.yul\":3842:3853   */\n      add\n        /* \"#utility.yul\":3835:3874   */\n      mstore\n        /* \"#utility.yul\":3807:3809   */\n      0x20\n        /* \"#utility.yul\":3804:3805   */\n      dup2\n        /* \"#utility.yul\":3800:3810   */\n      add\n        /* \"#utility.yul\":3795:3810   */\n      swap1\n      pop\n        /* \"#utility.yul\":3771:3884   */\n      jump(tag_104)\n    tag_106:\n        /* \"#utility.yul\":3902:3908   */\n      dup4\n        /* \"#utility.yul\":3899:3900   */\n      dup2\n        /* \"#utility.yul\":3896:3909   */\n      gt\n        /* \"#utility.yul\":3893:3994   */\n      iszero\n      tag_107\n      jumpi\n        /* \"#utility.yul\":3982:3983   */\n      0x00\n        /* \"#utility.yul\":3973:3979   */\n      dup5\n        /* \"#utility.yul\":3968:3971   */\n      dup5\n        /* \"#utility.yul\":3964:3980   */\n      add\n        /* \"#utility.yul\":3957:3984   */\n      mstore\n        /* \"#utility.yul\":3893:3994   */\n    tag_107:\n        /* \"#utility.yul\":3742:4000   */\n      pop\n        /* \"#utility.yul\":3693:4000   */\n      pop\n      pop\n      pop\n      jump\t// out\n        /* \"#utility.yul\":4006:4427   */\n    tag_49:\n        /* \"#utility.yul\":4095:4100   */\n      0x00\n        /* \"#utility.yul\":4120:4186   */\n      tag_109\n        /* \"#utility.yul\":4136:4185   */\n      tag_110\n        /* \"#utility.yul\":4178:4184   */\n      dup5\n        /* \"#utility.yul\":4136:4185   */\n      tag_47\n      jump\t// in\n    tag_110:\n        /* \"#utility.yul\":4120:4186   */\n      tag_46\n      jump\t// in\n    tag_109:\n        /* \"#utility.yul\":4111:4186   */\n      swap1\n      pop\n        /* \"#utility.yul\":4209:4215   */\n      dup3\n        /* \"#utility.yul\":4202:4207   */\n      dup2\n        /* \"#utility.yul\":4195:4216   */\n      mstore\n        /* \"#utility.yul\":4247:4251   */\n      0x20\n        /* \"#utility.yul\":4240:4245   */\n      dup2\n        /* \"#utility.yul\":4236:4252   */\n      add\n        /* \"#utility.yul\":4285:4288   */\n      dup5\n        /* \"#utility.yul\":4276:4282   */\n      dup5\n        /* \"#utility.yul\":4271:4274   */\n      dup5\n        /* \"#utility.yul\":4267:4283   */\n      add\n        /* \"#utility.yul\":4264:4289   */\n      gt\n        /* \"#utility.yul\":4261:4373   */\n      iszero\n      tag_111\n      jumpi\n        /* \"#utility.yul\":4292:4371   */\n      tag_112\n      tag_42\n      jump\t// in\n    tag_112:\n        /* \"#utility.yul\":4261:4373   */\n    tag_111:\n        /* \"#utility.yul\":4382:4421   */\n      tag_113\n        /* \"#utility.yul\":4414:4420   */\n      dup5\n        /* \"#utility.yul\":4409:4412   */\n      dup3\n        /* \"#utility.yul\":4404:4407   */\n      dup6\n        /* \"#utility.yul\":4382:4421   */\n      tag_48\n      jump\t// in\n    tag_113:\n        /* \"#utility.yul\":4101:4427   */\n      pop\n        /* \"#utility.yul\":4006:4427   */\n      swap4\n      swap3\n      pop\n      pop\n      pop\n      jump\t// out\n        /* \"#utility.yul\":4447:4802   */\n    tag_50:\n        /* \"#utility.yul\":4514:4519   */\n      0x00\n        /* \"#utility.yul\":4563:4566   */\n      dup3\n        /* \"#utility.yul\":4556:4560   */\n      0x1f\n        /* \"#utility.yul\":4548:4554   */\n      dup4\n        /* \"#utility.yul\":4544:4561   */\n      add\n        /* \"#utility.yul\":4540:4567   */\n      slt\n        /* \"#utility.yul\":4530:4652   */\n      tag_115\n      jumpi\n        /* \"#utility.yul\":4571:4650   */\n      tag_116\n      tag_41\n      jump\t// in\n    tag_116:\n        /* \"#utility.yul\":4530:4652   */\n    tag_115:\n        /* \"#utility.yul\":4681:4687   */\n      dup2\n        /* \"#utility.yul\":4675:4688   */\n      mload\n        /* \"#utility.yul\":4706:4796   */\n      tag_117\n        /* \"#utility.yul\":4792:4795   */\n      dup5\n        /* \"#utility.yul\":4784:4790   */\n      dup3\n        /* \"#utility.yul\":4777:4781   */\n      0x20\n        /* \"#utility.yul\":4769:4775   */\n      dup7\n        /* \"#utility.yul\":4765:4782   */\n      add\n        /* \"#utility.yul\":4706:4796   */\n      tag_49\n      jump\t// in\n    tag_117:\n        /* \"#utility.yul\":4697:4796   */\n      swap2\n      pop\n        /* \"#utility.yul\":4520:4802   */\n      pop\n        /* \"#utility.yul\":4447:4802   */\n      swap3\n      swap2\n      pop\n      pop\n      jump\t// out\n        /* \"#utility.yul\":4808:5332   */\n    tag_18:\n        /* \"#utility.yul\":4888:4894   */\n      0x00\n        /* \"#utility.yul\":4937:4939   */\n      0x20\n        /* \"#utility.yul\":4925:4934   */\n      dup3\n        /* \"#utility.yul\":4916:4923   */\n      dup5\n        /* \"#utility.yul\":4912:4935   */\n      sub\n        /* \"#utility.yul\":4908:4940   */\n      slt\n        /* \"#utility.yul\":4905:5024   */\n      iszero\n      tag_119\n      jumpi\n        /* \"#utility.yul\":4943:5022   */\n      tag_120\n      tag_35\n      jump\t// in\n    tag_120:\n        /* \"#utility.yul\":4905:5024   */\n    tag_119:\n        /* \"#utility.yul\":5084:5085   */\n      0x00\n        /* \"#utility.yul\":5073:5082   */\n      dup3\n        /* \"#utility.yul\":5069:5086   */\n      add\n        /* \"#utility.yul\":5063:5087   */\n      mload\n        /* \"#utility.yul\":5114:5132   */\n      0xffffffffffffffff\n        /* \"#utility.yul\":5106:5112   */\n      dup2\n        /* \"#utility.yul\":5103:5133   */\n      gt\n        /* \"#utility.yul\":5100:5217   */\n      iszero\n      tag_121\n      jumpi\n        /* \"#utility.yul\":5136:5215   */\n      tag_122\n      tag_36\n      jump\t// in\n    tag_122:\n        /* \"#utility.yul\":5100:5217   */\n    tag_121:\n        /* \"#utility.yul\":5241:5315   */\n      tag_123\n        /* \"#utility.yul\":5307:5314   */\n      dup5\n        /* \"#utility.yul\":5298:5304   */\n      dup3\n        /* \"#utility.yul\":5287:5296   */\n      dup6\n        /* \"#utility.yul\":5283:5305   */\n      add\n        /* \"#utility.yul\":5241:5315   */\n      tag_50\n      jump\t// in\n    tag_123:\n        /* \"#utility.yul\":5231:5315   */\n      swap2\n      pop\n        /* \"#utility.yul\":5034:5325   */\n      pop\n        /* \"#utility.yul\":4808:5332   */\n      swap3\n      swap2\n      pop\n      pop\n      jump\t// out\n        /* \"#utility.yul\":5338:5507   */\n    tag_51:\n        /* \"#utility.yul\":5422:5433   */\n      0x00\n        /* \"#utility.yul\":5456:5462   */\n      dup3\n        /* \"#utility.yul\":5451:5454   */\n      dup3\n        /* \"#utility.yul\":5444:5463   */\n      mstore\n        /* \"#utility.yul\":5496:5500   */\n      0x20\n        /* \"#utility.yul\":5491:5494   */\n      dup3\n        /* \"#utility.yul\":5487:5501   */\n      add\n        /* \"#utility.yul\":5472:5501   */\n      swap1\n      pop\n        /* \"#utility.yul\":5338:5507   */\n      swap3\n      swap2\n      pop\n      pop\n      jump\t// out\n        /* \"#utility.yul\":5513:5683   */\n    tag_52:\n        /* \"#utility.yul\":5653:5675   */\n      0x45787465726e616c2063616c6c204661696c6564000000000000000000000000\n        /* \"#utility.yul\":5649:5650   */\n      0x00\n        /* \"#utility.yul\":5641:5647   */\n      dup3\n        /* \"#utility.yul\":5637:5651   */\n      add\n        /* \"#utility.yul\":5630:5676   */\n      mstore\n        /* \"#utility.yul\":5513:5683   */\n      pop\n      jump\t// out\n        /* \"#utility.yul\":5689:6055   */\n    tag_53:\n        /* \"#utility.yul\":5831:5834   */\n      0x00\n        /* \"#utility.yul\":5852:5919   */\n      tag_127\n        /* \"#utility.yul\":5916:5918   */\n      0x14\n        /* \"#utility.yul\":5911:5914   */\n      dup4\n        /* \"#utility.yul\":5852:5919   */\n      tag_51\n      jump\t// in\n    tag_127:\n        /* \"#utility.yul\":5845:5919   */\n      swap2\n      pop\n        /* \"#utility.yul\":5928:6021   */\n      tag_128\n        /* \"#utility.yul\":6017:6020   */\n      dup3\n        /* \"#utility.yul\":5928:6021   */\n      tag_52\n      jump\t// in\n    tag_128:\n        /* \"#utility.yul\":6046:6048   */\n      0x20\n        /* \"#utility.yul\":6041:6044   */\n      dup3\n        /* \"#utility.yul\":6037:6049   */\n      add\n        /* \"#utility.yul\":6030:6049   */\n      swap1\n      pop\n        /* \"#utility.yul\":5689:6055   */\n      swap2\n      swap1\n      pop\n      jump\t// out\n        /* \"#utility.yul\":6061:6480   */\n    tag_24:\n        /* \"#utility.yul\":6227:6231   */\n      0x00\n        /* \"#utility.yul\":6265:6267   */\n      0x20\n        /* \"#utility.yul\":6254:6263   */\n      dup3\n        /* \"#utility.yul\":6250:6268   */\n      add\n        /* \"#utility.yul\":6242:6268   */\n      swap1\n      pop\n        /* \"#utility.yul\":6314:6323   */\n      dup2\n        /* \"#utility.yul\":6308:6312   */\n      dup2\n        /* \"#utility.yul\":6304:6324   */\n      sub\n        /* \"#utility.yul\":6300:6301   */\n      0x00\n        /* \"#utility.yul\":6289:6298   */\n      dup4\n        /* \"#utility.yul\":6285:6302   */\n      add\n        /* \"#utility.yul\":6278:6325   */\n      mstore\n        /* \"#utility.yul\":6342:6473   */\n      tag_130\n        /* \"#utility.yul\":6468:6472   */\n      dup2\n        /* \"#utility.yul\":6342:6473   */\n      tag_53\n      jump\t// in\n    tag_130:\n        /* \"#utility.yul\":6334:6473   */\n      swap1\n      pop\n        /* \"#utility.yul\":6061:6480   */\n      swap2\n      swap1\n      pop\n      jump\t// out\n        /* \"#utility.yul\":6486:6651   */\n    tag_54:\n        /* \"#utility.yul\":6626:6643   */\n      0x63616c6c207375636365737366756c0000000000000000000000000000000000\n        /* \"#utility.yul\":6622:6623   */\n      0x00\n        /* \"#utility.yul\":6614:6620   */\n      dup3\n        /* \"#utility.yul\":6610:6624   */\n      add\n        /* \"#utility.yul\":6603:6644   */\n      mstore\n        /* \"#utility.yul\":6486:6651   */\n      pop\n      jump\t// out\n        /* \"#utility.yul\":6657:7023   */\n    tag_55:\n        /* \"#utility.yul\":6799:6802   */\n      0x00\n        /* \"#utility.yul\":6820:6887   */\n      tag_133\n        /* \"#utility.yul\":6884:6886   */\n      0x0f\n        /* \"#utility.yul\":6879:6882   */\n      dup4\n        /* \"#utility.yul\":6820:6887   */\n      tag_51\n      jump\t// in\n    tag_133:\n        /* \"#utility.yul\":6813:6887   */\n      swap2\n      pop\n        /* \"#utility.yul\":6896:6989   */\n      tag_134\n        /* \"#utility.yul\":6985:6988   */\n      dup3\n        /* \"#utility.yul\":6896:6989   */\n      tag_54\n      jump\t// in\n    tag_134:\n        /* \"#utility.yul\":7014:7016   */\n      0x20\n        /* \"#utility.yul\":7009:7012   */\n      dup3\n        /* \"#utility.yul\":7005:7017   */\n      add\n        /* \"#utility.yul\":6998:7017   */\n      swap1\n      pop\n        /* \"#utility.yul\":6657:7023   */\n      swap2\n      swap1\n      pop\n      jump\t// out\n        /* \"#utility.yul\":7029:7448   */\n    tag_27:\n        /* \"#utility.yul\":7195:7199   */\n      0x00\n        /* \"#utility.yul\":7233:7235   */\n      0x20\n        /* \"#utility.yul\":7222:7231   */\n      dup3\n        /* \"#utility.yul\":7218:7236   */\n      add\n        /* \"#utility.yul\":7210:7236   */\n      swap1\n      pop\n        /* \"#utility.yul\":7282:7291   */\n      dup2\n        /* \"#utility.yul\":7276:7280   */\n      dup2\n        /* \"#utility.yul\":7272:7292   */\n      sub\n        /* \"#utility.yul\":7268:7269   */\n      0x00\n        /* \"#utility.yul\":7257:7266   */\n      dup4\n        /* \"#utility.yul\":7253:7270   */\n      add\n        /* \"#utility.yul\":7246:7293   */\n      mstore\n        /* \"#utility.yul\":7310:7441   */\n      tag_136\n        /* \"#utility.yul\":7436:7440   */\n      dup2\n        /* \"#utility.yul\":7310:7441   */\n      tag_55\n      jump\t// in\n    tag_136:\n        /* \"#utility.yul\":7302:7441   */\n      swap1\n      pop\n        /* \"#utility.yul\":7029:7448   */\n      swap2\n      swap1\n      pop\n      jump\t// out\n\n    auxdata: 0xa26469706673582212200982f2c0eadd9f3add1a52dac5a4f2faeb557b2c10b2967f98a046562c57419f64736f6c634300080e0033\n}\n\nsub_1: assembly {\n        /* \"solidity by example/tryandcatch.sol\":57:454  contract tester {... */\n      mstore(0x40, 0x80)\n        /* \"solidity by example/tryandcatch.sol\":106:292  constructor(address _owner){... */\n      callvalue\n      dup1\n      iszero\n      tag_1\n      jumpi\n      0x00\n      dup1\n      revert\n    tag_1:\n      pop\n      mload(0x40)\n      sub(codesize, bytecodeSize)\n      dup1\n      bytecodeSize\n      dup4\n      codecopy\n      dup2\n      dup2\n      add\n      0x40\n      mstore\n      dup2\n      add\n      swap1\n      tag_2\n      swap2\n      swap1\n      tag_3\n      jump\t// in\n    tag_2:\n        /* \"solidity by example/tryandcatch.sol\":169:170  0 */\n      0x00\n        /* \"solidity by example/tryandcatch.sol\":151:171  _owner != address(0) */\n      0xffffffffffffffffffffffffffffffffffffffff\n      and\n        /* \"solidity by example/tryandcatch.sol\":151:157  _owner */\n      dup2\n        /* \"solidity by example/tryandcatch.sol\":151:171  _owner != address(0) */\n      0xffffffffffffffffffffffffffffffffffffffff\n      and\n      sub\n        /* \"solidity by example/tryandcatch.sol\":143:191  require(_owner != address(0), \"invalid address\") */\n      tag_6\n      jumpi\n      mload(0x40)\n      0x08c379a000000000000000000000000000000000000000000000000000000000\n      dup2\n      mstore\n      0x04\n      add\n      tag_7\n      swap1\n      tag_8\n      jump\t// in\n    tag_7:\n      mload(0x40)\n      dup1\n      swap2\n      sub\n      swap1\n      revert\n    tag_6:\n        /* \"solidity by example/tryandcatch.sol\":218:260  0x0000000000000000000000000000000000000001 */\n      0x01\n        /* \"solidity by example/tryandcatch.sol\":208:260  _owner != 0x0000000000000000000000000000000000000001 */\n      0xffffffffffffffffffffffffffffffffffffffff\n      and\n        /* \"solidity by example/tryandcatch.sol\":208:214  _owner */\n      dup2\n        /* \"solidity by example/tryandcatch.sol\":208:260  _owner != 0x0000000000000000000000000000000000000001 */\n      0xffffffffffffffffffffffffffffffffffffffff\n      and\n      sub\n        /* \"solidity by example/tryandcatch.sol\":201:261  assert(_owner != 0x0000000000000000000000000000000000000001) */\n      tag_9\n      jumpi\n      tag_10\n      tag_11\n      jump\t// in\n    tag_10:\n    tag_9:\n        /* \"solidity by example/tryandcatch.sol\":279:285  _owner */\n      dup1\n        /* \"solidity by example/tryandcatch.sol\":271:276  owner */\n      0x00\n      dup1\n        /* \"solidity by example/tryandcatch.sol\":271:285  owner = _owner */\n      0x0100\n      exp\n      dup2\n      sload\n      dup2\n      0xffffffffffffffffffffffffffffffffffffffff\n      mul\n      not\n      and\n      swap1\n      dup4\n      0xffffffffffffffffffffffffffffffffffffffff\n      and\n      mul\n      or\n      swap1\n      sstore\n      pop\n        /* \"solidity by example/tryandcatch.sol\":106:292  constructor(address _owner){... */\n      pop\n        /* \"solidity by example/tryandcatch.sol\":57:454  contract tester {... */\n      jump(tag_12)\n        /* \"#utility.yul\":88:205   */\n    tag_14:\n        /* \"#utility.yul\":197:198   */\n      0x00\n        /* \"#utility.yul\":194:195   */\n      dup1\n        /* \"#utility.yul\":187:199   */\n      revert\n        /* \"#utility.yul\":334:460   */\n    tag_16:\n        /* \"#utility.yul\":371:378   */\n      0x00\n        /* \"#utility.yul\":411:453   */\n      0xffffffffffffffffffffffffffffffffffffffff\n        /* \"#utility.yul\":404:409   */\n      dup3\n        /* \"#utility.yul\":400:454   */\n      and\n        /* \"#utility.yul\":389:454   */\n      swap1\n      pop\n        /* \"#utility.yul\":334:460   */\n      swap2\n      swap1\n      pop\n      jump\t// out\n        /* \"#utility.yul\":466:562   */\n    tag_17:\n        /* \"#utility.yul\":503:510   */\n      0x00\n        /* \"#utility.yul\":532:556   */\n      tag_29\n        /* \"#utility.yul\":550:555   */\n      dup3\n        /* \"#utility.yul\":532:556   */\n      tag_16\n      jump\t// in\n    tag_29:\n        /* \"#utility.yul\":521:556   */\n      swap1\n      pop\n        /* \"#utility.yul\":466:562   */\n      swap2\n      swap1\n      pop\n      jump\t// out\n        /* \"#utility.yul\":568:690   */\n    tag_18:\n        /* \"#utility.yul\":641:665   */\n      tag_31\n        /* \"#utility.yul\":659:664   */\n      dup2\n        /* \"#utility.yul\":641:665   */\n      tag_17\n      jump\t// in\n    tag_31:\n        /* \"#utility.yul\":634:639   */\n      dup2\n        /* \"#utility.yul\":631:666   */\n      eq\n        /* \"#utility.yul\":621:684   */\n      tag_32\n      jumpi\n        /* \"#utility.yul\":680:681   */\n      0x00\n        /* \"#utility.yul\":677:678   */\n      dup1\n        /* \"#utility.yul\":670:682   */\n      revert\n        /* \"#utility.yul\":621:684   */\n    tag_32:\n        /* \"#utility.yul\":568:690   */\n      pop\n      jump\t// out\n        /* \"#utility.yul\":696:839   */\n    tag_19:\n        /* \"#utility.yul\":753:758   */\n      0x00\n        /* \"#utility.yul\":784:790   */\n      dup2\n        /* \"#utility.yul\":778:791   */\n      mload\n        /* \"#utility.yul\":769:791   */\n      swap1\n      pop\n        /* \"#utility.yul\":800:833   */\n      tag_34\n        /* \"#utility.yul\":827:832   */\n      dup2\n        /* \"#utility.yul\":800:833   */\n      tag_18\n      jump\t// in\n    tag_34:\n        /* \"#utility.yul\":696:839   */\n      swap3\n      swap2\n      pop\n      pop\n      jump\t// out\n        /* \"#utility.yul\":845:1196   */\n    tag_3:\n        /* \"#utility.yul\":915:921   */\n      0x00\n        /* \"#utility.yul\":964:966   */\n      0x20\n        /* \"#utility.yul\":952:961   */\n      dup3\n        /* \"#utility.yul\":943:950   */\n      dup5\n        /* \"#utility.yul\":939:962   */\n      sub\n        /* \"#utility.yul\":935:967   */\n      slt\n        /* \"#utility.yul\":932:1051   */\n      iszero\n      tag_36\n      jumpi\n        /* \"#utility.yul\":970:1049   */\n      tag_37\n      tag_14\n      jump\t// in\n    tag_37:\n        /* \"#utility.yul\":932:1051   */\n    tag_36:\n        /* \"#utility.yul\":1090:1091   */\n      0x00\n        /* \"#utility.yul\":1115:1179   */\n      tag_38\n        /* \"#utility.yul\":1171:1178   */\n      dup5\n        /* \"#utility.yul\":1162:1168   */\n      dup3\n        /* \"#utility.yul\":1151:1160   */\n      dup6\n        /* \"#utility.yul\":1147:1169   */\n      add\n        /* \"#utility.yul\":1115:1179   */\n      tag_19\n      jump\t// in\n    tag_38:\n        /* \"#utility.yul\":1105:1179   */\n      swap2\n      pop\n        /* \"#utility.yul\":1061:1189   */\n      pop\n        /* \"#utility.yul\":845:1196   */\n      swap3\n      swap2\n      pop\n      pop\n      jump\t// out\n        /* \"#utility.yul\":1202:1371   */\n    tag_20:\n        /* \"#utility.yul\":1286:1297   */\n      0x00\n        /* \"#utility.yul\":1320:1326   */\n      dup3\n        /* \"#utility.yul\":1315:1318   */\n      dup3\n        /* \"#utility.yul\":1308:1327   */\n      mstore\n        /* \"#utility.yul\":1360:1364   */\n      0x20\n        /* \"#utility.yul\":1355:1358   */\n      dup3\n        /* \"#utility.yul\":1351:1365   */\n      add\n        /* \"#utility.yul\":1336:1365   */\n      swap1\n      pop\n        /* \"#utility.yul\":1202:1371   */\n      swap3\n      swap2\n      pop\n      pop\n      jump\t// out\n        /* \"#utility.yul\":1377:1542   */\n    tag_21:\n        /* \"#utility.yul\":1517:1534   */\n      0x696e76616c696420616464726573730000000000000000000000000000000000\n        /* \"#utility.yul\":1513:1514   */\n      0x00\n        /* \"#utility.yul\":1505:1511   */\n      dup3\n        /* \"#utility.yul\":1501:1515   */\n      add\n        /* \"#utility.yul\":1494:1535   */\n      mstore\n        /* \"#utility.yul\":1377:1542   */\n      pop\n      jump\t// out\n        /* \"#utility.yul\":1548:1914   */\n    tag_22:\n        /* \"#utility.yul\":1690:1693   */\n      0x00\n        /* \"#utility.yul\":1711:1778   */\n      tag_42\n        /* \"#utility.yul\":1775:1777   */\n      0x0f\n        /* \"#utility.yul\":1770:1773   */\n      dup4\n        /* \"#utility.yul\":1711:1778   */\n      tag_20\n      jump\t// in\n    tag_42:\n        /* \"#utility.yul\":1704:1778   */\n      swap2\n      pop\n        /* \"#utility.yul\":1787:1880   */\n      tag_43\n        /* \"#utility.yul\":1876:1879   */\n      dup3\n        /* \"#utility.yul\":1787:1880   */\n      tag_21\n      jump\t// in\n    tag_43:\n        /* \"#utility.yul\":1905:1907   */\n      0x20\n        /* \"#utility.yul\":1900:1903   */\n      dup3\n        /* \"#utility.yul\":1896:1908   */\n      add\n        /* \"#utility.yul\":1889:1908   */\n      swap1\n      pop\n        /* \"#utility.yul\":1548:1914   */\n      swap2\n      swap1\n      pop\n      jump\t// out\n        /* \"#utility.yul\":1920:2339   */\n    tag_8:\n        /* \"#utility.yul\":2086:2090   */\n      0x00\n        /* \"#utility.yul\":2124:2126   */\n      0x20\n        /* \"#utility.yul\":2113:2122   */\n      dup3\n        /* \"#utility.yul\":2109:2127   */\n      add\n        /* \"#utility.yul\":2101:2127   */\n      swap1\n      pop\n        /* \"#utility.yul\":2173:2182   */\n      dup2\n        /* \"#utility.yul\":2167:2171   */\n      dup2\n        /* \"#utility.yul\":2163:2183   */\n      sub\n        /* \"#utility.yul\":2159:2160   */\n      0x00\n        /* \"#utility.yul\":2148:2157   */\n      dup4\n        /* \"#utility.yul\":2144:2161   */\n      add\n        /* \"#utility.yul\":2137:2184   */\n      mstore\n        /* \"#utility.yul\":2201:2332   */\n      tag_45\n        /* \"#utility.yul\":2327:2331   */\n      dup2\n        /* \"#utility.yul\":2201:2332   */\n      tag_22\n      jump\t// in\n    tag_45:\n        /* \"#utility.yul\":2193:2332   */\n      swap1\n      pop\n        /* \"#utility.yul\":1920:2339   */\n      swap2\n      swap1\n      pop\n      jump\t// out\n        /* \"#utility.yul\":2345:2525   */\n    tag_11:\n        /* \"#utility.yul\":2393:2470   */\n      0x4e487b7100000000000000000000000000000000000000000000000000000000\n        /* \"#utility.yul\":2390:2391   */\n      0x00\n        /* \"#utility.yul\":2383:2471   */\n      mstore\n        /* \"#utility.yul\":2490:2494   */\n      0x01\n        /* \"#utility.yul\":2487:2488   */\n      0x04\n        /* \"#utility.yul\":2480:2495   */\n      mstore\n        /* \"#utility.yul\":2514:2518   */\n      0x24\n        /* \"#utility.yul\":2511:2512   */\n      0x00\n        /* \"#utility.yul\":2504:2519   */\n      revert\n        /* \"solidity by example/tryandcatch.sol\":57:454  contract tester {... */\n    tag_12:\n      dataSize(sub_0)\n      dup1\n      dataOffset(sub_0)\n      0x00\n      codecopy\n      0x00\n      return\n    stop\n\n    sub_0: assembly {\n            /* \"solidity by example/tryandcatch.sol\":57:454  contract tester {... */\n          mstore(0x40, 0x80)\n          callvalue\n          dup1\n          iszero\n          tag_1\n          jumpi\n          0x00\n          dup1\n          revert\n        tag_1:\n          pop\n          jumpi(tag_2, lt(calldatasize, 0x04))\n          shr(0xe0, calldataload(0x00))\n          dup1\n          0x50628c96\n          eq\n          tag_3\n          jumpi\n          dup1\n          0x8da5cb5b\n          eq\n          tag_4\n          jumpi\n        tag_2:\n          0x00\n          dup1\n          revert\n            /* \"solidity by example/tryandcatch.sol\":298:452  function myFunction (uint x) public pure returns (string memory){... */\n        tag_3:\n          tag_5\n          0x04\n          dup1\n          calldatasize\n          sub\n          dup2\n          add\n          swap1\n          tag_6\n          swap2\n          swap1\n          tag_7\n          jump\t// in\n        tag_6:\n          tag_8\n          jump\t// in\n        tag_5:\n          mload(0x40)\n          tag_9\n          swap2\n          swap1\n          tag_10\n          jump\t// in\n        tag_9:\n          mload(0x40)\n          dup1\n          swap2\n          sub\n          swap1\n          return\n            /* \"solidity by example/tryandcatch.sol\":79:99  address public owner */\n        tag_4:\n          tag_11\n          tag_12\n          jump\t// in\n        tag_11:\n          mload(0x40)\n          tag_13\n          swap2\n          swap1\n          tag_14\n          jump\t// in\n        tag_13:\n          mload(0x40)\n          dup1\n          swap2\n          sub\n          swap1\n          return\n            /* \"solidity by example/tryandcatch.sol\":298:452  function myFunction (uint x) public pure returns (string memory){... */\n        tag_8:\n            /* \"solidity by example/tryandcatch.sol\":348:361  string memory */\n          0x60\n            /* \"solidity by example/tryandcatch.sol\":385:386  0 */\n          0x00\n            /* \"solidity by example/tryandcatch.sol\":380:381  x */\n          dup3\n            /* \"solidity by example/tryandcatch.sol\":380:386  x != 0 */\n          sub\n            /* \"solidity by example/tryandcatch.sol\":372:405  require(x != 0, \"require failed\") */\n          tag_16\n          jumpi\n          mload(0x40)\n          0x08c379a000000000000000000000000000000000000000000000000000000000\n          dup2\n          mstore\n          0x04\n          add\n          tag_17\n          swap1\n          tag_18\n          jump\t// in\n        tag_17:\n          mload(0x40)\n          dup1\n          swap2\n          sub\n          swap1\n          revert\n        tag_16:\n            /* \"solidity by example/tryandcatch.sol\":415:445  return \"myFunction was called\" */\n          mload(0x40)\n          dup1\n          0x40\n          add\n          0x40\n          mstore\n          dup1\n          0x15\n          dup2\n          mstore\n          0x20\n          add\n          0x6d7946756e6374696f6e207761732063616c6c65640000000000000000000000\n          dup2\n          mstore\n          pop\n          swap1\n          pop\n            /* \"solidity by example/tryandcatch.sol\":298:452  function myFunction (uint x) public pure returns (string memory){... */\n          swap2\n          swap1\n          pop\n          jump\t// out\n            /* \"solidity by example/tryandcatch.sol\":79:99  address public owner */\n        tag_12:\n          0x00\n          dup1\n          sload\n          swap1\n          0x0100\n          exp\n          swap1\n          div\n          0xffffffffffffffffffffffffffffffffffffffff\n          and\n          dup2\n          jump\t// out\n            /* \"#utility.yul\":88:205   */\n        tag_20:\n            /* \"#utility.yul\":197:198   */\n          0x00\n            /* \"#utility.yul\":194:195   */\n          dup1\n            /* \"#utility.yul\":187:199   */\n          revert\n            /* \"#utility.yul\":334:411   */\n        tag_22:\n            /* \"#utility.yul\":371:378   */\n          0x00\n            /* \"#utility.yul\":400:405   */\n          dup2\n            /* \"#utility.yul\":389:405   */\n          swap1\n          pop\n            /* \"#utility.yul\":334:411   */\n          swap2\n          swap1\n          pop\n          jump\t// out\n            /* \"#utility.yul\":417:539   */\n        tag_23:\n            /* \"#utility.yul\":490:514   */\n          tag_41\n            /* \"#utility.yul\":508:513   */\n          dup2\n            /* \"#utility.yul\":490:514   */\n          tag_22\n          jump\t// in\n        tag_41:\n            /* \"#utility.yul\":483:488   */\n          dup2\n            /* \"#utility.yul\":480:515   */\n          eq\n            /* \"#utility.yul\":470:533   */\n          tag_42\n          jumpi\n            /* \"#utility.yul\":529:530   */\n          0x00\n            /* \"#utility.yul\":526:527   */\n          dup1\n            /* \"#utility.yul\":519:531   */\n          revert\n            /* \"#utility.yul\":470:533   */\n        tag_42:\n            /* \"#utility.yul\":417:539   */\n          pop\n          jump\t// out\n            /* \"#utility.yul\":545:684   */\n        tag_24:\n            /* \"#utility.yul\":591:596   */\n          0x00\n            /* \"#utility.yul\":629:635   */\n          dup2\n            /* \"#utility.yul\":616:636   */\n          calldataload\n            /* \"#utility.yul\":607:636   */\n          swap1\n          pop\n            /* \"#utility.yul\":645:678   */\n          tag_44\n            /* \"#utility.yul\":672:677   */\n          dup2\n            /* \"#utility.yul\":645:678   */\n          tag_23\n          jump\t// in\n        tag_44:\n            /* \"#utility.yul\":545:684   */\n          swap3\n          swap2\n          pop\n          pop\n          jump\t// out\n            /* \"#utility.yul\":690:1019   */\n        tag_7:\n            /* \"#utility.yul\":749:755   */\n          0x00\n            /* \"#utility.yul\":798:800   */\n          0x20\n            /* \"#utility.yul\":786:795   */\n          dup3\n            /* \"#utility.yul\":777:784   */\n          dup5\n            /* \"#utility.yul\":773:796   */\n          sub\n            /* \"#utility.yul\":769:801   */\n          slt\n            /* \"#utility.yul\":766:885   */\n          iszero\n          tag_46\n          jumpi\n            /* \"#utility.yul\":804:883   */\n          tag_47\n          tag_20\n          jump\t// in\n        tag_47:\n            /* \"#utility.yul\":766:885   */\n        tag_46:\n            /* \"#utility.yul\":924:925   */\n          0x00\n            /* \"#utility.yul\":949:1002   */\n          tag_48\n            /* \"#utility.yul\":994:1001   */\n          dup5\n            /* \"#utility.yul\":985:991   */\n          dup3\n            /* \"#utility.yul\":974:983   */\n          dup6\n            /* \"#utility.yul\":970:992   */\n          add\n            /* \"#utility.yul\":949:1002   */\n          tag_24\n          jump\t// in\n        tag_48:\n            /* \"#utility.yul\":939:1002   */\n          swap2\n          pop\n            /* \"#utility.yul\":895:1012   */\n          pop\n            /* \"#utility.yul\":690:1019   */\n          swap3\n          swap2\n          pop\n          pop\n          jump\t// out\n            /* \"#utility.yul\":1025:1124   */\n        tag_25:\n            /* \"#utility.yul\":1077:1083   */\n          0x00\n            /* \"#utility.yul\":1111:1116   */\n          dup2\n            /* \"#utility.yul\":1105:1117   */\n          mload\n            /* \"#utility.yul\":1095:1117   */\n          swap1\n          pop\n            /* \"#utility.yul\":1025:1124   */\n          swap2\n          swap1\n          pop\n          jump\t// out\n            /* \"#utility.yul\":1130:1299   */\n        tag_26:\n            /* \"#utility.yul\":1214:1225   */\n          0x00\n            /* \"#utility.yul\":1248:1254   */\n          dup3\n            /* \"#utility.yul\":1243:1246   */\n          dup3\n            /* \"#utility.yul\":1236:1255   */\n          mstore\n            /* \"#utility.yul\":1288:1292   */\n          0x20\n            /* \"#utility.yul\":1283:1286   */\n          dup3\n            /* \"#utility.yul\":1279:1293   */\n          add\n            /* \"#utility.yul\":1264:1293   */\n          swap1\n          pop\n            /* \"#utility.yul\":1130:1299   */\n          swap3\n          swap2\n          pop\n          pop\n          jump\t// out\n            /* \"#utility.yul\":1305:1612   */\n        tag_27:\n            /* \"#utility.yul\":1373:1374   */\n          0x00\n            /* \"#utility.yul\":1383:1496   */\n        tag_52:\n            /* \"#utility.yul\":1397:1403   */\n          dup4\n            /* \"#utility.yul\":1394:1395   */\n          dup2\n            /* \"#utility.yul\":1391:1404   */\n          lt\n            /* \"#utility.yul\":1383:1496   */\n          iszero\n          tag_54\n          jumpi\n            /* \"#utility.yul\":1482:1483   */\n          dup1\n            /* \"#utility.yul\":1477:1480   */\n          dup3\n            /* \"#utility.yul\":1473:1484   */\n          add\n            /* \"#utility.yul\":1467:1485   */\n          mload\n            /* \"#utility.yul\":1463:1464   */\n          dup2\n            /* \"#utility.yul\":1458:1461   */\n          dup5\n            /* \"#utility.yul\":1454:1465   */\n          add\n            /* \"#utility.yul\":1447:1486   */\n          mstore\n            /* \"#utility.yul\":1419:1421   */\n          0x20\n            /* \"#utility.yul\":1416:1417   */\n          dup2\n            /* \"#utility.yul\":1412:1422   */\n          add\n            /* \"#utility.yul\":1407:1422   */\n          swap1\n          pop\n            /* \"#utility.yul\":1383:1496   */\n          jump(tag_52)\n        tag_54:\n            /* \"#utility.yul\":1514:1520   */\n          dup4\n            /* \"#utility.yul\":1511:1512   */\n          dup2\n            /* \"#utility.yul\":1508:1521   */\n          gt\n            /* \"#utility.yul\":1505:1606   */\n          iszero\n          tag_55\n          jumpi\n            /* \"#utility.yul\":1594:1595   */\n          0x00\n            /* \"#utility.yul\":1585:1591   */\n          dup5\n            /* \"#utility.yul\":1580:1583   */\n          dup5\n            /* \"#utility.yul\":1576:1592   */\n          add\n            /* \"#utility.yul\":1569:1596   */\n          mstore\n            /* \"#utility.yul\":1505:1606   */\n        tag_55:\n            /* \"#utility.yul\":1354:1612   */\n          pop\n            /* \"#utility.yul\":1305:1612   */\n          pop\n          pop\n          pop\n          jump\t// out\n            /* \"#utility.yul\":1618:1720   */\n        tag_28:\n            /* \"#utility.yul\":1659:1665   */\n          0x00\n            /* \"#utility.yul\":1710:1712   */\n          0x1f\n            /* \"#utility.yul\":1706:1713   */\n          not\n            /* \"#utility.yul\":1701:1703   */\n          0x1f\n            /* \"#utility.yul\":1694:1699   */\n          dup4\n            /* \"#utility.yul\":1690:1704   */\n          add\n            /* \"#utility.yul\":1686:1714   */\n          and\n            /* \"#utility.yul\":1676:1714   */\n          swap1\n          pop\n            /* \"#utility.yul\":1618:1720   */\n          swap2\n          swap1\n          pop\n          jump\t// out\n            /* \"#utility.yul\":1726:2090   */\n        tag_29:\n            /* \"#utility.yul\":1814:1817   */\n          0x00\n            /* \"#utility.yul\":1842:1881   */\n          tag_58\n            /* \"#utility.yul\":1875:1880   */\n          dup3\n            /* \"#utility.yul\":1842:1881   */\n          tag_25\n          jump\t// in\n        tag_58:\n            /* \"#utility.yul\":1897:1968   */\n          tag_59\n            /* \"#utility.yul\":1961:1967   */\n          dup2\n            /* \"#utility.yul\":1956:1959   */\n          dup6\n            /* \"#utility.yul\":1897:1968   */\n          tag_26\n          jump\t// in\n        tag_59:\n            /* \"#utility.yul\":1890:1968   */\n          swap4\n          pop\n            /* \"#utility.yul\":1977:2029   */\n          tag_60\n            /* \"#utility.yul\":2022:2028   */\n          dup2\n            /* \"#utility.yul\":2017:2020   */\n          dup6\n            /* \"#utility.yul\":2010:2014   */\n          0x20\n            /* \"#utility.yul\":2003:2008   */\n          dup7\n            /* \"#utility.yul\":1999:2015   */\n          add\n            /* \"#utility.yul\":1977:2029   */\n          tag_27\n          jump\t// in\n        tag_60:\n            /* \"#utility.yul\":2054:2083   */\n          tag_61\n            /* \"#utility.yul\":2076:2082   */\n          dup2\n            /* \"#utility.yul\":2054:2083   */\n          tag_28\n          jump\t// in\n        tag_61:\n            /* \"#utility.yul\":2049:2052   */\n          dup5\n            /* \"#utility.yul\":2045:2084   */\n          add\n            /* \"#utility.yul\":2038:2084   */\n          swap2\n          pop\n            /* \"#utility.yul\":1818:2090   */\n          pop\n            /* \"#utility.yul\":1726:2090   */\n          swap3\n          swap2\n          pop\n          pop\n          jump\t// out\n            /* \"#utility.yul\":2096:2409   */\n        tag_10:\n            /* \"#utility.yul\":2209:2213   */\n          0x00\n            /* \"#utility.yul\":2247:2249   */\n          0x20\n            /* \"#utility.yul\":2236:2245   */\n          dup3\n            /* \"#utility.yul\":2232:2250   */\n          add\n            /* \"#utility.yul\":2224:2250   */\n          swap1\n          pop\n            /* \"#utility.yul\":2296:2305   */\n          dup2\n            /* \"#utility.yul\":2290:2294   */\n          dup2\n            /* \"#utility.yul\":2286:2306   */\n          sub\n            /* \"#utility.yul\":2282:2283   */\n          0x00\n            /* \"#utility.yul\":2271:2280   */\n          dup4\n            /* \"#utility.yul\":2267:2284   */\n          add\n            /* \"#utility.yul\":2260:2307   */\n          mstore\n            /* \"#utility.yul\":2324:2402   */\n          tag_63\n            /* \"#utility.yul\":2397:2401   */\n          dup2\n            /* \"#utility.yul\":2388:2394   */\n          dup5\n            /* \"#utility.yul\":2324:2402   */\n          tag_29\n          jump\t// in\n        tag_63:\n            /* \"#utility.yul\":2316:2402   */\n          swap1\n          pop\n            /* \"#utility.yul\":2096:2409   */\n          swap3\n          swap2\n          pop\n          pop\n          jump\t// out\n            /* \"#utility.yul\":2415:2541   */\n        tag_30:\n            /* \"#utility.yul\":2452:2459   */\n          0x00\n            /* \"#utility.yul\":2492:2534   */\n          0xffffffffffffffffffffffffffffffffffffffff\n            /* \"#utility.yul\":2485:2490   */\n          dup3\n            /* \"#utility.yul\":2481:2535   */\n          and\n            /* \"#utility.yul\":2470:2535   */\n          swap1\n          pop\n            /* \"#utility.yul\":2415:2541   */\n          swap2\n          swap1\n          pop\n          jump\t// out\n            /* \"#utility.yul\":2547:2643   */\n        tag_31:\n            /* \"#utility.yul\":2584:2591   */\n          0x00\n            /* \"#utility.yul\":2613:2637   */\n          tag_66\n            /* \"#utility.yul\":2631:2636   */\n          dup3\n            /* \"#utility.yul\":2613:2637   */\n          tag_30\n          jump\t// in\n        tag_66:\n            /* \"#utility.yul\":2602:2637   */\n          swap1\n          pop\n            /* \"#utility.yul\":2547:2643   */\n          swap2\n          swap1\n          pop\n          jump\t// out\n            /* \"#utility.yul\":2649:2767   */\n        tag_32:\n            /* \"#utility.yul\":2736:2760   */\n          tag_68\n            /* \"#utility.yul\":2754:2759   */\n          dup2\n            /* \"#utility.yul\":2736:2760   */\n          tag_31\n          jump\t// in\n        tag_68:\n            /* \"#utility.yul\":2731:2734   */\n          dup3\n            /* \"#utility.yul\":2724:2761   */\n          mstore\n            /* \"#utility.yul\":2649:2767   */\n          pop\n          pop\n          jump\t// out\n            /* \"#utility.yul\":2773:2995   */\n        tag_14:\n            /* \"#utility.yul\":2866:2870   */\n          0x00\n            /* \"#utility.yul\":2904:2906   */\n          0x20\n            /* \"#utility.yul\":2893:2902   */\n          dup3\n            /* \"#utility.yul\":2889:2907   */\n          add\n            /* \"#utility.yul\":2881:2907   */\n          swap1\n          pop\n            /* \"#utility.yul\":2917:2988   */\n          tag_70\n            /* \"#utility.yul\":2985:2986   */\n          0x00\n            /* \"#utility.yul\":2974:2983   */\n          dup4\n            /* \"#utility.yul\":2970:2987   */\n          add\n            /* \"#utility.yul\":2961:2967   */\n          dup5\n            /* \"#utility.yul\":2917:2988   */\n          tag_32\n          jump\t// in\n        tag_70:\n            /* \"#utility.yul\":2773:2995   */\n          swap3\n          swap2\n          pop\n          pop\n          jump\t// out\n            /* \"#utility.yul\":3001:3165   */\n        tag_33:\n            /* \"#utility.yul\":3141:3157   */\n          0x72657175697265206661696c6564000000000000000000000000000000000000\n            /* \"#utility.yul\":3137:3138   */\n          0x00\n            /* \"#utility.yul\":3129:3135   */\n          dup3\n            /* \"#utility.yul\":3125:3139   */\n          add\n            /* \"#utility.yul\":3118:3158   */\n          mstore\n            /* \"#utility.yul\":3001:3165   */\n          pop\n          jump\t// out\n            /* \"#utility.yul\":3171:3537   */\n        tag_34:\n            /* \"#utility.yul\":3313:3316   */\n          0x00\n            /* \"#utility.yul\":3334:3401   */\n          tag_73\n            /* \"#utility.yul\":3398:3400   */\n          0x0e\n            /* \"#utility.yul\":3393:3396   */\n          dup4\n            /* \"#utility.yul\":3334:3401   */\n          tag_26\n          jump\t// in\n        tag_73:\n            /* \"#utility.yul\":3327:3401   */\n          swap2\n          pop\n            /* \"#utility.yul\":3410:3503   */\n          tag_74\n            /* \"#utility.yul\":3499:3502   */\n          dup3\n            /* \"#utility.yul\":3410:3503   */\n          tag_33\n          jump\t// in\n        tag_74:\n            /* \"#utility.yul\":3528:3530   */\n          0x20\n            /* \"#utility.yul\":3523:3526   */\n          dup3\n            /* \"#utility.yul\":3519:3531   */\n          add\n            /* \"#utility.yul\":3512:3531   */\n          swap1\n          pop\n            /* \"#utility.yul\":3171:3537   */\n          swap2\n          swap1\n          pop\n          jump\t// out\n            /* \"#utility.yul\":3543:3962   */\n        tag_18:\n            /* \"#utility.yul\":3709:3713   */\n          0x00\n            /* \"#utility.yul\":3747:3749   */\n          0x20\n            /* \"#utility.yul\":3736:3745   */\n          dup3\n            /* \"#utility.yul\":3732:3750   */\n          add\n            /* \"#utility.yul\":3724:3750   */\n          swap1\n          pop\n            /* \"#utility.yul\":3796:3805   */\n          dup2\n            /* \"#utility.yul\":3790:3794   */\n          dup2\n            /* \"#utility.yul\":3786:3806   */\n          sub\n            /* \"#utility.yul\":3782:3783   */\n          0x00\n            /* \"#utility.yul\":3771:3780   */\n          dup4\n            /* \"#utility.yul\":3767:3784   */\n          add\n            /* \"#utility.yul\":3760:3807   */\n          mstore\n            /* \"#utility.yul\":3824:3955   */\n          tag_76\n            /* \"#utility.yul\":3950:3954   */\n          dup2\n            /* \"#utility.yul\":3824:3955   */\n          tag_34\n          jump\t// in\n        tag_76:\n            /* \"#utility.yul\":3816:3955   */\n          swap1\n          pop\n            /* \"#utility.yul\":3543:3962   */\n          swap2\n          swap1\n          pop\n          jump\t// out\n\n        auxdata: 0xa2646970667358221220405757e32d4005983ce9d1822d7261afc763ac3b51cf9cf4a300cb0c8748306c64736f6c634300080e0033\n    }\n}\n",
				"bytecode": {
					"linkReferences": {},
					"object": "608060405234801561001057600080fd5b503360405161001e90610089565b61002891906100d7565b604051809103906000f080158015610044573d6000803e3d6000fd5b506000806101000a81548173ffffffffffffffffffffffffffffffffffffffff021916908373ffffffffffffffffffffffffffffffffffffffff1602179055506100f2565b6105bf806106b783390190565b600073ffffffffffffffffffffffffffffffffffffffff82169050919050565b60006100c182610096565b9050919050565b6100d1816100b6565b82525050565b60006020820190506100ec60008301846100c8565b92915050565b6105b6806101016000396000f3fe608060405234801561001057600080fd5b50600436106100365760003560e01c8063614619541461003b57806376f5449f14610059575b600080fd5b610043610075565b6040516100509190610228565b60405180910390f35b610073600480360381019061006e919061028d565b610099565b005b60008054906101000a900473ffffffffffffffffffffffffffffffffffffffff1681565b60008054906101000a900473ffffffffffffffffffffffffffffffffffffffff1673ffffffffffffffffffffffffffffffffffffffff166350628c96826040518263ffffffff1660e01b81526004016100f291906102c9565b600060405180830381865afa92505050801561013157506040513d6000823e3d601f19601f8201168201806040525081019061012e919061044e565b60015b61016f577f7c990052ff7017db6da0c658c0fe7be85f832d1995d7c93f87bf7fd4f8fa711d604051610162906104f4565b60405180910390a16101a6565b7f7c990052ff7017db6da0c658c0fe7be85f832d1995d7c93f87bf7fd4f8fa711d60405161019c90610560565b60405180910390a1505b50565b600073ffffffffffffffffffffffffffffffffffffffff82169050919050565b6000819050919050565b60006101ee6101e96101e4846101a9565b6101c9565b6101a9565b9050919050565b6000610200826101d3565b9050919050565b6000610212826101f5565b9050919050565b61022281610207565b82525050565b600060208201905061023d6000830184610219565b92915050565b6000604051905090565b600080fd5b600080fd5b6000819050919050565b61026a81610257565b811461027557600080fd5b50565b60008135905061028781610261565b92915050565b6000602082840312156102a3576102a261024d565b5b60006102b184828501610278565b91505092915050565b6102c381610257565b82525050565b60006020820190506102de60008301846102ba565b92915050565b600080fd5b600080fd5b6000601f19601f8301169050919050565b7f4e487b7100000000000000000000000000000000000000000000000000000000600052604160045260246000fd5b610337826102ee565b810181811067ffffffffffffffff82111715610356576103556102ff565b5b80604052505050565b6000610369610243565b9050610375828261032e565b919050565b600067ffffffffffffffff821115610395576103946102ff565b5b61039e826102ee565b9050602081019050919050565b60005b838110156103c95780820151818401526020810190506103ae565b838111156103d8576000848401525b50505050565b60006103f16103ec8461037a565b61035f565b90508281526020810184848401111561040d5761040c6102e9565b5b6104188482856103ab565b509392505050565b600082601f830112610435576104346102e4565b5b81516104458482602086016103de565b91505092915050565b6000602082840312156104645761046361024d565b5b600082015167ffffffffffffffff81111561048257610481610252565b5b61048e84828501610420565b91505092915050565b600082825260208201905092915050565b7f45787465726e616c2063616c6c204661696c6564000000000000000000000000600082015250565b60006104de601483610497565b91506104e9826104a8565b602082019050919050565b6000602082019050818103600083015261050d816104d1565b9050919050565b7f63616c6c207375636365737366756c0000000000000000000000000000000000600082015250565b600061054a600f83610497565b915061055582610514565b602082019050919050565b600060208201905081810360008301526105798161053d565b905091905056fea26469706673582212200982f2c0eadd9f3add1a52dac5a4f2faeb557b2c10b2967f98a046562c57419f64736f6c634300080e0033608060405234801561001057600080fd5b506040516105bf3803806105bf83398181016040528101906100329190610187565b600073ffffffffffffffffffffffffffffffffffffffff168173ffffffffffffffffffffffffffffffffffffffff16036100a1576040517f08c379a000000000000000000000000000000000000000000000000000000000815260040161009890610211565b60405180910390fd5b600173ffffffffffffffffffffffffffffffffffffffff168173ffffffffffffffffffffffffffffffffffffffff16036100de576100dd610231565b5b806000806101000a81548173ffffffffffffffffffffffffffffffffffffffff021916908373ffffffffffffffffffffffffffffffffffffffff16021790555050610260565b600080fd5b600073ffffffffffffffffffffffffffffffffffffffff82169050919050565b600061015482610129565b9050919050565b61016481610149565b811461016f57600080fd5b50565b6000815190506101818161015b565b92915050565b60006020828403121561019d5761019c610124565b5b60006101ab84828501610172565b91505092915050565b600082825260208201905092915050565b7f696e76616c696420616464726573730000000000000000000000000000000000600082015250565b60006101fb600f836101b4565b9150610206826101c5565b602082019050919050565b6000602082019050818103600083015261022a816101ee565b9050919050565b7f4e487b7100000000000000000000000000000000000000000000000000000000600052600160045260246000fd5b6103508061026f6000396000f3fe608060405234801561001057600080fd5b50600436106100365760003560e01c806350628c961461003b5780638da5cb5b1461006b575b600080fd5b6100556004803603810190610050919061016a565b610089565b6040516100629190610230565b60405180910390f35b61007361010b565b6040516100809190610293565b60405180910390f35b6060600082036100ce576040517f08c379a00000000000000000000000000000000000000000000000000000000081526004016100c5906102fa565b60405180910390fd5b6040518060400160405280601581526020017f6d7946756e6374696f6e207761732063616c6c656400000000000000000000008152509050919050565b60008054906101000a900473ffffffffffffffffffffffffffffffffffffffff1681565b600080fd5b6000819050919050565b61014781610134565b811461015257600080fd5b50565b6000813590506101648161013e565b92915050565b6000602082840312156101805761017f61012f565b5b600061018e84828501610155565b91505092915050565b600081519050919050565b600082825260208201905092915050565b60005b838110156101d15780820151818401526020810190506101b6565b838111156101e0576000848401525b50505050565b6000601f19601f8301169050919050565b600061020282610197565b61020c81856101a2565b935061021c8185602086016101b3565b610225816101e6565b840191505092915050565b6000602082019050818103600083015261024a81846101f7565b905092915050565b600073ffffffffffffffffffffffffffffffffffffffff82169050919050565b600061027d82610252565b9050919050565b61028d81610272565b82525050565b60006020820190506102a86000830184610284565b92915050565b7f72657175697265206661696c6564000000000000000000000000000000000000600082015250565b60006102e4600e836101a2565b91506102ef826102ae565b602082019050919050565b60006020820190508181036000830152610313816102d7565b905091905056fea2646970667358221220405757e32d4005983ce9d1822d7261afc763ac3b51cf9cf4a300cb0c8748306c64736f6c634300080e0033",
					"opcodes": "PUSH1 0x80 PUSH1 0x40 MSTORE CALLVALUE DUP1 ISZERO PUSH2 0x10 JUMPI PUSH1 0x0 DUP1 REVERT JUMPDEST POP CALLER PUSH1 0x40 MLOAD PUSH2 0x1E SWAP1 PUSH2 0x89 JUMP JUMPDEST PUSH2 0x28 SWAP2 SWAP1 PUSH2 0xD7 JUMP JUMPDEST PUSH1 0x40 MLOAD DUP1 SWAP2 SUB SWAP1 PUSH1 0x0 CREATE DUP1 ISZERO DUP1 ISZERO PUSH2 0x44 JUMPI RETURNDATASIZE PUSH1 0x0 DUP1 RETURNDATACOPY RETURNDATASIZE PUSH1 0x0 REVERT JUMPDEST POP PUSH1 0x0 DUP1 PUSH2 0x100 EXP DUP2 SLOAD DUP2 PUSH20 0xFFFFFFFFFFFFFFFFFFFFFFFFFFFFFFFFFFFFFFFF MUL NOT AND SWAP1 DUP4 PUSH20 0xFFFFFFFFFFFFFFFFFFFFFFFFFFFFFFFFFFFFFFFF AND MUL OR SWAP1 SSTORE POP PUSH2 0xF2 JUMP JUMPDEST PUSH2 0x5BF DUP1 PUSH2 0x6B7 DUP4 CODECOPY ADD SWAP1 JUMP JUMPDEST PUSH1 0x0 PUSH20 0xFFFFFFFFFFFFFFFFFFFFFFFFFFFFFFFFFFFFFFFF DUP3 AND SWAP1 POP SWAP2 SWAP1 POP JUMP JUMPDEST PUSH1 0x0 PUSH2 0xC1 DUP3 PUSH2 0x96 JUMP JUMPDEST SWAP1 POP SWAP2 SWAP1 POP JUMP JUMPDEST PUSH2 0xD1 DUP2 PUSH2 0xB6 JUMP JUMPDEST DUP3 MSTORE POP POP JUMP JUMPDEST PUSH1 0x0 PUSH1 0x20 DUP3 ADD SWAP1 POP PUSH2 0xEC PUSH1 0x0 DUP4 ADD DUP5 PUSH2 0xC8 JUMP JUMPDEST SWAP3 SWAP2 POP POP JUMP JUMPDEST PUSH2 0x5B6 DUP1 PUSH2 0x101 PUSH1 0x0 CODECOPY PUSH1 0x0 RETURN INVALID PUSH1 0x80 PUSH1 0x40 MSTORE CALLVALUE DUP1 ISZERO PUSH2 0x10 JUMPI PUSH1 0x0 DUP1 REVERT JUMPDEST POP PUSH1 0x4 CALLDATASIZE LT PUSH2 0x36 JUMPI PUSH1 0x0 CALLDATALOAD PUSH1 0xE0 SHR DUP1 PUSH4 0x61461954 EQ PUSH2 0x3B JUMPI DUP1 PUSH4 0x76F5449F EQ PUSH2 0x59 JUMPI JUMPDEST PUSH1 0x0 DUP1 REVERT JUMPDEST PUSH2 0x43 PUSH2 0x75 JUMP JUMPDEST PUSH1 0x40 MLOAD PUSH2 0x50 SWAP2 SWAP1 PUSH2 0x228 JUMP JUMPDEST PUSH1 0x40 MLOAD DUP1 SWAP2 SUB SWAP1 RETURN JUMPDEST PUSH2 0x73 PUSH1 0x4 DUP1 CALLDATASIZE SUB DUP2 ADD SWAP1 PUSH2 0x6E SWAP2 SWAP1 PUSH2 0x28D JUMP JUMPDEST PUSH2 0x99 JUMP JUMPDEST STOP JUMPDEST PUSH1 0x0 DUP1 SLOAD SWAP1 PUSH2 0x100 EXP SWAP1 DIV PUSH20 0xFFFFFFFFFFFFFFFFFFFFFFFFFFFFFFFFFFFFFFFF AND DUP2 JUMP JUMPDEST PUSH1 0x0 DUP1 SLOAD SWAP1 PUSH2 0x100 EXP SWAP1 DIV PUSH20 0xFFFFFFFFFFFFFFFFFFFFFFFFFFFFFFFFFFFFFFFF AND PUSH20 0xFFFFFFFFFFFFFFFFFFFFFFFFFFFFFFFFFFFFFFFF AND PUSH4 0x50628C96 DUP3 PUSH1 0x40 MLOAD DUP3 PUSH4 0xFFFFFFFF AND PUSH1 0xE0 SHL DUP2 MSTORE PUSH1 0x4 ADD PUSH2 0xF2 SWAP2 SWAP1 PUSH2 0x2C9 JUMP JUMPDEST PUSH1 0x0 PUSH1 0x40 MLOAD DUP1 DUP4 SUB DUP2 DUP7 GAS STATICCALL SWAP3 POP POP POP DUP1 ISZERO PUSH2 0x131 JUMPI POP PUSH1 0x40 MLOAD RETURNDATASIZE PUSH1 0x0 DUP3 RETURNDATACOPY RETURNDATASIZE PUSH1 0x1F NOT PUSH1 0x1F DUP3 ADD AND DUP3 ADD DUP1 PUSH1 0x40 MSTORE POP DUP2 ADD SWAP1 PUSH2 0x12E SWAP2 SWAP1 PUSH2 0x44E JUMP JUMPDEST PUSH1 0x1 JUMPDEST PUSH2 0x16F JUMPI PUSH32 0x7C990052FF7017DB6DA0C658C0FE7BE85F832D1995D7C93F87BF7FD4F8FA711D PUSH1 0x40 MLOAD PUSH2 0x162 SWAP1 PUSH2 0x4F4 JUMP JUMPDEST PUSH1 0x40 MLOAD DUP1 SWAP2 SUB SWAP1 LOG1 PUSH2 0x1A6 JUMP JUMPDEST PUSH32 0x7C990052FF7017DB6DA0C658C0FE7BE85F832D1995D7C93F87BF7FD4F8FA711D PUSH1 0x40 MLOAD PUSH2 0x19C SWAP1 PUSH2 0x560 JUMP JUMPDEST PUSH1 0x40 MLOAD DUP1 SWAP2 SUB SWAP1 LOG1 POP JUMPDEST POP JUMP JUMPDEST PUSH1 0x0 PUSH20 0xFFFFFFFFFFFFFFFFFFFFFFFFFFFFFFFFFFFFFFFF DUP3 AND SWAP1 POP SWAP2 SWAP1 POP JUMP JUMPDEST PUSH1 0x0 DUP2 SWAP1 POP SWAP2 SWAP1 POP JUMP JUMPDEST PUSH1 0x0 PUSH2 0x1EE PUSH2 0x1E9 PUSH2 0x1E4 DUP5 PUSH2 0x1A9 JUMP JUMPDEST PUSH2 0x1C9 JUMP JUMPDEST PUSH2 0x1A9 JUMP JUMPDEST SWAP1 POP SWAP2 SWAP1 POP JUMP JUMPDEST PUSH1 0x0 PUSH2 0x200 DUP3 PUSH2 0x1D3 JUMP JUMPDEST SWAP1 POP SWAP2 SWAP1 POP JUMP JUMPDEST PUSH1 0x0 PUSH2 0x212 DUP3 PUSH2 0x1F5 JUMP JUMPDEST SWAP1 POP SWAP2 SWAP1 POP JUMP JUMPDEST PUSH2 0x222 DUP2 PUSH2 0x207 JUMP JUMPDEST DUP3 MSTORE POP POP JUMP JUMPDEST PUSH1 0x0 PUSH1 0x20 DUP3 ADD SWAP1 POP PUSH2 0x23D PUSH1 0x0 DUP4 ADD DUP5 PUSH2 0x219 JUMP JUMPDEST SWAP3 SWAP2 POP POP JUMP JUMPDEST PUSH1 0x0 PUSH1 0x40 MLOAD SWAP1 POP SWAP1 JUMP JUMPDEST PUSH1 0x0 DUP1 REVERT JUMPDEST PUSH1 0x0 DUP1 REVERT JUMPDEST PUSH1 0x0 DUP2 SWAP1 POP SWAP2 SWAP1 POP JUMP JUMPDEST PUSH2 0x26A DUP2 PUSH2 0x257 JUMP JUMPDEST DUP2 EQ PUSH2 0x275 JUMPI PUSH1 0x0 DUP1 REVERT JUMPDEST POP JUMP JUMPDEST PUSH1 0x0 DUP2 CALLDATALOAD SWAP1 POP PUSH2 0x287 DUP2 PUSH2 0x261 JUMP JUMPDEST SWAP3 SWAP2 POP POP JUMP JUMPDEST PUSH1 0x0 PUSH1 0x20 DUP3 DUP5 SUB SLT ISZERO PUSH2 0x2A3 JUMPI PUSH2 0x2A2 PUSH2 0x24D JUMP JUMPDEST JUMPDEST PUSH1 0x0 PUSH2 0x2B1 DUP5 DUP3 DUP6 ADD PUSH2 0x278 JUMP JUMPDEST SWAP2 POP POP SWAP3 SWAP2 POP POP JUMP JUMPDEST PUSH2 0x2C3 DUP2 PUSH2 0x257 JUMP JUMPDEST DUP3 MSTORE POP POP JUMP JUMPDEST PUSH1 0x0 PUSH1 0x20 DUP3 ADD SWAP1 POP PUSH2 0x2DE PUSH1 0x0 DUP4 ADD DUP5 PUSH2 0x2BA JUMP JUMPDEST SWAP3 SWAP2 POP POP JUMP JUMPDEST PUSH1 0x0 DUP1 REVERT JUMPDEST PUSH1 0x0 DUP1 REVERT JUMPDEST PUSH1 0x0 PUSH1 0x1F NOT PUSH1 0x1F DUP4 ADD AND SWAP1 POP SWAP2 SWAP1 POP JUMP JUMPDEST PUSH32 0x4E487B7100000000000000000000000000000000000000000000000000000000 PUSH1 0x0 MSTORE PUSH1 0x41 PUSH1 0x4 MSTORE PUSH1 0x24 PUSH1 0x0 REVERT JUMPDEST PUSH2 0x337 DUP3 PUSH2 0x2EE JUMP JUMPDEST DUP2 ADD DUP2 DUP2 LT PUSH8 0xFFFFFFFFFFFFFFFF DUP3 GT OR ISZERO PUSH2 0x356 JUMPI PUSH2 0x355 PUSH2 0x2FF JUMP JUMPDEST JUMPDEST DUP1 PUSH1 0x40 MSTORE POP POP POP JUMP JUMPDEST PUSH1 0x0 PUSH2 0x369 PUSH2 0x243 JUMP JUMPDEST SWAP1 POP PUSH2 0x375 DUP3 DUP3 PUSH2 0x32E JUMP JUMPDEST SWAP2 SWAP1 POP JUMP JUMPDEST PUSH1 0x0 PUSH8 0xFFFFFFFFFFFFFFFF DUP3 GT ISZERO PUSH2 0x395 JUMPI PUSH2 0x394 PUSH2 0x2FF JUMP JUMPDEST JUMPDEST PUSH2 0x39E DUP3 PUSH2 0x2EE JUMP JUMPDEST SWAP1 POP PUSH1 0x20 DUP2 ADD SWAP1 POP SWAP2 SWAP1 POP JUMP JUMPDEST PUSH1 0x0 JUMPDEST DUP4 DUP2 LT ISZERO PUSH2 0x3C9 JUMPI DUP1 DUP3 ADD MLOAD DUP2 DUP5 ADD MSTORE PUSH1 0x20 DUP2 ADD SWAP1 POP PUSH2 0x3AE JUMP JUMPDEST DUP4 DUP2 GT ISZERO PUSH2 0x3D8 JUMPI PUSH1 0x0 DUP5 DUP5 ADD MSTORE JUMPDEST POP POP POP POP JUMP JUMPDEST PUSH1 0x0 PUSH2 0x3F1 PUSH2 0x3EC DUP5 PUSH2 0x37A JUMP JUMPDEST PUSH2 0x35F JUMP JUMPDEST SWAP1 POP DUP3 DUP2 MSTORE PUSH1 0x20 DUP2 ADD DUP5 DUP5 DUP5 ADD GT ISZERO PUSH2 0x40D JUMPI PUSH2 0x40C PUSH2 0x2E9 JUMP JUMPDEST JUMPDEST PUSH2 0x418 DUP5 DUP3 DUP6 PUSH2 0x3AB JUMP JUMPDEST POP SWAP4 SWAP3 POP POP POP JUMP JUMPDEST PUSH1 0x0 DUP3 PUSH1 0x1F DUP4 ADD SLT PUSH2 0x435 JUMPI PUSH2 0x434 PUSH2 0x2E4 JUMP JUMPDEST JUMPDEST DUP2 MLOAD PUSH2 0x445 DUP5 DUP3 PUSH1 0x20 DUP7 ADD PUSH2 0x3DE JUMP JUMPDEST SWAP2 POP POP SWAP3 SWAP2 POP POP JUMP JUMPDEST PUSH1 0x0 PUSH1 0x20 DUP3 DUP5 SUB SLT ISZERO PUSH2 0x464 JUMPI PUSH2 0x463 PUSH2 0x24D JUMP JUMPDEST JUMPDEST PUSH1 0x0 DUP3 ADD MLOAD PUSH8 0xFFFFFFFFFFFFFFFF DUP2 GT ISZERO PUSH2 0x482 JUMPI PUSH2 0x481 PUSH2 0x252 JUMP JUMPDEST JUMPDEST PUSH2 0x48E DUP5 DUP3 DUP6 ADD PUSH2 0x420 JUMP JUMPDEST SWAP2 POP POP SWAP3 SWAP2 POP POP JUMP JUMPDEST PUSH1 0x0 DUP3 DUP3 MSTORE PUSH1 0x20 DUP3 ADD SWAP1 POP SWAP3 SWAP2 POP POP JUMP JUMPDEST PUSH32 0x45787465726E616C2063616C6C204661696C6564000000000000000000000000 PUSH1 0x0 DUP3 ADD MSTORE POP JUMP JUMPDEST PUSH1 0x0 PUSH2 0x4DE PUSH1 0x14 DUP4 PUSH2 0x497 JUMP JUMPDEST SWAP2 POP PUSH2 0x4E9 DUP3 PUSH2 0x4A8 JUMP JUMPDEST PUSH1 0x20 DUP3 ADD SWAP1 POP SWAP2 SWAP1 POP JUMP JUMPDEST PUSH1 0x0 PUSH1 0x20 DUP3 ADD SWAP1 POP DUP2 DUP2 SUB PUSH1 0x0 DUP4 ADD MSTORE PUSH2 0x50D DUP2 PUSH2 0x4D1 JUMP JUMPDEST SWAP1 POP SWAP2 SWAP1 POP JUMP JUMPDEST PUSH32 0x63616C6C207375636365737366756C0000000000000000000000000000000000 PUSH1 0x0 DUP3 ADD MSTORE POP JUMP JUMPDEST PUSH1 0x0 PUSH2 0x54A PUSH1 0xF DUP4 PUSH2 0x497 JUMP JUMPDEST SWAP2 POP PUSH2 0x555 DUP3 PUSH2 0x514 JUMP JUMPDEST PUSH1 0x20 DUP3 ADD SWAP1 POP SWAP2 SWAP1 POP JUMP JUMPDEST PUSH1 0x0 PUSH1 0x20 DUP3 ADD SWAP1 POP DUP2 DUP2 SUB PUSH1 0x0 DUP4 ADD MSTORE PUSH2 0x579 DUP2 PUSH2 0x53D JUMP JUMPDEST SWAP1 POP SWAP2 SWAP1 POP JUMP INVALID LOG2 PUSH5 0x6970667358 0x22 SLT KECCAK256 MULMOD DUP3 CALLCODE 0xC0 0xEA 0xDD SWAP16 GASPRICE 0xDD BYTE MSTORE 0xDA 0xC5 LOG4 CALLCODE STATICCALL 0xEB SSTORE PUSH28 0x2C10B2967F98A046562C57419F64736F6C634300080E003360806040 MSTORE CALLVALUE DUP1 ISZERO PUSH2 0x10 JUMPI PUSH1 0x0 DUP1 REVERT JUMPDEST POP PUSH1 0x40 MLOAD PUSH2 0x5BF CODESIZE SUB DUP1 PUSH2 0x5BF DUP4 CODECOPY DUP2 DUP2 ADD PUSH1 0x40 MSTORE DUP2 ADD SWAP1 PUSH2 0x32 SWAP2 SWAP1 PUSH2 0x187 JUMP JUMPDEST PUSH1 0x0 PUSH20 0xFFFFFFFFFFFFFFFFFFFFFFFFFFFFFFFFFFFFFFFF AND DUP2 PUSH20 0xFFFFFFFFFFFFFFFFFFFFFFFFFFFFFFFFFFFFFFFF AND SUB PUSH2 0xA1 JUMPI PUSH1 0x40 MLOAD PUSH32 0x8C379A000000000000000000000000000000000000000000000000000000000 DUP2 MSTORE PUSH1 0x4 ADD PUSH2 0x98 SWAP1 PUSH2 0x211 JUMP JUMPDEST PUSH1 0x40 MLOAD DUP1 SWAP2 SUB SWAP1 REVERT JUMPDEST PUSH1 0x1 PUSH20 0xFFFFFFFFFFFFFFFFFFFFFFFFFFFFFFFFFFFFFFFF AND DUP2 PUSH20 0xFFFFFFFFFFFFFFFFFFFFFFFFFFFFFFFFFFFFFFFF AND SUB PUSH2 0xDE JUMPI PUSH2 0xDD PUSH2 0x231 JUMP JUMPDEST JUMPDEST DUP1 PUSH1 0x0 DUP1 PUSH2 0x100 EXP DUP2 SLOAD DUP2 PUSH20 0xFFFFFFFFFFFFFFFFFFFFFFFFFFFFFFFFFFFFFFFF MUL NOT AND SWAP1 DUP4 PUSH20 0xFFFFFFFFFFFFFFFFFFFFFFFFFFFFFFFFFFFFFFFF AND MUL OR SWAP1 SSTORE POP POP PUSH2 0x260 JUMP JUMPDEST PUSH1 0x0 DUP1 REVERT JUMPDEST PUSH1 0x0 PUSH20 0xFFFFFFFFFFFFFFFFFFFFFFFFFFFFFFFFFFFFFFFF DUP3 AND SWAP1 POP SWAP2 SWAP1 POP JUMP JUMPDEST PUSH1 0x0 PUSH2 0x154 DUP3 PUSH2 0x129 JUMP JUMPDEST SWAP1 POP SWAP2 SWAP1 POP JUMP JUMPDEST PUSH2 0x164 DUP2 PUSH2 0x149 JUMP JUMPDEST DUP2 EQ PUSH2 0x16F JUMPI PUSH1 0x0 DUP1 REVERT JUMPDEST POP JUMP JUMPDEST PUSH1 0x0 DUP2 MLOAD SWAP1 POP PUSH2 0x181 DUP2 PUSH2 0x15B JUMP JUMPDEST SWAP3 SWAP2 POP POP JUMP JUMPDEST PUSH1 0x0 PUSH1 0x20 DUP3 DUP5 SUB SLT ISZERO PUSH2 0x19D JUMPI PUSH2 0x19C PUSH2 0x124 JUMP JUMPDEST JUMPDEST PUSH1 0x0 PUSH2 0x1AB DUP5 DUP3 DUP6 ADD PUSH2 0x172 JUMP JUMPDEST SWAP2 POP POP SWAP3 SWAP2 POP POP JUMP JUMPDEST PUSH1 0x0 DUP3 DUP3 MSTORE PUSH1 0x20 DUP3 ADD SWAP1 POP SWAP3 SWAP2 POP POP JUMP JUMPDEST PUSH32 0x696E76616C696420616464726573730000000000000000000000000000000000 PUSH1 0x0 DUP3 ADD MSTORE POP JUMP JUMPDEST PUSH1 0x0 PUSH2 0x1FB PUSH1 0xF DUP4 PUSH2 0x1B4 JUMP JUMPDEST SWAP2 POP PUSH2 0x206 DUP3 PUSH2 0x1C5 JUMP JUMPDEST PUSH1 0x20 DUP3 ADD SWAP1 POP SWAP2 SWAP1 POP JUMP JUMPDEST PUSH1 0x0 PUSH1 0x20 DUP3 ADD SWAP1 POP DUP2 DUP2 SUB PUSH1 0x0 DUP4 ADD MSTORE PUSH2 0x22A DUP2 PUSH2 0x1EE JUMP JUMPDEST SWAP1 POP SWAP2 SWAP1 POP JUMP JUMPDEST PUSH32 0x4E487B7100000000000000000000000000000000000000000000000000000000 PUSH1 0x0 MSTORE PUSH1 0x1 PUSH1 0x4 MSTORE PUSH1 0x24 PUSH1 0x0 REVERT JUMPDEST PUSH2 0x350 DUP1 PUSH2 0x26F PUSH1 0x0 CODECOPY PUSH1 0x0 RETURN INVALID PUSH1 0x80 PUSH1 0x40 MSTORE CALLVALUE DUP1 ISZERO PUSH2 0x10 JUMPI PUSH1 0x0 DUP1 REVERT JUMPDEST POP PUSH1 0x4 CALLDATASIZE LT PUSH2 0x36 JUMPI PUSH1 0x0 CALLDATALOAD PUSH1 0xE0 SHR DUP1 PUSH4 0x50628C96 EQ PUSH2 0x3B JUMPI DUP1 PUSH4 0x8DA5CB5B EQ PUSH2 0x6B JUMPI JUMPDEST PUSH1 0x0 DUP1 REVERT JUMPDEST PUSH2 0x55 PUSH1 0x4 DUP1 CALLDATASIZE SUB DUP2 ADD SWAP1 PUSH2 0x50 SWAP2 SWAP1 PUSH2 0x16A JUMP JUMPDEST PUSH2 0x89 JUMP JUMPDEST PUSH1 0x40 MLOAD PUSH2 0x62 SWAP2 SWAP1 PUSH2 0x230 JUMP JUMPDEST PUSH1 0x40 MLOAD DUP1 SWAP2 SUB SWAP1 RETURN JUMPDEST PUSH2 0x73 PUSH2 0x10B JUMP JUMPDEST PUSH1 0x40 MLOAD PUSH2 0x80 SWAP2 SWAP1 PUSH2 0x293 JUMP JUMPDEST PUSH1 0x40 MLOAD DUP1 SWAP2 SUB SWAP1 RETURN JUMPDEST PUSH1 0x60 PUSH1 0x0 DUP3 SUB PUSH2 0xCE JUMPI PUSH1 0x40 MLOAD PUSH32 0x8C379A000000000000000000000000000000000000000000000000000000000 DUP2 MSTORE PUSH1 0x4 ADD PUSH2 0xC5 SWAP1 PUSH2 0x2FA JUMP JUMPDEST PUSH1 0x40 MLOAD DUP1 SWAP2 SUB SWAP1 REVERT JUMPDEST PUSH1 0x40 MLOAD DUP1 PUSH1 0x40 ADD PUSH1 0x40 MSTORE DUP1 PUSH1 0x15 DUP2 MSTORE PUSH1 0x20 ADD PUSH32 0x6D7946756E6374696F6E207761732063616C6C65640000000000000000000000 DUP2 MSTORE POP SWAP1 POP SWAP2 SWAP1 POP JUMP JUMPDEST PUSH1 0x0 DUP1 SLOAD SWAP1 PUSH2 0x100 EXP SWAP1 DIV PUSH20 0xFFFFFFFFFFFFFFFFFFFFFFFFFFFFFFFFFFFFFFFF AND DUP2 JUMP JUMPDEST PUSH1 0x0 DUP1 REVERT JUMPDEST PUSH1 0x0 DUP2 SWAP1 POP SWAP2 SWAP1 POP JUMP JUMPDEST PUSH2 0x147 DUP2 PUSH2 0x134 JUMP JUMPDEST DUP2 EQ PUSH2 0x152 JUMPI PUSH1 0x0 DUP1 REVERT JUMPDEST POP JUMP JUMPDEST PUSH1 0x0 DUP2 CALLDATALOAD SWAP1 POP PUSH2 0x164 DUP2 PUSH2 0x13E JUMP JUMPDEST SWAP3 SWAP2 POP POP JUMP JUMPDEST PUSH1 0x0 PUSH1 0x20 DUP3 DUP5 SUB SLT ISZERO PUSH2 0x180 JUMPI PUSH2 0x17F PUSH2 0x12F JUMP JUMPDEST JUMPDEST PUSH1 0x0 PUSH2 0x18E DUP5 DUP3 DUP6 ADD PUSH2 0x155 JUMP JUMPDEST SWAP2 POP POP SWAP3 SWAP2 POP POP JUMP JUMPDEST PUSH1 0x0 DUP2 MLOAD SWAP1 POP SWAP2 SWAP1 POP JUMP JUMPDEST PUSH1 0x0 DUP3 DUP3 MSTORE PUSH1 0x20 DUP3 ADD SWAP1 POP SWAP3 SWAP2 POP POP JUMP JUMPDEST PUSH1 0x0 JUMPDEST DUP4 DUP2 LT ISZERO PUSH2 0x1D1 JUMPI DUP1 DUP3 ADD MLOAD DUP2 DUP5 ADD MSTORE PUSH1 0x20 DUP2 ADD SWAP1 POP PUSH2 0x1B6 JUMP JUMPDEST DUP4 DUP2 GT ISZERO PUSH2 0x1E0 JUMPI PUSH1 0x0 DUP5 DUP5 ADD MSTORE JUMPDEST POP POP POP POP JUMP JUMPDEST PUSH1 0x0 PUSH1 0x1F NOT PUSH1 0x1F DUP4 ADD AND SWAP1 POP SWAP2 SWAP1 POP JUMP JUMPDEST PUSH1 0x0 PUSH2 0x202 DUP3 PUSH2 0x197 JUMP JUMPDEST PUSH2 0x20C DUP2 DUP6 PUSH2 0x1A2 JUMP JUMPDEST SWAP4 POP PUSH2 0x21C DUP2 DUP6 PUSH1 0x20 DUP7 ADD PUSH2 0x1B3 JUMP JUMPDEST PUSH2 0x225 DUP2 PUSH2 0x1E6 JUMP JUMPDEST DUP5 ADD SWAP2 POP POP SWAP3 SWAP2 POP POP JUMP JUMPDEST PUSH1 0x0 PUSH1 0x20 DUP3 ADD SWAP1 POP DUP2 DUP2 SUB PUSH1 0x0 DUP4 ADD MSTORE PUSH2 0x24A DUP2 DUP5 PUSH2 0x1F7 JUMP JUMPDEST SWAP1 POP SWAP3 SWAP2 POP POP JUMP JUMPDEST PUSH1 0x0 PUSH20 0xFFFFFFFFFFFFFFFFFFFFFFFFFFFFFFFFFFFFFFFF DUP3 AND SWAP1 POP SWAP2 SWAP1 POP JUMP JUMPDEST PUSH1 0x0 PUSH2 0x27D DUP3 PUSH2 0x252 JUMP JUMPDEST SWAP1 POP SWAP2 SWAP1 POP JUMP JUMPDEST PUSH2 0x28D DUP2 PUSH2 0x272 JUMP JUMPDEST DUP3 MSTORE POP POP JUMP JUMPDEST PUSH1 0x0 PUSH1 0x20 DUP3 ADD SWAP1 POP PUSH2 0x2A8 PUSH1 0x0 DUP4 ADD DUP5 PUSH2 0x284 JUMP JUMPDEST SWAP3 SWAP2 POP POP JUMP JUMPDEST PUSH32 0x72657175697265206661696C6564000000000000000000000000000000000000 PUSH1 0x0 DUP3 ADD MSTORE POP JUMP JUMPDEST PUSH1 0x0 PUSH2 0x2E4 PUSH1 0xE DUP4 PUSH2 0x1A2 JUMP JUMPDEST SWAP2 POP PUSH2 0x2EF DUP3 PUSH2 0x2AE JUMP JUMPDEST PUSH1 0x20 DUP3 ADD SWAP1 POP SWAP2 SWAP1 POP JUMP JUMPDEST PUSH1 0x0 PUSH1 0x20 DUP3 ADD SWAP1 POP DUP2 DUP2 SUB PUSH1 0x0 DUP4 ADD MSTORE PUSH2 0x313 DUP2 PUSH2 0x2D7 JUMP JUMPDEST SWAP1 POP SWAP2 SWAP1 POP JUMP INVALID LOG2 PUSH5 0x6970667358 0x22 SLT KECCAK256 BLOCKHASH JUMPI JUMPI 0xE3 0x2D BLOCKHASH SDIV SWAP9 EXTCODECOPY 0xE9 0xD1 DUP3 0x2D PUSH19 0x61AFC763AC3B51CF9CF4A300CB0C8748306C64 PUSH20 0x6F6C634300080E00330000000000000000000000 "
				},
				"gasEstimates": {
					"creation": {
						"codeDepositCost": "292400",
						"executionCost": "infinite",
						"totalCost": "infinite"
					},
					"external": {
						"execute()": "infinite",
						"tryandCatchCall(uint256)": "infinite"
					}
				},
				"methodIdentifiers": {
					"execute()": "61461954",
					"tryandCatchCall(uint256)": "76f5449f"
				}
			},
			"storageLayout": {
				"storage": [
					{
						"astId": 58,
						"contract": "solidity by example/tryandcatch.sol:executor",
						"label": "execute",
						"offset": 0,
						"slot": "0",
						"type": "t_contract(tester)47"
					}
				],
				"types": {
					"t_contract(tester)47": {
						"encoding": "inplace",
						"label": "contract tester",
						"numberOfBytes": "20"
					}
				}
			},
			"userdoc": {
				"kind": "user",
				"methods": {},
				"version": 1
			}
		}
	}
}