{
	"data": {
		"bytecode": {
			"linkReferences": {},
			"object": "608060405234801561000f575f80fd5b503360405161001d90610084565b61002791906100d0565b604051809103905ff080158015610040573d5f803e3d5ffd5b505f806101000a81548173ffffffffffffffffffffffffffffffffffffffff021916908373ffffffffffffffffffffffffffffffffffffffff1602179055506100e9565b6105888061067583390190565b5f73ffffffffffffffffffffffffffffffffffffffff82169050919050565b5f6100ba82610091565b9050919050565b6100ca816100b0565b82525050565b5f6020820190506100e35f8301846100c1565b92915050565b61057f806100f65f395ff3fe608060405234801561000f575f80fd5b5060043610610034575f3560e01c8063614619541461003857806376f5449f14610056575b5f80fd5b610040610072565b60405161004d919061021c565b60405180910390f35b610070600480360381019061006b9190610279565b610095565b005b5f8054906101000a900473ffffffffffffffffffffffffffffffffffffffff1681565b5f8054906101000a900473ffffffffffffffffffffffffffffffffffffffff1673ffffffffffffffffffffffffffffffffffffffff166350628c96826040518263ffffffff1660e01b81526004016100ed91906102b3565b5f60405180830381865afa92505050801561012a57506040513d5f823e3d601f19601f820116820180604052508101906101279190610422565b60015b610168577f7c990052ff7017db6da0c658c0fe7be85f832d1995d7c93f87bf7fd4f8fa711d60405161015b906104c3565b60405180910390a161019f565b7f7c990052ff7017db6da0c658c0fe7be85f832d1995d7c93f87bf7fd4f8fa711d6040516101959061052b565b60405180910390a1505b50565b5f73ffffffffffffffffffffffffffffffffffffffff82169050919050565b5f819050919050565b5f6101e46101df6101da846101a2565b6101c1565b6101a2565b9050919050565b5f6101f5826101ca565b9050919050565b5f610206826101eb565b9050919050565b610216816101fc565b82525050565b5f60208201905061022f5f83018461020d565b92915050565b5f604051905090565b5f80fd5b5f80fd5b5f819050919050565b61025881610246565b8114610262575f80fd5b50565b5f813590506102738161024f565b92915050565b5f6020828403121561028e5761028d61023e565b5b5f61029b84828501610265565b91505092915050565b6102ad81610246565b82525050565b5f6020820190506102c65f8301846102a4565b92915050565b5f80fd5b5f80fd5b5f601f19601f8301169050919050565b7f4e487b71000000000000000000000000000000000000000000000000000000005f52604160045260245ffd5b61031a826102d4565b810181811067ffffffffffffffff82111715610339576103386102e4565b5b80604052505050565b5f61034b610235565b90506103578282610311565b919050565b5f67ffffffffffffffff821115610376576103756102e4565b5b61037f826102d4565b9050602081019050919050565b5f5b838110156103a957808201518184015260208101905061038e565b5f8484015250505050565b5f6103c66103c18461035c565b610342565b9050828152602081018484840111156103e2576103e16102d0565b5b6103ed84828561038c565b509392505050565b5f82601f830112610409576104086102cc565b5b81516104198482602086016103b4565b91505092915050565b5f602082840312156104375761043661023e565b5b5f82015167ffffffffffffffff81111561045457610453610242565b5b610460848285016103f5565b91505092915050565b5f82825260208201905092915050565b7f45787465726e616c2063616c6c204661696c65640000000000000000000000005f82015250565b5f6104ad601483610469565b91506104b882610479565b602082019050919050565b5f6020820190508181035f8301526104da816104a1565b9050919050565b7f63616c6c207375636365737366756c00000000000000000000000000000000005f82015250565b5f610515600f83610469565b9150610520826104e1565b602082019050919050565b5f6020820190508181035f83015261054281610509565b905091905056fea264697066735822122028da32805f7d15265f1de0b91a5fb500b853e0adbe254c2914697940078d2aad64736f6c63430008150033608060405234801561000f575f80fd5b506040516105883803806105888339818101604052810190610031919061017f565b5f73ffffffffffffffffffffffffffffffffffffffff168173ffffffffffffffffffffffffffffffffffffffff160361009f576040517f08c379a000000000000000000000000000000000000000000000000000000000815260040161009690610204565b60405180910390fd5b600173ffffffffffffffffffffffffffffffffffffffff168173ffffffffffffffffffffffffffffffffffffffff16036100dc576100db610222565b5b805f806101000a81548173ffffffffffffffffffffffffffffffffffffffff021916908373ffffffffffffffffffffffffffffffffffffffff1602179055505061024f565b5f80fd5b5f73ffffffffffffffffffffffffffffffffffffffff82169050919050565b5f61014e82610125565b9050919050565b61015e81610144565b8114610168575f80fd5b50565b5f8151905061017981610155565b92915050565b5f6020828403121561019457610193610121565b5b5f6101a18482850161016b565b91505092915050565b5f82825260208201905092915050565b7f696e76616c6964206164647265737300000000000000000000000000000000005f82015250565b5f6101ee600f836101aa565b91506101f9826101ba565b602082019050919050565b5f6020820190508181035f83015261021b816101e2565b9050919050565b7f4e487b71000000000000000000000000000000000000000000000000000000005f52600160045260245ffd5b61032c8061025c5f395ff3fe608060405234801561000f575f80fd5b5060043610610034575f3560e01c806350628c96146100385780638da5cb5b14610068575b5f80fd5b610052600480360381019061004d9190610161565b610086565b60405161005f9190610216565b60405180910390f35b610070610107565b60405161007d9190610275565b60405180910390f35b60605f82036100ca576040517f08c379a00000000000000000000000000000000000000000000000000000000081526004016100c1906102d8565b60405180910390fd5b6040518060400160405280601581526020017f6d7946756e6374696f6e207761732063616c6c656400000000000000000000008152509050919050565b5f8054906101000a900473ffffffffffffffffffffffffffffffffffffffff1681565b5f80fd5b5f819050919050565b6101408161012e565b811461014a575f80fd5b50565b5f8135905061015b81610137565b92915050565b5f602082840312156101765761017561012a565b5b5f6101838482850161014d565b91505092915050565b5f81519050919050565b5f82825260208201905092915050565b5f5b838110156101c35780820151818401526020810190506101a8565b5f8484015250505050565b5f601f19601f8301169050919050565b5f6101e88261018c565b6101f28185610196565b93506102028185602086016101a6565b61020b816101ce565b840191505092915050565b5f6020820190508181035f83015261022e81846101de565b905092915050565b5f73ffffffffffffffffffffffffffffffffffffffff82169050919050565b5f61025f82610236565b9050919050565b61026f81610255565b82525050565b5f6020820190506102885f830184610266565b92915050565b7f72657175697265206661696c65640000000000000000000000000000000000005f82015250565b5f6102c2600e83610196565b91506102cd8261028e565b602082019050919050565b5f6020820190508181035f8301526102ef816102b6565b905091905056fea264697066735822122061df6c890041ce6f8da06bf11be2c65018325a803b50b0838edfd95a866f33f064736f6c63430008150033",
			"opcodes": "PUSH1 0x80 PUSH1 0x40 MSTORE CALLVALUE DUP1 ISZERO PUSH2 0xF JUMPI PUSH0 DUP1 REVERT JUMPDEST POP CALLER PUSH1 0x40 MLOAD PUSH2 0x1D SWAP1 PUSH2 0x84 JUMP JUMPDEST PUSH2 0x27 SWAP2 SWAP1 PUSH2 0xD0 JUMP JUMPDEST PUSH1 0x40 MLOAD DUP1 SWAP2 SUB SWAP1 PUSH0 CREATE DUP1 ISZERO DUP1 ISZERO PUSH2 0x40 JUMPI RETURNDATASIZE PUSH0 DUP1 RETURNDATACOPY RETURNDATASIZE PUSH0 REVERT JUMPDEST POP PUSH0 DUP1 PUSH2 0x100 EXP DUP2 SLOAD DUP2 PUSH20 0xFFFFFFFFFFFFFFFFFFFFFFFFFFFFFFFFFFFFFFFF MUL NOT AND SWAP1 DUP4 PUSH20 0xFFFFFFFFFFFFFFFFFFFFFFFFFFFFFFFFFFFFFFFF AND MUL OR SWAP1 SSTORE POP PUSH2 0xE9 JUMP JUMPDEST PUSH2 0x588 DUP1 PUSH2 0x675 DUP4 CODECOPY ADD SWAP1 JUMP JUMPDEST PUSH0 PUSH20 0xFFFFFFFFFFFFFFFFFFFFFFFFFFFFFFFFFFFFFFFF DUP3 AND SWAP1 POP SWAP2 SWAP1 POP JUMP JUMPDEST PUSH0 PUSH2 0xBA DUP3 PUSH2 0x91 JUMP JUMPDEST SWAP1 POP SWAP2 SWAP1 POP JUMP JUMPDEST PUSH2 0xCA DUP2 PUSH2 0xB0 JUMP JUMPDEST DUP3 MSTORE POP POP JUMP JUMPDEST PUSH0 PUSH1 0x20 DUP3 ADD SWAP1 POP PUSH2 0xE3 PUSH0 DUP4 ADD DUP5 PUSH2 0xC1 JUMP JUMPDEST SWAP3 SWAP2 POP POP JUMP JUMPDEST PUSH2 0x57F DUP1 PUSH2 0xF6 PUSH0 CODECOPY PUSH0 RETURN INVALID PUSH1 0x80 PUSH1 0x40 MSTORE CALLVALUE DUP1 ISZERO PUSH2 0xF JUMPI PUSH0 DUP1 REVERT JUMPDEST POP PUSH1 0x4 CALLDATASIZE LT PUSH2 0x34 JUMPI PUSH0 CALLDATALOAD PUSH1 0xE0 SHR DUP1 PUSH4 0x61461954 EQ PUSH2 0x38 JUMPI DUP1 PUSH4 0x76F5449F EQ PUSH2 0x56 JUMPI JUMPDEST PUSH0 DUP1 REVERT JUMPDEST PUSH2 0x40 PUSH2 0x72 JUMP JUMPDEST PUSH1 0x40 MLOAD PUSH2 0x4D SWAP2 SWAP1 PUSH2 0x21C JUMP JUMPDEST PUSH1 0x40 MLOAD DUP1 SWAP2 SUB SWAP1 RETURN JUMPDEST PUSH2 0x70 PUSH1 0x4 DUP1 CALLDATASIZE SUB DUP2 ADD SWAP1 PUSH2 0x6B SWAP2 SWAP1 PUSH2 0x279 JUMP JUMPDEST PUSH2 0x95 JUMP JUMPDEST STOP JUMPDEST PUSH0 DUP1 SLOAD SWAP1 PUSH2 0x100 EXP SWAP1 DIV PUSH20 0xFFFFFFFFFFFFFFFFFFFFFFFFFFFFFFFFFFFFFFFF AND DUP2 JUMP JUMPDEST PUSH0 DUP1 SLOAD SWAP1 PUSH2 0x100 EXP SWAP1 DIV PUSH20 0xFFFFFFFFFFFFFFFFFFFFFFFFFFFFFFFFFFFFFFFF AND PUSH20 0xFFFFFFFFFFFFFFFFFFFFFFFFFFFFFFFFFFFFFFFF AND PUSH4 0x50628C96 DUP3 PUSH1 0x40 MLOAD DUP3 PUSH4 0xFFFFFFFF AND PUSH1 0xE0 SHL DUP2 MSTORE PUSH1 0x4 ADD PUSH2 0xED SWAP2 SWAP1 PUSH2 0x2B3 JUMP JUMPDEST PUSH0 PUSH1 0x40 MLOAD DUP1 DUP4 SUB DUP2 DUP7 GAS STATICCALL SWAP3 POP POP POP DUP1 ISZERO PUSH2 0x12A JUMPI POP PUSH1 0x40 MLOAD RETURNDATASIZE PUSH0 DUP3 RETURNDATACOPY RETURNDATASIZE PUSH1 0x1F NOT PUSH1 0x1F DUP3 ADD AND DUP3 ADD DUP1 PUSH1 0x40 MSTORE POP DUP2 ADD SWAP1 PUSH2 0x127 SWAP2 SWAP1 PUSH2 0x422 JUMP JUMPDEST PUSH1 0x1 JUMPDEST PUSH2 0x168 JUMPI PUSH32 0x7C990052FF7017DB6DA0C658C0FE7BE85F832D1995D7C93F87BF7FD4F8FA711D PUSH1 0x40 MLOAD PUSH2 0x15B SWAP1 PUSH2 0x4C3 JUMP JUMPDEST PUSH1 0x40 MLOAD DUP1 SWAP2 SUB SWAP1 LOG1 PUSH2 0x19F JUMP JUMPDEST PUSH32 0x7C990052FF7017DB6DA0C658C0FE7BE85F832D1995D7C93F87BF7FD4F8FA711D PUSH1 0x40 MLOAD PUSH2 0x195 SWAP1 PUSH2 0x52B JUMP JUMPDEST PUSH1 0x40 MLOAD DUP1 SWAP2 SUB SWAP1 LOG1 POP JUMPDEST POP JUMP JUMPDEST PUSH0 PUSH20 0xFFFFFFFFFFFFFFFFFFFFFFFFFFFFFFFFFFFFFFFF DUP3 AND SWAP1 POP SWAP2 SWAP1 POP JUMP JUMPDEST PUSH0 DUP2 SWAP1 POP SWAP2 SWAP1 POP JUMP JUMPDEST PUSH0 PUSH2 0x1E4 PUSH2 0x1DF PUSH2 0x1DA DUP5 PUSH2 0x1A2 JUMP JUMPDEST PUSH2 0x1C1 JUMP JUMPDEST PUSH2 0x1A2 JUMP JUMPDEST SWAP1 POP SWAP2 SWAP1 POP JUMP JUMPDEST PUSH0 PUSH2 0x1F5 DUP3 PUSH2 0x1CA JUMP JUMPDEST SWAP1 POP SWAP2 SWAP1 POP JUMP JUMPDEST PUSH0 PUSH2 0x206 DUP3 PUSH2 0x1EB JUMP JUMPDEST SWAP1 POP SWAP2 SWAP1 POP JUMP JUMPDEST PUSH2 0x216 DUP2 PUSH2 0x1FC JUMP JUMPDEST DUP3 MSTORE POP POP JUMP JUMPDEST PUSH0 PUSH1 0x20 DUP3 ADD SWAP1 POP PUSH2 0x22F PUSH0 DUP4 ADD DUP5 PUSH2 0x20D JUMP JUMPDEST SWAP3 SWAP2 POP POP JUMP JUMPDEST PUSH0 PUSH1 0x40 MLOAD SWAP1 POP SWAP1 JUMP JUMPDEST PUSH0 DUP1 REVERT JUMPDEST PUSH0 DUP1 REVERT JUMPDEST PUSH0 DUP2 SWAP1 POP SWAP2 SWAP1 POP JUMP JUMPDEST PUSH2 0x258 DUP2 PUSH2 0x246 JUMP JUMPDEST DUP2 EQ PUSH2 0x262 JUMPI PUSH0 DUP1 REVERT JUMPDEST POP JUMP JUMPDEST PUSH0 DUP2 CALLDATALOAD SWAP1 POP PUSH2 0x273 DUP2 PUSH2 0x24F JUMP JUMPDEST SWAP3 SWAP2 POP POP JUMP JUMPDEST PUSH0 PUSH1 0x20 DUP3 DUP5 SUB SLT ISZERO PUSH2 0x28E JUMPI PUSH2 0x28D PUSH2 0x23E JUMP JUMPDEST JUMPDEST PUSH0 PUSH2 0x29B DUP5 DUP3 DUP6 ADD PUSH2 0x265 JUMP JUMPDEST SWAP2 POP POP SWAP3 SWAP2 POP POP JUMP JUMPDEST PUSH2 0x2AD DUP2 PUSH2 0x246 JUMP JUMPDEST DUP3 MSTORE POP POP JUMP JUMPDEST PUSH0 PUSH1 0x20 DUP3 ADD SWAP1 POP PUSH2 0x2C6 PUSH0 DUP4 ADD DUP5 PUSH2 0x2A4 JUMP JUMPDEST SWAP3 SWAP2 POP POP JUMP JUMPDEST PUSH0 DUP1 REVERT JUMPDEST PUSH0 DUP1 REVERT JUMPDEST PUSH0 PUSH1 0x1F NOT PUSH1 0x1F DUP4 ADD AND SWAP1 POP SWAP2 SWAP1 POP JUMP JUMPDEST PUSH32 0x4E487B7100000000000000000000000000000000000000000000000000000000 PUSH0 MSTORE PUSH1 0x41 PUSH1 0x4 MSTORE PUSH1 0x24 PUSH0 REVERT JUMPDEST PUSH2 0x31A DUP3 PUSH2 0x2D4 JUMP JUMPDEST DUP2 ADD DUP2 DUP2 LT PUSH8 0xFFFFFFFFFFFFFFFF DUP3 GT OR ISZERO PUSH2 0x339 JUMPI PUSH2 0x338 PUSH2 0x2E4 JUMP JUMPDEST JUMPDEST DUP1 PUSH1 0x40 MSTORE POP POP POP JUMP JUMPDEST PUSH0 PUSH2 0x34B PUSH2 0x235 JUMP JUMPDEST SWAP1 POP PUSH2 0x357 DUP3 DUP3 PUSH2 0x311 JUMP JUMPDEST SWAP2 SWAP1 POP JUMP JUMPDEST PUSH0 PUSH8 0xFFFFFFFFFFFFFFFF DUP3 GT ISZERO PUSH2 0x376 JUMPI PUSH2 0x375 PUSH2 0x2E4 JUMP JUMPDEST JUMPDEST PUSH2 0x37F DUP3 PUSH2 0x2D4 JUMP JUMPDEST SWAP1 POP PUSH1 0x20 DUP2 ADD SWAP1 POP SWAP2 SWAP1 POP JUMP JUMPDEST PUSH0 JUMPDEST DUP4 DUP2 LT ISZERO PUSH2 0x3A9 JUMPI DUP1 DUP3 ADD MLOAD DUP2 DUP5 ADD MSTORE PUSH1 0x20 DUP2 ADD SWAP1 POP PUSH2 0x38E JUMP JUMPDEST PUSH0 DUP5 DUP5 ADD MSTORE POP POP POP POP JUMP JUMPDEST PUSH0 PUSH2 0x3C6 PUSH2 0x3C1 DUP5 PUSH2 0x35C JUMP JUMPDEST PUSH2 0x342 JUMP JUMPDEST SWAP1 POP DUP3 DUP2 MSTORE PUSH1 0x20 DUP2 ADD DUP5 DUP5 DUP5 ADD GT ISZERO PUSH2 0x3E2 JUMPI PUSH2 0x3E1 PUSH2 0x2D0 JUMP JUMPDEST JUMPDEST PUSH2 0x3ED DUP5 DUP3 DUP6 PUSH2 0x38C JUMP JUMPDEST POP SWAP4 SWAP3 POP POP POP JUMP JUMPDEST PUSH0 DUP3 PUSH1 0x1F DUP4 ADD SLT PUSH2 0x409 JUMPI PUSH2 0x408 PUSH2 0x2CC JUMP JUMPDEST JUMPDEST DUP2 MLOAD PUSH2 0x419 DUP5 DUP3 PUSH1 0x20 DUP7 ADD PUSH2 0x3B4 JUMP JUMPDEST SWAP2 POP POP SWAP3 SWAP2 POP POP JUMP JUMPDEST PUSH0 PUSH1 0x20 DUP3 DUP5 SUB SLT ISZERO PUSH2 0x437 JUMPI PUSH2 0x436 PUSH2 0x23E JUMP JUMPDEST JUMPDEST PUSH0 DUP3 ADD MLOAD PUSH8 0xFFFFFFFFFFFFFFFF DUP2 GT ISZERO PUSH2 0x454 JUMPI PUSH2 0x453 PUSH2 0x242 JUMP JUMPDEST JUMPDEST PUSH2 0x460 DUP5 DUP3 DUP6 ADD PUSH2 0x3F5 JUMP JUMPDEST SWAP2 POP POP SWAP3 SWAP2 POP POP JUMP JUMPDEST PUSH0 DUP3 DUP3 MSTORE PUSH1 0x20 DUP3 ADD SWAP1 POP SWAP3 SWAP2 POP POP JUMP JUMPDEST PUSH32 0x45787465726E616C2063616C6C204661696C6564000000000000000000000000 PUSH0 DUP3 ADD MSTORE POP JUMP JUMPDEST PUSH0 PUSH2 0x4AD PUSH1 0x14 DUP4 PUSH2 0x469 JUMP JUMPDEST SWAP2 POP PUSH2 0x4B8 DUP3 PUSH2 0x479 JUMP JUMPDEST PUSH1 0x20 DUP3 ADD SWAP1 POP SWAP2 SWAP1 POP JUMP JUMPDEST PUSH0 PUSH1 0x20 DUP3 ADD SWAP1 POP DUP2 DUP2 SUB PUSH0 DUP4 ADD MSTORE PUSH2 0x4DA DUP2 PUSH2 0x4A1 JUMP JUMPDEST SWAP1 POP SWAP2 SWAP1 POP JUMP JUMPDEST PUSH32 0x63616C6C207375636365737366756C0000000000000000000000000000000000 PUSH0 DUP3 ADD MSTORE POP JUMP JUMPDEST PUSH0 PUSH2 0x515 PUSH1 0xF DUP4 PUSH2 0x469 JUMP JUMPDEST SWAP2 POP PUSH2 0x520 DUP3 PUSH2 0x4E1 JUMP JUMPDEST PUSH1 0x20 DUP3 ADD SWAP1 POP SWAP2 SWAP1 POP JUMP JUMPDEST PUSH0 PUSH1 0x20 DUP3 ADD SWAP1 POP DUP2 DUP2 SUB PUSH0 DUP4 ADD MSTORE PUSH2 0x542 DUP2 PUSH2 0x509 JUMP JUMPDEST SWAP1 POP SWAP2 SWAP1 POP JUMP INVALID LOG2 PUSH5 0x6970667358 0x22 SLT KECCAK256 0x28 0xDA ORIGIN DUP1 PUSH0 PUSH30 0x15265F1DE0B91A5FB500B853E0ADBE254C2914697940078D2AAD64736F6C PUSH4 0x43000815 STOP CALLER PUSH1 0x80 PUSH1 0x40 MSTORE CALLVALUE DUP1 ISZERO PUSH2 0xF JUMPI PUSH0 DUP1 REVERT JUMPDEST POP PUSH1 0x40 MLOAD PUSH2 0x588 CODESIZE SUB DUP1 PUSH2 0x588 DUP4 CODECOPY DUP2 DUP2 ADD PUSH1 0x40 MSTORE DUP2 ADD SWAP1 PUSH2 0x31 SWAP2 SWAP1 PUSH2 0x17F JUMP JUMPDEST PUSH0 PUSH20 0xFFFFFFFFFFFFFFFFFFFFFFFFFFFFFFFFFFFFFFFF AND DUP2 PUSH20 0xFFFFFFFFFFFFFFFFFFFFFFFFFFFFFFFFFFFFFFFF AND SUB PUSH2 0x9F JUMPI PUSH1 0x40 MLOAD PUSH32 0x8C379A000000000000000000000000000000000000000000000000000000000 DUP2 MSTORE PUSH1 0x4 ADD PUSH2 0x96 SWAP1 PUSH2 0x204 JUMP JUMPDEST PUSH1 0x40 MLOAD DUP1 SWAP2 SUB SWAP1 REVERT JUMPDEST PUSH1 0x1 PUSH20 0xFFFFFFFFFFFFFFFFFFFFFFFFFFFFFFFFFFFFFFFF AND DUP2 PUSH20 0xFFFFFFFFFFFFFFFFFFFFFFFFFFFFFFFFFFFFFFFF AND SUB PUSH2 0xDC JUMPI PUSH2 0xDB PUSH2 0x222 JUMP JUMPDEST JUMPDEST DUP1 PUSH0 DUP1 PUSH2 0x100 EXP DUP2 SLOAD DUP2 PUSH20 0xFFFFFFFFFFFFFFFFFFFFFFFFFFFFFFFFFFFFFFFF MUL NOT AND SWAP1 DUP4 PUSH20 0xFFFFFFFFFFFFFFFFFFFFFFFFFFFFFFFFFFFFFFFF AND MUL OR SWAP1 SSTORE POP POP PUSH2 0x24F JUMP JUMPDEST PUSH0 DUP1 REVERT JUMPDEST PUSH0 PUSH20 0xFFFFFFFFFFFFFFFFFFFFFFFFFFFFFFFFFFFFFFFF DUP3 AND SWAP1 POP SWAP2 SWAP1 POP JUMP JUMPDEST PUSH0 PUSH2 0x14E DUP3 PUSH2 0x125 JUMP JUMPDEST SWAP1 POP SWAP2 SWAP1 POP JUMP JUMPDEST PUSH2 0x15E DUP2 PUSH2 0x144 JUMP JUMPDEST DUP2 EQ PUSH2 0x168 JUMPI PUSH0 DUP1 REVERT JUMPDEST POP JUMP JUMPDEST PUSH0 DUP2 MLOAD SWAP1 POP PUSH2 0x179 DUP2 PUSH2 0x155 JUMP JUMPDEST SWAP3 SWAP2 POP POP JUMP JUMPDEST PUSH0 PUSH1 0x20 DUP3 DUP5 SUB SLT ISZERO PUSH2 0x194 JUMPI PUSH2 0x193 PUSH2 0x121 JUMP JUMPDEST JUMPDEST PUSH0 PUSH2 0x1A1 DUP5 DUP3 DUP6 ADD PUSH2 0x16B JUMP JUMPDEST SWAP2 POP POP SWAP3 SWAP2 POP POP JUMP JUMPDEST PUSH0 DUP3 DUP3 MSTORE PUSH1 0x20 DUP3 ADD SWAP1 POP SWAP3 SWAP2 POP POP JUMP JUMPDEST PUSH32 0x696E76616C696420616464726573730000000000000000000000000000000000 PUSH0 DUP3 ADD MSTORE POP JUMP JUMPDEST PUSH0 PUSH2 0x1EE PUSH1 0xF DUP4 PUSH2 0x1AA JUMP JUMPDEST SWAP2 POP PUSH2 0x1F9 DUP3 PUSH2 0x1BA JUMP JUMPDEST PUSH1 0x20 DUP3 ADD SWAP1 POP SWAP2 SWAP1 POP JUMP JUMPDEST PUSH0 PUSH1 0x20 DUP3 ADD SWAP1 POP DUP2 DUP2 SUB PUSH0 DUP4 ADD MSTORE PUSH2 0x21B DUP2 PUSH2 0x1E2 JUMP JUMPDEST SWAP1 POP SWAP2 SWAP1 POP JUMP JUMPDEST PUSH32 0x4E487B7100000000000000000000000000000000000000000000000000000000 PUSH0 MSTORE PUSH1 0x1 PUSH1 0x4 MSTORE PUSH1 0x24 PUSH0 REVERT JUMPDEST PUSH2 0x32C DUP1 PUSH2 0x25C PUSH0 CODECOPY PUSH0 RETURN INVALID PUSH1 0x80 PUSH1 0x40 MSTORE CALLVALUE DUP1 ISZERO PUSH2 0xF JUMPI PUSH0 DUP1 REVERT JUMPDEST POP PUSH1 0x4 CALLDATASIZE LT PUSH2 0x34 JUMPI PUSH0 CALLDATALOAD PUSH1 0xE0 SHR DUP1 PUSH4 0x50628C96 EQ PUSH2 0x38 JUMPI DUP1 PUSH4 0x8DA5CB5B EQ PUSH2 0x68 JUMPI JUMPDEST PUSH0 DUP1 REVERT JUMPDEST PUSH2 0x52 PUSH1 0x4 DUP1 CALLDATASIZE SUB DUP2 ADD SWAP1 PUSH2 0x4D SWAP2 SWAP1 PUSH2 0x161 JUMP JUMPDEST PUSH2 0x86 JUMP JUMPDEST PUSH1 0x40 MLOAD PUSH2 0x5F SWAP2 SWAP1 PUSH2 0x216 JUMP JUMPDEST PUSH1 0x40 MLOAD DUP1 SWAP2 SUB SWAP1 RETURN JUMPDEST PUSH2 0x70 PUSH2 0x107 JUMP JUMPDEST PUSH1 0x40 MLOAD PUSH2 0x7D SWAP2 SWAP1 PUSH2 0x275 JUMP JUMPDEST PUSH1 0x40 MLOAD DUP1 SWAP2 SUB SWAP1 RETURN JUMPDEST PUSH1 0x60 PUSH0 DUP3 SUB PUSH2 0xCA JUMPI PUSH1 0x40 MLOAD PUSH32 0x8C379A000000000000000000000000000000000000000000000000000000000 DUP2 MSTORE PUSH1 0x4 ADD PUSH2 0xC1 SWAP1 PUSH2 0x2D8 JUMP JUMPDEST PUSH1 0x40 MLOAD DUP1 SWAP2 SUB SWAP1 REVERT JUMPDEST PUSH1 0x40 MLOAD DUP1 PUSH1 0x40 ADD PUSH1 0x40 MSTORE DUP1 PUSH1 0x15 DUP2 MSTORE PUSH1 0x20 ADD PUSH32 0x6D7946756E6374696F6E207761732063616C6C65640000000000000000000000 DUP2 MSTORE POP SWAP1 POP SWAP2 SWAP1 POP JUMP JUMPDEST PUSH0 DUP1 SLOAD SWAP1 PUSH2 0x100 EXP SWAP1 DIV PUSH20 0xFFFFFFFFFFFFFFFFFFFFFFFFFFFFFFFFFFFFFFFF AND DUP2 JUMP JUMPDEST PUSH0 DUP1 REVERT JUMPDEST PUSH0 DUP2 SWAP1 POP SWAP2 SWAP1 POP JUMP JUMPDEST PUSH2 0x140 DUP2 PUSH2 0x12E JUMP JUMPDEST DUP2 EQ PUSH2 0x14A JUMPI PUSH0 DUP1 REVERT JUMPDEST POP JUMP JUMPDEST PUSH0 DUP2 CALLDATALOAD SWAP1 POP PUSH2 0x15B DUP2 PUSH2 0x137 JUMP JUMPDEST SWAP3 SWAP2 POP POP JUMP JUMPDEST PUSH0 PUSH1 0x20 DUP3 DUP5 SUB SLT ISZERO PUSH2 0x176 JUMPI PUSH2 0x175 PUSH2 0x12A JUMP JUMPDEST JUMPDEST PUSH0 PUSH2 0x183 DUP5 DUP3 DUP6 ADD PUSH2 0x14D JUMP JUMPDEST SWAP2 POP POP SWAP3 SWAP2 POP POP JUMP JUMPDEST PUSH0 DUP2 MLOAD SWAP1 POP SWAP2 SWAP1 POP JUMP JUMPDEST PUSH0 DUP3 DUP3 MSTORE PUSH1 0x20 DUP3 ADD SWAP1 POP SWAP3 SWAP2 POP POP JUMP JUMPDEST PUSH0 JUMPDEST DUP4 DUP2 LT ISZERO PUSH2 0x1C3 JUMPI DUP1 DUP3 ADD MLOAD DUP2 DUP5 ADD MSTORE PUSH1 0x20 DUP2 ADD SWAP1 POP PUSH2 0x1A8 JUMP JUMPDEST PUSH0 DUP5 DUP5 ADD MSTORE POP POP POP POP JUMP JUMPDEST PUSH0 PUSH1 0x1F NOT PUSH1 0x1F DUP4 ADD AND SWAP1 POP SWAP2 SWAP1 POP JUMP JUMPDEST PUSH0 PUSH2 0x1E8 DUP3 PUSH2 0x18C JUMP JUMPDEST PUSH2 0x1F2 DUP2 DUP6 PUSH2 0x196 JUMP JUMPDEST SWAP4 POP PUSH2 0x202 DUP2 DUP6 PUSH1 0x20 DUP7 ADD PUSH2 0x1A6 JUMP JUMPDEST PUSH2 0x20B DUP2 PUSH2 0x1CE JUMP JUMPDEST DUP5 ADD SWAP2 POP POP SWAP3 SWAP2 POP POP JUMP JUMPDEST PUSH0 PUSH1 0x20 DUP3 ADD SWAP1 POP DUP2 DUP2 SUB PUSH0 DUP4 ADD MSTORE PUSH2 0x22E DUP2 DUP5 PUSH2 0x1DE JUMP JUMPDEST SWAP1 POP SWAP3 SWAP2 POP POP JUMP JUMPDEST PUSH0 PUSH20 0xFFFFFFFFFFFFFFFFFFFFFFFFFFFFFFFFFFFFFFFF DUP3 AND SWAP1 POP SWAP2 SWAP1 POP JUMP JUMPDEST PUSH0 PUSH2 0x25F DUP3 PUSH2 0x236 JUMP JUMPDEST SWAP1 POP SWAP2 SWAP1 POP JUMP JUMPDEST PUSH2 0x26F DUP2 PUSH2 0x255 JUMP JUMPDEST DUP3 MSTORE POP POP JUMP JUMPDEST PUSH0 PUSH1 0x20 DUP3 ADD SWAP1 POP PUSH2 0x288 PUSH0 DUP4 ADD DUP5 PUSH2 0x266 JUMP JUMPDEST SWAP3 SWAP2 POP POP JUMP JUMPDEST PUSH32 0x72657175697265206661696C6564000000000000000000000000000000000000 PUSH0 DUP3 ADD MSTORE POP JUMP JUMPDEST PUSH0 PUSH2 0x2C2 PUSH1 0xE DUP4 PUSH2 0x196 JUMP JUMPDEST SWAP2 POP PUSH2 0x2CD DUP3 PUSH2 0x28E JUMP JUMPDEST PUSH1 0x20 DUP3 ADD SWAP1 POP SWAP2 SWAP1 POP JUMP JUMPDEST PUSH0 PUSH1 0x20 DUP3 ADD SWAP1 POP DUP2 DUP2 SUB PUSH0 DUP4 ADD MSTORE PUSH2 0x2EF DUP2 PUSH2 0x2B6 JUMP JUMPDEST SWAP1 POP SWAP2 SWAP1 POP JUMP INVALID LOG2 PUSH5 0x6970667358 0x22 SLT KECCAK256 PUSH2 0xDF6C DUP10 STOP COINBASE 0xCE PUSH16 0x8DA06BF11BE2C65018325A803B50B083 DUP15 0xDF 0xD9 GAS DUP7 PUSH16 0x33F064736F6C63430008150033000000 "
		},
		"gasEstimates": {
			"creation": {
				"codeDepositCost": "281400",
				"executionCost": "infinite",
				"totalCost": "infinite"
			},
			"external": {
				"execute()": "infinite",
				"tryandCatchCall(uint256)": "infinite"
			}
		},
		"methodIdentifiers": {
			"execute()": "61461954",
			"tryandCatchCall(uint256)": "76f5449f"
		}
	},
	"abi": [
		{
			"inputs": [],
			"stateMutability": "nonpayable",
			"type": "constructor"
		},
		{
			"anonymous": false,
			"inputs": [
				{
					"indexed": false,
					"internalType": "bytes",
					"name": "data",
					"type": "bytes"
				}
			],
			"name": "logBytes",
			"type": "event"
		},
		{
			"anonymous": false,
			"inputs": [
				{
					"indexed": false,
					"internalType": "string",
					"name": "message",
					"type": "string"
				}
			],
			"name": "logMessage",
			"type": "event"
		},
		{
			"inputs": [],
			"name": "execute",
			"outputs": [
				{
					"internalType": "contract tester",
					"name": "",
					"type": "address"
				}
			],
			"stateMutability": "view",
			"type": "function"
		},
		{
			"inputs": [
				{
					"internalType": "uint256",
					"name": "_input",
					"type": "uint256"
				}
			],
			"name": "tryandCatchCall",
			"outputs": [],
			"stateMutability": "nonpayable",
			"type": "function"
		}
	]
}